{
  "contractName": "Escrow",
  "abi": [
    {
      "constant": true,
      "inputs": [
        {
          "name": "",
          "type": "uint256"
        }
      ],
      "name": "currentTransactionList",
      "outputs": [
        {
          "name": "",
          "type": "uint256"
        }
      ],
      "payable": false,
      "stateMutability": "view",
      "type": "function"
    },
    {
      "constant": true,
      "inputs": [
        {
          "name": "",
          "type": "uint256"
        }
      ],
      "name": "payments",
      "outputs": [
        {
          "name": "reciever",
          "type": "address"
        },
        {
          "name": "initiator",
          "type": "address"
        },
        {
          "name": "value",
          "type": "uint256"
        },
        {
          "name": "status",
          "type": "uint8"
        }
      ],
      "payable": false,
      "stateMutability": "view",
      "type": "function"
    },
    {
      "inputs": [
        {
          "name": "_t",
          "type": "address"
        }
      ],
      "payable": false,
      "stateMutability": "nonpayable",
      "type": "constructor"
    },
    {
      "anonymous": false,
      "inputs": [
        {
          "indexed": false,
          "name": "orderId",
          "type": "uint256"
        },
        {
          "indexed": true,
          "name": "reciever",
          "type": "address"
        },
        {
          "indexed": true,
          "name": "initiator",
          "type": "address"
        },
        {
          "indexed": false,
          "name": "value",
          "type": "uint256"
        }
      ],
      "name": "PaymentCreation",
      "type": "event"
    },
    {
      "anonymous": false,
      "inputs": [
        {
          "indexed": false,
          "name": "orderId",
          "type": "uint256"
        },
        {
          "indexed": true,
          "name": "reciever",
          "type": "address"
        },
        {
          "indexed": true,
          "name": "initiator",
          "type": "address"
        },
        {
          "indexed": false,
          "name": "value",
          "type": "uint256"
        },
        {
          "indexed": false,
          "name": "status",
          "type": "uint8"
        }
      ],
      "name": "PaymentCompletion",
      "type": "event"
    },
    {
      "constant": false,
      "inputs": [
        {
          "name": "_t",
          "type": "address"
        }
      ],
      "name": "setSatReference",
      "outputs": [],
      "payable": false,
      "stateMutability": "nonpayable",
      "type": "function"
    },
    {
      "constant": false,
      "inputs": [
        {
          "name": "reciever",
          "type": "address"
        },
        {
          "name": "initiator",
          "type": "address"
        },
        {
          "name": "value",
          "type": "uint256"
        }
      ],
      "name": "createPayment",
      "outputs": [
        {
          "name": "",
          "type": "bool"
        }
      ],
      "payable": false,
      "stateMutability": "nonpayable",
      "type": "function"
    },
    {
      "constant": true,
      "inputs": [],
      "name": "currentListAmount",
      "outputs": [
        {
          "name": "",
          "type": "uint256"
        }
      ],
      "payable": false,
      "stateMutability": "view",
      "type": "function"
    }
  ],
  "bytecode": "0x6080604052600060055534801561001557600080fd5b50604051602080610bb08339810180604052602081101561003557600080fd5b8101908080519060200190929190505050606460018190555033600260006101000a81548173ffffffffffffffffffffffffffffffffffffffff021916908373ffffffffffffffffffffffffffffffffffffffff160217905550600060038190555050610b09806100a76000396000f3fe60806040526004361061006d576000357c0100000000000000000000000000000000000000000000000000000000900463ffffffff16806334820cfe1461007257806355f705631461009d578063794d0ed8146100ee578063830e0dec1461018157806387d81789146101d0575b600080fd5b34801561007e57600080fd5b5061008761029a565b6040518082815260200191505060405180910390f35b3480156100a957600080fd5b506100ec600480360360208110156100c057600080fd5b81019080803573ffffffffffffffffffffffffffffffffffffffff169060200190929190505050610356565b005b3480156100fa57600080fd5b506101676004803603606081101561011157600080fd5b81019080803573ffffffffffffffffffffffffffffffffffffffff169060200190929190803573ffffffffffffffffffffffffffffffffffffffff169060200190929190803590602001909291905050506104a8565b604051808215151515815260200191505060405180910390f35b34801561018d57600080fd5b506101ba600480360360208110156101a457600080fd5b810190808035906020019092919050505061069f565b6040518082815260200191505060405180910390f35b3480156101dc57600080fd5b50610209600480360360208110156101f357600080fd5b81019080803590602001909291905050506106c2565b604051808573ffffffffffffffffffffffffffffffffffffffff1673ffffffffffffffffffffffffffffffffffffffff1681526020018473ffffffffffffffffffffffffffffffffffffffff1673ffffffffffffffffffffffffffffffffffffffff16815260200183815260200182600181111561028357fe5b60ff16815260200194505050505060405180910390f35b6000806007805490509050600080905060008090505b8281101561034d5760006007828154811015156102c957fe5b90600052602060002001549050600060018111156102e357fe5b60018111156102ee57fe5b6006600083815260200190815260200160002060030160009054906101000a900460ff16600181111561031d57fe5b141561033f576006600082815260200190815260200160002060020154830192505b5080806001019150506102b0565b50809250505090565b600260009054906101000a900473ffffffffffffffffffffffffffffffffffffffff1673ffffffffffffffffffffffffffffffffffffffff163373ffffffffffffffffffffffffffffffffffffffff161415156103b257600080fd5b600560008154809291906001019190505550600160055411151515610465576040517f08c379a000000000000000000000000000000000000000000000000000000000815260040180806020018281038252602b8152602001807f636f6e747261637420616464726573732063616e6e6f74206265206368616e6781526020017f6564206f6e63652073657400000000000000000000000000000000000000000081525060400191505060405180910390fd5b806000806101000a81548173ffffffffffffffffffffffffffffffffffffffff021916908373ffffffffffffffffffffffffffffffffffffffff16021790555050565b60006080604051908101604052808573ffffffffffffffffffffffffffffffffffffffff1681526020018473ffffffffffffffffffffffffffffffffffffffff1681526020018381526020016000600181111561050157fe5b81525060066000600354815260200190815260200160002060008201518160000160006101000a81548173ffffffffffffffffffffffffffffffffffffffff021916908373ffffffffffffffffffffffffffffffffffffffff16021790555060208201518160010160006101000a81548173ffffffffffffffffffffffffffffffffffffffff021916908373ffffffffffffffffffffffffffffffffffffffff1602179055506040820151816002015560608201518160030160006101000a81548160ff021916908360018111156105d557fe5b02179055509050508273ffffffffffffffffffffffffffffffffffffffff168473ffffffffffffffffffffffffffffffffffffffff167f9098f3aa6bdd3ec909d4cf0691ac9ffe506594e7af5eec59bf2dc3bea691904560035485604051808381526020018281526020019250505060405180910390a36007600354908060018154018082558091505090600182039060005260206000200160009091929091909150555060036000815480929190600101919050555061069461073f565b600190509392505050565b6007818154811015156106ae57fe5b906000526020600020016000915090505481565b60066020528060005260406000206000915090508060000160009054906101000a900473ffffffffffffffffffffffffffffffffffffffff16908060010160009054906101000a900473ffffffffffffffffffffffffffffffffffffffff16908060020154908060030160009054906101000a900460ff16905084565b61074761029a565b60015411151561075a5761075961075c565b5b565b60006007805490509050600080600080600090505b84811015610a8257600060078281548110151561078a57fe5b90600052602060002001549050600060018111156107a457fe5b60018111156107af57fe5b6006600083815260200190815260200160002060030160009054906101000a900460ff1660018111156107de57fe5b1415610a74576006600082815260200190815260200160002060000160009054906101000a900473ffffffffffffffffffffffffffffffffffffffff169450600660008281526020019081526020016000206002015493506006600082815260200190815260200160002060010160009054906101000a900473ffffffffffffffffffffffffffffffffffffffff16925060018081111561087b57fe5b6006600083815260200190815260200160002060030160006101000a81548160ff021916908360018111156108ac57fe5b02179055506000809054906101000a900473ffffffffffffffffffffffffffffffffffffffff1673ffffffffffffffffffffffffffffffffffffffff1663ed8c463f8685876040518463ffffffff167c0100000000000000000000000000000000000000000000000000000000028152600401808473ffffffffffffffffffffffffffffffffffffffff1673ffffffffffffffffffffffffffffffffffffffff1681526020018373ffffffffffffffffffffffffffffffffffffffff1673ffffffffffffffffffffffffffffffffffffffff1681526020018281526020019350505050602060405180830381600087803b1580156109a957600080fd5b505af11580156109bd573d6000803e3d6000fd5b505050506040513d60208110156109d357600080fd5b8101908080519060200190929190505050508273ffffffffffffffffffffffffffffffffffffffff168573ffffffffffffffffffffffffffffffffffffffff167feeb3d73e98eda8ed2fbd6111857bb2e2c00d32813b18f57f482393a15bceb9b68387600180811115610a4257fe5b60405180848152602001838152602001826001811115610a5e57fe5b60ff168152602001935050505060405180910390a35b508080600101915050610771565b5060076000610a919190610a97565b50505050565b5080546000825590600052602060002090810190610ab59190610ab8565b50565b610ada91905b80821115610ad6576000816000905550600101610abe565b5090565b9056fea165627a7a72305820d6cd792120ebef48639c022802818b5490f69b28717d0d074edb59877fc126520029",
  "source": "pragma solidity >=0.4.24<0.6.0;\n\ncontract SpendingAllowanceToken\n{\n    function escrowPayments(address reciever,address initiator,uint256 amount) public returns (bool){}\n    \n}\n\ncontract Escrow \n{   \n    SpendingAllowanceToken sat;\n    uint256 thresholdAmount;\n    address owner;\n    uint256 orderId;\n    address escrowAddress;\n    uint256 once=0;\n\n    modifier onlyOwner()\n    {\n        require(msg.sender ==owner);\n        _;\n    }\n    \n    modifier onlyOnce()\n    {\n        once++;\n        require(once <= 1 , \"contract address cannot be changed once set\");\n        _;\n    }\n\n    enum PaymentStatus{Pending, Completed}\n\n    event PaymentCreation(uint256 orderId,address indexed reciever, address indexed initiator, uint256 value);\n    event PaymentCompletion(uint256 orderId,address indexed reciever,address indexed initiator,uint256 value, PaymentStatus status);\n\n    struct Payment {\n        address reciever;\n        address initiator;\n        uint256 value;\n        PaymentStatus status;\n    }\n\n    mapping(uint256 => Payment) public payments;\n    uint256[]  public currentTransactionList;\n\n\n    constructor(address _t) public\n    {\n        thresholdAmount = 100; \n        owner = msg.sender;\n        orderId = 0;\n        \n    } \n\n\n    /**\n    * @dev function to set new threshold amount\n    * @param newThreshold : new amount to be used as threshold limit\n    */\n    function changeThreshold(uint256 newThreshold) internal returns(bool)\n    {\n        thresholdAmount = newThreshold;\n        return true;\n    }\n\n    function setSatReference(address _t) public onlyOwner onlyOnce\n    {\n        sat = SpendingAllowanceToken(_t);\n    }\n\n    \n    /**\n    * @dev function to store the payments\n    * @param initiator : is the inititor of the specfic tokens which are been transferred\n    * @param reciever : entity recieving the funds\n    * @param value : Amount of funds sending\n    */\n    function createPayment(address reciever,address initiator,uint256 value) public returns(bool)\n    {\n        payments[orderId] = Payment(reciever,initiator,value,PaymentStatus.Pending);\n        emit PaymentCreation(orderId,reciever,initiator,value);\n        currentTransactionList.push(orderId);\n        orderId++;\n        thresholdReached();\n        return true;\n    }\n    \n\n    /**\n    * @dev function to check , is threshold is reached or not and if thershold is reahced payments are released\n    */\n    function thresholdReached() internal \n    {\n        if(thresholdAmount <= currentListAmount())\n        {\n            releasePayments();\n        }\n    }\n\n\n    /**\n    * @dev function that return the total amount of sat in the currentList     \n    */\n    function currentListAmount() public view returns(uint256)\n    {\n        uint256 len = currentTransactionList.length;\n        uint256 totalAmount=0; \n        for(uint256 i = 0 ; i < len ; i++)\n        {\n            uint256 order = currentTransactionList[i];\n            if(payments[order].status == PaymentStatus(0))    // refund payments are not considered while checking for the threshold\n            {\n                totalAmount = totalAmount + payments[order].value;\n            }\n        }\n        return totalAmount;\n    }\n\n\n    /**\n    * @dev function that release the payment to the real reciever \n    */\n    function releasePayments() internal\n    {\n        uint256 len = currentTransactionList.length;\n        address reciever;\n        uint256 amount;\n        address initiator;\n        for(uint256 i =0 ;i < len ; i++)\n        {\n            uint256 order = currentTransactionList[i];\n            if(payments[order].status == PaymentStatus(0))\n            {\n                reciever = payments[order].reciever;\n                amount = payments[order].value;\n                initiator = payments[order].initiator;\n                payments[order].status = PaymentStatus(1);\n                sat.escrowPayments(reciever,initiator,amount);\n                emit PaymentCompletion(order,reciever,initiator,amount,PaymentStatus(1));\n            }  \n        }\n        delete currentTransactionList;\n    }\n\n\n\n}",
  "sourcePath": "/home/sagar/Desktop/ixxoAllcontracts/final/ixxo_smartcontracts/SpendingAllowanceToken/contracts/new/Escrow.sol",
  "compiler": {
    "name": "solc",
    "version": "0.5.0+commit.1d4f565a.Emscripten.clang"
  },
  "schemaVersion": "3.0.6",
  "updatedAt": "2019-05-08T13:02:37.033Z",
  "devdoc": {
    "methods": {
      "createPayment(address,address,uint256)": {
        "details": "function to store the payments",
        "params": {
          "initiator": ": is the inititor of the specfic tokens which are been transferred",
          "reciever": ": entity recieving the funds",
          "value": ": Amount of funds sending"
        }
      },
      "currentListAmount()": {
        "details": "function that return the total amount of sat in the currentList     "
      }
    }
  },
  "userdoc": {
    "methods": {}
  }
}