{
  "contractName": "ReleaseTransaction",
  "abi": [
    {
      "constant": true,
      "inputs": [
        {
          "name": "",
          "type": "uint256"
        }
      ],
      "name": "getAllPendingRequests",
      "outputs": [
        {
          "name": "",
          "type": "uint256[]"
        },
        {
          "name": "",
          "type": "uint256"
        },
        {
          "name": "",
          "type": "bool"
        }
      ],
      "payable": false,
      "stateMutability": "view",
      "type": "function"
    }
  ],
  "bytecode": "0x608060405234801561001057600080fd5b50610118806100206000396000f3fe608060405260043610603f576000357c0100000000000000000000000000000000000000000000000000000000900463ffffffff168063ee4c5ee0146044575b600080fd5b348015604f57600080fd5b50607960048036036020811015606457600080fd5b810190808035906020019092919050505060e0565b604051808060200184815260200183151515158152602001828103825285818151815260200191508051906020019060200280838360005b8381101560ca57808201518184015260208101905060b1565b5050505090500194505050505060405180910390f35b6060600080919390925056fea165627a7a723058200ef4cbdadc81bca3a2f3bbcde4626646c50517c0ee2b32ea2e65bf1b50d8433b0029",
  "source": "pragma solidity >=0.4.24;\n\n//SAT interface \ncontract SpendingAllowanceToken\n{\n    function transferTokens(address,address,uint256) public returns(uint256, uint256){}\n    function validateTransaction(uint256,uint256) public returns(bool){}  \n    function totalTokensHeld() public pure returns(uint256){}\n    function getReleaseTransaction(uint256,uint256) public view returns (address,uint256,uint256,address,uint256,uint256){}\n    }\n    contract ReleaseTransaction\n    {\n        function getAllPendingRequests(uint256) public view returns(uint256[] memory  , uint256 , bool){}\n\n    }\n\ncontract SC2 \n{\n    SpendingAllowanceToken sat;\n    ReleaseTransaction rt ;\n    address public disAddress;\n\n    constructor(address _t) public payable {\n        assembly {\n            sstore(disAddress_slot, address)\n        }\n        sat = SpendingAllowanceToken(_t);\n        rt = ReleaseTransaction(_t);\n    }\n\n    function SpendingOfTokens(address reciever , uint256 nbTokens) public  returns (uint256, uint256)\n    {\n        (uint256 listNumber , uint256 index) = sat.transferTokens(disAddress,reciever , nbTokens);\n        return (listNumber,index);\n    } \n\n    function SatLookup() public view returns (uint256)\n    {\n        return sat.totalTokensHeld();\n    }\n\n    function _getReleaseTransaction(uint256 listnumber ,uint256 index) public view returns (address,uint256,uint256,address,uint256,uint256)\n    {\n        return sat.getReleaseTransaction(listnumber ,index);\n    }\n\n    function _getAllPendingRequests(uint256 startingIndex) public view returns(uint256[] memory  , uint256 , bool)\n    {\n        return rt.getAllPendingRequests(startingIndex);\n    }\n    \n}\n\n",
  "sourcePath": "/home/sagar/Desktop/ixxoAllcontracts/final/ixxo_smartcontracts/SpendingAllowanceToken/contracts/SC2.sol",
  "compiler": {
    "name": "solc",
    "version": "0.5.0+commit.1d4f565a.Emscripten.clang"
  },
  "schemaVersion": "3.0.6",
  "updatedAt": "2019-05-08T13:02:36.872Z",
  "devdoc": {
    "methods": {}
  },
  "userdoc": {
    "methods": {}
  }
}