{
  "contractName": "SC1",
  "abi": [
    {
      "constant": true,
      "inputs": [],
      "name": "disAddress",
      "outputs": [
        {
          "name": "",
          "type": "address"
        }
      ],
      "payable": false,
      "stateMutability": "view",
      "type": "function"
    },
    {
      "inputs": [
        {
          "name": "_t",
          "type": "address"
        }
      ],
      "payable": true,
      "stateMutability": "payable",
      "type": "constructor"
    },
    {
      "constant": false,
      "inputs": [
        {
          "name": "reciever",
          "type": "address"
        },
        {
          "name": "nbTokens",
          "type": "uint256"
        }
      ],
      "name": "SpendingOfTokens",
      "outputs": [
        {
          "name": "",
          "type": "uint256"
        },
        {
          "name": "",
          "type": "uint256"
        }
      ],
      "payable": false,
      "stateMutability": "nonpayable",
      "type": "function"
    },
    {
      "constant": true,
      "inputs": [],
      "name": "SatLookup",
      "outputs": [
        {
          "name": "",
          "type": "uint256"
        }
      ],
      "payable": false,
      "stateMutability": "view",
      "type": "function"
    },
    {
      "constant": true,
      "inputs": [
        {
          "name": "listnumber",
          "type": "uint256"
        },
        {
          "name": "index",
          "type": "uint256"
        }
      ],
      "name": "_getReleaseTransaction",
      "outputs": [
        {
          "name": "",
          "type": "address"
        },
        {
          "name": "",
          "type": "uint256"
        },
        {
          "name": "",
          "type": "uint256"
        },
        {
          "name": "",
          "type": "address"
        },
        {
          "name": "",
          "type": "uint256"
        },
        {
          "name": "",
          "type": "uint256"
        }
      ],
      "payable": false,
      "stateMutability": "view",
      "type": "function"
    },
    {
      "constant": true,
      "inputs": [
        {
          "name": "startingIndex",
          "type": "uint256"
        }
      ],
      "name": "_getAllPendingRequests",
      "outputs": [
        {
          "name": "",
          "type": "uint256[]"
        },
        {
          "name": "",
          "type": "uint256"
        },
        {
          "name": "",
          "type": "bool"
        }
      ],
      "payable": false,
      "stateMutability": "view",
      "type": "function"
    }
  ],
  "bytecode": "0x60806040526040516020806108a28339810180604052602081101561002357600080fd5b810190808051906020019092919050505030600255806000806101000a81548173ffffffffffffffffffffffffffffffffffffffff021916908373ffffffffffffffffffffffffffffffffffffffff16021790555080600160006101000a81548173ffffffffffffffffffffffffffffffffffffffff021916908373ffffffffffffffffffffffffffffffffffffffff160217905550506107d9806100c96000396000f3fe60806040526004361061006d576000357c0100000000000000000000000000000000000000000000000000000000900463ffffffff1680630147c60d14610072578063325823dd146100e857806350a2b688146101bc578063a2eb196c1461025e578063ee79913014610289575b600080fd5b34801561007e57600080fd5b506100cb6004803603604081101561009557600080fd5b81019080803573ffffffffffffffffffffffffffffffffffffffff169060200190929190803590602001909291905050506102e0565b604051808381526020018281526020019250505060405180910390f35b3480156100f457600080fd5b5061012b6004803603604081101561010b57600080fd5b810190808035906020019092919080359060200190929190505050610457565b604051808773ffffffffffffffffffffffffffffffffffffffff1673ffffffffffffffffffffffffffffffffffffffff1681526020018681526020018581526020018473ffffffffffffffffffffffffffffffffffffffff1673ffffffffffffffffffffffffffffffffffffffff168152602001838152602001828152602001965050505050505060405180910390f35b3480156101c857600080fd5b506101f5600480360360208110156101df57600080fd5b8101908080359060200190929190505050610579565b604051808060200184815260200183151515158152602001828103825285818151815260200191508051906020019060200280838360005b8381101561024857808201518184015260208101905061022d565b5050505090500194505050505060405180910390f35b34801561026a57600080fd5b506102736106c2565b6040518082815260200191505060405180910390f35b34801561029557600080fd5b5061029e610787565b604051808273ffffffffffffffffffffffffffffffffffffffff1673ffffffffffffffffffffffffffffffffffffffff16815260200191505060405180910390f35b6000806000806000809054906101000a900473ffffffffffffffffffffffffffffffffffffffff1673ffffffffffffffffffffffffffffffffffffffff1663a64b6e5f600260009054906101000a900473ffffffffffffffffffffffffffffffffffffffff1688886040518463ffffffff167c0100000000000000000000000000000000000000000000000000000000028152600401808473ffffffffffffffffffffffffffffffffffffffff1673ffffffffffffffffffffffffffffffffffffffff1681526020018373ffffffffffffffffffffffffffffffffffffffff1673ffffffffffffffffffffffffffffffffffffffff16815260200182815260200193505050506040805180830381600087803b1580156103ff57600080fd5b505af1158015610413573d6000803e3d6000fd5b505050506040513d604081101561042957600080fd5b8101908080519060200190929190805190602001909291905050509150915081819350935050509250929050565b6000806000806000806000809054906101000a900473ffffffffffffffffffffffffffffffffffffffff1673ffffffffffffffffffffffffffffffffffffffff166348a3721489896040518363ffffffff167c0100000000000000000000000000000000000000000000000000000000028152600401808381526020018281526020019250505060c06040518083038186803b1580156104f657600080fd5b505afa15801561050a573d6000803e3d6000fd5b505050506040513d60c081101561052057600080fd5b810190808051906020019092919080519060200190929190805190602001909291908051906020019092919080519060200190929190805190602001909291905050509550955095509550955095509295509295509295565b6060600080600160009054906101000a900473ffffffffffffffffffffffffffffffffffffffff1673ffffffffffffffffffffffffffffffffffffffff1663ee4c5ee0856040518263ffffffff167c01000000000000000000000000000000000000000000000000000000000281526004018082815260200191505060006040518083038186803b15801561060d57600080fd5b505afa158015610621573d6000803e3d6000fd5b505050506040513d6000823e3d601f19601f82011682018060405250606081101561064b57600080fd5b81019080805164010000000081111561066357600080fd5b8281019050602081018481111561067957600080fd5b815185602082028301116401000000008211171561069657600080fd5b505092919060200180519060200190929190805190602001909291905050509250925092509193909250565b60008060009054906101000a900473ffffffffffffffffffffffffffffffffffffffff1673ffffffffffffffffffffffffffffffffffffffff16638eed23976040518163ffffffff167c010000000000000000000000000000000000000000000000000000000002815260040160206040518083038186803b15801561074757600080fd5b505afa15801561075b573d6000803e3d6000fd5b505050506040513d602081101561077157600080fd5b8101908080519060200190929190505050905090565b600260009054906101000a900473ffffffffffffffffffffffffffffffffffffffff168156fea165627a7a72305820c6a3fb467632eb116f6bc7eef7593e033868f72a9f1c8c175cbd2d6d8999c02c0029",
  "source": "pragma solidity >=0.4.24;\n\n//SAT interface \ncontract SpendingAllowanceToken\n{\n    function transferTokens(address,address,uint256) public returns(uint256, uint256){}\n    function validateTransaction(uint256,uint256) public returns(bool){}  \n    function totalTokensHeld() public pure returns(uint256){}\n    function getReleaseTransaction(uint256,uint256) public view returns (address,uint256,uint256,address,uint256,uint256){}\n    }\n    contract ReleaseTransaction\n    {\n        function getAllPendingRequests(uint256) public view returns(uint256[] memory  , uint256 , bool){}\n\n    }\n\ncontract SC1 \n{\n    SpendingAllowanceToken sat;\n    ReleaseTransaction rt ;\n    address public disAddress;\n\n    constructor(address _t) public payable {\n        assembly {\n            sstore(disAddress_slot, address)\n        }\n        sat = SpendingAllowanceToken(_t);\n        rt = ReleaseTransaction(_t);\n    }\n\n    function SpendingOfTokens(address reciever , uint256 nbTokens) public  returns (uint256, uint256)\n    {\n        (uint256 listNumber , uint256 index) = sat.transferTokens(disAddress,reciever , nbTokens);\n        return (listNumber,index);\n    } \n\n    function SatLookup() public view returns (uint256)\n    {\n        return sat.totalTokensHeld();\n    }\n\n    function _getReleaseTransaction(uint256 listnumber ,uint256 index) public view returns (address,uint256,uint256,address,uint256,uint256)\n    {\n        return sat.getReleaseTransaction(listnumber ,index);\n    }\n\n    function _getAllPendingRequests(uint256 startingIndex) public view returns(uint256[] memory  , uint256 , bool)\n    {\n        return rt.getAllPendingRequests(startingIndex);\n    }\n    \n}\n\n",
  "sourcePath": "/home/sagar/Desktop/ixxoAllcontracts/final/ixxo_smartcontracts/SpendingAllowanceToken/contracts/SC1.sol",
  "compiler": {
    "name": "solc",
    "version": "0.5.0+commit.1d4f565a.Emscripten.clang"
  },
  "schemaVersion": "3.0.6",
  "updatedAt": "2019-05-08T13:02:36.913Z",
  "devdoc": {
    "methods": {}
  },
  "userdoc": {
    "methods": {}
  }
}