{
  "contractName": "SpendingAllowanceToken",
  "abi": [
    {
      "constant": false,
      "inputs": [
        {
          "name": "reciever",
          "type": "address"
        },
        {
          "name": "initiator",
          "type": "address"
        },
        {
          "name": "amount",
          "type": "uint256"
        }
      ],
      "name": "escrowPayments",
      "outputs": [
        {
          "name": "",
          "type": "bool"
        }
      ],
      "payable": false,
      "stateMutability": "nonpayable",
      "type": "function"
    }
  ],
  "bytecode": "0x608060405234801561001057600080fd5b50610108806100206000396000f3fe608060405260043610603f576000357c0100000000000000000000000000000000000000000000000000000000900463ffffffff168063ed8c463f146044575b600080fd5b348015604f57600080fd5b5060b960048036036060811015606457600080fd5b81019080803573ffffffffffffffffffffffffffffffffffffffff169060200190929190803573ffffffffffffffffffffffffffffffffffffffff1690602001909291908035906020019092919050505060d3565b604051808215151515815260200191505060405180910390f35b6000939250505056fea165627a7a7230582024bbb24136651ffbc6c1a89a92707fb6df166ee2702626ba407930885b21d5dc0029",
  "source": "pragma solidity >=0.4.24<0.6.0;\n\ncontract SpendingAllowanceToken\n{\n    function escrowPayments(address reciever,address initiator,uint256 amount) public returns (bool){}\n    \n}\n\ncontract Escrow \n{   \n    SpendingAllowanceToken sat;\n    uint256 thresholdAmount;\n    address owner;\n    uint256 orderId;\n    address escrowAddress;\n    uint256 once=0;\n\n    modifier onlyOwner()\n    {\n        require(msg.sender ==owner);\n        _;\n    }\n    \n    modifier onlyOnce()\n    {\n        once++;\n        require(once <= 1 , \"contract address cannot be changed once set\");\n        _;\n    }\n\n    enum PaymentStatus{Pending, Completed}\n\n    event PaymentCreation(uint256 orderId,address indexed reciever, address indexed initiator, uint256 value);\n    event PaymentCompletion(uint256 orderId,address indexed reciever,address indexed initiator,uint256 value, PaymentStatus status);\n\n    struct Payment {\n        address reciever;\n        address initiator;\n        uint256 value;\n        PaymentStatus status;\n    }\n\n    mapping(uint256 => Payment) public payments;\n    uint256[]  public currentTransactionList;\n\n\n    constructor(address _t) public\n    {\n        thresholdAmount = 100; \n        owner = msg.sender;\n        orderId = 0;\n        \n    } \n\n\n    /**\n    * @dev function to set new threshold amount\n    * @param newThreshold : new amount to be used as threshold limit\n    */\n    function changeThreshold(uint256 newThreshold) internal returns(bool)\n    {\n        thresholdAmount = newThreshold;\n        return true;\n    }\n\n    function setSatReference(address _t) public onlyOwner onlyOnce\n    {\n        sat = SpendingAllowanceToken(_t);\n    }\n\n    \n    /**\n    * @dev function to store the payments\n    * @param initiator : is the inititor of the specfic tokens which are been transferred\n    * @param reciever : entity recieving the funds\n    * @param value : Amount of funds sending\n    */\n    function createPayment(address reciever,address initiator,uint256 value) public returns(bool)\n    {\n        payments[orderId] = Payment(reciever,initiator,value,PaymentStatus.Pending);\n        emit PaymentCreation(orderId,reciever,initiator,value);\n        currentTransactionList.push(orderId);\n        orderId++;\n        thresholdReached();\n        return true;\n    }\n    \n\n    /**\n    * @dev function to check , is threshold is reached or not and if thershold is reahced payments are released\n    */\n    function thresholdReached() internal \n    {\n        if(thresholdAmount <= currentListAmount())\n        {\n            releasePayments();\n        }\n    }\n\n\n    /**\n    * @dev function that return the total amount of sat in the currentList     \n    */\n    function currentListAmount() public view returns(uint256)\n    {\n        uint256 len = currentTransactionList.length;\n        uint256 totalAmount=0; \n        for(uint256 i = 0 ; i < len ; i++)\n        {\n            uint256 order = currentTransactionList[i];\n            if(payments[order].status == PaymentStatus(0))    // refund payments are not considered while checking for the threshold\n            {\n                totalAmount = totalAmount + payments[order].value;\n            }\n        }\n        return totalAmount;\n    }\n\n\n    /**\n    * @dev function that release the payment to the real reciever \n    */\n    function releasePayments() internal\n    {\n        uint256 len = currentTransactionList.length;\n        address reciever;\n        uint256 amount;\n        address initiator;\n        for(uint256 i =0 ;i < len ; i++)\n        {\n            uint256 order = currentTransactionList[i];\n            if(payments[order].status == PaymentStatus(0))\n            {\n                reciever = payments[order].reciever;\n                amount = payments[order].value;\n                initiator = payments[order].initiator;\n                payments[order].status = PaymentStatus(1);\n                sat.escrowPayments(reciever,initiator,amount);\n                emit PaymentCompletion(order,reciever,initiator,amount,PaymentStatus(1));\n            }  \n        }\n        delete currentTransactionList;\n    }\n\n\n\n}",
  "sourcePath": "/home/sagar/Desktop/ixxoAllcontracts/final/ixxo_smartcontracts/SpendingAllowanceToken/contracts/new/Escrow.sol",
  "compiler": {
    "name": "solc",
    "version": "0.5.0+commit.1d4f565a.Emscripten.clang"
  },
  "schemaVersion": "3.0.6",
  "updatedAt": "2019-05-08T13:02:37.056Z",
  "devdoc": {
    "methods": {}
  },
  "userdoc": {
    "methods": {}
  }
}