{
  "contractName": "FundRaising",
  "abi": [
    {
      "constant": true,
      "inputs": [],
      "name": "SharesAllocated",
      "outputs": [
        {
          "name": "",
          "type": "uint256"
        }
      ],
      "payable": false,
      "stateMutability": "view",
      "type": "function"
    },
    {
      "constant": true,
      "inputs": [],
      "name": "StartDate",
      "outputs": [
        {
          "name": "",
          "type": "uint256"
        }
      ],
      "payable": false,
      "stateMutability": "view",
      "type": "function"
    },
    {
      "constant": true,
      "inputs": [],
      "name": "EndDate",
      "outputs": [
        {
          "name": "",
          "type": "uint256"
        }
      ],
      "payable": false,
      "stateMutability": "view",
      "type": "function"
    },
    {
      "constant": true,
      "inputs": [
        {
          "name": "",
          "type": "uint256"
        }
      ],
      "name": "SOrder",
      "outputs": [
        {
          "name": "Seller",
          "type": "address"
        },
        {
          "name": "SellingShares",
          "type": "uint256"
        },
        {
          "name": "AskingPrice",
          "type": "uint256"
        }
      ],
      "payable": false,
      "stateMutability": "view",
      "type": "function"
    },
    {
      "constant": true,
      "inputs": [],
      "name": "shareStructure",
      "outputs": [
        {
          "name": "ComapnySharePerBucket",
          "type": "uint256"
        },
        {
          "name": "MaxBucketNumber",
          "type": "uint256"
        }
      ],
      "payable": false,
      "stateMutability": "view",
      "type": "function"
    },
    {
      "constant": true,
      "inputs": [
        {
          "name": "",
          "type": "uint256"
        }
      ],
      "name": "bids",
      "outputs": [
        {
          "name": "bidder",
          "type": "address"
        },
        {
          "name": "nbShares",
          "type": "uint256"
        },
        {
          "name": "MaxPrice",
          "type": "uint256"
        },
        {
          "name": "timeOfBid",
          "type": "uint256"
        },
        {
          "name": "handled",
          "type": "bool"
        }
      ],
      "payable": false,
      "stateMutability": "view",
      "type": "function"
    },
    {
      "constant": true,
      "inputs": [],
      "name": "cancellingBids",
      "outputs": [
        {
          "name": "",
          "type": "bool"
        }
      ],
      "payable": false,
      "stateMutability": "view",
      "type": "function"
    },
    {
      "constant": true,
      "inputs": [],
      "name": "AmountRaised",
      "outputs": [
        {
          "name": "",
          "type": "uint256"
        }
      ],
      "payable": false,
      "stateMutability": "view",
      "type": "function"
    },
    {
      "constant": true,
      "inputs": [],
      "name": "sharePriceStructure",
      "outputs": [
        {
          "name": "initialPrice",
          "type": "uint256"
        },
        {
          "name": "delta",
          "type": "uint256"
        }
      ],
      "payable": false,
      "stateMutability": "view",
      "type": "function"
    },
    {
      "constant": true,
      "inputs": [
        {
          "name": "",
          "type": "uint256"
        }
      ],
      "name": "SOwner",
      "outputs": [
        {
          "name": "owner",
          "type": "address"
        },
        {
          "name": "numberOfShares",
          "type": "uint256"
        }
      ],
      "payable": false,
      "stateMutability": "view",
      "type": "function"
    },
    {
      "inputs": [],
      "payable": false,
      "stateMutability": "nonpayable",
      "type": "constructor"
    },
    {
      "constant": false,
      "inputs": [
        {
          "name": "initialPrice",
          "type": "uint256"
        },
        {
          "name": "delta",
          "type": "uint256"
        },
        {
          "name": "companySharesPerBucket",
          "type": "uint256"
        },
        {
          "name": "maxSharesNumber",
          "type": "uint256"
        },
        {
          "name": "startDate",
          "type": "uint256"
        },
        {
          "name": "_EndDate",
          "type": "uint256"
        }
      ],
      "name": "setInitialValues",
      "outputs": [],
      "payable": false,
      "stateMutability": "nonpayable",
      "type": "function"
    },
    {
      "constant": false,
      "inputs": [
        {
          "name": "_t",
          "type": "address"
        }
      ],
      "name": "setSPendingAllowanceTOkenAddress",
      "outputs": [],
      "payable": false,
      "stateMutability": "nonpayable",
      "type": "function"
    },
    {
      "constant": false,
      "inputs": [],
      "name": "enableSatPayement",
      "outputs": [],
      "payable": false,
      "stateMutability": "nonpayable",
      "type": "function"
    },
    {
      "constant": false,
      "inputs": [],
      "name": "disableSatPayment",
      "outputs": [],
      "payable": false,
      "stateMutability": "nonpayable",
      "type": "function"
    },
    {
      "constant": false,
      "inputs": [
        {
          "name": "_nbShares",
          "type": "uint256"
        },
        {
          "name": "_tradeDirection",
          "type": "uint256"
        },
        {
          "name": "_MaxPrice",
          "type": "uint256"
        }
      ],
      "name": "PlaceOrder",
      "outputs": [
        {
          "name": "",
          "type": "bool"
        },
        {
          "name": "",
          "type": "uint256"
        }
      ],
      "payable": false,
      "stateMutability": "nonpayable",
      "type": "function"
    },
    {
      "constant": false,
      "inputs": [
        {
          "name": "sender",
          "type": "address"
        },
        {
          "name": "receiver",
          "type": "address"
        },
        {
          "name": "amount",
          "type": "uint256"
        }
      ],
      "name": "payment",
      "outputs": [
        {
          "name": "",
          "type": "bool"
        }
      ],
      "payable": true,
      "stateMutability": "payable",
      "type": "function"
    },
    {
      "constant": false,
      "inputs": [
        {
          "name": "bidId",
          "type": "uint256"
        }
      ],
      "name": "cancelBids",
      "outputs": [
        {
          "name": "",
          "type": "bool"
        }
      ],
      "payable": false,
      "stateMutability": "nonpayable",
      "type": "function"
    },
    {
      "constant": true,
      "inputs": [
        {
          "name": "index",
          "type": "uint256"
        }
      ],
      "name": "returnMybids",
      "outputs": [
        {
          "name": "",
          "type": "address"
        },
        {
          "name": "",
          "type": "uint256"
        },
        {
          "name": "",
          "type": "uint256"
        },
        {
          "name": "",
          "type": "bool"
        },
        {
          "name": "",
          "type": "uint256"
        }
      ],
      "payable": false,
      "stateMutability": "view",
      "type": "function"
    },
    {
      "constant": true,
      "inputs": [],
      "name": "getMinimumAskingPriceSeller",
      "outputs": [
        {
          "name": "",
          "type": "uint256"
        }
      ],
      "payable": false,
      "stateMutability": "view",
      "type": "function"
    },
    {
      "constant": true,
      "inputs": [],
      "name": "getSharePrice",
      "outputs": [
        {
          "name": "",
          "type": "uint256"
        }
      ],
      "payable": false,
      "stateMutability": "view",
      "type": "function"
    },
    {
      "constant": true,
      "inputs": [],
      "name": "getTotalSharesAllocated",
      "outputs": [
        {
          "name": "",
          "type": "uint256"
        }
      ],
      "payable": false,
      "stateMutability": "view",
      "type": "function"
    },
    {
      "constant": true,
      "inputs": [],
      "name": "getShares",
      "outputs": [
        {
          "name": "",
          "type": "uint256"
        }
      ],
      "payable": false,
      "stateMutability": "view",
      "type": "function"
    },
    {
      "constant": true,
      "inputs": [],
      "name": "getRaisedMoneyAmount",
      "outputs": [
        {
          "name": "",
          "type": "uint256"
        }
      ],
      "payable": false,
      "stateMutability": "view",
      "type": "function"
    },
    {
      "constant": false,
      "inputs": [],
      "name": "IsRaisingMoneySuccessful",
      "outputs": [
        {
          "name": "",
          "type": "bool"
        }
      ],
      "payable": false,
      "stateMutability": "nonpayable",
      "type": "function"
    },
    {
      "constant": true,
      "inputs": [],
      "name": "getNbSharesBidded",
      "outputs": [
        {
          "name": "",
          "type": "uint256"
        }
      ],
      "payable": false,
      "stateMutability": "view",
      "type": "function"
    },
    {
      "constant": false,
      "inputs": [],
      "name": "buy",
      "outputs": [
        {
          "name": "",
          "type": "bool"
        }
      ],
      "payable": false,
      "stateMutability": "nonpayable",
      "type": "function"
    },
    {
      "constant": true,
      "inputs": [],
      "name": "getCurrentRunningTime",
      "outputs": [
        {
          "name": "",
          "type": "uint256"
        }
      ],
      "payable": false,
      "stateMutability": "view",
      "type": "function"
    },
    {
      "constant": false,
      "inputs": [],
      "name": "stopCancellingOfBids",
      "outputs": [
        {
          "name": "",
          "type": "bool"
        }
      ],
      "payable": false,
      "stateMutability": "nonpayable",
      "type": "function"
    },
    {
      "constant": false,
      "inputs": [],
      "name": "startCancellingOfBids",
      "outputs": [
        {
          "name": "",
          "type": "bool"
        }
      ],
      "payable": false,
      "stateMutability": "nonpayable",
      "type": "function"
    }
  ],
  "bytecode": "0x60806040526000600660006101000a81548160ff02191690831515021790555034801561002b57600080fd5b5033600360006101000a81548173ffffffffffffffffffffffffffffffffffffffff021916908373ffffffffffffffffffffffffffffffffffffffff16021790555033600460006101000a81548173ffffffffffffffffffffffffffffffffffffffff021916908373ffffffffffffffffffffffffffffffffffffffff1602179055506000600660026101000a81548160ff0219169083151502179055506000600660036101000a81548160ff021916908315150217905550612fa7806100f36000396000f3fe608060405260043610610175576000357c0100000000000000000000000000000000000000000000000000000000900463ffffffff1680630526d2de1461017a57806306b84722146101a557806312bae48d146101f85780631954f39e1461022357806322ccfe0c1461024e5780632c75a3dc146102e957806334551c911461037257806339c20c701461039d57806342a9abb1146103c85780634423c5f1146103fa578063502c4ca71461049557806359d85af8146104c45780635b1dac60146104f357806366f525621461051e5780636c52650314610549578063853ae3461461057457806391e637451461058b57806399b23dc3146105f95780639ae8a7071461067f578063a6f2ae3a146106ec578063c826ace51461071b578063cc9d251b1461076c578063d27157fb14610797578063d73fe0aa146107c9578063d9b78c91146107f4578063dcf1fd6314610823578063dfd5ef5714610852578063ebc92d59146108d4578063faa3c04f146108ff575b600080fd5b34801561018657600080fd5b5061018f610916565b6040518082815260200191505060405180910390f35b3480156101b157600080fd5b506101de600480360360208110156101c857600080fd5b810190808035906020019092919050505061091c565b604051808215151515815260200191505060405180910390f35b34801561020457600080fd5b5061020d610d3a565b6040518082815260200191505060405180910390f35b34801561022f57600080fd5b50610238610d40565b6040518082815260200191505060405180910390f35b34801561025a57600080fd5b506102876004803603602081101561027157600080fd5b8101908080359060200190929190505050610d46565b604051808673ffffffffffffffffffffffffffffffffffffffff1673ffffffffffffffffffffffffffffffffffffffff168152602001858152602001848152602001831515151581526020018281526020019550505050505060405180910390f35b3480156102f557600080fd5b506103226004803603602081101561030c57600080fd5b8101908080359060200190929190505050610f0a565b604051808473ffffffffffffffffffffffffffffffffffffffff1673ffffffffffffffffffffffffffffffffffffffff168152602001838152602001828152602001935050505060405180910390f35b34801561037e57600080fd5b50610387610f63565b6040518082815260200191505060405180910390f35b3480156103a957600080fd5b506103b26110d3565b6040518082815260200191505060405180910390f35b3480156103d457600080fd5b506103dd6110dd565b604051808381526020018281526020019250505060405180910390f35b34801561040657600080fd5b506104336004803603602081101561041d57600080fd5b81019080803590602001909291905050506110ef565b604051808673ffffffffffffffffffffffffffffffffffffffff1673ffffffffffffffffffffffffffffffffffffffff168152602001858152602001848152602001838152602001821515151581526020019550505050505060405180910390f35b3480156104a157600080fd5b506104aa611161565b604051808215151515815260200191505060405180910390f35b3480156104d057600080fd5b506104d9611174565b604051808215151515815260200191505060405180910390f35b3480156104ff57600080fd5b506105086112e8565b6040518082815260200191505060405180910390f35b34801561052a57600080fd5b5061053361135f565b6040518082815260200191505060405180910390f35b34801561055557600080fd5b5061055e61142e565b6040518082815260200191505060405180910390f35b34801561058057600080fd5b50610589611434565b005b34801561059757600080fd5b506105d8600480360360608110156105ae57600080fd5b81019080803590602001909291908035906020019092919080359060200190929190505050611516565b60405180831515151581526020018281526020019250505060405180910390f35b6106656004803603606081101561060f57600080fd5b81019080803573ffffffffffffffffffffffffffffffffffffffff169060200190929190803573ffffffffffffffffffffffffffffffffffffffff16906020019092919080359060200190929190505050611b57565b604051808215151515815260200191505060405180910390f35b34801561068b57600080fd5b506106ea600480360360c08110156106a257600080fd5b81019080803590602001909291908035906020019092919080359060200190929190803590602001909291908035906020019092919080359060200190929190505050611d7d565b005b3480156106f857600080fd5b50610701611f59565b604051808215151515815260200191505060405180910390f35b34801561072757600080fd5b5061076a6004803603602081101561073e57600080fd5b81019080803573ffffffffffffffffffffffffffffffffffffffff1690602001909291905050506122af565b005b34801561077857600080fd5b50610781612442565b6040518082815260200191505060405180910390f35b3480156107a357600080fd5b506107ac61244a565b604051808381526020018281526020019250505060405180910390f35b3480156107d557600080fd5b506107de61245c565b6040518082815260200191505060405180910390f35b34801561080057600080fd5b50610809612533565b604051808215151515815260200191505060405180910390f35b34801561082f57600080fd5b506108386126cd565b604051808215151515815260200191505060405180910390f35b34801561085e57600080fd5b5061088b6004803603602081101561087557600080fd5b81019080803590602001909291905050506127f1565b604051808373ffffffffffffffffffffffffffffffffffffffff1673ffffffffffffffffffffffffffffffffffffffff1681526020018281526020019250505060405180910390f35b3480156108e057600080fd5b506108e9612844565b6040518082815260200191505060405180910390f35b34801561090b57600080fd5b5061091461284e565b005b600f5481565b600060011515600660019054906101000a900460ff1615151415156109a9576040517f08c379a000000000000000000000000000000000000000000000000000000000815260040180806020018281038252601b8152602001807f63616e63656c6c696e6720626964732069732064697361626c6564000000000081525060200191505060405180910390fd5b60025442101515610a22576040517f08c379a000000000000000000000000000000000000000000000000000000000815260040180806020018281038252601a8152602001807f6269642063616e6e6f742062652063616e63656c6564206e6f7700000000000081525060200191505060405180910390fd5b60011515610a2e612930565b1515141515610aa5576040517f08c379a000000000000000000000000000000000000000000000000000000000815260040180806020018281038252600c8152602001807f4e6f74206120626964646572000000000000000000000000000000000000000081525060200191505060405180910390fd5b600b82815481101515610ab457fe5b906000526020600020906005020160000160009054906101000a900473ffffffffffffffffffffffffffffffffffffffff1673ffffffffffffffffffffffffffffffffffffffff163373ffffffffffffffffffffffffffffffffffffffff16141515610b1f57600080fd5b6000600b8054905090506000600182039050600b84815481101515610b4057fe5b906000526020600020906005020160020154600d5403600d81905550600b81815481101515610b6b57fe5b906000526020600020906005020160000160009054906101000a900473ffffffffffffffffffffffffffffffffffffffff16600b85815481101515610bac57fe5b906000526020600020906005020160000160006101000a81548173ffffffffffffffffffffffffffffffffffffffff021916908373ffffffffffffffffffffffffffffffffffffffff160217905550600b81815481101515610c0a57fe5b906000526020600020906005020160010154600b85815481101515610c2b57fe5b906000526020600020906005020160010181905550600b81815481101515610c4f57fe5b906000526020600020906005020160020154600b85815481101515610c7057fe5b906000526020600020906005020160020181905550600b81815481101515610c9457fe5b906000526020600020906005020160030154600b85815481101515610cb557fe5b906000526020600020906005020160030181905550600b81815481101515610cd957fe5b906000526020600020906005020160040160009054906101000a900460ff16600b85815481101515610d0757fe5b906000526020600020906005020160040160006101000a81548160ff021916908315150217905550600192505050919050565b60015481565b60025481565b600080600080600060011515610d5a612930565b1515141515610dd1576040517f08c379a000000000000000000000000000000000000000000000000000000000815260040180806020018281038252600c8152602001807f4e6f74206120626964646572000000000000000000000000000000000000000081525060200191505060405180910390fd5b60008690505b600b80549050811015610eff57600b81815481101515610df357fe5b906000526020600020906005020160000160009054906101000a900473ffffffffffffffffffffffffffffffffffffffff1673ffffffffffffffffffffffffffffffffffffffff163373ffffffffffffffffffffffffffffffffffffffff161415610ef2576000600b82815481101515610e6957fe5b90600052602060002090600502016002015490506000600b83815481101515610e8e57fe5b90600052602060002090600502016003015490506000600184019050600b80549050811015610ed3573383836001848494509850985098509850985050505050610f01565b3383836000808494508090509850985098509850985050505050610f01565b8080600101915050610dd7565b505b91939590929450565b601081815481101515610f1957fe5b90600052602060002090600302016000915090508060000160009054906101000a900473ffffffffffffffffffffffffffffffffffffffff16908060010154908060020154905083565b60008060008060006010805490509050600081111515610feb576040517f08c379a000000000000000000000000000000000000000000000000000000000815260040180806020018281038252600a8152602001807f6c69737420656d7074790000000000000000000000000000000000000000000081525060200191505060405180910390fd5b600091505b8082101561103757600060108381548110151561100957fe5b90600052602060002090600302016001015414151561102a57819350611037565b8180600101925050610ff0565b8392505b808310156110c95760108381548110151561105257fe5b90600052602060002090600302016002015460108581548110151561107357fe5b906000526020600020906003020160020154101580156110b35750600060108481548110151561109f57fe5b906000526020600020906003020160010154115b156110bc578293505b828060010193505061103b565b8394505050505090565b6000600e54905090565b60098060000154908060010154905082565b600b818154811015156110fe57fe5b90600052602060002090600502016000915090508060000160009054906101000a900473ffffffffffffffffffffffffffffffffffffffff16908060010154908060020154908060030154908060040160009054906101000a900460ff16905085565b600660019054906101000a900460ff1681565b6000600460009054906101000a900473ffffffffffffffffffffffffffffffffffffffff1673ffffffffffffffffffffffffffffffffffffffff163373ffffffffffffffffffffffffffffffffffffffff1614151561123b576040517f08c379a00000000000000000000000000000000000000000000000000000000081526004018080602001828103825260158152602001807f41757468656e7469636174696f6e204661696c6564000000000000000000000081525060200191505060405180910390fd5b60001515600660019054906101000a900460ff1615151415156112c6576040517f08c379a000000000000000000000000000000000000000000000000000000000815260040180806020018281038252601e8152602001807f616c7265616479206269642063616e63656c6c696e6720616c6c6f776564000081525060200191505060405180910390fd5b6001600660016101000a81548160ff0219169083151502179055506001905090565b6000806113086009600101546009600001546129dc90919063ffffffff16565b9050600061132182600e54612a1a90919063ffffffff16565b90506000611354611340600760010154846129dc90919063ffffffff16565b600760000154612a4490919063ffffffff16565b905080935050505090565b6000600460009054906101000a900473ffffffffffffffffffffffffffffffffffffffff1673ffffffffffffffffffffffffffffffffffffffff163373ffffffffffffffffffffffffffffffffffffffff16141515611426576040517f08c379a00000000000000000000000000000000000000000000000000000000081526004018080602001828103825260158152602001807f41757468656e7469636174696f6e204661696c6564000000000000000000000081525060200191505060405180910390fd5b600d54905090565b600d5481565b600460009054906101000a900473ffffffffffffffffffffffffffffffffffffffff1673ffffffffffffffffffffffffffffffffffffffff163373ffffffffffffffffffffffffffffffffffffffff161415156114f9576040517f08c379a00000000000000000000000000000000000000000000000000000000081526004018080602001828103825260158152602001807f41757468656e7469636174696f6e204661696c6564000000000000000000000081525060200191505060405180910390fd5b6000600660036101000a81548160ff021916908315150217905550565b6000806000339050600042905060006002548211151561158f57600061153a6112e8565b9050600088148061154b5750600188145b1561158957868111151561157657611565848a8986612a65565b915081899550955050505050611b4f565b6000808090509550955050505050611b4f565b50611b4b565b600254821115611b4a576000871415611a1057600080600080601080549050111515611623576040517f08c379a00000000000000000000000000000000000000000000000000000000081526004018080602001828103825260148152602001807f73656c6c6572206c69737420697320656d70747900000000000000000000000081525060200191505060405180910390fd5b60008090505b601080549050811015611a0b578960108281548110151561164657fe5b906000526020600020906003020160020154111580156116865750600060108281548110151561167257fe5b906000526020600020906003020160010154115b156119f0578b60108281548110151561169b57fe5b90600052602060002090600302016001015410151561181f578b91506116ea8c6010838154811015156116ca57fe5b9060005260206000209060030201600201546129dc90919063ffffffff16565b9250611737336010838154811015156116ff57fe5b906000526020600020906003020160000160009054906101000a900473ffffffffffffffffffffffffffffffffffffffff1685611b57565b9350600115158415151415156117b5576040517f08c379a000000000000000000000000000000000000000000000000000000000815260040180806020018281038252600e8152602001807f7061796d656e74206661696c656400000000000000000000000000000000000081525060200191505060405180910390fd5b6117e88c6010838154811015156117c857fe5b906000526020600020906003020160010154612be290919063ffffffff16565b6010828154811015156117f757fe5b90600052602060002090600302016001018190555060009b5061181a3383612c04565b6119ef565b8b60108281548110151561182f57fe5b90600052602060002090600302016001015410156119ee5760108181548110151561185657fe5b90600052602060002090600302016001015491506118bd60108281548110151561187c57fe5b90600052602060002090600302016001015460108381548110151561189d57fe5b9060005260206000209060030201600201546129dc90919063ffffffff16565b925061190a336010838154811015156118d257fe5b906000526020600020906003020160000160009054906101000a900473ffffffffffffffffffffffffffffffffffffffff1685611b57565b935060011515841515141515611988576040517f08c379a000000000000000000000000000000000000000000000000000000000815260040180806020018281038252600e8152602001807f7061796d656e74206661696c656400000000000000000000000000000000000081525060200191505060405180910390fd5b6119bb60108281548110151561199a57fe5b9060005260206000209060030201600101548d612be290919063ffffffff16565b9b5060006010828154811015156119ce57fe5b9060005260206000209060030201600101819055506119ed3383612c04565b5b5b5b60008c14156119fe57611a0b565b8080600101915050611629565b505050505b6001871415611b495760008060009050600091505b600c80549050821015611adb573373ffffffffffffffffffffffffffffffffffffffff16600c83815481101515611a5857fe5b906000526020600020906002020160000160009054906101000a900473ffffffffffffffffffffffffffffffffffffffff1673ffffffffffffffffffffffffffffffffffffffff161415611ace57600c82815481101515611ab557fe5b9060005260206000209060020201600101549050611adb565b8180600101925050611a25565b8981101515611b3857611af78a82612be290919063ffffffff16565b600c83815481101515611b0657fe5b906000526020600020906002020160010181905550611b26858b8a612dcf565b9250828a965096505050505050611b4f565b60008a965096505050505050611b4f565b5b5b5050505b935093915050565b6000806001600660036101000a81548160ff021916908315150217905515611cb3576000809054906101000a900473ffffffffffffffffffffffffffffffffffffffff1673ffffffffffffffffffffffffffffffffffffffff1663c61fdf5f8686866040518463ffffffff167c0100000000000000000000000000000000000000000000000000000000028152600401808473ffffffffffffffffffffffffffffffffffffffff1673ffffffffffffffffffffffffffffffffffffffff1681526020018373ffffffffffffffffffffffffffffffffffffffff1673ffffffffffffffffffffffffffffffffffffffff1681526020018281526020019350505050602060405180830381600087803b158015611c7157600080fd5b505af1158015611c85573d6000803e3d6000fd5b505050506040513d6020811015611c9b57600080fd5b81019080805190602001909291905050509050611d72565b3483141515611d2a576040517f08c379a000000000000000000000000000000000000000000000000000000000815260040180806020018281038252601b8152602001807f6e6f742073656e6420617070726f70726961746520616d6f756e74000000000081525060200191505060405180910390fd5b8373ffffffffffffffffffffffffffffffffffffffff166108fc849081150290604051600060405180830381858888f19350505050158015611d70573d6000803e3d6000fd5b505b809150509392505050565b600460009054906101000a900473ffffffffffffffffffffffffffffffffffffffff1673ffffffffffffffffffffffffffffffffffffffff163373ffffffffffffffffffffffffffffffffffffffff16141515611e42576040517f08c379a00000000000000000000000000000000000000000000000000000000081526004018080602001828103825260158152602001807f41757468656e7469636174696f6e204661696c6564000000000000000000000081525060200191505060405180910390fd5b60001515600660029054906101000a900460ff161515141515611ecd576040517f08c379a000000000000000000000000000000000000000000000000000000000815260040180806020018281038252601b8152602001807f496e697469616c697a6174696f6e20616c726561647920646f6e65000000000081525060200191505060405180910390fd5b8560076000018190555084600760010181905550836009600001819055508260096001018190555081600181905550806002819055506000600d819055506000600e819055506000600f819055506000600660016101000a81548160ff0219169083151502179055506001600660026101000a81548160ff021916908315150217905550505050505050565b60008060009050600080611f806009600101546009600001546129dc90919063ffffffff16565b90506000611f8c6112e8565b905060008090505b600b80549050811015612122576000806000600b805490509050600091505b8082101561200a5760001515600b83815481101515611fce57fe5b906000526020600020906005020160040160009054906101000a900460ff1615151415611ffd5781925061200a565b8180600101925050611fb3565b8197505b808810156120ad57600b8881548110151561202557fe5b906000526020600020906005020160020154600b8481548110151561204657fe5b90600052602060002090600502016002015411158015612097575060001515600b8981548110151561207457fe5b906000526020600020906005020160040160009054906101000a900460ff161515145b156120a0578792505b878060010198505061200e565b6001600b848154811015156120be57fe5b906000526020600020906005020160040160006101000a81548160ff02191690831515021790555060058390806001815401808255809150509060018203906000526020600020016000909192909190915055505050508080600101915050611f94565b50600080600090505b6005805490508110156122a257600060058281548110151561214957fe5b9060005260206000200154905084600b8281548110151561216657fe5b90600052602060002090600502016001015410156121cb57600b8181548110151561218d57fe5b9060005260206000209060050201600101549250600b818154811015156121b057fe5b906000526020600020906005020160010154850394506121d3565b849250600094505b6000600b828154811015156121e457fe5b906000526020600020906005020160000160009054906101000a900473ffffffffffffffffffffffffffffffffffffffff169050600061222d85876129dc90919063ffffffff16565b9050600197506001151588151514156122815761224a8286612c04565b61225f85600f54612a4490919063ffffffff16565b600f8190555061227a81600d54612a4490919063ffffffff16565b600d819055505b6001871015612292575050506122a2565b505050808060010191505061212b565b5060019550505050505090565b600460009054906101000a900473ffffffffffffffffffffffffffffffffffffffff1673ffffffffffffffffffffffffffffffffffffffff163373ffffffffffffffffffffffffffffffffffffffff16141515612374576040517f08c379a00000000000000000000000000000000000000000000000000000000081526004018080602001828103825260158152602001807f41757468656e7469636174696f6e204661696c6564000000000000000000000081525060200191505060405180910390fd5b60001515600660029054906101000a900460ff1615151415156123ff576040517f08c379a000000000000000000000000000000000000000000000000000000000815260040180806020018281038252601b8152602001807f496e697469616c697a6174696f6e20616c726561647920646f6e65000000000081525060200191505060405180910390fd5b806000806101000a81548173ffffffffffffffffffffffffffffffffffffffff021916908373ffffffffffffffffffffffffffffffffffffffff16021790555050565b600042905090565b60078060000154908060010154905082565b60008060009050600033905060008090505b6001600c80549050038111151561252a578173ffffffffffffffffffffffffffffffffffffffff16600c828154811015156124a557fe5b906000526020600020906002020160000160009054906101000a900473ffffffffffffffffffffffffffffffffffffffff1673ffffffffffffffffffffffffffffffffffffffff16141561251f576000600c8281548110151561250457fe5b90600052602060002090600202016001015490508084019350505b80600101905061246e565b50819250505090565b6000600460009054906101000a900473ffffffffffffffffffffffffffffffffffffffff1673ffffffffffffffffffffffffffffffffffffffff163373ffffffffffffffffffffffffffffffffffffffff161415156125fa576040517f08c379a00000000000000000000000000000000000000000000000000000000081526004018080602001828103825260158152602001807f41757468656e7469636174696f6e204661696c6564000000000000000000000081525060200191505060405180910390fd5b60011515600660019054906101000a900460ff1615151415156126ab576040517f08c379a00000000000000000000000000000000000000000000000000000000081526004018080602001828103825260278152602001807f616c72656164792063616e63656c6c696e67206f66206269642069732064697381526020017f616c6c6f7765640000000000000000000000000000000000000000000000000081525060400191505060405180910390fd5b6000600660016101000a81548160ff0219169083151502179055506001905090565b6000600460009054906101000a900473ffffffffffffffffffffffffffffffffffffffff1673ffffffffffffffffffffffffffffffffffffffff163373ffffffffffffffffffffffffffffffffffffffff16141515612794576040517f08c379a00000000000000000000000000000000000000000000000000000000081526004018080602001828103825260158152602001807f41757468656e7469636174696f6e204661696c6564000000000000000000000081525060200191505060405180910390fd5b600254421180156127b8575060001515600660009054906101000a900460ff161515145b156127ed576001600660006101000a81548160ff02191690831515021790555060006127e2611f59565b9050809150506127ee565b5b90565b600c8181548110151561280057fe5b90600052602060002090600202016000915090508060000160009054906101000a900473ffffffffffffffffffffffffffffffffffffffff16908060010154905082565b6000600f54905090565b600460009054906101000a900473ffffffffffffffffffffffffffffffffffffffff1673ffffffffffffffffffffffffffffffffffffffff163373ffffffffffffffffffffffffffffffffffffffff16141515612913576040517f08c379a00000000000000000000000000000000000000000000000000000000081526004018080602001828103825260158152602001807f41757468656e7469636174696f6e204661696c6564000000000000000000000081525060200191505060405180910390fd5b6001600660036101000a81548160ff021916908315150217905550565b6000806000905060008090505b600b805490508110156129d457600b8181548110151561295957fe5b906000526020600020906005020160000160009054906101000a900473ffffffffffffffffffffffffffffffffffffffff1673ffffffffffffffffffffffffffffffffffffffff163373ffffffffffffffffffffffffffffffffffffffff1614156129c757600191506129d4565b808060010191505061293d565b508091505090565b6000808314156129ef5760009050612a14565b60008284029050828482811515612a0257fe5b04141515612a0f57600080fd5b809150505b92915050565b60008082111515612a2a57600080fd5b60008284811515612a3757fe5b0490508091505092915050565b6000808284019050838110151515612a5b57600080fd5b8091505092915050565b6000600460009054906101000a900473ffffffffffffffffffffffffffffffffffffffff1673ffffffffffffffffffffffffffffffffffffffff168573ffffffffffffffffffffffffffffffffffffffff161415612ac65760009050612bda565b612ace612ecb565b60a0604051908101604052808773ffffffffffffffffffffffffffffffffffffffff168152602001868152602001858152602001848152602001600015158152509050600b819080600181540180825580915050906001820390600052602060002090600502016000909192909190915060008201518160000160006101000a81548173ffffffffffffffffffffffffffffffffffffffff021916908373ffffffffffffffffffffffffffffffffffffffff16021790555060208201518160010155604082015181600201556060820151816003015560808201518160040160006101000a81548160ff0219169083151502179055505050506000612bd286612ea5565b905080925050505b949350505050565b6000828211151515612bf357600080fd5b600082840390508091505092915050565b600080905060008090505b600c80549050811015612d03578373ffffffffffffffffffffffffffffffffffffffff16600c82815481101515612c4257fe5b906000526020600020906002020160000160009054906101000a900473ffffffffffffffffffffffffffffffffffffffff1673ffffffffffffffffffffffffffffffffffffffff161415612cf6576000612cc584600c84815481101515612ca557fe5b906000526020600020906002020160010154612a4490919063ffffffff16565b905080600c83815481101515612cd757fe5b9060005260206000209060020201600101819055506001925050612d03565b8080600101915050612c0f565b50600015158115151415612dca57612d19612f13565b60408051908101604052808573ffffffffffffffffffffffffffffffffffffffff168152602001848152509050600c819080600181540180825580915050906001820390600052602060002090600202016000909192909190915060008201518160000160006101000a81548173ffffffffffffffffffffffffffffffffffffffff021916908373ffffffffffffffffffffffffffffffffffffffff16021790555060208201518160010155505050505b505050565b6000612dd9612f43565b6060604051908101604052808673ffffffffffffffffffffffffffffffffffffffff1681526020018581526020018481525090506010819080600181540180825580915050906001820390600052602060002090600302016000909192909190915060008201518160000160006101000a81548173ffffffffffffffffffffffffffffffffffffffff021916908373ffffffffffffffffffffffffffffffffffffffff160217905550602082015181600101556040820151816002015550505060019150509392505050565b6000612ebc82600e54612a4490919063ffffffff16565b600e8190555060019050919050565b60a060405190810160405280600073ffffffffffffffffffffffffffffffffffffffff1681526020016000815260200160008152602001600081526020016000151581525090565b6040805190810160405280600073ffffffffffffffffffffffffffffffffffffffff168152602001600081525090565b606060405190810160405280600073ffffffffffffffffffffffffffffffffffffffff1681526020016000815260200160008152509056fea165627a7a7230582007613f3f63d75638d70a7472ac134bf0632525ebd7f99bddaf2bf0ccc72a53040029",
  "source": "\npragma solidity >=0.5.0;\n\nimport \"./SafeMath.sol\";\n\ncontract SpendingAllowanceToken\n{\n    function IxxoInstantPaymentSystem(address sender,address receiver, uint256 amount) public returns(bool){}\n    function havePayableAmount(address sender,uint256 tokens) public returns(bool){}\n}\n\ncontract FundRaising \n{\n    using SafeMath for uint256;\n    SpendingAllowanceToken sat;\n    uint256 public StartDate ;\n    uint256 public EndDate ;\n    address private paymentAddress;\n    address private owner;\n    uint256[] bidList;\n    bool SharesAllocationDone = false;\n    bool public cancellingBids;\n    bool inited ;\n    bool satPayement;\n\n       constructor () public \n    {\n        paymentAddress = msg.sender;\n        owner = msg.sender;\n        inited = false;\n        satPayement = false;\n    }\n\n    function setInitialValues(uint256 initialPrice,uint256 delta,uint256 companySharesPerBucket,uint256 maxSharesNumber,uint256 startDate,uint256 _EndDate)\n    public onlyOwner onlyOnce{\n    sharePriceStructure.initialPrice = initialPrice;\n        sharePriceStructure.delta = delta;\n        shareStructure.ComapnySharePerBucket = companySharesPerBucket;\n        shareStructure.MaxBucketNumber = maxSharesNumber;\n        StartDate = startDate;\n        EndDate = _EndDate;\n        AmountRaised = 0;\n        nbSharesBidded = 0;\n        SharesAllocated = 0;\n        cancellingBids = false;\n        \n        inited = true;\n    }\n    function setSPendingAllowanceTOkenAddress(address _t) public onlyOwner onlyOnce {\n        sat = SpendingAllowanceToken(_t);\n    }\n\n    function enableSatPayement() public onlyOwner  {\n        satPayement = true;\n    }\n\n    function disableSatPayment() public onlyOwner {\n        satPayement = false;\n    }\n\n\n    modifier onlyOwner()\n    {\n        require(msg.sender == owner,\"Authentication Failed\");\n        _;\n    }\n\n    modifier onlyOnce()\n    {\n        require(inited == false,\"Initialization already done\");\n        _;\n    }\n\n    struct SharePriceStructure\n    {\n        uint256 initialPrice ;\n        uint256 delta;\n    }\n    SharePriceStructure public sharePriceStructure ;\n\n     \n    struct ShareStructure\n    {\n        uint256 ComapnySharePerBucket;\n        uint256 MaxBucketNumber; \n    }\n    ShareStructure public shareStructure ;\n\n\n    struct ShareBid\n    {\n        address bidder;\n        uint nbShares;\n        uint256 MaxPrice;  \n        uint256 timeOfBid;\n        bool handled;\n    }  \n    ShareBid[] public bids;\n    \n\n    struct ShareOwner\n    {\n        address owner;\n        uint256 numberOfShares;\n    }\n    ShareOwner[] public SOwner;\n\n        \n    uint256 public AmountRaised;\n    uint256 private nbSharesBidded;\n    uint256 public SharesAllocated;\n\n\n    struct SellOrder \n    {\n        address payable Seller; \n        uint256 SellingShares;\n        uint256 AskingPrice;\n    }\n    SellOrder[] public SOrder;\n    \n\n    /**\n     * @dev function for placing the bid ( for buying shares) or selling of shares(after end date only)\n     * @param _nbShares ,number of shares to be bought or sell\n     * @param _tradeDirection ,If currentTime < EndDate , tradeDirection 0 = Buy & 1 = Buy\n     * && if currentTime > EndDate , tradeDirection 0=Buy (if stocks available ) && 1 = sell\n     * @param _MaxPrice , maximum amount amount willing to pay if buying or minimum amount asking ,if selling\n     * @return bool , true if transaction is completes successfully else false \n     */\n    function PlaceOrder( uint256 _nbShares, uint256 _tradeDirection, uint256 _MaxPrice) public returns (bool , uint256)\n    {       \n        address payable beneficiary = msg.sender;\n          \n        uint256 Time = now;\n        bool res;\n        \n        if(Time <= EndDate)\n        {\n            uint256 CurrentPrice = getSharePrice();\n            if(_tradeDirection==0 || _tradeDirection==1 )\n\n            {\n                if(CurrentPrice <= _MaxPrice)\n                {\n                    res = PlaceBuyOrder (beneficiary,_nbShares,_MaxPrice,Time);\n                    return (res , _nbShares) ;\n                }\n                else{return (false , 0);}\n            } \n\n    }\n   \n     else if(Time > EndDate)\n        { \n            if(_tradeDirection == 0) //buying Shares from seller\n            {   \n                bool flag;\n                uint256 amount;\n                uint256 sharesToAllocate;\n                require(SOrder.length > 0,\"seller list is empty\");\n                for(uint256 i = 0 ; i < SOrder.length; i++)\n                {\n                    if(SOrder[i].AskingPrice <= _MaxPrice && SOrder[i].SellingShares > 0)\n                    {\n                        if(SOrder[i].SellingShares >= _nbShares)\n                        {   \n                            sharesToAllocate = _nbShares;\n                            amount = (SOrder[i].AskingPrice).mul(_nbShares);\n                            flag = payment(msg.sender,SOrder[i].Seller,amount);\n                            require(flag == true,\"payment failed\");\n                            SOrder[i].SellingShares = (SOrder[i].SellingShares).sub(_nbShares);\n                            _nbShares = 0;\n                            allocateShares(msg.sender,sharesToAllocate);\n                            \n                            \n                        }\n                        else if (SOrder[i].SellingShares < _nbShares)\n                        {\n                            sharesToAllocate = SOrder[i].SellingShares;\n                            amount = (SOrder[i].AskingPrice).mul(SOrder[i].SellingShares);\n                            flag = payment(msg.sender,SOrder[i].Seller,amount);\n                            require(flag == true,\"payment failed\");\n                            _nbShares = _nbShares.sub(SOrder[i].SellingShares);\n                            SOrder[i].SellingShares = 0; \n                            allocateShares(msg.sender,sharesToAllocate);\n                            \n                        }\n                    }\n                    if(_nbShares == 0)\n                    {\n                        break;\n                    }\n                }\n          }\n               \n            if (_tradeDirection==1)  // placing sell order by share owners only\n            {   \n                uint256 i;\n                uint256 OwnerShares = 0;\n                \n                for( i = 0 ; i < SOwner.length ; i++)\n                {\n                    if (SOwner[i].owner == msg.sender)\n                    {\n                        OwnerShares = SOwner[i].numberOfShares;\n                        break;\n                    }\n                }\n\n            if(OwnerShares >= _nbShares)\n            { \n                SOwner[i].numberOfShares = OwnerShares.sub(_nbShares);\n                res = PlaceSellOrder(beneficiary,_nbShares,_MaxPrice);\n                return (res , _nbShares);\n            }\n            \n            return (false ,_nbShares) ;\n    \n            }\n        }\n    }\n\n\n    /**\n     * @dev facilitates the payments of SAT tokens \n     */\n    function payment(address sender,address payable receiver,uint256 amount) public payable returns(bool)\n    {\n        bool res;\n        if(satPayement = true) {\n         res = sat.IxxoInstantPaymentSystem(sender,receiver,amount);\n        }\n        else {\n            require(amount == msg.value, \"not send appropriate amount\");\n            receiver.transfer(amount);\n        }\n        return res ;\n    }\n\n    function cancelBids(uint256 bidId) public returns(bool)\n    {\n        require(cancellingBids == true,\"cancelling bids is disabled\");\n        require(now < EndDate ,\"bid cannot be canceled now\");\n        require(bidderExist() == true,\"Not a bidder\");\n        require(msg.sender ==bids[bidId].bidder);\n\n        uint256 len = bids.length;\n        uint256 ind = len-1;\n\n        //reduce the amount if bid is canceled successfuly  , mandatory since it only decides the current price fluctuation\n        AmountRaised = AmountRaised - bids[bidId].MaxPrice;\n        // copy last bid content at the position of this bid , then delete last bid (since we dont need bid sequence to maintained , bis can be in any order)\n         bids[bidId].bidder = bids[ind].bidder;\n         bids[bidId].nbShares = bids[ind].nbShares;\n         bids[bidId].MaxPrice = bids[ind].MaxPrice;  \n         bids[bidId].timeOfBid = bids[ind].timeOfBid;\n         bids[bidId].handled = bids[ind].handled;\n        return true; // if bid is canceled sucessfully \n\n    }\n\n    /**\n    * @dev function returns all the bids of user one by one \n\n    */\n    function returnMybids(uint256 index) public view returns(address,uint256,uint256,bool,uint256)\n    {\n        //check list with user msg.sender\n       //address bidder = msg.sender;\n        require(bidderExist() == true,\"Not a bidder\");\n        for(uint256 i = index ; i < bids.length ; i++)\n        {\n            if(msg.sender == bids[i].bidder)\n            {\n                //uint nbShares = bids[i].nbShares;\n                uint256 MaxPrice = bids[i].MaxPrice;  \n                uint256 timeOfBid = bids[i].timeOfBid;\n                uint256 newIndex = i+1;\n                if(newIndex < bids.length)\n                {\n                    return(msg.sender,MaxPrice,timeOfBid,true,newIndex);\n                    //break;\n                }\n                else\n                {\n                    return(msg.sender,MaxPrice,timeOfBid,false,0);\n                    //break;\n                }\n            }\n        }\n    }\n\n    /**\n    * @dev returns true if msg.sender is a bidder or not\n    */\n    function bidderExist() view internal  returns(bool)\n    {\n        bool res = false;\n        for(uint256 i = 0 ; i < bids.length ; i++)\n        {\n            if(msg.sender == bids[i].bidder) \n            {\n                res = true;\n                break;\n            }\n        }\n\n        return res;\n\n    }\n    \n    /**\n     * @dev returns the index of seller ,with lowest asking price \n     */\n    function getMinimumAskingPriceSeller() public view returns (uint256)\n    {\n        uint256 min;\n        uint256 i ;\n        uint256 j ;\n        uint256 len = SOrder.length;\n        require(len > 0 , \"list empty\");\n        for ( j = 0 ; j < len ; j++ ) //finding first entry which has atleast one share available for selling\n        {\n            if(SOrder[j].SellingShares != 0)\n            {\n                min = j;\n                break;\n            }\n        }\n\n        for (i= min ; i < len ; i++) // starting loop with j, as before entry has no shares available for selling , so no need to add in loop for checking\n        {\n            if(SOrder[min].AskingPrice >= SOrder[i].AskingPrice && SOrder[i].SellingShares > 0)\n            {\n                min = i;\n            }\n        }\n        return min;\n    }\n\n\n    /**\n     * @dev function calculates and returns the current price of shares according to number of shares bidded till now \n     * Note :  finds how much delta is to be added to add to intial price, to find current price according to the percentage of number of shares bidded on\n     */\n    function getSharePrice() public view returns(uint256 )\n    {\n        uint256 TotalShares = shareStructure.ComapnySharePerBucket.mul(shareStructure.MaxBucketNumber);\n        uint256 deltaTimes = (nbSharesBidded).div(TotalShares);\n        uint256 CurrentPrice = (sharePriceStructure.initialPrice).add(deltaTimes.mul(sharePriceStructure.delta));\n        return CurrentPrice ;            \n    }\n\n\n    /**\n     * @dev returns the number of shares on which bididng is done \n     */\n    function getTotalSharesAllocated( ) public view returns (uint256) // finds total number of shares allocated till now\n    {  // global variable which gets upadated when actual buying transaction takes place\n        return SharesAllocated;\n    }\n\n\n    /**\n     * @dev retuns the number of Shares held by an address\n        */\n    function getShares() public view returns (uint256) // finds total number of shares held by an individual\n    {\n        uint256 SharesHeld =0 ;\n                // storing The adderss of the entity who made the request\n            address person = msg.sender;\n                // loop for running through out the list , to find out total shares held \n            for(uint256 i = 0 ; i <= SOwner.length-1 ; ++i)\n            {\n                // if address matches in list means , requesting person is owner of the perticular share          \n                if (SOwner[i].owner == person)\n                {\n                    uint256 Shares = SOwner[i].numberOfShares;\n                // variable storing total number of shares\n                    SharesHeld = SharesHeld + Shares ;    \n            }\n                \n        }\n        return SharesHeld;\n    }\n\n\n    /**\n     * @dev returns the total monry raised by the auction , via selling shares\n     */\n    function getRaisedMoneyAmount() public view onlyOwner returns (uint256)\n    {  \n        return AmountRaised;\n    }\n\n    \n    /**\n     * @dev checks if the span of auction is over and than triggers the actual allocation of shares \n     * Note : can be called by owner of the contract only \n     * @return bool : returns true/false if Raising EndPoint reached & assign shares to winning bidders\n     */\n    function IsRaisingMoneySuccessful() public  onlyOwner  returns (bool) \n    {    \n        if(now > EndDate && SharesAllocationDone == false)\n        {\n            SharesAllocationDone = true;\n            bool res = buy();\n            return res;\n        }\n    }\n\n\n   /**\n    * @dev return total number of shares on which bidding is done\n    * @return , total number of shares on which bidding is done \n    */\n    function getNbSharesBidded() public view returns (uint256)   \n    {  \n        return nbSharesBidded; \n    } \n\n\n    /**\n     * @dev add number of shars shares in total number of shares on which bidding is done\n     * @return bool , true if transaction completes successfully \n     */\n    function setNbSharesBidded(uint256 _nbShares) internal returns (bool)\n    { \n        nbSharesBidded = nbSharesBidded.add(_nbShares);\n        return true;\n    }\n\n\n    /**\n     * @dev function that maintain the list of share owners willing to sell shares with related information\n     * @param beneficiary , entity willing to sell the shares \n     * @param _nbShares , amount of shares entity is willing to sell\n     * @param _AskingPrice , price entity willing to sell a single share for\n     * @return bool , if transaction comletes successfully , else false  \n     */\n    function PlaceSellOrder(address payable beneficiary, uint256 _nbShares, uint256 _AskingPrice) internal returns(bool)\n    { \n        SellOrder memory SOrders = SellOrder(beneficiary, _nbShares, _AskingPrice);\n        SOrder.push(SOrders);\n        return true ; \n    }\n\n\n    /**\n     * @dev function that maintain the list of enities willing to buy shares with related information \n     * @param beneficiary , entity willing to buy the shares \n     * @param _nbShares , amount of shares entity is willing to buy \n     * @param _MaxPrice , maximum price entity willing to pay for single share\n     * @param _time , timestamp at which the bid was made \n     * @return bool , if transaction comletes successfully , else false \n     */\n    function PlaceBuyOrder(address beneficiary,uint256 _nbShares,uint256 _MaxPrice, uint256 _time ) internal returns (bool)\n    { \n        if(beneficiary == owner)\n        {\n            return false ;\n        }\n        else\n        {\n        ShareBid memory bid = ShareBid(beneficiary, _nbShares, _MaxPrice, _time,false);\n        bids.push(bid);\n        bool done = setNbSharesBidded(_nbShares);\n        return done;\n        }\n    } \n\n\n    /**\n     * @dev facilitates the buying of tokens from owner of tokens and carries out payment transaction\n     */\n    function buyFromSeller(address beneficiary , uint256 nbShares) internal  returns (bool)\n    {\n        uint256 len = SOwner.length;\n        for (uint256 i = 0 ; i < len ; i++)\n        {\n            if(beneficiary == SOwner[i].owner)\n            {\n                SOwner[i].numberOfShares = (SOwner[i].numberOfShares).add(nbShares);\n                break ;\n            }\n        }\n        SOwner.push(ShareOwner(beneficiary, nbShares));\n        return true;\n    }\n\n\n    /**\n     * @dev facilitates the actual selling of shares by shares holders \n     * @param beneficiary ,the entity selling the shares \n     * @param _sharesToSell , amount of shares selling \n     * @param _AskingPrice , price asked by seller for single share\n     * @return bool , if transaction completes successfully \n     */\n    function sell(address payable beneficiary ,uint256 _sharesToSell,uint256 _AskingPrice)internal  returns (bool) \n    { \n        address payable seller = beneficiary ;\n        uint256 ReceivingAmount = _AskingPrice.mul(_sharesToSell);\n        bool res = payment(msg.sender,seller,ReceivingAmount );\n        return res ;\n    }    \n\n\n    /**\n     * @dev facililates the actual buying of shares on the basis of priorities \n     * @return bool , if transaction completes successfully \n     */\n    function buy() public returns(bool) \n    {  \n        uint256 i=0;\n        bool res;\n        uint256 TotalSharesForSale = shareStructure.ComapnySharePerBucket.mul(shareStructure.MaxBucketNumber);\n        uint256 CurrentPrice = getSharePrice();\n        \n        for(uint256 z = 0 ; z < bids.length ; z++)\n        {\n            uint256 max;\n            //uint256 i ;\n            uint256 j ;\n            uint256 len = bids.length;\n        \n        for (j = 0 ; j < len ; j++ ) //finding first entry which has atleast one share available for selling\n        {\n            if(bids[j].handled == false)\n            {\n                max = j;\n                break;\n            }\n        }\n\n        for (i=j ; i < len ; i++) // starting loop with j, as before entry has no shares available for selling , so no need to add in loop for checking\n        {\n            if(bids[max].MaxPrice <= bids[i].MaxPrice && bids[i].handled == false)\n            {\n                max = i;\n            }\n        }\n        bids[max].handled=true;\n        bidList.push(max);\n        }\n        uint256 sharetoAllocate;\n        for(uint256 x =0 ; x < bidList.length; x++) \n        {\n            uint256 index = bidList[x];\n            if(bids[index].nbShares < TotalSharesForSale)\n            {\n                sharetoAllocate = bids[index].nbShares;\n                TotalSharesForSale = TotalSharesForSale - bids[index].nbShares;\n            }\n            else\n            {\n                sharetoAllocate = TotalSharesForSale;   \n                TotalSharesForSale = 0 ; \n        }\n            address winningbidder = bids[index].bidder;\n            uint256 Amount = CurrentPrice.mul(sharetoAllocate);\n            //since require alts whole loop so , we are not using it here \n            //require(sat.havePayableAmount(winningbidder,Amount),\"Insufficient funds\");\n            res = true;//sat.IxxoInstantPaymentSystem(winningbidder,paymentAddress,Amount);\n                if(res == true)\n                {   \n                    allocateShares(winningbidder ,sharetoAllocate);\n                   SharesAllocated= SharesAllocated.add(sharetoAllocate);\n                   AmountRaised = AmountRaised.add(Amount);\n                }\n\n             if(TotalSharesForSale < 1)\n             {\n                 break;\n             }\n        }\n       \n        return true;\n    }\n\n     function allocateShares(address winningbidder ,uint256 sharetoAllocate) internal \n     {\n         bool flag = false;\n         for(uint256 j=0 ; j<SOwner.length ; j++)\n            {\n                if(SOwner[j].owner == winningbidder )\n            {\n                uint256 total = SOwner[j].numberOfShares.add(sharetoAllocate);\n                SOwner[j].numberOfShares = total;\n                flag = true;\n                break;\n            }\n            }\n\n            if (flag == false)\n            {\n                ShareOwner memory TOwners = ShareOwner(winningbidder, sharetoAllocate);\n             SOwner.push(TOwners);\n            }\n     }\n     \n     function getCurrentRunningTime() public view returns(uint256)\n     {\n         return now;\n     }\n\n     function stopCancellingOfBids() public onlyOwner returns(bool)\n     {\n         require(cancellingBids == true,\"already cancelling of bid is disallowed\");\n         cancellingBids = false;\n         return true ;\n     }\n\n\n     function startCancellingOfBids() public onlyOwner returns(bool)\n     {\n         require(cancellingBids == false,\"already bid cancelling allowed\");\n         cancellingBids = true;\n         return true;\n     }\n     \n}\n",
  "sourcePath": "/home/sagar/go/src/github.com/AlphaDinoRC/ixxo_smartcontracts/FundRaising/contracts/FundRaising.sol",
  "compiler": {
    "name": "solc",
    "version": "0.5.0+commit.1d4f565a.Emscripten.clang"
  },
  "schemaVersion": "3.0.6",
  "updatedAt": "2019-10-24T12:09:00.650Z",
  "devdoc": {
    "methods": {
      "IsRaisingMoneySuccessful()": {
        "details": "checks if the span of auction is over and than triggers the actual allocation of shares  Note : can be called by owner of the contract only ",
        "return": "bool : returns true/false if Raising EndPoint reached & assign shares to winning bidders"
      },
      "PlaceOrder(uint256,uint256,uint256)": {
        "details": "function for placing the bid ( for buying shares) or selling of shares(after end date only)",
        "params": {
          "_MaxPrice": ", maximum amount amount willing to pay if buying or minimum amount asking ,if selling",
          "_nbShares": ",number of shares to be bought or sell",
          "_tradeDirection": ",If currentTime < EndDate , tradeDirection 0 = Buy & 1 = Buy && if currentTime > EndDate , tradeDirection 0=Buy (if stocks available ) && 1 = sell"
        },
        "return": "bool , true if transaction is completes successfully else false "
      },
      "buy()": {
        "details": "facililates the actual buying of shares on the basis of priorities ",
        "return": "bool , if transaction completes successfully "
      },
      "getMinimumAskingPriceSeller()": {
        "details": "returns the index of seller ,with lowest asking price "
      },
      "getNbSharesBidded()": {
        "details": "return total number of shares on which bidding is done",
        "return": ", total number of shares on which bidding is done "
      },
      "getRaisedMoneyAmount()": {
        "details": "returns the total monry raised by the auction , via selling shares"
      },
      "getSharePrice()": {
        "details": "function calculates and returns the current price of shares according to number of shares bidded till now  Note :  finds how much delta is to be added to add to intial price, to find current price according to the percentage of number of shares bidded on"
      },
      "getShares()": {
        "details": "retuns the number of Shares held by an address"
      },
      "getTotalSharesAllocated()": {
        "details": "returns the number of shares on which bididng is done "
      },
      "payment(address,address,uint256)": {
        "details": "facilitates the payments of SAT tokens "
      },
      "returnMybids(uint256)": {
        "details": "function returns all the bids of user one by one "
      }
    }
  },
  "userdoc": {
    "methods": {}
  }
}