{
  "contractName": "PrimaryToken",
  "abi": [
    {
      "constant": true,
      "inputs": [],
      "name": "SharesAllocated",
      "outputs": [
        {
          "name": "",
          "type": "uint256"
        }
      ],
      "payable": false,
      "stateMutability": "view",
      "type": "function",
      "signature": "0x0526d2de"
    },
    {
      "constant": true,
      "inputs": [],
      "name": "StartDate",
      "outputs": [
        {
          "name": "",
          "type": "uint256"
        }
      ],
      "payable": false,
      "stateMutability": "view",
      "type": "function",
      "signature": "0x12bae48d"
    },
    {
      "constant": true,
      "inputs": [],
      "name": "EndDate",
      "outputs": [
        {
          "name": "",
          "type": "uint256"
        }
      ],
      "payable": false,
      "stateMutability": "view",
      "type": "function",
      "signature": "0x1954f39e"
    },
    {
      "constant": true,
      "inputs": [],
      "name": "nbTokenBidded",
      "outputs": [
        {
          "name": "",
          "type": "uint256"
        }
      ],
      "payable": false,
      "stateMutability": "view",
      "type": "function",
      "signature": "0x25c4cd3c"
    },
    {
      "constant": true,
      "inputs": [],
      "name": "shareStructure",
      "outputs": [
        {
          "name": "ComapnySharePerBucket",
          "type": "uint256"
        },
        {
          "name": "MaxBucketNumber",
          "type": "uint256"
        }
      ],
      "payable": false,
      "stateMutability": "view",
      "type": "function",
      "signature": "0x42a9abb1"
    },
    {
      "constant": true,
      "inputs": [
        {
          "name": "",
          "type": "address"
        }
      ],
      "name": "SellOrders",
      "outputs": [
        {
          "name": "Seller",
          "type": "address"
        },
        {
          "name": "SellingTokens",
          "type": "uint256"
        },
        {
          "name": "AskingPrice",
          "type": "uint256"
        }
      ],
      "payable": false,
      "stateMutability": "view",
      "type": "function",
      "signature": "0x64dc3831"
    },
    {
      "constant": true,
      "inputs": [],
      "name": "AmountRaised",
      "outputs": [
        {
          "name": "",
          "type": "uint256"
        }
      ],
      "payable": false,
      "stateMutability": "view",
      "type": "function",
      "signature": "0x6c526503"
    },
    {
      "constant": true,
      "inputs": [],
      "name": "tokenPriceStructure",
      "outputs": [
        {
          "name": "initialPrice",
          "type": "uint256"
        },
        {
          "name": "delta",
          "type": "uint256"
        }
      ],
      "payable": false,
      "stateMutability": "view",
      "type": "function",
      "signature": "0x7d39e25c"
    },
    {
      "constant": true,
      "inputs": [],
      "name": "owner",
      "outputs": [
        {
          "name": "",
          "type": "address"
        }
      ],
      "payable": false,
      "stateMutability": "view",
      "type": "function",
      "signature": "0x8da5cb5b"
    },
    {
      "inputs": [],
      "payable": false,
      "stateMutability": "nonpayable",
      "type": "constructor",
      "signature": "constructor"
    },
    {
      "payable": true,
      "stateMutability": "payable",
      "type": "fallback"
    },
    {
      "constant": false,
      "inputs": [
        {
          "name": "_nbTokens",
          "type": "uint256"
        },
        {
          "name": "_tradeDirection",
          "type": "uint256"
        },
        {
          "name": "_MaxPrice",
          "type": "uint256"
        }
      ],
      "name": "PlaceOrder",
      "outputs": [
        {
          "name": "",
          "type": "bool"
        }
      ],
      "payable": true,
      "stateMutability": "payable",
      "type": "function",
      "signature": "0x91e63745"
    },
    {
      "constant": true,
      "inputs": [],
      "name": "getTokenPrice",
      "outputs": [
        {
          "name": "",
          "type": "uint256"
        }
      ],
      "payable": false,
      "stateMutability": "view",
      "type": "function",
      "signature": "0x4b94f50e"
    },
    {
      "constant": true,
      "inputs": [],
      "name": "getSharesAllocated",
      "outputs": [
        {
          "name": "",
          "type": "uint256"
        }
      ],
      "payable": false,
      "stateMutability": "view",
      "type": "function",
      "signature": "0x518e41ee"
    },
    {
      "constant": false,
      "inputs": [],
      "name": "getShares",
      "outputs": [
        {
          "name": "",
          "type": "uint256"
        }
      ],
      "payable": true,
      "stateMutability": "payable",
      "type": "function",
      "signature": "0xd73fe0aa"
    },
    {
      "constant": false,
      "inputs": [],
      "name": "getRaisedMoneyAmount",
      "outputs": [
        {
          "name": "",
          "type": "uint256"
        }
      ],
      "payable": false,
      "stateMutability": "nonpayable",
      "type": "function",
      "signature": "0x66f52562"
    },
    {
      "constant": false,
      "inputs": [],
      "name": "IsRaisingMoneySuccessful",
      "outputs": [
        {
          "name": "",
          "type": "bool"
        }
      ],
      "payable": false,
      "stateMutability": "nonpayable",
      "type": "function",
      "signature": "0xdcf1fd63"
    },
    {
      "constant": false,
      "inputs": [
        {
          "name": "_tokens",
          "type": "uint256"
        },
        {
          "name": "task",
          "type": "uint256"
        }
      ],
      "name": "getTokenAmount",
      "outputs": [
        {
          "name": "",
          "type": "bool"
        }
      ],
      "payable": false,
      "stateMutability": "nonpayable",
      "type": "function",
      "signature": "0x0bc1236e"
    },
    {
      "constant": false,
      "inputs": [],
      "name": "buy",
      "outputs": [
        {
          "name": "",
          "type": "bool"
        }
      ],
      "payable": false,
      "stateMutability": "nonpayable",
      "type": "function",
      "signature": "0xa6f2ae3a"
    }
  ],
  "bytecode": "0x608060405233600260006101000a81548173ffffffffffffffffffffffffffffffffffffffff021916908373ffffffffffffffffffffffffffffffffffffffff16021790555034801561005157600080fd5b50426000819055506120ca806100686000396000f3fe6080604052600436106100f1576000357c0100000000000000000000000000000000000000000000000000000000900463ffffffff1680630526d2de146100f65780630bc1236e1461012157806312bae48d1461017e5780631954f39e146101a957806325c4cd3c146101d457806342a9abb1146101ff5780634b94f50e14610231578063518e41ee1461025c57806364dc38311461028757806366f52562146103265780636c526503146103515780637d39e25c1461037c5780638da5cb5b146103ae57806391e6374514610405578063a6f2ae3a1461045f578063d73fe0aa1461048e578063dcf1fd63146104ac575b600080fd5b34801561010257600080fd5b5061010b6104db565b6040518082815260200191505060405180910390f35b34801561012d57600080fd5b506101646004803603604081101561014457600080fd5b8101908080359060200190929190803590602001909291905050506104e1565b604051808215151515815260200191505060405180910390f35b34801561018a57600080fd5b5061019361051b565b6040518082815260200191505060405180910390f35b3480156101b557600080fd5b506101be610521565b6040518082815260200191505060405180910390f35b3480156101e057600080fd5b506101e9610527565b6040518082815260200191505060405180910390f35b34801561020b57600080fd5b5061021461052d565b604051808381526020018281526020019250505060405180910390f35b34801561023d57600080fd5b5061024661053f565b6040518082815260200191505060405180910390f35b34801561026857600080fd5b50610271610612565b6040518082815260200191505060405180910390f35b34801561029357600080fd5b506102d6600480360360208110156102aa57600080fd5b81019080803573ffffffffffffffffffffffffffffffffffffffff16906020019092919050505061061c565b604051808473ffffffffffffffffffffffffffffffffffffffff1673ffffffffffffffffffffffffffffffffffffffff168152602001838152602001828152602001935050505060405180910390f35b34801561033257600080fd5b5061033b610666565b6040518082815260200191505060405180910390f35b34801561035d57600080fd5b50610366610735565b6040518082815260200191505060405180910390f35b34801561038857600080fd5b5061039161073b565b604051808381526020018281526020019250505060405180910390f35b3480156103ba57600080fd5b506103c361074d565b604051808273ffffffffffffffffffffffffffffffffffffffff1673ffffffffffffffffffffffffffffffffffffffff16815260200191505060405180910390f35b6104456004803603606081101561041b57600080fd5b81019080803590602001909291908035906020019092919080359060200190929190505050610773565b604051808215151515815260200191505060405180910390f35b34801561046b57600080fd5b5061047461102f565b604051808215151515815260200191505060405180910390f35b6104966114d6565b6040518082815260200191505060405180910390f35b3480156104b857600080fd5b506104c16115b5565b604051808215151515815260200191505060405180910390f35b600b5481565b6000808214156104fb5782600a5401600a81905550610511565b60018214156105105782600a5403600a819055505b5b6001905092915050565b60005481565b60015481565b600a5481565b60058060000154908060010154905082565b60008061055f6005600101546005600001546116ab90919063ffffffff16565b905060008061058c8361057e6064600a546116ab90919063ffffffff16565b6116e990919063ffffffff16565b90506001811115156105ab57600360000154915081935050505061060f565b60006105d4600a6105c660018561171390919063ffffffff16565b6116e990919063ffffffff16565b90506106056105f1600360010154836116ab90919063ffffffff16565b60036000015461173590919063ffffffff16565b9250829450505050505b90565b6000600b54905090565b600c6020528060005260406000206000915090508060000160009054906101000a900473ffffffffffffffffffffffffffffffffffffffff16908060010154908060020154905083565b6000600260009054906101000a900473ffffffffffffffffffffffffffffffffffffffff1673ffffffffffffffffffffffffffffffffffffffff163373ffffffffffffffffffffffffffffffffffffffff1614151561072d576040517f08c379a00000000000000000000000000000000000000000000000000000000081526004018080602001828103825260198152602001807f4e6f7420746865206f776e6572206f6620636f6e74726163740000000000000081525060200191505060405180910390fd5b600954905090565b60095481565b60038060000154908060010154905082565b600260009054906101000a900473ffffffffffffffffffffffffffffffffffffffff1681565b600080339050600061078361053f565b905060004290506000600154821115156109065760008714156107d05785831115156107c3576107b584898885611756565b905080945050505050611028565b6000945050505050611028565b600187141561090157600080905060008090505b6007805490508110156108795760078181548110151561080057fe5b906000526020600020906004020160000160009054906101000a900473ffffffffffffffffffffffffffffffffffffffff1673ffffffffffffffffffffffffffffffffffffffff168673ffffffffffffffffffffffffffffffffffffffff16141561086c578160010191505b80806001019150506107e4565b5060018110806108d65750600260009054906101000a900473ffffffffffffffffffffffffffffffffffffffff1673ffffffffffffffffffffffffffffffffffffffff168573ffffffffffffffffffffffffffffffffffffffff16145b156108e957600095505050505050611028565b6108f2856118ac565b91508195505050505050611028565b611023565b600154821115611022576000871415610e8c576000600d805490501115610a4f5760006001600d80549050039050600080600090505b82811015610a47576001810191505b8282111515610a3a57600d8281548110151561096357fe5b906000526020600020906003020160020154600d8281548110151561098457fe5b9060005260206000209060030201600201541015610a2d576000600d828154811015156109ad57fe5b9060005260206000209060030201600201549050600d838154811015156109d057fe5b906000526020600020906003020160020154600d838154811015156109f157fe5b90600052602060002090600302016002018190555080600d84815481101515610a1657fe5b906000526020600020906003020160020181905550505b818060010192505061094b565b808060010191505061093c565b505050610a5c565b6000945050505050611028565b85600d6001600d8054905003815481101515610a7457fe5b9060005260206000209060030201600201541015610e7f5760008890506000806001600d805490500390505b600183101515610e6f5760003390506000600d83815481101515610ac057fe5b906000526020600020906003020160000160009054906101000a900473ffffffffffffffffffffffffffffffffffffffff169050600d83815481101515610b0357fe5b9060005260206000209060030201600201548b101515610e5657600d83815481101515610b2c57fe5b90600052602060002090600302016001015485101515610ce3576000600d84815481101515610b5757fe5b9060005260206000209060030201600101549050600d84815481101515610b7a57fe5b90600052602060002090600302016001015486039550600d84815481101515610b9f57fe5b9060005260206000209060030201600080820160006101000a81549073ffffffffffffffffffffffffffffffffffffffff0219169055600182016000905560028201600090555050600d8054600190039081610bfb9190611f6f565b50610c2f600d85815481101515610c0e57fe5b906000526020600020906003020160020154826116ab90919063ffffffff16565b9450600860408051908101604052808573ffffffffffffffffffffffffffffffffffffffff168152602001888152509080600181540180825580915050906001820390600052602060002090600202016000909192909190915060008201518160000160006101000a81548173ffffffffffffffffffffffffffffffffffffffff021916908373ffffffffffffffffffffffffffffffffffffffff1602179055506020820151816001015550505050610e51565b600d83815481101515610cf257fe5b906000526020600020906003020160010154851015610e5057610d3e85600d85815481101515610d1e57fe5b90600052602060002090600302016001015461171390919063ffffffff16565b600d84815481101515610d4d57fe5b906000526020600020906003020160010181905550610d95600d84815481101515610d7457fe5b906000526020600020906003020160020154866116ab90919063ffffffff16565b9350610d9f611fa1565b60408051908101604052808473ffffffffffffffffffffffffffffffffffffffff1681526020018781525090506008819080600181540180825580915050906001820390600052602060002090600202016000909192909190915060008201518160000160006101000a81548173ffffffffffffffffffffffffffffffffffffffff021916908373ffffffffffffffffffffffffffffffffffffffff16021790555060208201518160010155505050505b5b610e68565b60009950505050505050505050611028565b5050610aa0565b6001975050505050505050611028565b6000945050505050611028565b60018714156110215760008060009050600260009054906101000a900473ffffffffffffffffffffffffffffffffffffffff1673ffffffffffffffffffffffffffffffffffffffff168673ffffffffffffffffffffffffffffffffffffffff161415610f015760009650505050505050611028565b600091505b600880549050821015610fb8578573ffffffffffffffffffffffffffffffffffffffff16600883815481101515610f3957fe5b906000526020600020906002020160000160009054906101000a900473ffffffffffffffffffffffffffffffffffffffff1673ffffffffffffffffffffffffffffffffffffffff161415610fab57600882815481101515610f9657fe5b90600052602060002090600202016001015490505b8180600101925050610f06565b89811015610fcf5760009650505050505050611028565b610fe28a8261171390919063ffffffff16565b600883815481101515610ff157fe5b906000526020600020906002020160010181905550611011868b8a611a19565b9250829650505050505050611028565b5b5b505050505b9392505050565b6000806001600780549050039050600080600090505b82811015611150576001810191505b82821115156111435760078281548110151561106c57fe5b90600052602060002090600402016002015460078281548110151561108d57fe5b90600052602060002090600402016002015411156111365760006007828154811015156110b657fe5b90600052602060002090600402016002015490506007838154811015156110d957fe5b9060005260206000209060040201600201546007838154811015156110fa57fe5b9060005260206000209060040201600201819055508060078481548110151561111f57fe5b906000526020600020906004020160020181905550505b8180600101925050611054565b8080600101915050611045565b600061116f6005600101546005600001546116ab90919063ffffffff16565b905060006001600780549050039050600092505b6007805490508310156114a257600082141580156111a657506000600780549050115b156114955760006111b561053f565b905060006007838154811015156111c857fe5b906000526020600020906004020160000160009054906101000a900473ffffffffffffffffffffffffffffffffffffffff169050600060078481548110151561120d57fe5b9060005260206000209060040201600101549050600061123682856116ab90919063ffffffff16565b905061124d8160095461173590919063ffffffff16565b60098190555081600b5401600b81905550611271828761171390919063ffffffff16565b955060078581548110151561128257fe5b9060005260206000209060040201600080820160006101000a81549073ffffffffffffffffffffffffffffffffffffffff0219169055600182016000905560028201600090556003820160009055505084600190039450600097505b600880549050881015611490578273ffffffffffffffffffffffffffffffffffffffff1660088981548110151561131157fe5b906000526020600020906002020160000160009054906101000a900473ffffffffffffffffffffffffffffffffffffffff1673ffffffffffffffffffffffffffffffffffffffff1614156113ca5760006113948360088b81548110151561137457fe5b90600052602060002090600202016001015461173590919063ffffffff16565b90508060088a8154811015156113a657fe5b90600052602060002090600202016001016000828254019250508190555050611483565b6113d2611fa1565b60408051908101604052808573ffffffffffffffffffffffffffffffffffffffff1681526020018481525090506008819080600181540180825580915050906001820390600052602060002090600202016000909192909190915060008201518160000160006101000a81548173ffffffffffffffffffffffffffffffffffffffff021916908373ffffffffffffffffffffffffffffffffffffffff16021790555060208201518160010155505050505b87806001019850506112de565b505050505b8280600101935050611183565b60008214806114b657506000600780549050145b156114c9576001955050505050506114d3565b6000955050505050505b90565b6000806000905060003390506000809050600160088054905003811115156115ae578173ffffffffffffffffffffffffffffffffffffffff1660088281548110151561151e57fe5b906000526020600020906002020160000160009054906101000a900473ffffffffffffffffffffffffffffffffffffffff1673ffffffffffffffffffffffffffffffffffffffff1614156115a257600060088281548110151561157d57fe5b90600052602060002090600202016001015490508084019350839450505050506115b2565b600093505050506115b2565b5050505b90565b6000600260009054906101000a900473ffffffffffffffffffffffffffffffffffffffff1673ffffffffffffffffffffffffffffffffffffffff163373ffffffffffffffffffffffffffffffffffffffff1614151561167c576040517f08c379a00000000000000000000000000000000000000000000000000000000081526004018080602001828103825260198152602001807f4e6f7420746865206f776e6572206f6620636f6e74726163740000000000000081525060200191505060405180910390fd5b6001544211156116a35761168e611aef565b600061169861102f565b9050809150506116a8565b600090505b90565b6000808314156116be57600090506116e3565b600082840290508284828115156116d157fe5b041415156116de57600080fd5b809150505b92915050565b600080821115156116f957600080fd5b6000828481151561170657fe5b0490508091505092915050565b600082821115151561172457600080fd5b600082840390508091505092915050565b600080828401905083811015151561174c57600080fd5b8091505092915050565b6000600260009054906101000a900473ffffffffffffffffffffffffffffffffffffffff1673ffffffffffffffffffffffffffffffffffffffff168573ffffffffffffffffffffffffffffffffffffffff1614156117b757600090506118a4565b6117bf611fd1565b6080604051908101604052808773ffffffffffffffffffffffffffffffffffffffff1681526020018681526020018581526020018481525090506007819080600181540180825580915050906001820390600052602060002090600402016000909192909190915060008201518160000160006101000a81548173ffffffffffffffffffffffffffffffffffffffff021916908373ffffffffffffffffffffffffffffffffffffffff160217905550602082015181600101556040820151816002015560608201518160030155505050600061189c8660006104e1565b905080925050505b949350505050565b600080600080549050600080905060008090505b600780549050811015611981578573ffffffffffffffffffffffffffffffffffffffff166007828154811015156118f357fe5b906000526020600020906004020160000160009054906101000a900473ffffffffffffffffffffffffffffffffffffffff1673ffffffffffffffffffffffffffffffffffffffff1614156119745760078181548110151561195057fe5b906000526020600020906004020160030154915081831015611973578192508093505b5b80806001019150506118c0565b5060078381548110151561199157fe5b9060005260206000209060040201600080820160006101000a81549073ffffffffffffffffffffffffffffffffffffffff02191690556001820160009055600282016000905560038201600090555050611a0c6007848154811015156119f357fe5b90600052602060002090600402016001015460016104e1565b5060019350505050919050565b6000611a23612010565b6060604051908101604052808673ffffffffffffffffffffffffffffffffffffffff168152602001858152602001848152509050600d819080600181540180825580915050906001820390600052602060002090600302016000909192909190915060008201518160000160006101000a81548173ffffffffffffffffffffffffffffffffffffffff021916908373ffffffffffffffffffffffffffffffffffffffff160217905550602082015181600101556040820151816002015550505060019150509392505050565b60008090505b600780549050811015611f6c5760606000809050828282815181101515611b1857fe5b906020019060200201818152505060006001840190505b600780549050811015611c2357600781815481101515611b4b57fe5b906000526020600020906004020160000160009054906101000a900473ffffffffffffffffffffffffffffffffffffffff1673ffffffffffffffffffffffffffffffffffffffff16600785815481101515611ba257fe5b906000526020600020906004020160000160009054906101000a900473ffffffffffffffffffffffffffffffffffffffff1673ffffffffffffffffffffffffffffffffffffffff161415611c16578180600101925050808383815181101515611c0757fe5b90602001906020020181815250505b8080600101915050611b2f565b506000811115611f5d576000611c436002836116e990919063ffffffff16565b905060005b81831115611f5a57600080606060008090506000809050600080905060008090505b600780549050811015611d1c578773ffffffffffffffffffffffffffffffffffffffff16600782815481101515611c9d57fe5b906000526020600020906004020160000160009054906101000a900473ffffffffffffffffffffffffffffffffffffffff1673ffffffffffffffffffffffffffffffffffffffff161415611d0f57808583815181101515611cfa57fe5b90602001906020020151505081806001019250505b8080600101915050611c6a565b5060008090505b8451811015611df45760008582815181101515611d3c57fe5b906020019060200201519050600781815481101515611d5757fe5b906000526020600020906004020160030154851015611d9757600781815481101515611d7f57fe5b90600052602060002090600402016003015494508097505b600781815481101515611da657fe5b906000526020600020906004020160030154841115611de657600781815481101515611dce57fe5b90600052602060002090600402016003015493508096505b508080600101915050611d23565b506000611dff61053f565b905080600787815481101515611e1157fe5b9060005260206000209060040201600201541015611eb957600786815481101515611e3857fe5b9060005260206000209060040201600080820160006101000a81549073ffffffffffffffffffffffffffffffffffffffff02191690556001820160009055600282016000905560038201600090555050611eb3600787815481101515611e9a57fe5b90600052602060002090600402016001015460016104e1565b50611f45565b600787815481101515611ec857fe5b9060005260206000209060040201600080820160006101000a81549073ffffffffffffffffffffffffffffffffffffffff02191690556001820160009055600282016000905560038201600090555050611f43600788815481101515611f2a57fe5b90600052602060002090600402016001015460016104e1565b505b8980600190039a505050505050505050611c48565b50505b50508080600101915050611af5565b50565b815481835581811115611f9c57600302816003028360005260206000209182019101611f9b9190612048565b5b505050565b6040805190810160405280600073ffffffffffffffffffffffffffffffffffffffff168152602001600081525090565b608060405190810160405280600073ffffffffffffffffffffffffffffffffffffffff1681526020016000815260200160008152602001600081525090565b606060405190810160405280600073ffffffffffffffffffffffffffffffffffffffff16815260200160008152602001600081525090565b61209b91905b8082111561209757600080820160006101000a81549073ffffffffffffffffffffffffffffffffffffffff0219169055600182016000905560028201600090555060030161204e565b5090565b9056fea165627a7a72305820abe22f3e510b1940edd43a87cb6e3e2521dccadc13b27ecff31af28ea063d2370029",
  "source": "\npragma solidity >=0.5.0;\n\nimport \"./SafeMath.sol\";\n\ncontract PrimaryToken \n{\n    using SafeMath for uint256;\n\n    uint256 public StartDate ;\n    uint256 public EndDate ;\n     \n    address public owner = msg.sender;  // storing address of contract deployer\n\n    modifier onlyOwner()\n    {\n        require(msg.sender == owner,\"Not the owner of contract\");\n        _;\n    }\n\n\n    struct TokenPriceStructure\n    {\n        uint256 initialPrice ;\n        uint256 delta;\n    }\n\n    TokenPriceStructure public tokenPriceStructure ;\n\n     \n    struct ShareStructure\n    {\n        uint256 ComapnySharePerBucket;\n        uint256 MaxBucketNumber; \n    }\n\n    ShareStructure public shareStructure ;\n\n\n    struct TokenBid\n    {\n        address bidder ;\n        uint nbTokens;\n        uint256 MaxPrice;  \n        uint256 timeOfBid;\n    }  \n\n    TokenBid[] bids ;\n    \n    struct TokenOwner\n    {\n        address owner;\n        uint256 numberOftokens;\n    }\n\n    TokenOwner[] TOwner ;\n        \n    uint256 public AmountRaised;\n    uint256 public nbTokenBidded;\n    uint256 public SharesAllocated;\n\n\n    struct SellOrder \n    {\n        address Seller ; \n        uint256 SellingTokens ;\n        uint256 AskingPrice;\n    }\n\n    mapping(address => SellOrder ) public SellOrders ;\n    SellOrder[] SOrder;\n    \n    constructor() public\n    {\n        tokenPriceStructure.delta;\n        tokenPriceStructure.initialPrice;\n        shareStructure.ComapnySharePerBucket;\n        shareStructure.MaxBucketNumber;\n        StartDate = block.timestamp;\n        EndDate;\n        AmountRaised;\n        nbTokenBidded;\n        SharesAllocated;\n    }\n\n    \n// If currentTime < EndDate , tradeDirection 0 = Buy && 1 = cancelBid (only the least profitable bid))\n// && if currentTime > EndDate , tradeDirection 0=Buy (if stocks available ) && 1 = sell\n    \n    function PlaceOrder( uint256 _nbTokens, uint256 _tradeDirection, uint256 _MaxPrice) public payable returns (bool)\n    {       \n        address beneficiary = msg.sender;\n        uint256 CurrentPrice = getTokenPrice();  \n        uint256 Time = block.timestamp;\n        bool res;\n        \n        if( Time <= EndDate)\n        {\n            if(_tradeDirection==0)\n\n            {\n                if(CurrentPrice <= _MaxPrice)\n                {\n                    res = PlaceBuyOrder (beneficiary,_nbTokens,_MaxPrice,Time);\n                    return res ;\n                }\n                else{return false;}\n            }\n            //checking whether requesting entity has made any bid or not.\n            else if (_tradeDirection == 1) \n            {\n                uint256 count = 0;\n                for (uint256 i=0 ; i<bids.length ; i++)\n                {\n                    if(beneficiary == bids[i].bidder)\n                    {\n                        ++count;\n                    }\n                }\n                if(count < 1 || beneficiary == owner)  // owner cannot cancel bid & if no bid from beneficiary \n                {\n                    return false ;\n                }\n                else{\n\n                    res = PlaceCancelBid(beneficiary); \n                    return res ;\n                    \n                    }\n                   \n            }\n\n        }\n    \n    \n     else if(Time > EndDate)\n        { \n            if(_tradeDirection == 0) //buying tokens from seller\n            {\n                \n                if( SOrder.length > 0) //sorting of SellOrderList\n              {  \n                    uint256 l = SOrder.length-1;\n                    uint256 j;\n                    uint256 i;\n                        for( i = 0; i < l; i++) {\n                            for( j = i+1; j <= l ;j++) {\n                                if(SOrder[i].AskingPrice < SOrder[j].AskingPrice) {\n                                    uint256 temp = SOrder[i].AskingPrice;\n                                    SOrder[i].AskingPrice = SOrder[j].AskingPrice;\n                                    SOrder[j].AskingPrice = temp;\n                                \n                    }\n                        }\n                        }\n              }\n              else\n              {\n                  return false;\n                \n              }\n\n              if(SOrder[((SOrder.length) -1)].AskingPrice < _MaxPrice)\n               {     \n                uint256 tokens = _nbTokens;\n                uint256 Amount;\n                uint256 id = SOrder.length - 1;\n                    \n                while(tokens >= 1)\n                    {\n                    address buyer = msg.sender;\n                    address seller = SOrder[id].Seller;\n                        \n                            if(_MaxPrice >= (SOrder[id].AskingPrice))  // only allocates those tokens for which _MaxPrice is equal or greater to AskingPrice from seller\n                       {\n                        if(tokens >= SOrder[id].SellingTokens )\n                        {\n                                //seller\n                                uint256 allocatingTokens = SOrder[id].SellingTokens ;\n                                tokens = tokens - SOrder[id].SellingTokens ;\n                                delete SOrder[id];\n                                --SOrder.length;\n                                // amount to be transferred to seller\n                                 Amount = allocatingTokens.mul(SOrder[id].AskingPrice);\n                            \n                                \n                                //Transferring token ownership to buyer\n                                 TOwner.push(TokenOwner (buyer, tokens));\n                                 \n                        }\n\n                        else if(tokens < SOrder[id].SellingTokens)\n                        {\n                                SOrder[id].SellingTokens = (SOrder[id].SellingTokens).sub(tokens);\n                                Amount = tokens.mul(SOrder[id].AskingPrice) ;\n                                //Amount Transfer\n                                \n                                TokenOwner memory TOwners = TokenOwner (buyer, tokens);\n                                TOwner.push(TOwners);\n\n\n                        }\n                    }\n                    else {return false;}\n                    }\n                    return true ;\n            }\n            else {return false ;}\n        }\n\n            if (_tradeDirection==1)  // placing sell order by token owners only\n            {   \n                uint256 i;\n                uint256 OwnerTokens = 0;\n\n\n                if (beneficiary == owner)\n                {\n                    return false ;\n                    \n                }\n                \n                for( i = 0 ; i < TOwner.length ; i++)\n        {\n                    if (TOwner[i].owner == beneficiary)\n            {\n                        OwnerTokens = TOwner[i].numberOftokens;\n            }\n                }\n\n                if(OwnerTokens < _nbTokens)\n                {\n                    return false ;\n                }\n                else\n                {\n                    TOwner[i].numberOftokens = OwnerTokens.sub(_nbTokens);\n                    res = PlaceSellOrder(beneficiary,_nbTokens,_MaxPrice);\n                    return res;\n                }\n     }\n            }\n    }\n    \n \n \n\n    function getTokenPrice() public view returns(uint256 ) //finding token's current price \n    {   //Finding total number of shares \n        uint256 TotalTokenCS = (shareStructure.ComapnySharePerBucket).mul((shareStructure.MaxBucketNumber));\n        //Variable for storing Current Price \n        uint256 CurrentPrice;\n        // percentage of total number of token sold\n        uint256 nbTokenSoldPer = (nbTokenBidded.mul(100).div(TotalTokenCS));  \n        // finds how much delta is to be added to add to intial price, to find current price\n            if(nbTokenSoldPer <= 1)\n            {\n                CurrentPrice = tokenPriceStructure.initialPrice;\n                return CurrentPrice ;\n            }\n           else{ \n            uint256 x = ((nbTokenSoldPer).sub(1)).div(10);  \n        //  finding current price                \n            CurrentPrice = (tokenPriceStructure.initialPrice).add(x.mul(tokenPriceStructure.delta));\n            return CurrentPrice ;            \n    }\n    }\n\n\n    function getSharesAllocated( ) public view returns (uint256) // finds total number of shares allocated till now\n    {  // global variable which gets upadated when actual buying transaction takes place\n        return SharesAllocated;\n    }\n\n\n\n\n function getShares() public payable returns (uint256) // finds total number of shares held by an individual\n {\n     uint256 SharesHeld =0 ;\n        { \n            // storing The adderss of the entity who made the request\n        address person = msg.sender;\n        {\n            // loop for running through out the list , to find out total shares held \n        for(uint256 i = 0 ; i <= TOwner.length-1 ; ++i)\n        {\n            // if address matches in list means , requesting person is owner of the perticular token           \n            if (TOwner[i].owner == person)\n            {\n                uint256 Shares = TOwner[i].numberOftokens;\n            // variable storing total number of tokens\n                SharesHeld = SharesHeld + Shares ; \n                return SharesHeld;\n \n        }\n            // returning 0 if requesting entity is not owner of any token\n            return 0;\n}\n}\n    } \n }\n\n    function getRaisedMoneyAmount() public onlyOwner returns (uint256) // Finds total Amount raised till now ,thorugh selling of tokens\n    {\n        // Global variable, which get updated when actual buying transaction is done   \n        return AmountRaised;\n    }\n\n    function IsRaisingMoneySuccessful() public  onlyOwner  returns (bool) //returns true/false if Raising EndPoint reached & assign tokens to winning bidders\n    {    \n        if(block.timestamp> EndDate)\n        {   \n            AssembleBids();\n            bool res = buy();\n        return res;\n    }\n    else{return false;}\n    }\n\n   // remember if task == 0 means someone has placed a new bid so it is added in  nbTokenBidded.\n   // and if task == 1 , it means someone has cancelled a least profitable bid , so nbTokenBidded should be reduced\n    function getTokenAmount(uint256 _tokens, uint256 task) public returns (bool)   // return total number of tokens on which bidding is done\n    {  \n        if (task == 0)\n         {\n             //adding tokens in total number of tokens on which bidding is done at placeBuyOrder \n            nbTokenBidded = nbTokenBidded + _tokens;\n         \n         }\n         else if  (task == 1)\n         {\n             //removing tokens from total number of biidedtokens \n             nbTokenBidded = nbTokenBidded - _tokens;\n         }\n        return true;\n    } \n\n    function PlaceCancelBid(address beneficiary) internal returns (bool) // Cancel only the most non-profitable bid \n    {\n        uint256 IdOfCanceling ;\n        uint256 isLatest = StartDate;\n        uint256 isCurrent =0;\n        for (uint256 i = 0 ; i < bids.length; i++)\n        {\n            if(bids[i].bidder == beneficiary)\n            {  \n                isCurrent = bids[i].timeOfBid ;\n                if(isLatest < isCurrent)\n                {\n                    isLatest = isCurrent ;\n                    IdOfCanceling = i;\n                }\n                \n            }\n        }\n\n        delete bids[IdOfCanceling] ;\n        getTokenAmount(bids[IdOfCanceling].nbTokens , 1);\n       return true ;\n        }\n    \n\n    function PlaceSellOrder(address beneficiary, uint256 _nbTokens, uint256 _AskingPrice) internal returns(bool)\n    {   \n        // Adding SellOrder in the list of all sellorder\n\n        SellOrder memory SOrders = SellOrder(beneficiary, _nbTokens, _AskingPrice);\n        SOrder.push(SOrders);\n        return true ; \n    \n    }\n\n    function PlaceBuyOrder(address beneficiary,uint256 _nbTokens,uint256 _MaxPrice, uint256 _time ) internal returns (bool)\n    { \n        //owner of the contract cannot bid \n        if(beneficiary == owner)\n        {\n            return false ;\n        }\n        else\n        {// Adding bid in the list of all bids\n        TokenBid memory bid = TokenBid(beneficiary, _nbTokens, _MaxPrice, _time);\n        bids.push(bid);\n        // calling ReAssemble funtion as new entry is made in list\n        //ReAssembleBid();\n        bool done = getTokenAmount(_nbTokens , 0);\n        return done;\n        }\n    } \n\n    function sell(address beneficiary ,uint256 _tokensToSell,uint256 _AskingPrice)internal view  returns (bool) // Selling tokens\n    { \n        address seller = beneficiary ;\n        address buyer = msg.sender ;\n        uint256 RecievingAmount = _AskingPrice.mul(_tokensToSell);\n        \n        // transfer RecievingAmount from buyer to seller \n        // require(Amount.transfer(seller,RecievingAmount));\n        return true ;\n    }    \n    \n    function buy() public returns(bool) // actual buying of tokens on the basis of priorities \n    {  \n\n         uint256 l = bids.length-1;\n        uint256 j;\n        uint256 i;\n        for( i = 0; i < l; i++) {\n            for( j = i+1; j <= l ;j++) {\n                if(bids[i].MaxPrice > bids[j].MaxPrice) {\n                    uint256 temp = bids[i].MaxPrice;\n                    bids[i].MaxPrice = bids[j].MaxPrice;\n                    bids[j].MaxPrice = temp;\n                }\n            }\n        }\n\n        uint256 TotalTokenCS = shareStructure.ComapnySharePerBucket.mul(shareStructure.MaxBucketNumber);\n        uint256 index = bids.length-1;\n        for ( i = 0 ; i < bids.length;i++ )\n        {   \n            if( TotalTokenCS !=0 && bids.length > 0)\n            { \n            \n            uint256 CurrentPrice = getTokenPrice();\n            address winningbidder = bids[index].bidder;\n            uint256 tokentoAllocate = bids[index].nbTokens;\n            uint256 Amount = CurrentPrice.mul(tokentoAllocate);\n\n            AmountRaised = AmountRaised.add(Amount);\n            SharesAllocated = SharesAllocated + tokentoAllocate;\n\n            TotalTokenCS = TotalTokenCS.sub(tokentoAllocate);\n            delete bids[index];\n            --index; \n\n            for( j=0 ; j<TOwner.length ; j++)\n            if(TOwner[j].owner == winningbidder )\n            {\n                uint256 total = TOwner[j].numberOftokens.add(tokentoAllocate);\n                TOwner[j].numberOftokens += total ;\n            \n\n            }\n            else{\n                TokenOwner memory TOwners = TokenOwner(winningbidder, tokentoAllocate);\n             TOwner.push(TOwners);\n            }\n        }\n        }\n\n         if( TotalTokenCS == 0 || bids.length == 0)\n           { return true; }\n           else\n           {return false;}\n            \n        }\n  \n   // fallback function\n   function () external payable { \n    revert();\n}\n\nfunction AssembleBids() internal   //function for filtering of bids (filters on the basis of time , profilt and legidity)\n{\n    \n    \n    for(uint256 i = 0 ; i < bids.length ; i ++)\n    {\n        uint256[] memory list ;\n        uint256 count = 0;\n\n        list[count]=i ;\n\n        for(uint256 j = i+1 ; j < bids.length ; j++)\n        {\n            if(bids[i].bidder == bids[j].bidder)\n            {\n                count++;\n              list[count]=j ;\n                \n            }\n        }\n    if(count >0)\n    { uint256 PassingCount = count.div(2); \n        address beneficiary;\n        while (count > PassingCount)\n        {   uint256 IdOfLatest ;\n            uint256 IdOfOldest ;\n            uint256[] memory bidsOfBidder;\n            uint256 isLatest = 0;\n            uint256 isOldest = 0;\n            uint256 q=0 ;\n            for (uint256 p = 0 ; p < bids.length; p++)\n            {\n                if(bids[p].bidder == beneficiary)\n                {  \n                    bidsOfBidder[q] == p ;\n                    q++;\n                }\n            }\n            for (uint256 r=0 ; r< bidsOfBidder.length ; r++)\n            {      //cancel latest bid\n\n                uint256 t = bidsOfBidder[r];\n                        if(isLatest< bids[t].timeOfBid)\n                        {\n                            isLatest=bids[t].timeOfBid;\n                            IdOfLatest = t ;\n                        }\n                        if(isOldest > bids[t].timeOfBid)\n                        {\n                            isOldest=bids[t].timeOfBid;\n                            IdOfOldest = t ;\n                        }\n\n\n            }\n             uint256 CurrentPrice = getTokenPrice(); \n\n            if(bids[IdOfOldest].MaxPrice<CurrentPrice)\n            {\n            delete bids[IdOfOldest] ;\n            getTokenAmount(bids[IdOfOldest].nbTokens , 1);\n            }\n            else\n            {\n                 delete bids[IdOfLatest] ;\n            getTokenAmount(bids[IdOfLatest].nbTokens , 1);\n            }\n            count--;\n\n                    }\n\n\n\n\n                }\n            }\n}\n\n}\n",
  "sourcePath": "/home/sagar/Desktop/tokenraise/commit new/tokenraise/contracts/PrimaryToken.sol",
  "compiler": {
    "name": "solc",
    "version": "0.5.0+commit.1d4f565a.Emscripten.clang"
  },
  "schemaVersion": "3.0.1",
  "updatedAt": "2019-03-25T13:25:17.012Z",
  "devdoc": {
    "methods": {}
  },
  "userdoc": {
    "methods": {}
  }
}