{
  "contractName": "AccessControl",
  "abi": [
    {
      "inputs": [],
      "payable": false,
      "stateMutability": "nonpayable",
      "type": "constructor"
    },
    {
      "constant": false,
      "inputs": [
        {
          "name": "newCOO",
          "type": "address"
        }
      ],
      "name": "ChangeCOO",
      "outputs": [],
      "payable": false,
      "stateMutability": "nonpayable",
      "type": "function"
    },
    {
      "constant": false,
      "inputs": [
        {
          "name": "newCFO",
          "type": "address"
        }
      ],
      "name": "ChangeCFO",
      "outputs": [],
      "payable": false,
      "stateMutability": "nonpayable",
      "type": "function"
    },
    {
      "constant": false,
      "inputs": [],
      "name": "pause",
      "outputs": [],
      "payable": false,
      "stateMutability": "nonpayable",
      "type": "function"
    },
    {
      "constant": false,
      "inputs": [],
      "name": "unpause",
      "outputs": [],
      "payable": false,
      "stateMutability": "nonpayable",
      "type": "function"
    }
  ],
  "bytecode": "0x608060405234801561001057600080fd5b50600080546001805433600160a060020a0319918216811790925560028054821683179055600380549091168217905561010060a860020a03199091166101009091021760ff191681556104d490819061006a90396000f3fe6080604052600436106100615763ffffffff7c01000000000000000000000000000000000000000000000000000000006000350416633f4ba83a811461006657806351ffc3f11461007d57806384319d46146100b05780638456cb59146100e3575b600080fd5b34801561007257600080fd5b5061007b6100f8565b005b34801561008957600080fd5b5061007b600480360360208110156100a057600080fd5b5035600160a060020a03166101c7565b3480156100bc57600080fd5b5061007b600480360360208110156100d357600080fd5b5035600160a060020a03166102b9565b3480156100ef57600080fd5b5061007b6103ab565b6000546101009004600160a060020a0316331461015f576040805160e560020a62461bcd02815260206004820152601560248201527f41757468656e7469636174696f6e206661696c65640000000000000000000000604482015290519081900360640190fd5b60005460ff1615156101bb576040805160e560020a62461bcd02815260206004820152601360248201527f636f6e7472616374206e6f742070617573656400000000000000000000000000604482015290519081900360640190fd5b6000805460ff19169055565b6000546101009004600160a060020a0316331461022e576040805160e560020a62461bcd02815260206004820152601560248201527f41757468656e7469636174696f6e206661696c65640000000000000000000000604482015290519081900360640190fd5b60005460ff16151561028a576040805160e560020a62461bcd02815260206004820152601360248201527f636f6e7472616374206e6f742070617573656400000000000000000000000000604482015290519081900360640190fd5b6001805473ffffffffffffffffffffffffffffffffffffffff1916600160a060020a0392909216919091179055565b6000546101009004600160a060020a03163314610320576040805160e560020a62461bcd02815260206004820152601560248201527f41757468656e7469636174696f6e206661696c65640000000000000000000000604482015290519081900360640190fd5b60005460ff16151561037c576040805160e560020a62461bcd02815260206004820152601360248201527f636f6e7472616374206e6f742070617573656400000000000000000000000000604482015290519081900360640190fd5b6002805473ffffffffffffffffffffffffffffffffffffffff1916600160a060020a0392909216919091179055565b600254600160a060020a03163314806103d357506000546101009004600160a060020a031633145b806103e85750600154600160a060020a031633145b151561043e576040805160e560020a62461bcd02815260206004820152601560248201527f61757468656e7469636174696f6e206661696c65640000000000000000000000604482015290519081900360640190fd5b60005460ff1615610499576040805160e560020a62461bcd02815260206004820152600f60248201527f636f6e7472616374207061757365640000000000000000000000000000000000604482015290519081900360640190fd5b6000805460ff1916600117905556fea165627a7a72305820217cd08bdb7ad254ec19f148f98e2b642cce41125508068aa71a311df0669c6c0029",
  "source": "pragma solidity >=0.4.21 <0.6.0;\n\ncontract AccessControl\n{\n    bool paused ;\n    address ceo;\n    address cfo;\n    address coo;\n    address withdrawalAddress;\n\n    constructor() public {\n        ceo = msg.sender;\n        cfo = msg.sender;\n        coo = msg.sender;\n        withdrawalAddress = msg.sender;\n        paused = false;\n    }\n\n\n    modifier onlyCEO() {\n        require(msg.sender == ceo, \"Authentication failed\");\n        _;\n    }\n    \n    modifier onlyCLevel() {\n        require(msg.sender == coo || msg.sender == ceo || msg.sender == cfo,\"authentication failed\");\n        _;\n    }\n\n    modifier whenNotPaused() {\n        require(!paused,\"contract paused\");\n        _;\n    }\n\n    modifier whenPaused() {\n        require(paused,\"contract not paused\");\n        _;\n    }\n\n    function ChangeCOO(address newCOO) public onlyCEO whenPaused\n    {\n        coo = newCOO;\n    }\n\n    function ChangeCFO(address newCFO) public onlyCEO whenPaused\n    {\n        cfo = newCFO;\n    }\n\n    function pause() public onlyCLevel whenNotPaused \n    {\n        paused = true;\n    }\n\n    function unpause() public onlyCEO whenPaused\n    {\n        paused = false;\n    }\n\n  \n}\n",
  "sourcePath": "/home/sagar/Desktop/ixxoAllcontracts/30_april_SM/ixxo_smartcontracts/Subscription/contracts/AccessControl.sol",
  "compiler": {
    "name": "solc",
    "version": "0.5.0+commit.1d4f565a.Emscripten.clang"
  },
  "schemaVersion": "3.0.6",
  "updatedAt": "2019-05-01T05:18:03.215Z",
  "devdoc": {
    "methods": {}
  },
  "userdoc": {
    "methods": {}
  }
}