{
  "contractName": "LicenseInventory",
  "abi": [
    {
      "constant": false,
      "inputs": [],
      "name": "unpause",
      "outputs": [],
      "payable": false,
      "stateMutability": "nonpayable",
      "type": "function"
    },
    {
      "constant": false,
      "inputs": [
        {
          "name": "newCFO",
          "type": "address"
        }
      ],
      "name": "ChangeCFO",
      "outputs": [],
      "payable": false,
      "stateMutability": "nonpayable",
      "type": "function"
    },
    {
      "constant": false,
      "inputs": [
        {
          "name": "newCOO",
          "type": "address"
        }
      ],
      "name": "ChangeCOO",
      "outputs": [],
      "payable": false,
      "stateMutability": "nonpayable",
      "type": "function"
    },
    {
      "constant": false,
      "inputs": [],
      "name": "pause",
      "outputs": [],
      "payable": false,
      "stateMutability": "nonpayable",
      "type": "function"
    },
    {
      "anonymous": false,
      "inputs": [
        {
          "indexed": true,
          "name": "owner",
          "type": "address"
        },
        {
          "indexed": false,
          "name": "licenseId",
          "type": "uint256"
        },
        {
          "indexed": false,
          "name": "productId",
          "type": "uint256"
        },
        {
          "indexed": false,
          "name": "productName",
          "type": "string"
        },
        {
          "indexed": false,
          "name": "issuedTime",
          "type": "uint256"
        },
        {
          "indexed": false,
          "name": "expirationTime",
          "type": "uint256"
        }
      ],
      "name": "LicenseIssued",
      "type": "event"
    },
    {
      "anonymous": false,
      "inputs": [
        {
          "indexed": true,
          "name": "owner",
          "type": "address"
        },
        {
          "indexed": false,
          "name": "licenseId",
          "type": "uint256"
        },
        {
          "indexed": false,
          "name": "productId",
          "type": "uint256"
        },
        {
          "indexed": false,
          "name": "expirationTime",
          "type": "uint256"
        }
      ],
      "name": "LicenseRenewal",
      "type": "event"
    },
    {
      "anonymous": false,
      "inputs": [
        {
          "indexed": true,
          "name": "owner",
          "type": "address"
        },
        {
          "indexed": false,
          "name": "licenseId",
          "type": "uint256"
        },
        {
          "indexed": false,
          "name": "productId",
          "type": "uint256"
        },
        {
          "indexed": false,
          "name": "productVolume",
          "type": "uint256"
        },
        {
          "indexed": false,
          "name": "productName",
          "type": "string"
        },
        {
          "indexed": false,
          "name": "issuedTime",
          "type": "uint256"
        },
        {
          "indexed": false,
          "name": "expirationTime",
          "type": "uint256"
        }
      ],
      "name": "DappCreatorLicenseIssued",
      "type": "event"
    },
    {
      "anonymous": false,
      "inputs": [
        {
          "indexed": true,
          "name": "owner",
          "type": "address"
        },
        {
          "indexed": false,
          "name": "setMonthlyLicense",
          "type": "bool"
        },
        {
          "indexed": false,
          "name": "monthlyLicensePrice",
          "type": "uint256"
        },
        {
          "indexed": false,
          "name": "setAnnualLicense",
          "type": "bool"
        },
        {
          "indexed": false,
          "name": "AnuualLicensePrice",
          "type": "uint256"
        }
      ],
      "name": "DappCreatorResale",
      "type": "event"
    },
    {
      "constant": true,
      "inputs": [
        {
          "name": "_licenseId",
          "type": "uint256"
        }
      ],
      "name": "licenseProductId",
      "outputs": [
        {
          "name": "",
          "type": "uint256"
        }
      ],
      "payable": false,
      "stateMutability": "view",
      "type": "function"
    },
    {
      "constant": true,
      "inputs": [
        {
          "name": "_licenseId",
          "type": "uint256"
        }
      ],
      "name": "licenseCreatorProductId",
      "outputs": [
        {
          "name": "",
          "type": "uint256"
        }
      ],
      "payable": false,
      "stateMutability": "view",
      "type": "function"
    },
    {
      "constant": true,
      "inputs": [
        {
          "name": "_licenseId",
          "type": "uint256"
        }
      ],
      "name": "licenseAddonProductId",
      "outputs": [
        {
          "name": "",
          "type": "uint256"
        }
      ],
      "payable": false,
      "stateMutability": "view",
      "type": "function"
    }
  ],
  "bytecode": "0x6080604052600080546001805433600160a060020a0319918216811790925560028054821683179055600380549091168217905561010060a860020a03199091166101009091021760ff191681556105ea90819061005d90396000f3fe6080604052600436106100825763ffffffff7c01000000000000000000000000000000000000000000000000000000006000350416631fd0872281146100875780632d336de9146100c35780633f4ba83a146100ed57806351ffc3f11461010457806384319d46146101375780638456cb591461016a5780639425753c1461017f575b600080fd5b34801561009357600080fd5b506100b1600480360360208110156100aa57600080fd5b50356101a9565b60408051918252519081900360200190f35b3480156100cf57600080fd5b506100b1600480360360208110156100e657600080fd5b50356101d3565b3480156100f957600080fd5b506101026101e4565b005b34801561011057600080fd5b506101026004803603602081101561012757600080fd5b5035600160a060020a03166102b3565b34801561014357600080fd5b506101026004803603602081101561015a57600080fd5b5035600160a060020a03166103a5565b34801561017657600080fd5b50610102610497565b34801561018b57600080fd5b506100b1600480360360208110156101a257600080fd5b5035610594565b60006007828154811015156101ba57fe5b9060005260206000209060060201600101549050919050565b60006005828154811015156101ba57fe5b6000546101009004600160a060020a0316331461024b576040805160e560020a62461bcd02815260206004820152601560248201527f41757468656e7469636174696f6e206661696c65640000000000000000000000604482015290519081900360640190fd5b60005460ff1615156102a7576040805160e560020a62461bcd02815260206004820152601360248201527f636f6e7472616374206e6f742070617573656400000000000000000000000000604482015290519081900360640190fd5b6000805460ff19169055565b6000546101009004600160a060020a0316331461031a576040805160e560020a62461bcd02815260206004820152601560248201527f41757468656e7469636174696f6e206661696c65640000000000000000000000604482015290519081900360640190fd5b60005460ff161515610376576040805160e560020a62461bcd02815260206004820152601360248201527f636f6e7472616374206e6f742070617573656400000000000000000000000000604482015290519081900360640190fd5b6001805473ffffffffffffffffffffffffffffffffffffffff1916600160a060020a0392909216919091179055565b6000546101009004600160a060020a0316331461040c576040805160e560020a62461bcd02815260206004820152601560248201527f41757468656e7469636174696f6e206661696c65640000000000000000000000604482015290519081900360640190fd5b60005460ff161515610468576040805160e560020a62461bcd02815260206004820152601360248201527f636f6e7472616374206e6f742070617573656400000000000000000000000000604482015290519081900360640190fd5b6002805473ffffffffffffffffffffffffffffffffffffffff1916600160a060020a0392909216919091179055565b600254600160a060020a03163314806104bf57506000546101009004600160a060020a031633145b806104d45750600154600160a060020a031633145b151561052a576040805160e560020a62461bcd02815260206004820152601560248201527f61757468656e7469636174696f6e206661696c65640000000000000000000000604482015290519081900360640190fd5b60005460ff1615610585576040805160e560020a62461bcd02815260206004820152600f60248201527f636f6e7472616374207061757365640000000000000000000000000000000000604482015290519081900360640190fd5b6000805460ff19166001179055565b60006004828154811015156105a557fe5b906000526020600020906005020160010154905091905056fea165627a7a72305820d7216ac9374b5822d41e5880c94a2b28787538e763380d92ac9953ea99edf1e00029",
  "source": "pragma solidity >=0.4.21 <0.6.0;\n\nimport \"./AccessControl.sol\";\n\ncontract LicenseInventory is AccessControl\n{\n\n\n  event LicenseIssued(address indexed owner ,uint256 licenseId,uint256 productId,string productName,uint256 issuedTime,uint256 expirationTime);\n  event LicenseRenewal(address indexed owner,uint256 licenseId,uint256 productId,uint256 expirationTime);\n  event DappCreatorLicenseIssued(address indexed owner,uint256 licenseId,uint256 productId,uint256 productVolume,string productName,uint256 issuedTime,uint256 expirationTime);\n  event DappCreatorResale(address indexed owner , bool setMonthlyLicense , uint256 monthlyLicensePrice , bool setAnnualLicense , uint256 AnuualLicensePrice);\n\n\n struct License {\n    address owner;\n    uint256 productId;\n    string productName;\n    uint256 issuedTime;\n    uint256 expirationTime;\n  }\n\n    struct CreatorLicense {\n    address owner;\n    uint256 productId;\n    string productName ;\n    uint256 dappboxVolume;\n    uint256 issuedTime;\n    uint256 expirationTime;\n    //uint256[] addonsLicenseId;\n  }\n\n    struct AddonLicense\n  {\n    address owner ;\n    uint256 addonId;\n    uint256 baseProductId;\n    string addonName;\n    uint256 issuedTime;\n    uint256 expirationTime;\n  }\n\n    struct CreateResaleLicense\n  {\n    uint256 creatorLicense;\n    bool MontlyLicense;\n    bool AnnualLicense;\n    uint256 MonthlyLicensePrice;\n    uint256 AnnualLicensePrice; \n  }\n\n   License[] licenses;\n   CreatorLicense[] creatorLicense;\n   CreateResaleLicense[] ResaleLicense;\n   AddonLicense[] addonLicense ;\n\n\n\n  function licenseProductId(uint256 _licenseId) public view returns (uint256) {\n    return licenses[_licenseId].productId;\n  }\n  function licenseCreatorProductId(uint256 _licenseId) public view returns(uint256){\n    return creatorLicense[_licenseId].productId;\n  }\n\n  function licenseAddonProductId(uint256 _licenseId) public view returns (uint256){\n    return addonLicense[_licenseId].addonId;\n\n\n  }\n\n}  ",
  "sourcePath": "/home/sagar/Desktop/ixxoAllcontracts/30_april_SM/ixxo_smartcontracts/Subscription/contracts/LicenseInventory.sol",
  "compiler": {
    "name": "solc",
    "version": "0.5.0+commit.1d4f565a.Emscripten.clang"
  },
  "schemaVersion": "3.0.6",
  "updatedAt": "2019-05-01T05:18:03.222Z",
  "devdoc": {
    "methods": {}
  },
  "userdoc": {
    "methods": {}
  }
}