{
  "contractName": "LicenseSale",
  "abi": [
    {
      "constant": true,
      "inputs": [
        {
          "name": "_productId",
          "type": "uint256"
        }
      ],
      "name": "_getProductName",
      "outputs": [
        {
          "name": "",
          "type": "string"
        }
      ],
      "payable": false,
      "stateMutability": "view",
      "type": "function"
    },
    {
      "constant": true,
      "inputs": [
        {
          "name": "",
          "type": "uint256"
        }
      ],
      "name": "addOnProducts",
      "outputs": [
        {
          "name": "addonId",
          "type": "uint256"
        },
        {
          "name": "addonName",
          "type": "string"
        },
        {
          "name": "addonPrice",
          "type": "uint256"
        }
      ],
      "payable": false,
      "stateMutability": "view",
      "type": "function"
    },
    {
      "constant": true,
      "inputs": [
        {
          "name": "_licenseId",
          "type": "uint256"
        }
      ],
      "name": "licenseAddonProductId",
      "outputs": [
        {
          "name": "",
          "type": "uint256"
        }
      ],
      "payable": false,
      "stateMutability": "view",
      "type": "function"
    },
    {
      "constant": true,
      "inputs": [
        {
          "name": "_licenseId",
          "type": "uint256"
        }
      ],
      "name": "licenseCreatorProductId",
      "outputs": [
        {
          "name": "",
          "type": "uint256"
        }
      ],
      "payable": false,
      "stateMutability": "view",
      "type": "function"
    },
    {
      "constant": false,
      "inputs": [],
      "name": "unpause",
      "outputs": [],
      "payable": false,
      "stateMutability": "nonpayable",
      "type": "function"
    },
    {
      "constant": false,
      "inputs": [
        {
          "name": "_productId",
          "type": "uint256"
        },
        {
          "name": "_price",
          "type": "uint256"
        }
      ],
      "name": "setProductPrice",
      "outputs": [],
      "payable": false,
      "stateMutability": "nonpayable",
      "type": "function"
    },
    {
      "constant": false,
      "inputs": [
        {
          "name": "_productId",
          "type": "uint256"
        },
        {
          "name": "_productName",
          "type": "string"
        },
        {
          "name": "_initialPrice",
          "type": "uint256"
        }
      ],
      "name": "createAddon",
      "outputs": [],
      "payable": false,
      "stateMutability": "nonpayable",
      "type": "function"
    },
    {
      "constant": true,
      "inputs": [
        {
          "name": "_productId",
          "type": "uint256"
        }
      ],
      "name": "renewableOf",
      "outputs": [
        {
          "name": "",
          "type": "bool"
        }
      ],
      "payable": false,
      "stateMutability": "view",
      "type": "function"
    },
    {
      "constant": false,
      "inputs": [
        {
          "name": "newCFO",
          "type": "address"
        }
      ],
      "name": "ChangeCFO",
      "outputs": [],
      "payable": false,
      "stateMutability": "nonpayable",
      "type": "function"
    },
    {
      "constant": true,
      "inputs": [
        {
          "name": "_addonId",
          "type": "uint256"
        }
      ],
      "name": "priceOfAddon",
      "outputs": [
        {
          "name": "",
          "type": "uint256"
        }
      ],
      "payable": false,
      "stateMutability": "view",
      "type": "function"
    },
    {
      "constant": true,
      "inputs": [
        {
          "name": "",
          "type": "uint256"
        }
      ],
      "name": "products",
      "outputs": [
        {
          "name": "id",
          "type": "uint256"
        },
        {
          "name": "productName",
          "type": "string"
        },
        {
          "name": "price",
          "type": "uint256"
        },
        {
          "name": "hardDrive",
          "type": "uint256"
        },
        {
          "name": "maxMemory",
          "type": "uint256"
        },
        {
          "name": "maxProcess",
          "type": "uint256"
        },
        {
          "name": "renewable",
          "type": "bool"
        }
      ],
      "payable": false,
      "stateMutability": "view",
      "type": "function"
    },
    {
      "constant": false,
      "inputs": [
        {
          "name": "newCOO",
          "type": "address"
        }
      ],
      "name": "ChangeCOO",
      "outputs": [],
      "payable": false,
      "stateMutability": "nonpayable",
      "type": "function"
    },
    {
      "constant": false,
      "inputs": [],
      "name": "pause",
      "outputs": [],
      "payable": false,
      "stateMutability": "nonpayable",
      "type": "function"
    },
    {
      "constant": true,
      "inputs": [
        {
          "name": "_licenseId",
          "type": "uint256"
        }
      ],
      "name": "licenseProductId",
      "outputs": [
        {
          "name": "",
          "type": "uint256"
        }
      ],
      "payable": false,
      "stateMutability": "view",
      "type": "function"
    },
    {
      "constant": true,
      "inputs": [
        {
          "name": "",
          "type": "uint256"
        }
      ],
      "name": "allAddonsIds",
      "outputs": [
        {
          "name": "",
          "type": "uint256"
        }
      ],
      "payable": false,
      "stateMutability": "view",
      "type": "function"
    },
    {
      "constant": false,
      "inputs": [
        {
          "name": "_productId",
          "type": "uint256"
        },
        {
          "name": "_productName",
          "type": "string"
        },
        {
          "name": "_initialPrice",
          "type": "uint256"
        },
        {
          "name": "_hardDrive",
          "type": "uint256"
        },
        {
          "name": "_maxMemory",
          "type": "uint256"
        },
        {
          "name": "_maxProcess",
          "type": "uint256"
        },
        {
          "name": "_renewal",
          "type": "bool"
        }
      ],
      "name": "createProduct",
      "outputs": [],
      "payable": false,
      "stateMutability": "nonpayable",
      "type": "function"
    },
    {
      "constant": false,
      "inputs": [
        {
          "name": "_AddonId",
          "type": "uint256"
        },
        {
          "name": "_price",
          "type": "uint256"
        }
      ],
      "name": "setAddonPrice",
      "outputs": [],
      "payable": false,
      "stateMutability": "nonpayable",
      "type": "function"
    },
    {
      "constant": true,
      "inputs": [
        {
          "name": "",
          "type": "uint256"
        }
      ],
      "name": "allProductIds",
      "outputs": [
        {
          "name": "",
          "type": "uint256"
        }
      ],
      "payable": false,
      "stateMutability": "view",
      "type": "function"
    },
    {
      "constant": true,
      "inputs": [
        {
          "name": "_productId",
          "type": "uint256"
        }
      ],
      "name": "priceOfProduct",
      "outputs": [
        {
          "name": "",
          "type": "uint256"
        }
      ],
      "payable": false,
      "stateMutability": "view",
      "type": "function"
    },
    {
      "constant": true,
      "inputs": [
        {
          "name": "_addonId",
          "type": "uint256"
        }
      ],
      "name": "_getAddonName",
      "outputs": [
        {
          "name": "",
          "type": "string"
        }
      ],
      "payable": false,
      "stateMutability": "view",
      "type": "function"
    },
    {
      "constant": true,
      "inputs": [],
      "name": "discountStructure",
      "outputs": [
        {
          "name": "below10",
          "type": "uint256"
        },
        {
          "name": "below20",
          "type": "uint256"
        },
        {
          "name": "below50",
          "type": "uint256"
        },
        {
          "name": "below100",
          "type": "uint256"
        },
        {
          "name": "above100",
          "type": "uint256"
        }
      ],
      "payable": false,
      "stateMutability": "view",
      "type": "function"
    },
    {
      "inputs": [
        {
          "name": "_t",
          "type": "address"
        }
      ],
      "payable": false,
      "stateMutability": "nonpayable",
      "type": "constructor"
    },
    {
      "anonymous": false,
      "inputs": [
        {
          "indexed": false,
          "name": "id",
          "type": "uint256"
        },
        {
          "indexed": false,
          "name": "productName",
          "type": "string"
        },
        {
          "indexed": false,
          "name": "price",
          "type": "uint256"
        }
      ],
      "name": "ProductOrAddonCreated",
      "type": "event"
    },
    {
      "anonymous": false,
      "inputs": [
        {
          "indexed": false,
          "name": "productId",
          "type": "uint256"
        },
        {
          "indexed": false,
          "name": "newPrice",
          "type": "uint256"
        }
      ],
      "name": "PriceChanged",
      "type": "event"
    },
    {
      "anonymous": false,
      "inputs": [
        {
          "indexed": true,
          "name": "owner",
          "type": "address"
        },
        {
          "indexed": false,
          "name": "licenseId",
          "type": "uint256"
        },
        {
          "indexed": false,
          "name": "productId",
          "type": "uint256"
        },
        {
          "indexed": false,
          "name": "productName",
          "type": "string"
        },
        {
          "indexed": false,
          "name": "issuedTime",
          "type": "uint256"
        },
        {
          "indexed": false,
          "name": "expirationTime",
          "type": "uint256"
        }
      ],
      "name": "LicenseIssued",
      "type": "event"
    },
    {
      "anonymous": false,
      "inputs": [
        {
          "indexed": true,
          "name": "owner",
          "type": "address"
        },
        {
          "indexed": false,
          "name": "licenseId",
          "type": "uint256"
        },
        {
          "indexed": false,
          "name": "productId",
          "type": "uint256"
        },
        {
          "indexed": false,
          "name": "expirationTime",
          "type": "uint256"
        }
      ],
      "name": "LicenseRenewal",
      "type": "event"
    },
    {
      "anonymous": false,
      "inputs": [
        {
          "indexed": true,
          "name": "owner",
          "type": "address"
        },
        {
          "indexed": false,
          "name": "licenseId",
          "type": "uint256"
        },
        {
          "indexed": false,
          "name": "productId",
          "type": "uint256"
        },
        {
          "indexed": false,
          "name": "productVolume",
          "type": "uint256"
        },
        {
          "indexed": false,
          "name": "productName",
          "type": "string"
        },
        {
          "indexed": false,
          "name": "issuedTime",
          "type": "uint256"
        },
        {
          "indexed": false,
          "name": "expirationTime",
          "type": "uint256"
        }
      ],
      "name": "DappCreatorLicenseIssued",
      "type": "event"
    },
    {
      "anonymous": false,
      "inputs": [
        {
          "indexed": true,
          "name": "owner",
          "type": "address"
        },
        {
          "indexed": false,
          "name": "setMonthlyLicense",
          "type": "bool"
        },
        {
          "indexed": false,
          "name": "monthlyLicensePrice",
          "type": "uint256"
        },
        {
          "indexed": false,
          "name": "setAnnualLicense",
          "type": "bool"
        },
        {
          "indexed": false,
          "name": "AnuualLicensePrice",
          "type": "uint256"
        }
      ],
      "name": "DappCreatorResale",
      "type": "event"
    },
    {
      "constant": false,
      "inputs": [
        {
          "name": "_productId",
          "type": "uint256"
        },
        {
          "name": "_cycleType",
          "type": "uint256"
        },
        {
          "name": "_numCycles",
          "type": "uint256"
        }
      ],
      "name": "purchaseDappBoxIndividual",
      "outputs": [
        {
          "name": "",
          "type": "uint256"
        }
      ],
      "payable": false,
      "stateMutability": "nonpayable",
      "type": "function"
    },
    {
      "constant": false,
      "inputs": [
        {
          "name": "_numOfDappbox",
          "type": "uint256"
        },
        {
          "name": "_productId",
          "type": "uint256"
        },
        {
          "name": "_cycleType",
          "type": "uint256"
        },
        {
          "name": "_numCycles",
          "type": "uint256"
        }
      ],
      "name": "purchaseDappCreator",
      "outputs": [
        {
          "name": "",
          "type": "uint256"
        }
      ],
      "payable": false,
      "stateMutability": "nonpayable",
      "type": "function"
    },
    {
      "constant": false,
      "inputs": [
        {
          "name": "_addonId",
          "type": "uint256"
        },
        {
          "name": "_productId",
          "type": "uint256"
        },
        {
          "name": "_cycleType",
          "type": "uint256"
        },
        {
          "name": "_numCycle",
          "type": "uint256"
        }
      ],
      "name": "buyAddons",
      "outputs": [
        {
          "name": "",
          "type": "uint256"
        }
      ],
      "payable": false,
      "stateMutability": "nonpayable",
      "type": "function"
    },
    {
      "constant": false,
      "inputs": [
        {
          "name": "_dappPriceMonthly",
          "type": "uint256"
        },
        {
          "name": "_dappPriceAnnual",
          "type": "uint256"
        }
      ],
      "name": "dappCreatorSell",
      "outputs": [
        {
          "name": "",
          "type": "uint256"
        }
      ],
      "payable": false,
      "stateMutability": "nonpayable",
      "type": "function"
    },
    {
      "constant": false,
      "inputs": [
        {
          "name": "LicenseId",
          "type": "uint256"
        },
        {
          "name": "_cycleType",
          "type": "uint256"
        },
        {
          "name": "_numCycles",
          "type": "uint256"
        }
      ],
      "name": "renewIndividualDappboxLicense",
      "outputs": [
        {
          "name": "",
          "type": "bool"
        }
      ],
      "payable": false,
      "stateMutability": "nonpayable",
      "type": "function"
    },
    {
      "constant": false,
      "inputs": [
        {
          "name": "LicenseId",
          "type": "uint256"
        },
        {
          "name": "_cycleType",
          "type": "uint256"
        },
        {
          "name": "_numCycles",
          "type": "uint256"
        }
      ],
      "name": "renewDappboxCreatorLicense",
      "outputs": [
        {
          "name": "",
          "type": "bool"
        }
      ],
      "payable": false,
      "stateMutability": "nonpayable",
      "type": "function"
    },
    {
      "constant": false,
      "inputs": [
        {
          "name": "LicenseId",
          "type": "uint256"
        },
        {
          "name": "_cycleType",
          "type": "uint256"
        },
        {
          "name": "_numCycles",
          "type": "uint256"
        }
      ],
      "name": "renewAddonLicense",
      "outputs": [
        {
          "name": "",
          "type": "bool"
        }
      ],
      "payable": false,
      "stateMutability": "nonpayable",
      "type": "function"
    },
    {
      "constant": false,
      "inputs": [
        {
          "name": "newDiscount",
          "type": "uint256"
        }
      ],
      "name": "changeIxxoDiscountOnAnnualPurchase",
      "outputs": [
        {
          "name": "",
          "type": "bool"
        }
      ],
      "payable": false,
      "stateMutability": "nonpayable",
      "type": "function"
    },
    {
      "constant": false,
      "inputs": [
        {
          "name": "_below10",
          "type": "uint256"
        },
        {
          "name": "_below20",
          "type": "uint256"
        },
        {
          "name": "_below50",
          "type": "uint256"
        },
        {
          "name": "_below100",
          "type": "uint256"
        },
        {
          "name": "_above100",
          "type": "uint256"
        }
      ],
      "name": "changeDappCreatorDiscountStructure",
      "outputs": [
        {
          "name": "",
          "type": "bool"
        }
      ],
      "payable": false,
      "stateMutability": "nonpayable",
      "type": "function"
    }
  ],
  "bytecode": "0x60806040523480156200001157600080fd5b5060405160208062003d10833981018060405260208110156200003357600080fd5b5051600080546001805433600160a060020a0319918216811783556002805483168217815560038054909316821790925561010060a860020a03199093166101009093029290921760ff1916835560408051808201909152600881527f64617070467265650000000000000000000000000000000000000000000000006020820152620000d49360659391929091908190836401000000006200028b810204565b6200013060666040805190810160405280600981526020017f646170705374617274000000000000000000000000000000000000000000000081525061012c60146004600260016200028b640100000000026401000000009004565b6200018c60676040805190810160405280600b81526020017f646170705072656d69756d00000000000000000000000000000000000000000081525061032060c86008600460016200028b640100000000026401000000009004565b620001df60c96040805190810160405280600a81526020017f526f636b65744368617400000000000000000000000000000000000000000000815250606462000429640100000000026401000000009004565b6200023260ca6040805190810160405280600c81526020017f5461696761205365727665720000000000000000000000000000000000000000815250606462000429640100000000026401000000009004565b600e8054600160a060020a03909216600160a060020a03199283168117909155600f80549092161781556019600c8190556101f4600d55600060105560119190915560146012819055601391909155601e905562000678565b6200029562000571565b506040805160e0810182528881526020808201898152828401869052606083018990526080830188905260a0830187905284151560c084015260008b8152600a8352939093208251815592518051929384939092620002fc926001850192910190620005b1565b5060408281015160028301556060808401516003840155608080850151600485015560a0850151600585015560c0909401516006909301805460ff1916931515939093179092556008805460018101825560009182527ff3f7a9fe364faab93b216da50a3214154f22a0a2b415b23a84c8169e8b636ee3018c90558451602080870151878501518551848152958601819052858301878152825197870197909752815160008051602062003cf08339815191529894979296919591949293928501928701918190849084905b83811015620003e2578181015183820152602001620003c8565b50505050905090810190601f168015620004105780820380516001836020036101000a031916815260200191505b5094505050505060405180910390a15050505050505050565b6200043362000636565b506040805160608101825284815260208082018581528284018590526000878152600b83529390932082518155925180519293849390926200047d926001850192910190620005b1565b506040918201516002909101556009805460018101825560009182527f6e1540171b6c0c960b71a7020d9f60077f6af931a8bbf590da0223dacf75c7af0186905582516020848101518585015185518481529586018190526060868401818152835191880191909152825160008051602062003cf08339815191529795969395929492939192608085019290870191908190849084905b838110156200052e57818101518382015260200162000514565b50505050905090810190601f1680156200055c5780820380516001836020036101000a031916815260200191505b5094505050505060405180910390a150505050565b60e0604051908101604052806000815260200160608152602001600081526020016000815260200160008152602001600081526020016000151581525090565b828054600181600116156101000203166002900490600052602060002090601f016020900481019282601f10620005f457805160ff191683800117855562000624565b8280016001018555821562000624579182015b828111156200062457825182559160200191906001019062000607565b506200063292915062000658565b5090565b6060604051908101604052806000815260200160608152602001600081525090565b6200067591905b808211156200063257600081556001016200065f565b90565b61366880620006886000396000f3fe60806040526004361061017f5763ffffffff7c01000000000000000000000000000000000000000000000000000000006000350416631ddc47a681146101845780631e85df79146102235780631fd08722146102d357806326c100041461030f5780632d336de91461034b5780633f4ba83a1461037557806343e48e6f1461038c57806344d3498a146103e2578063493bdd54146104125780634be0c620146104485780634dac7d6f1461050457806351ffc3f11461052e57806354633045146105615780636e78a9dc1461059157806372c13010146105bb5780637acc0b20146105f15780637af756e9146106c157806384319d46146106eb5780638456cb591461071e5780639425753c146107335780639dc14bce1461075d578063a9afc7fd14610793578063b03334bf146107bd578063bc32ee4e14610890578063cf08afff146108c6578063dde1bbcf146108f6578063df37f17714610920578063df68fcfd1461094a578063e62dcf2f14610986578063e69beb77146109b0575b600080fd5b34801561019057600080fd5b506101ae600480360360208110156101a757600080fd5b50356109f0565b6040805160208082528351818301528351919283929083019185019080838360005b838110156101e85781810151838201526020016101d0565b50505050905090810190601f1680156102155780820380516001836020036101000a031916815260200191505b509250505060405180910390f35b34801561022f57600080fd5b5061024d6004803603602081101561024657600080fd5b5035610aa9565b6040518084815260200180602001838152602001828103825284818151815260200191508051906020019080838360005b8381101561029657818101518382015260200161027e565b50505050905090810190601f1680156102c35780820380516001836020036101000a031916815260200191505b5094505050505060405180910390f35b3480156102df57600080fd5b506102fd600480360360208110156102f657600080fd5b5035610b56565b60408051918252519081900360200190f35b34801561031b57600080fd5b506102fd6004803603608081101561033257600080fd5b5080359060208101359060408101359060600135610b80565b34801561035757600080fd5b506102fd6004803603602081101561036e57600080fd5b5035610e2c565b34801561038157600080fd5b5061038a610e3d565b005b34801561039857600080fd5b506103ce600480360360a08110156103af57600080fd5b5080359060208101359060408101359060608101359060800135610ee8565b604080519115158252519081900360200190f35b3480156103ee57600080fd5b5061038a6004803603604081101561040557600080fd5b5080359060200135610fcf565b34801561041e57600080fd5b506102fd6004803603606081101561043557600080fd5b50803590602081013590604001356110a4565b34801561045457600080fd5b5061038a6004803603606081101561046b57600080fd5b8135919081019060408101602082013564010000000081111561048d57600080fd5b82018360208201111561049f57600080fd5b803590602001918460018302840111640100000000831117156104c157600080fd5b91908080601f01602080910402602001604051908101604052809392919081815260200183838082843760009201919091525092955050913592506113ea915050565b34801561051057600080fd5b506103ce6004803603602081101561052757600080fd5b503561147b565b34801561053a57600080fd5b5061038a6004803603602081101561055157600080fd5b5035600160a060020a0316611493565b34801561056d57600080fd5b506102fd6004803603604081101561058457600080fd5b5080359060200135611561565b34801561059d57600080fd5b506102fd600480360360208110156105b457600080fd5b5035611760565b3480156105c757600080fd5b506103ce600480360360608110156105de57600080fd5b5080359060208101359060400135611775565b3480156105fd57600080fd5b5061061b6004803603602081101561061457600080fd5b5035611951565b604051808881526020018060200187815260200186815260200185815260200184815260200183151515158152602001828103825288818151815260200191508051906020019080838360005b83811015610680578181015183820152602001610668565b50505050905090810190601f1680156106ad5780820380516001836020036101000a031916815260200191505b509850505050505050505060405180910390f35b3480156106cd57600080fd5b506103ce600480360360208110156106e457600080fd5b5035611a1a565b3480156106f757600080fd5b5061038a6004803603602081101561070e57600080fd5b5035600160a060020a0316611ac3565b34801561072a57600080fd5b5061038a611b91565b34801561073f57600080fd5b506102fd6004803603602081101561075657600080fd5b5035611c6a565b34801561076957600080fd5b506103ce6004803603606081101561078057600080fd5b5080359060208101359060400135611c94565b34801561079f57600080fd5b506102fd600480360360208110156107b657600080fd5b5035611d8c565b3480156107c957600080fd5b5061038a600480360360e08110156107e057600080fd5b8135919081019060408101602082013564010000000081111561080257600080fd5b82018360208201111561081457600080fd5b8035906020019184600183028401116401000000008311171561083657600080fd5b91908080601f01602080910402602001604051908101604052809392919081815260200183838082843760009201919091525092955050823593505050602081013590604081013590606081013590608001351515611dab565b34801561089c57600080fd5b506103ce600480360360608110156108b357600080fd5b5080359060208101359060400135611e44565b3480156108d257600080fd5b5061038a600480360360408110156108e957600080fd5b5080359060200135611f9f565b34801561090257600080fd5b506102fd6004803603602081101561091957600080fd5b5035612074565b34801561092c57600080fd5b506102fd6004803603602081101561094357600080fd5b5035612082565b34801561095657600080fd5b506102fd6004803603608081101561096d57600080fd5b5080359060208101359060408101359060600135612097565b34801561099257600080fd5b506101ae600480360360208110156109a957600080fd5b50356122c1565b3480156109bc57600080fd5b506109c5612342565b6040805195865260208601949094528484019290925260608401526080830152519081900360a00190f35b6060600a60008381526020019081526020016000206001018054600181600116156101000203166002900480601f016020809104026020016040519081016040528092919081815260200182805460018160011615610100020316600290048015610a9c5780601f10610a7157610100808354040283529160200191610a9c565b820191906000526020600020905b815481529060010190602001808311610a7f57829003601f168201915b505050505090505b919050565b600b602090815260009182526040918290208054600180830180548651600293821615610100026000190190911692909204601f810186900486028301860190965285825291949293909290830182828015610b465780601f10610b1b57610100808354040283529160200191610b46565b820191906000526020600020905b815481529060010190602001808311610b2957829003601f168201915b5050505050908060020154905083565b6000600782815481101515610b6757fe5b9060005260206000209060060201600101549050919050565b6000806000610b8e33612354565b9092509050851515610c10576040805160e560020a62461bcd02815260206004820152602660248201527f64617070626f78467265652063616e6e6f74206265206261736520666f72206160448201527f64646f6e73200000000000000000000000000000000000000000000000000000606482015290519081900360840190fd5b6000806000610c1e89612082565b90506000610c2b8b611760565b9050600186151514610c87576040805160e560020a62461bcd02815260206004820152601160248201527f4e6f742061206461707043726561746f72000000000000000000000000000000604482015290519081900360640190fd5b881515610c9f57878102935087820284019250610cc7565b87600c02820288600c02820201935060006064600c548602811515610cc057fe5b0485039350505b600e54604080517f8eed239700000000000000000000000000000000000000000000000000000000815290518592600160a060020a031691638eed2397916004808301926020929190829003018186803b158015610d2457600080fd5b505afa158015610d38573d6000803e3d6000fd5b505050506040513d6020811015610d4e57600080fd5b50511015610da6576040805160e560020a62461bcd02815260206004820152600e60248201527f6e6f7420656e6f75676820534154000000000000000000000000000000000000604482015290519081900360640190fd5b6000610db233856123bc565b9050600181151514610e0e576040805160e560020a62461bcd02815260206004820152600e60248201527f7061796d656e74206661696c6564000000000000000000000000000000000000604482015290519081900360640190fd5b610e1a8c8b8b8e6123c4565b9750505050505050505b949350505050565b6000600582815481101515610b6757fe5b6000546101009004600160a060020a03163314610e92576040805160e560020a62461bcd028152602060048201526015602482015260008051602061361d833981519152604482015290519081900360640190fd5b60005460ff161515610edc576040805160e560020a62461bcd02815260206004820152601360248201526000805160206135dd833981519152604482015290519081900360640190fd5b6000805460ff19169055565b6000805460ff161515610f33576040805160e560020a62461bcd02815260206004820152601360248201526000805160206135dd833981519152604482015290519081900360640190fd5b600254600160a060020a0316331480610f5b57506000546101009004600160a060020a031633145b80610f705750600154600160a060020a031633145b1515610fb4576040805160e560020a62461bcd02815260206004820152601560248201526000805160206135fd833981519152604482015290519081900360640190fd5b50601094909455601192909255601255601355601455600190565b600254600160a060020a0316331480610ff757506000546101009004600160a060020a031633145b8061100c5750600154600160a060020a031633145b1515611050576040805160e560020a62461bcd02815260206004820152601560248201526000805160206135fd833981519152604482015290519081900360640190fd5b6000828152600a6020908152604091829020600201839055815184815290810183905281517f8aa4fa52648a6d15edce8a179c792c86f3719d0cc3c572cf90f91948f0f2cb68929181900390910190a15050565b6000805460ff16156110ee576040805160e560020a62461bcd02815260206004820152600f60248201526000805160206135bd833981519152604482015290519081900360640190fd5b600082151561116d576040805160e560020a62461bcd02815260206004820152602560248201527f6e756d626572206f66206379636c652073686f756c642062652061746c65617360448201527f74206f6e65000000000000000000000000000000000000000000000000000000606482015290519081900360840190fd5b6111768561147b565b151561136557600061118782612533565b9050600181151514611209576040805160e560020a62461bcd02815260206004820152603760248201527f416c7265616479206461707066726565204f776e6572202c206461707066726560448201527f65206973206f6e65207065722070657220656e74697479000000000000000000606482015290519081900360840190fd5b8415611285576040805160e560020a62461bcd02815260206004820152603860248201527f6e6f6e2d72656e657761626c652070726f64756374732063616e6e6f7420626560448201527f20626f7567687420666f7220796561726c792062617369730000000000000000606482015290519081900360840190fd5b60018414611303576040805160e560020a62461bcd02815260206004820152603160248201527f747261696c2070726f647563742063616e20626520707572636861736564206660448201527f6f72206f6e65206d6f6e7468206f6e6c79000000000000000000000000000000606482015290519081900360840190fd5b600d5461130e612596565b10611363576040805160e560020a62461bcd02815260206004820152601a60248201527f44617070626f784672656520636f756e74206578636565646564000000000000604482015290519081900360640190fd5b505b60006113738287878761261b565b90506001811515146113cf576040805160e560020a62461bcd02815260206004820152600e60248201527f5061796d656e74206661696c6564000000000000000000000000000000000000604482015290519081900360640190fd5b60006113dd838888886126c2565b93505050505b9392505050565b600254600160a060020a031633148061141257506000546101009004600160a060020a031633145b806114275750600154600160a060020a031633145b151561146b576040805160e560020a62461bcd02815260206004820152601560248201526000805160206135fd833981519152604482015290519081900360640190fd5b6114768383836128d2565b505050565b6000908152600a602052604090206006015460ff1690565b6000546101009004600160a060020a031633146114e8576040805160e560020a62461bcd028152602060048201526015602482015260008051602061361d833981519152604482015290519081900360640190fd5b60005460ff161515611532576040805160e560020a62461bcd02815260206004820152601360248201526000805160206135dd833981519152604482015290519081900360640190fd5b6001805473ffffffffffffffffffffffffffffffffffffffff1916600160a060020a0392909216919091179055565b600033818061156f83612354565b90925090506001821515146115ce576040805160e560020a62461bcd02815260206004820152601160248201527f4e6f742061206461707043726561746f72000000000000000000000000000000604482015290519081900360640190fd5b60008060008060006005868154811015156115e557fe5b9060005260206000209060060201600501549050600061160442612a24565b9050600061161183612a24565b905081810360018a15151415611646578d975060019550600c81111561163d57600194508c9650611646565b60009450600096505b61164e6133d5565b50506040805160a081018252988952941515602089019081529315159488019485525050506060850193845260808501928352600680546001810182556000919091529451600486027ff652222313e28459528d920b65115c16c04f3efc82aaedc97be59f3f377c0d3f81019190915590517ff652222313e28459528d920b65115c16c04f3efc82aaedc97be59f3f377c0d4082018054935115156101000261ff001992151560ff1990951694909417919091169290921790915591517ff652222313e28459528d920b65115c16c04f3efc82aaedc97be59f3f377c0d41830155517ff652222313e28459528d920b65115c16c04f3efc82aaedc97be59f3f377c0d4290910155925050505b92915050565b6000908152600b602052604090206002015490565b6000805460ff16156117bf576040805160e560020a62461bcd02815260206004820152600f60248201526000805160206135bd833981519152604482015290519081900360640190fd5b8115156117cb57600080fd5b3360006117d786611c6a565b90506117e28161147b565b151560011461183b576040805160e560020a62461bcd02815260206004820152601560248201527f6e6f7420612072657761626c652070726f647563740000000000000000000000604482015290519081900360640190fd5b60006118498383888861261b565b90506001811515146118a5576040805160e560020a62461bcd02815260206004820152600e60248201527f7061796d656e74206661696c6564000000000000000000000000000000000000604482015290519081900360640190fd5b60006004888154811015156118b657fe5b906000526020600020906005020160040154905060006118d7828989612a41565b90508060048a8154811015156118e957fe5b600091825260209182902060046005909202010191909155604080518b81529182018690528181018390525133917f510fb5f6480caebfaf3c861b9396122f4b0edeb7da3a0afb38eb38766ad1d697919081900360600190a250600198975050505050505050565b600a602090815260009182526040918290208054600180830180548651600293821615610100026000190190911692909204601f8101869004860283018601909652858252919492939092908301828280156119ee5780601f106119c3576101008083540402835291602001916119ee565b820191906000526020600020905b8154815290600101906020018083116119d157829003601f168201915b505050600284015460038501546004860154600587015460069097015495969295919450925060ff1687565b600080546101009004600160a060020a03163314611a70576040805160e560020a62461bcd028152602060048201526015602482015260008051602061361d833981519152604482015290519081900360640190fd5b60005460ff161515611aba576040805160e560020a62461bcd02815260206004820152601360248201526000805160206135dd833981519152604482015290519081900360640190fd5b50600c55600190565b6000546101009004600160a060020a03163314611b18576040805160e560020a62461bcd028152602060048201526015602482015260008051602061361d833981519152604482015290519081900360640190fd5b60005460ff161515611b62576040805160e560020a62461bcd02815260206004820152601360248201526000805160206135dd833981519152604482015290519081900360640190fd5b6002805473ffffffffffffffffffffffffffffffffffffffff1916600160a060020a0392909216919091179055565b600254600160a060020a0316331480611bb957506000546101009004600160a060020a031633145b80611bce5750600154600160a060020a031633145b1515611c12576040805160e560020a62461bcd02815260206004820152601560248201526000805160206135fd833981519152604482015290519081900360640190fd5b60005460ff1615611c5b576040805160e560020a62461bcd02815260206004820152600f60248201526000805160206135bd833981519152604482015290519081900360640190fd5b6000805460ff19166001179055565b6000600482815481101515611c7b57fe5b9060005260206000209060050201600101549050919050565b6000805460ff1615611cde576040805160e560020a62461bcd02815260206004820152600f60248201526000805160206135bd833981519152604482015290519081900360640190fd5b811515611cea57600080fd5b6000611cf585610b56565b90506000600786815481101515611d0857fe5b90600052602060002090600602016002015490506000806000611d2a85612082565b90506000611d3785612082565b9050881515611d5157878202935087810284019250611d71565b600c8054828a0282028a8502909202919091019450606490850204840392505b611d7e8a87858c8c612a80565b505050505050509392505050565b6009805482908110611d9a57fe5b600091825260209091200154905081565b600254600160a060020a0316331480611dd357506000546101009004600160a060020a031633145b80611de85750600154600160a060020a031633145b1515611e2c576040805160e560020a62461bcd02815260206004820152601560248201526000805160206135fd833981519152604482015290519081900360640190fd5b611e3b87878787878787612c7d565b50505050505050565b6000805460ff1615611e8e576040805160e560020a62461bcd02815260206004820152600f60248201526000805160206135bd833981519152604482015290519081900360640190fd5b811515611e9a57600080fd5b6000611ea585610e2c565b90506000600582815481101515611eb857fe5b90600052602060002090600602016003015490506000611edb3383858989612e25565b905060018115151415611f93576000600588815481101515611ef957fe5b90600052602060002090600602016005015490506000611f1a828989612a41565b90508060058a815481101515611f2c57fe5b600091825260209182902060056006909202010191909155604080518b81529182018790528181018390525133917f510fb5f6480caebfaf3c861b9396122f4b0edeb7da3a0afb38eb38766ad1d697919081900360600190a26001955050505050506113e3565b600093505050506113e3565b600254600160a060020a0316331480611fc757506000546101009004600160a060020a031633145b80611fdc5750600154600160a060020a031633145b1515612020576040805160e560020a62461bcd02815260206004820152601560248201526000805160206135fd833981519152604482015290519081900360640190fd5b6000828152600b6020908152604091829020600201839055815184815290810183905281517f8aa4fa52648a6d15edce8a179c792c86f3719d0cc3c572cf90f91948f0f2cb68929181900390910190a15050565b6008805482908110611d9a57fe5b6000908152600a602052604090206002015490565b6000805460ff16156120e1576040805160e560020a62461bcd02815260206004820152600f60248201526000805160206135bd833981519152604482015290519081900360640190fd5b3385151561215f576040805160e560020a62461bcd02815260206004820152602860248201527f41746c65617374206f6e652064617070626f782070757263686173652069732060448201527f7265717569726564000000000000000000000000000000000000000000000000606482015290519081900360840190fd5b8215156121dc576040805160e560020a62461bcd02815260206004820152602560248201527f6e756d626572206f66206379636c652073686f756c642062652061746c65617360448201527f74206f6e65000000000000000000000000000000000000000000000000000000606482015290519081900360840190fd5b6121e58561147b565b151560011461223e576040805160e560020a62461bcd02815260206004820152601e60248201527f64617070667265652063616e6e6f74206265206461707043726561746f720000604482015290519081900360640190fd5b600061224d8288888888612e25565b90506001811515146122a9576040805160e560020a62461bcd02815260206004820152600f60248201527f7061796d656e74206661696c6564200000000000000000000000000000000000604482015290519081900360640190fd5b6122b68288888888612ef8565b979650505050505050565b6060600b60008381526020019081526020016000206001018054600181600116156101000203166002900480601f016020809104026020016040519081016040528092919081815260200182805460018160011615610100020316600290048015610a9c5780601f10610a7157610100808354040283529160200191610a9c565b60105460115460125460135460145485565b60055460009081908190819060001901815b818110156123b057600580548290811061237c57fe5b6000918252602090912060069091020154600160a060020a03888116911614156123a857809250600193505b600101612366565b50919350915050915091565b600092915050565b600033816123d28686613127565b905060606123df856109f0565b90506123e9613409565b506040805160c081018252600160a060020a03858116825260208083018c81529383018981526060840186815242608086015260a08501889052600780546001808201808455600093845288517fa66cc928b5edb82af9bd49922954155ab7b0942694bea4ce44661d9a8736c6886006909402938401805473ffffffffffffffffffffffffffffffffffffffff19169190991617885598517fa66cc928b5edb82af9bd49922954155ab7b0942694bea4ce44661d9a8736c68983015593517fa66cc928b5edb82af9bd49922954155ab7b0942694bea4ce44661d9a8736c68a8201559151805196979196939591948894929361250d937fa66cc928b5edb82af9bd49922954155ab7b0942694bea4ce44661d9a8736c68b9091019290910190613449565b506080820151600482015560a090910151600590910155039a9950505050505050505050565b60045460009060001901815b8181101561258c57600480548290811061255557fe5b6000918252602090912060059091020154600160a060020a038581169116141561258457600192505050610aa4565b60010161253f565b5060009392505050565b600454600090429082906000190181818110156126135760048054829081106125bb57fe5b90600052602060002090600502016001015460011480156125fb5750836004828154811015156125e757fe5b906000526020600020906005020160040154105b15612607576001909201915b82945050505050612618565b505050505b90565b6000808080808061262b89612082565b90508715156126685761263e81896131b9565b9350866001900396508681029250828401945061265b8a866123bc565b9550610e24945050505050565b87600114156126b55761267b81896131b9565b600c805491955082890202935083850190600090606490830204905080820396506126a68c886123bc565b9750610e249650505050505050565b5050505050949350505050565b6000806126cf8484613127565b905060606126dc866109f0565b90506126e66134c7565b506040805160a081018252600160a060020a03898116825260208083018a815293830185815242606085015260808401879052600480546001808201808455600093845287517f8a35acfbc15ff81a39ae7d344fd709f28e8600b4aa8c65c6b64bfe7fe36bd19b6005909402938401805473ffffffffffffffffffffffffffffffffffffffff19169190981617875597517f8a35acfbc15ff81a39ae7d344fd709f28e8600b4aa8c65c6b64bfe7fe36bd19c83015592518051969792969395929488946127d9937f8a35acfbc15ff81a39ae7d344fd709f28e8600b4aa8c65c6b64bfe7fe36bd19d019290910190613449565b506060820151816003015560808201518160040155505003905088600160a060020a03167f6e4d28844bbf5bb803ee25d8efa558be13d5c4d3db3e56bbee928139764626618284602001518560400151866060015187608001516040518086815260200185815260200180602001848152602001838152602001828103825285818151815260200191508051906020019080838360005b83811015612888578181015183820152602001612870565b50505050905090810190601f1680156128b55780820380516001836020036101000a031916815260200191505b50965050505050505060405180910390a298975050505050505050565b6128da613500565b506040805160608101825284815260208082018581528284018590526000878152600b8352939093208251815592518051929384939092612922926001850192910190613449565b506040918201516002909101556009805460018101825560009182527f6e1540171b6c0c960b71a7020d9f60077f6af931a8bbf590da0223dacf75c7af018690558251602084810151858501518551848152958601819052606086840181815283519188019190915282517f1e12a5fab2b787953bc2de78fb499c05d8790eef10e8d9542b35b27a5f470c699795969395929492939192608085019290870191908190849084905b838110156129e25781810151838201526020016129ca565b50505050905090810190601f168015612a0f5780820380516001836020036101000a031916815260200191505b5094505050505060405180910390a150505050565b60008080612a3762015180855b0461324b565b5095945050505050565b6000806000612a508585613127565b9050428611612a6457420191506113e39050565b42861115612a7757850191506113e39050565b50509392505050565b600083600e60009054906101000a9004600160a060020a0316600160a060020a0316638eed23976040518163ffffffff167c010000000000000000000000000000000000000000000000000000000002815260040160206040518083038186803b158015612aed57600080fd5b505afa158015612b01573d6000803e3d6000fd5b505050506040513d6020811015612b1757600080fd5b50511015612b6f576040805160e560020a62461bcd02815260206004820152600e60248201527f6e6f7420656e6f75676820534154000000000000000000000000000000000000604482015290519081900360640190fd5b612b7933856123bc565b1515600114612bd2576040805160e560020a62461bcd02815260206004820152600e60248201527f7061796d656e74206661696c6564000000000000000000000000000000000000604482015290519081900360640190fd5b6000600487815481101515612be357fe5b90600052602060002090600502016004015490506000612c04828686612a41565b905080600789815481101515612c1657fe5b600091825260209182902060056006909202010191909155604080518a81529182018990528181018390525133917f510fb5f6480caebfaf3c861b9396122f4b0edeb7da3a0afb38eb38766ad1d697919081900360600190a2506001979650505050505050565b612c85613522565b506040805160e0810182528881526020808201898152828401869052606083018990526080830188905260a0830187905284151560c084015260008b8152600a8352939093208251815592518051929384939092612cea926001850192910190613449565b5060408281015160028301556060808401516003840155608080850151600485015560a0850151600585015560c0909401516006909301805460ff1916931515939093179092556008805460018101825560009182527ff3f7a9fe364faab93b216da50a3214154f22a0a2b415b23a84c8169e8b636ee3018c9055845160208087015187850151855184815295860181905285830187815282519787019790975281517f1e12a5fab2b787953bc2de78fb499c05d8790eef10e8d9542b35b27a5f470c699894979296919591949293928501928701918190849084905b83811015612ddf578181015183820152602001612dc7565b50505050905090810190601f168015612e0c5780820380516001836020036101000a031916815260200191505b5094505050505060405180910390a15050505050505050565b600080612e3185612082565b90506000808080600a8a11612e5d5760105415612e515750601054612e58565b5060001989015b612eac565b60148a11612e6e5750601154612eac565b60328a11612e7f5750601254612eac565b60648a11612e905750601354612eac565b60648a118015612ea257506101f48a11155b15612eac57506014545b871515612ebd578685029150612ecf565b8760011415612ecf57868502600c0291505b606482820204925082820393506000612ee88c866123bc565b9c9b505050505050505050505050565b60006060612f05856109f0565b90506000612f138585613127565b9050612f1d613562565b506040805160c081018252600160a060020a038a8116825260208083018a8152938301868152606084018c905242608085015260a08401869052600580546001808201808455600093845287517f036b6384b5eca791c62761152d0c79bb0604c104a5fb6f4eb0703f3154bb3db06006909402938401805473ffffffffffffffffffffffffffffffffffffffff19169190981617875597517f036b6384b5eca791c62761152d0c79bb0604c104a5fb6f4eb0703f3154bb3db18301559251805196979296939592948894613017937f036b6384b5eca791c62761152d0c79bb0604c104a5fb6f4eb0703f3154bb3db2019290910190613449565b50606082015181600301556080820151816004015560a08201518160050155505003905033600160a060020a03167ff07053a714aba837e549474210fb5e63842653d7e5db4557756f36bdd423529e8284602001518560600151866040015187608001518860a001516040518087815260200186815260200185815260200180602001848152602001838152602001828103825285818151815260200191508051906020019080838360005b838110156130db5781810151838201526020016130c3565b50505050905090810190601f1680156131085780820380516001836020036101000a031916815260200191505b5097505050505050505060405180910390a29998505050505050505050565b60004281613134826132e3565b9050600061314183612a24565b9050600061314e846132fe565b600019909601959050828103600c62015180820260008a1515613181575062282072890201965061175a95505050505050565b8a600114156131ab57506228207294820385020190880290930292909201945061175a9350505050565b505050505050505092915050565b600042816131c6826132e3565b905060006131d3836132fe565b9050818103600c60008715156131ff5782848a8115156131ef57fe5b0402965061175a95505050505050565b876001141561323f57600061321387612a24565b9050808303600085878d81151561322657fe5b0402918c0291909101985061175a975050505050505050565b50505050505092915050565b60008080836226496581018262023ab1600483020590506004600362023ab18302010590910390600062164b09610fa0600185010205905060046105b58202058303601f019250600061098f846050028115156132a457fe5b0590506000605061098f83020585039050600b820560301994909401606402929092018301996002600c90940290910392909201975095509350505050565b600080806132f46201518085612a31565b9695505050505050565b60008080806133106201518086612a31565b91945092509050613321838361332a565b95945050505050565b6000816001148061333b5750816003145b806133465750816005145b806133515750816007145b8061335c5750816008145b80613367575081600a145b80613372575081600c145b1561337f5750601f61175a565b6002821461338f5750601e61175a565b613398836133b0565b6133a357601c6133a6565b601d5b60ff169392505050565b6000600482061580156133c557506064820615155b8061175a57505061019090061590565b60a0604051908101604052806000815260200160001515815260200160001515815260200160008152602001600081525090565b60c0604051908101604052806000600160a060020a0316815260200160008152602001600081526020016060815260200160008152602001600081525090565b828054600181600116156101000203166002900490600052602060002090601f016020900481019282601f1061348a57805160ff19168380011785556134b7565b828001600101855582156134b7579182015b828111156134b757825182559160200191906001019061349c565b506134c39291506135a2565b5090565b60a0604051908101604052806000600160a060020a03168152602001600081526020016060815260200160008152602001600081525090565b6060604051908101604052806000815260200160608152602001600081525090565b60e0604051908101604052806000815260200160608152602001600081526020016000815260200160008152602001600081526020016000151581525090565b60c0604051908101604052806000600160a060020a0316815260200160008152602001606081526020016000815260200160008152602001600081525090565b61261891905b808211156134c357600081556001016135a856fe636f6e7472616374207061757365640000000000000000000000000000000000636f6e7472616374206e6f74207061757365640000000000000000000000000061757468656e7469636174696f6e206661696c6564000000000000000000000041757468656e7469636174696f6e206661696c65640000000000000000000000a165627a7a72305820340e464a021ea48f459985a914c0d7599706794ef482705ec51ea7e5cb5d3ca000291e12a5fab2b787953bc2de78fb499c05d8790eef10e8d9542b35b27a5f470c69",
  "source": "pragma solidity >=0.4.21 <0.6.0;\n\nimport \"./ProductInventory.sol\";\nimport \"./Deps/SpendingAllowanceToken.sol\";\nimport \"./Deps/ReleaseTransaction.sol\";\nimport \"./Deps/BokkyPooBahsDateTimeLibrary.sol\";\n\ncontract LicenseSale is ProductInventory\n{\n    uint256 ixxoDiscountOnAnnualPurchase;\n    uint256 dappBoxFreeCount;\n    SpendingAllowanceToken sat;\n    ReleaseTransaction rt;\n\n    constructor(address _t) public \n    {\n        sat = SpendingAllowanceToken(_t);\n        rt = ReleaseTransaction(_t);\n        ixxoDiscountOnAnnualPurchase = 25;\n        dappBoxFreeCount = 500;\n        discountStructure.below10 = 0; // discount in specification is calculated down in the code , it is kept zero till no generic discount is described by the CEO ,for less than 10 dappbox purchase\n        discountStructure.below20 = 15;\n        discountStructure.below50 = 20;\n        discountStructure.below100 = 25;\n        discountStructure.above100 = 30;\n    }\n\n    /**\n     * @dev structure to store the discount given at the time of dappCreator purchase , according to volume of purchase \n     */\n    struct CreatorDiscountStructure{\n        uint256 below10;\n        uint256 below20;\n        uint256 below50;\n        uint256 below100;\n        uint256 above100;\n    }\n\n    CreatorDiscountStructure public discountStructure;\n   \n   \n\n  /**\n  * @dev this function facilitates the purchasing of license for individual dappbox (dappboxFree , dappboxStart , dappboxPremium)\n  * dappfree should be of _cycleType = 0 (monthly)\n  * dappfree will be of _numCycles = 1 (as this trail is for only one month)\n  */\n    function purchaseDappBoxIndividual (uint256 _productId, uint256 _cycleType, uint256 _numCycles ) external whenNotPaused returns (uint256)\n  {\n        address _assignee;\n        require(_numCycles != 0, \"number of cycle should be atleast one\");\n        if(renewableOf(_productId)==false)   //it means purchasing dappbox free\n          {\n            bool result = _notAlreadyDappFreeOwner(_assignee);\n            require(result == true, \"Already dappfree Owner , dappfree is one per per entity\");\n            require(_cycleType == 0, \"non-renewable products cannot be bought for yearly basis\");  \n            require(_numCycles == 1,\"trail product can be purchased for one month only\");\n            require(checkDappBoxFreeRunning() < dappBoxFreeCount,\"DappboxFree count exceeded\");\n          }\n        bool flag = calculateAndDeductSat(_assignee,_productId, _cycleType, _numCycles);\n        require(flag == true, \"Payment failed\");\n        uint256 licenseId = _createDappBoxIndividualLicense(_assignee,_productId, _cycleType,_numCycles);         \n        return licenseId;\n    }\n\n  /**\n   *\n   */\n    function calculateAndDeductSat (address spender, uint256 product, uint256 cycleType , uint256 numOfCycle) internal returns (bool)\n      {\n        uint256 satToDeduct;\n        uint256 prorateSat;\n        uint256 satForMonthsLeft;\n        bool res = false;\n        uint256 productPrice = priceOfProduct(product);\n\n        if(cycleType == 0)\n        {\n            prorateSat = calculateProrata(productPrice, cycleType);\n            --numOfCycle;\n            satForMonthsLeft = productPrice*(numOfCycle);\n            satToDeduct = prorateSat+(satForMonthsLeft);\n            res = deduct(spender,satToDeduct);\n            return res;\n        }\n      else if(cycleType == 1)\n      {\n        prorateSat = calculateProrata(productPrice, cycleType);\n        satForMonthsLeft = (productPrice*(numOfCycle*(12)));\n        uint256 Price = prorateSat+(satForMonthsLeft);\n        uint256 discount = (Price*(ixxoDiscountOnAnnualPurchase))/(100);\n        satToDeduct = Price-(discount);\n        res = deduct(spender, satToDeduct); \n        return res;\n      }\n    }\n\n  /**\n    * @dev creates and stores the license if Transaction is successfull \n    *\n    */\n    function _createDappBoxIndividualLicense(address owner ,uint256 _productId,uint256 _cycleType,uint256 _numCycles) internal returns(uint256)\n    {\n\n        uint256 expTime = expirationTime(_cycleType, _numCycles) ;\n        string memory _name = _getProductName(_productId);\n        License memory _license = License({\n            owner: owner,\n            productId: _productId,\n            productName : _name,\n            issuedTime: now, \n            expirationTime: expTime\n            });\n\n        uint256 newLicenseId = licenses.push(_license) - 1; \n        emit LicenseIssued(\n            owner,\n            newLicenseId,\n            _license.productId,\n            _license.productName,\n            _license.issuedTime,\n            _license.expirationTime\n        );\n\n        return newLicenseId;\n    }\n\n\n  /**\n   * @dev \n   */\n\n    function purchaseDappCreator(uint256 _numOfDappbox,uint256 _productId, uint256 _cycleType, uint256 _numCycles) external whenNotPaused returns (uint256)\n    {\n        address sender = msg.sender;\n        require(_numOfDappbox != 0, \"Atleast one dappbox purchase is required\");\n        require(_numCycles != 0, \"number of cycle should be atleast one\");\n        require(renewableOf(_productId) == true, \"dappfree cannot be dappCreator\");\n        bool flag = calculateAndDeductSatDappCreator(sender,_numOfDappbox,_productId, _cycleType, _numCycles);\n        require(flag == true, \"payment failed \");\n\n        // add sold dapp creator in products with dappbox volume \n        return  _createDappCreatorLicense( sender,_numOfDappbox , _productId , _cycleType , _numCycles);\n        \n    }\n\n  /**\n   * @dev calculate and deduct the amount of SAT for dapp individual8\n   */\n\n    function calculateAndDeductSatDappCreator(address sender ,uint256 numOfDappbox ,uint256 productId ,uint256 cycleType ,uint256 numCycles) internal returns (bool)\n  { \n        uint256 productPrice = priceOfProduct(productId);\n        uint256 totalPrice;\n        uint256 discountPrice;\n        uint256 price;\n        uint256 currentDiscount;\n\n        if(numOfDappbox <= 10)\n        {\n            if(discountStructure.below10 != 0)\n          {\n                currentDiscount = discountStructure.below10;\n          }\n          else\n          {\n                currentDiscount = numOfDappbox-1 ;  //this is the logic for discount structure less than 10 dapp purchase , specified in task specification file .\n          }                                     // it will be used until ceo of company changes the discount with some generic discount structure \n        }\n        else if( numOfDappbox <= 20)\n        {\n            currentDiscount = discountStructure.below20;\n        }\n        else if(numOfDappbox <= 50)\n        {\n            currentDiscount = discountStructure.below50;\n        }\n        else if(numOfDappbox <= 100)\n        {\n            currentDiscount = discountStructure.below100;\n        }\n        else if (numOfDappbox > 100 && numOfDappbox <= 500)\n        {\n            currentDiscount = discountStructure.above100;\n        }\n\n        if(cycleType == 0) //monthly purchase\n        {\n            price = productPrice*(numCycles);\n        }\n        else if(cycleType == 1) // annual purchase\n        {\n            price = (productPrice*(numCycles))*(12);\n        }\n\n      discountPrice = (price*(currentDiscount))/(100);\n      totalPrice = price-(discountPrice);\n      bool res = deduct(sender , totalPrice);\n      return res ;\n}\n\n\n\nfunction _createDappCreatorLicense(address _assignee,uint256 _numOfDappbox, uint256 _productId , uint256 _cycleType ,uint256 _numCycles) internal returns(uint256)\n{\n  string memory _name = _getProductName(_productId);\n  uint256 expTime = expirationTime(_cycleType , _numCycles );\n \n   CreatorLicense memory _license = CreatorLicense({\n    owner: _assignee ,\n    productId: _productId,\n    productName: _name,\n    dappboxVolume: _numOfDappbox,\n    issuedTime: now ,\n    expirationTime:expTime \n    });\n\n    uint256 newLicenseId = creatorLicense.push(_license) - 1;\n    emit DappCreatorLicenseIssued(msg.sender,\n    newLicenseId,\n    _license.productId,\n    _license.dappboxVolume,\n    _license.productName,\n    _license.issuedTime,\n    _license.expirationTime\n    );\n    return newLicenseId;\n}\n\n\n\n    function buyAddons( uint256 _addonId ,uint256 _productId  , uint256 _cycleType , uint256 _numCycle  ) external returns (uint256)\n    {\n      \n      (bool flag , uint256 index )= checkDappCreator(msg.sender); // checking for dappcreator , as addons should be bought by dappCreators only\n      require(_productId != 0, \"dappboxFree cannot be base for addons \");\n      // addon price comes with the base dappbox price as well\n      uint256 price;\n      uint256 totalPrice;\n      uint256 productPrice = priceOfProduct(_productId); \n      uint256 addonPrice = priceOfAddon(_addonId);\n      require(flag == true,\"Not a dappCreator\");\n      if(_cycleType == 0)\n      {\n          price =addonPrice*(_numCycle);\n          totalPrice = price+(productPrice*(_numCycle));\n      }\n    else \n      {\n          price = addonPrice*(_numCycle*(12))+(productPrice*(_numCycle*(12)));\n          uint256 discount = (price*(ixxoDiscountOnAnnualPurchase))/(100);\n          totalPrice = price-(discount);\n      }\n\n      require(sat.totalTokensHeld() >= totalPrice , \"not enough SAT\");\n      bool res =deduct(msg.sender, totalPrice);\n      require(res == true , \"payment failed\");\n      return _createAddonLicense( _addonId ,_cycleType , _numCycle , _productId);\n      \n        //add the license of addon brought to the account of dappcreator license \n        // add number of addon sold  \n\n      }\n\n  /**\n  \n   */\n    function _createAddonLicense( uint256 addonId ,uint256 _cycleType , uint256 _numCycle , uint256 _productId ) internal returns(uint256)\n    {        address spender = msg.sender ;\n      uint256 expTime =expirationTime(_cycleType , _numCycle); \n      string memory name = _getProductName(_productId);\n        AddonLicense memory newList = AddonLicense({\n          owner: spender,\n        addonId: addonId,\n        baseProductId:_productId,\n        addonName: name,\n        issuedTime: now,\n        expirationTime: expTime  \n        });\n\n        uint256 newAddonLicense = addonLicense.push(newList)-1;\n        //if single entry than add abnew one by deleting 1 if none tstar checking fro idex zero\n        return newAddonLicense;\n    }\n  \n\n\n\nfunction dappCreatorSell(uint256 _dappPriceMonthly , uint256 _dappPriceAnnual) public returns(uint256)\n{\n  // checking of dappfree for being reseller is not required , since dappcreator can only be reseller and this condition we have checked earlier only \n  address dappcreator = msg.sender ;\n  (bool flag , uint256 index ) =checkDappCreator(dappcreator);\n  require(flag == true , \"Not a dappCreator\"); //only a dappcreator can be reseller of dapbox\n  uint256 _monthlyPrice;\n  uint256 _annualPrice;\n  bool _monthlyDappLicense;\n  bool _annualDappLicense;\n  \n  uint256 expTime = creatorLicense[index].expirationTime ;\n  uint256 currentMonth = BokkyPooBahsDateTimeLibrary.getMonth(now);\n  uint256 expirationMonth = BokkyPooBahsDateTimeLibrary.getMonth(expTime);\n  uint256 monthsLeft = expirationMonth-(currentMonth); \n\n\nif(flag == true)\n{\n \n    _monthlyPrice = _dappPriceMonthly;\n    _monthlyDappLicense = true;\n\n\n  if(monthsLeft > 12) //checking that dappcreator has license of alteast 12 months to set Annual dappCreateSale license \n  {\n    _annualDappLicense = true;\n    _annualPrice = _dappPriceAnnual;\n\n  }\n  else \n  {\n    _annualDappLicense = false ;\n    _annualPrice = 0;\n  }\n}\n\n     CreateResaleLicense memory newList = CreateResaleLicense({\n    creatorLicense: index ,\n    MontlyLicense: _monthlyDappLicense ,\n    AnnualLicense: _annualDappLicense ,\n    MonthlyLicensePrice: _monthlyPrice ,\n    AnnualLicensePrice: _annualPrice \n    });\n\n  uint256 newLicenseId = ResaleLicense.push(newList) - 1;\n\n \nreturn newLicenseId;\n}\n\n\n \n\nfunction renewIndividualDappboxLicense(uint256 LicenseId , uint256 _cycleType , uint256 _numCycles) public whenNotPaused returns (bool)\n{\n   // search for product type and then perform the actions \n  require(_numCycles != 0);\n  address sender = msg.sender;\n  uint256 productId = licenseProductId(LicenseId);\n  require(renewableOf(productId)==true , \"not a rewable product\");\n  bool flag = calculateAndDeductSat(sender ,productId, _cycleType, _numCycles);\n  require (flag == true , \"payment failed\");\n  uint256 currentExpTime = licenses[LicenseId].expirationTime;\n  uint256 finalExpTime = _calculateRenewalTime(currentExpTime , _cycleType , _numCycles);\n  licenses[LicenseId].expirationTime = finalExpTime;\n  emit LicenseRenewal(\n      msg.sender,\n      LicenseId,\n      productId,\n      finalExpTime\n    );\n\n  return true ;\n}\n\n\n\nfunction renewDappboxCreatorLicense(uint256 LicenseId , uint256 _cycleType , uint256 _numCycles) public whenNotPaused returns (bool)\n{\n  require(_numCycles != 0);\n\n  uint256 productId = licenseCreatorProductId(LicenseId);\n  uint256 _numOfDappbox = creatorLicense[productId].dappboxVolume;\n\nbool res = calculateAndDeductSatDappCreator(msg.sender ,_numOfDappbox,productId , _cycleType , _numCycles);\nif(res == true )\n{\n  uint256 currentExpTime = creatorLicense[LicenseId].expirationTime;\n  uint256 finalExpTime = _calculateRenewalTime(currentExpTime , _cycleType , _numCycles);\n  creatorLicense[LicenseId].expirationTime= finalExpTime ;\n  emit LicenseRenewal(\n      msg.sender,\n      LicenseId,\n      productId,\n      finalExpTime\n    );\n\n  return true ;\n}\nelse \n{\n  return false ;\n}\n}\n\n\n\nfunction renewAddonLicense(uint256 LicenseId , uint256 _cycleType , uint256 _numCycles) public whenNotPaused returns (bool)\n{\n  require(_numCycles != 0);\n  uint256 addonId = licenseAddonProductId(LicenseId);\n  uint256 baseProductId = addonLicense[LicenseId].baseProductId;\n  uint256 price;\n  uint256 totalPrice ;\n  uint256 addonPrice = priceOfProduct(addonId);\n  uint256 productPrice = priceOfProduct(baseProductId);\n       if(_cycleType == 0)\n      {\n          price =addonPrice*(_numCycles);\n          totalPrice = price+(productPrice*(_numCycles));\n      }\n    else \n      {\n          uint256 price1 = addonPrice*(_numCycles*(12));\n          uint256 price2 = productPrice*(_numCycles*(12));\n          price = price1+(price2);\n          uint256 discount = (price*(ixxoDiscountOnAnnualPurchase))/(100);\n          totalPrice = price-(discount);\n      }\n     \n     renewEvent(LicenseId , addonId  ,totalPrice , _cycleType , _numCycles);\n   \n\n}\n\nfunction renewEvent (uint256 LicenseId , uint256 addonId   , uint256 totalPrice , uint256 _cycleType , uint256 _numCycles) internal returns (bool)\n{\n   require(sat.totalTokensHeld() >= totalPrice , \"not enough SAT\");\n      require(deduct(msg.sender, totalPrice) ==true , \"payment failed\");\n        uint256 currentExpTime = licenses[LicenseId].expirationTime;\n    uint256 finalExpTime = _calculateRenewalTime(currentExpTime , _cycleType , _numCycles);\n     addonLicense[LicenseId].expirationTime = finalExpTime;\n emit LicenseRenewal(\n      msg.sender,\n      LicenseId,\n      addonId,\n      finalExpTime\n    ); \n\n\n  return true ;\n}\n\nfunction calculateProrata (uint256 _productPrice , uint256 _cycleType ) internal view returns (uint256)\n{\n    uint256 timestamp = now ;\n    uint256 currentDay = BokkyPooBahsDateTimeLibrary.getDay(timestamp);\n    uint256 daysInMonth = BokkyPooBahsDateTimeLibrary.getDaysInMonth( timestamp);\n    uint256 daysLeft = daysInMonth-(currentDay);\n    uint256 monthsInYear = 12;\n    uint256 SatToPay;\n  if(_cycleType == 0 )\n  {\n    SatToPay = (_productPrice/(daysInMonth))*(daysLeft);\n    return SatToPay;\n  }\n  else if(_cycleType == 1 )\n  {\n    uint256 currentMonth = BokkyPooBahsDateTimeLibrary.getMonth(timestamp);\n    uint256 monthsLeft = (monthsInYear)-(currentMonth); //months left in year\n    uint256 sat1 = (_productPrice/(daysInMonth))*(daysLeft);\n    SatToPay = sat1+(monthsLeft*(_productPrice));\n    return SatToPay;\n  }\n}\n\n\n\n  function deduct(address _spender , uint256 _satToDeduct) internal returns (bool)\n  {\n    // This function should only send the transaction to the SAT contract \n\n    // call function transfer token\n\n  }\n\n\n\n  function changeIxxoDiscountOnAnnualPurchase(uint256 newDiscount) public onlyCEO whenPaused returns (bool)\n  {\n    ixxoDiscountOnAnnualPurchase = newDiscount ;\n    return true;\n  }\n\n  function changeDappCreatorDiscountStructure(uint256 _below10, uint256 _below20 , uint256 _below50 , uint256 _below100 , uint256 _above100 ) public whenPaused onlyCLevel returns(bool)\n  {\n    discountStructure.below10 = _below10;\n    discountStructure.below20 = _below20;\n    discountStructure.below50 = _below50;\n    discountStructure.below100 = _below100;\n    discountStructure.above100 = _above100;\n    return true;\n\n  }\n\n\n\n /**\n  * @dev supporting functions\n  */\n\nfunction expirationTime(uint256 _cycleType ,uint256  _numCycles) internal view  returns (uint256)\n{\n    uint256 timestamp = now ;\n    uint256 currentDay = BokkyPooBahsDateTimeLibrary.getDay(timestamp) ;\n    uint256 currentMonth = BokkyPooBahsDateTimeLibrary.getMonth(timestamp);\n    uint256 daysInMonth = BokkyPooBahsDateTimeLibrary.getDaysInMonth( timestamp) ;\n    uint256 daysLeft = daysInMonth-(currentDay);\n    uint256 monthsInYear = 12 ;\n       \n  uint256 DaysInSec = daysLeft*(86400); // sec in day \n  _numCycles--;\n  uint256 Time ;\n  if (_cycleType == 0)\n  {\n\n    Time = (_numCycles*(2629746))+(DaysInSec); // sec in month\n    return Time ;\n  }\n  else if (_cycleType == 1 )\n  {\n    uint256 numOfMonthsLeft = ((monthsInYear)-(currentMonth))*(2629746);\n   Time = ((DaysInSec)+(numOfMonthsLeft))+(_numCycles*(monthsInYear)*(2629746));\n\n    return Time ;\n  }\n}\n\n\n function checkDappBoxFreeRunning() internal view returns (uint256)\n {\n   uint256 timestamp = now ;\n   uint256 flag = 0;\n   uint256 len = licenses.length -1;\n   for(uint256 i= 0 ; i< len ; i++)\n   {\n     if(licenses[i].productId == 1 && licenses[i].expirationTime < timestamp )\n     {\n       flag++;\n     }\n     return flag;\n   }\n }\n\n\n\n\nfunction _calculateRenewalTime(uint256 currentExpirationTime ,uint256 cycleType, uint256 numCycles) internal view returns (uint256) {\n\nuint256 newExpirationTime;\nuint256 calculatedTime = expirationTime(cycleType , numCycles);\n\n  if(currentExpirationTime <= now )\n  {\n    newExpirationTime = now+(calculatedTime);\n\n    return newExpirationTime;\n\n  }\n  else if(currentExpirationTime > now)\n  {\n    newExpirationTime = calculatedTime+(currentExpirationTime);\n\n    return newExpirationTime;\n  }\n    \n  }\n\n\nfunction checkDappCreator(address beneficiary) internal view  returns(bool , uint256)\n{\n  bool flag = false ;\n  uint256 index ;\n  uint256 len = creatorLicense.length -1 ;\n  for(uint256 i= 0 ; i< len; i++)\n{\n    if(beneficiary == creatorLicense[i].owner )\n      {\n        index = i ;\n        flag = true;\n      }\n}\nreturn (flag , index);\n} \n\n\n    function _notAlreadyDappFreeOwner(address beneficiary) internal view returns(bool)\n   {\n     uint256 len = licenses.length -1;\n     for(uint256 i = 0 ; i<len;i++)\n     {\n       if(beneficiary == (licenses[i].owner))\n       {\n         return true;\n       }\n\n     }\n     return false;\n   } \n\n\n\n\n}",
  "sourcePath": "/home/sagar/Desktop/ixxoAllcontracts/30_april_SM/ixxo_smartcontracts/Subscription/contracts/LicenseSale.sol",
  "compiler": {
    "name": "solc",
    "version": "0.5.0+commit.1d4f565a.Emscripten.clang"
  },
  "schemaVersion": "3.0.6",
  "updatedAt": "2019-05-01T05:18:03.469Z",
  "devdoc": {
    "methods": {
      "_getAddonName(uint256)": {
        "details": "returns the name of addon related to the supplied addonId"
      },
      "priceOfProduct(uint256)": {
        "params": {
          "_productId": "- the product id"
        }
      },
      "purchaseDappBoxIndividual(uint256,uint256,uint256)": {
        "details": "this function facilitates the purchasing of license for individual dappbox (dappboxFree , dappboxStart , dappboxPremium) dappfree should be of _cycleType = 0 (monthly) dappfree will be of _numCycles = 1 (as this trail is for only one month)"
      },
      "setAddonPrice(uint256,uint256)": {
        "params": {
          "_AddonId": "- the addonId id",
          "_price": "- the product price"
        }
      }
    }
  },
  "userdoc": {
    "methods": {
      "priceOfProduct(uint256)": {
        "notice": "The price of a product"
      },
      "setAddonPrice(uint256,uint256)": {
        "notice": "setPriceOfAddon - sets the price of a addon"
      }
    }
  }
}