{
  "contractName": "ProductInventory",
  "abi": [
    {
      "constant": true,
      "inputs": [
        {
          "name": "",
          "type": "uint256"
        }
      ],
      "name": "addOnProducts",
      "outputs": [
        {
          "name": "addonId",
          "type": "uint256"
        },
        {
          "name": "addonName",
          "type": "string"
        },
        {
          "name": "addonPrice",
          "type": "uint256"
        }
      ],
      "payable": false,
      "stateMutability": "view",
      "type": "function"
    },
    {
      "constant": true,
      "inputs": [
        {
          "name": "_licenseId",
          "type": "uint256"
        }
      ],
      "name": "licenseAddonProductId",
      "outputs": [
        {
          "name": "",
          "type": "uint256"
        }
      ],
      "payable": false,
      "stateMutability": "view",
      "type": "function"
    },
    {
      "constant": true,
      "inputs": [
        {
          "name": "_licenseId",
          "type": "uint256"
        }
      ],
      "name": "licenseCreatorProductId",
      "outputs": [
        {
          "name": "",
          "type": "uint256"
        }
      ],
      "payable": false,
      "stateMutability": "view",
      "type": "function"
    },
    {
      "constant": false,
      "inputs": [],
      "name": "unpause",
      "outputs": [],
      "payable": false,
      "stateMutability": "nonpayable",
      "type": "function"
    },
    {
      "constant": false,
      "inputs": [
        {
          "name": "newCFO",
          "type": "address"
        }
      ],
      "name": "ChangeCFO",
      "outputs": [],
      "payable": false,
      "stateMutability": "nonpayable",
      "type": "function"
    },
    {
      "constant": true,
      "inputs": [
        {
          "name": "",
          "type": "uint256"
        }
      ],
      "name": "products",
      "outputs": [
        {
          "name": "id",
          "type": "uint256"
        },
        {
          "name": "productName",
          "type": "string"
        },
        {
          "name": "price",
          "type": "uint256"
        },
        {
          "name": "hardDrive",
          "type": "uint256"
        },
        {
          "name": "maxMemory",
          "type": "uint256"
        },
        {
          "name": "maxProcess",
          "type": "uint256"
        },
        {
          "name": "renewable",
          "type": "bool"
        }
      ],
      "payable": false,
      "stateMutability": "view",
      "type": "function"
    },
    {
      "constant": false,
      "inputs": [
        {
          "name": "newCOO",
          "type": "address"
        }
      ],
      "name": "ChangeCOO",
      "outputs": [],
      "payable": false,
      "stateMutability": "nonpayable",
      "type": "function"
    },
    {
      "constant": false,
      "inputs": [],
      "name": "pause",
      "outputs": [],
      "payable": false,
      "stateMutability": "nonpayable",
      "type": "function"
    },
    {
      "constant": true,
      "inputs": [
        {
          "name": "_licenseId",
          "type": "uint256"
        }
      ],
      "name": "licenseProductId",
      "outputs": [
        {
          "name": "",
          "type": "uint256"
        }
      ],
      "payable": false,
      "stateMutability": "view",
      "type": "function"
    },
    {
      "constant": true,
      "inputs": [
        {
          "name": "",
          "type": "uint256"
        }
      ],
      "name": "allAddonsIds",
      "outputs": [
        {
          "name": "",
          "type": "uint256"
        }
      ],
      "payable": false,
      "stateMutability": "view",
      "type": "function"
    },
    {
      "constant": true,
      "inputs": [
        {
          "name": "",
          "type": "uint256"
        }
      ],
      "name": "allProductIds",
      "outputs": [
        {
          "name": "",
          "type": "uint256"
        }
      ],
      "payable": false,
      "stateMutability": "view",
      "type": "function"
    },
    {
      "inputs": [],
      "payable": false,
      "stateMutability": "nonpayable",
      "type": "constructor"
    },
    {
      "anonymous": false,
      "inputs": [
        {
          "indexed": false,
          "name": "id",
          "type": "uint256"
        },
        {
          "indexed": false,
          "name": "productName",
          "type": "string"
        },
        {
          "indexed": false,
          "name": "price",
          "type": "uint256"
        }
      ],
      "name": "ProductOrAddonCreated",
      "type": "event"
    },
    {
      "anonymous": false,
      "inputs": [
        {
          "indexed": false,
          "name": "productId",
          "type": "uint256"
        },
        {
          "indexed": false,
          "name": "newPrice",
          "type": "uint256"
        }
      ],
      "name": "PriceChanged",
      "type": "event"
    },
    {
      "anonymous": false,
      "inputs": [
        {
          "indexed": true,
          "name": "owner",
          "type": "address"
        },
        {
          "indexed": false,
          "name": "licenseId",
          "type": "uint256"
        },
        {
          "indexed": false,
          "name": "productId",
          "type": "uint256"
        },
        {
          "indexed": false,
          "name": "productName",
          "type": "string"
        },
        {
          "indexed": false,
          "name": "issuedTime",
          "type": "uint256"
        },
        {
          "indexed": false,
          "name": "expirationTime",
          "type": "uint256"
        }
      ],
      "name": "LicenseIssued",
      "type": "event"
    },
    {
      "anonymous": false,
      "inputs": [
        {
          "indexed": true,
          "name": "owner",
          "type": "address"
        },
        {
          "indexed": false,
          "name": "licenseId",
          "type": "uint256"
        },
        {
          "indexed": false,
          "name": "productId",
          "type": "uint256"
        },
        {
          "indexed": false,
          "name": "expirationTime",
          "type": "uint256"
        }
      ],
      "name": "LicenseRenewal",
      "type": "event"
    },
    {
      "anonymous": false,
      "inputs": [
        {
          "indexed": true,
          "name": "owner",
          "type": "address"
        },
        {
          "indexed": false,
          "name": "licenseId",
          "type": "uint256"
        },
        {
          "indexed": false,
          "name": "productId",
          "type": "uint256"
        },
        {
          "indexed": false,
          "name": "productVolume",
          "type": "uint256"
        },
        {
          "indexed": false,
          "name": "productName",
          "type": "string"
        },
        {
          "indexed": false,
          "name": "issuedTime",
          "type": "uint256"
        },
        {
          "indexed": false,
          "name": "expirationTime",
          "type": "uint256"
        }
      ],
      "name": "DappCreatorLicenseIssued",
      "type": "event"
    },
    {
      "anonymous": false,
      "inputs": [
        {
          "indexed": true,
          "name": "owner",
          "type": "address"
        },
        {
          "indexed": false,
          "name": "setMonthlyLicense",
          "type": "bool"
        },
        {
          "indexed": false,
          "name": "monthlyLicensePrice",
          "type": "uint256"
        },
        {
          "indexed": false,
          "name": "setAnnualLicense",
          "type": "bool"
        },
        {
          "indexed": false,
          "name": "AnuualLicensePrice",
          "type": "uint256"
        }
      ],
      "name": "DappCreatorResale",
      "type": "event"
    },
    {
      "constant": false,
      "inputs": [
        {
          "name": "_productId",
          "type": "uint256"
        },
        {
          "name": "_price",
          "type": "uint256"
        }
      ],
      "name": "setProductPrice",
      "outputs": [],
      "payable": false,
      "stateMutability": "nonpayable",
      "type": "function"
    },
    {
      "constant": false,
      "inputs": [
        {
          "name": "_AddonId",
          "type": "uint256"
        },
        {
          "name": "_price",
          "type": "uint256"
        }
      ],
      "name": "setAddonPrice",
      "outputs": [],
      "payable": false,
      "stateMutability": "nonpayable",
      "type": "function"
    },
    {
      "constant": false,
      "inputs": [
        {
          "name": "_productId",
          "type": "uint256"
        },
        {
          "name": "_productName",
          "type": "string"
        },
        {
          "name": "_initialPrice",
          "type": "uint256"
        }
      ],
      "name": "createAddon",
      "outputs": [],
      "payable": false,
      "stateMutability": "nonpayable",
      "type": "function"
    },
    {
      "constant": false,
      "inputs": [
        {
          "name": "_productId",
          "type": "uint256"
        },
        {
          "name": "_productName",
          "type": "string"
        },
        {
          "name": "_initialPrice",
          "type": "uint256"
        },
        {
          "name": "_hardDrive",
          "type": "uint256"
        },
        {
          "name": "_maxMemory",
          "type": "uint256"
        },
        {
          "name": "_maxProcess",
          "type": "uint256"
        },
        {
          "name": "_renewal",
          "type": "bool"
        }
      ],
      "name": "createProduct",
      "outputs": [],
      "payable": false,
      "stateMutability": "nonpayable",
      "type": "function"
    },
    {
      "constant": true,
      "inputs": [
        {
          "name": "_productId",
          "type": "uint256"
        }
      ],
      "name": "renewableOf",
      "outputs": [
        {
          "name": "",
          "type": "bool"
        }
      ],
      "payable": false,
      "stateMutability": "view",
      "type": "function"
    },
    {
      "constant": true,
      "inputs": [
        {
          "name": "_productId",
          "type": "uint256"
        }
      ],
      "name": "priceOfProduct",
      "outputs": [
        {
          "name": "",
          "type": "uint256"
        }
      ],
      "payable": false,
      "stateMutability": "view",
      "type": "function"
    },
    {
      "constant": true,
      "inputs": [
        {
          "name": "_addonId",
          "type": "uint256"
        }
      ],
      "name": "priceOfAddon",
      "outputs": [
        {
          "name": "",
          "type": "uint256"
        }
      ],
      "payable": false,
      "stateMutability": "view",
      "type": "function"
    },
    {
      "constant": true,
      "inputs": [
        {
          "name": "_addonId",
          "type": "uint256"
        }
      ],
      "name": "_getAddonName",
      "outputs": [
        {
          "name": "",
          "type": "string"
        }
      ],
      "payable": false,
      "stateMutability": "view",
      "type": "function"
    },
    {
      "constant": true,
      "inputs": [
        {
          "name": "_productId",
          "type": "uint256"
        }
      ],
      "name": "_getProductName",
      "outputs": [
        {
          "name": "",
          "type": "string"
        }
      ],
      "payable": false,
      "stateMutability": "view",
      "type": "function"
    }
  ],
  "bytecode": "0x60806040523480156200001157600080fd5b50600080546001805433600160a060020a0319918216811783556002805483168217815560038054909316821790925561010060a860020a03199093166101009093029290921760ff1916835560408051808201909152600881527f64617070467265650000000000000000000000000000000000000000000000006020820152620000b193606593919290919081908364010000000062000215810204565b6200010d60666040805190810160405280600981526020017f646170705374617274000000000000000000000000000000000000000000000081525061012c601460046002600162000215640100000000026401000000009004565b6200016960676040805190810160405280600b81526020017f646170705072656d69756d00000000000000000000000000000000000000000081525061032060c860086004600162000215640100000000026401000000009004565b620001bc60c96040805190810160405280600a81526020017f526f636b657443686174000000000000000000000000000000000000000000008152506064620003b3640100000000026401000000009004565b6200020f60ca6040805190810160405280600c81526020017f54616967612053657276657200000000000000000000000000000000000000008152506064620003b3640100000000026401000000009004565b62000602565b6200021f620004fb565b506040805160e0810182528881526020808201898152828401869052606083018990526080830188905260a0830187905284151560c084015260008b8152600a8352939093208251815592518051929384939092620002869260018501929101906200053b565b5060408281015160028301556060808401516003840155608080850151600485015560a0850151600585015560c0909401516006909301805460ff1916931515939093179092556008805460018101825560009182527ff3f7a9fe364faab93b216da50a3214154f22a0a2b415b23a84c8169e8b636ee3018c90558451602080870151878501518551848152958601819052858301878152825197870197909752815160008051602062001ba08339815191529894979296919591949293928501928701918190849084905b838110156200036c57818101518382015260200162000352565b50505050905090810190601f1680156200039a5780820380516001836020036101000a031916815260200191505b5094505050505060405180910390a15050505050505050565b620003bd620005c0565b506040805160608101825284815260208082018581528284018590526000878152600b8352939093208251815592518051929384939092620004079260018501929101906200053b565b506040918201516002909101556009805460018101825560009182527f6e1540171b6c0c960b71a7020d9f60077f6af931a8bbf590da0223dacf75c7af0186905582516020848101518585015185518481529586018190526060868401818152835191880191909152825160008051602062001ba08339815191529795969395929492939192608085019290870191908190849084905b83811015620004b85781810151838201526020016200049e565b50505050905090810190601f168015620004e65780820380516001836020036101000a031916815260200191505b5094505050505060405180910390a150505050565b60e0604051908101604052806000815260200160608152602001600081526020016000815260200160008152602001600081526020016000151581525090565b828054600181600116156101000203166002900490600052602060002090601f016020900481019282601f106200057e57805160ff1916838001178555620005ae565b82800160010185558215620005ae579182015b82811115620005ae57825182559160200191906001019062000591565b50620005bc929150620005e2565b5090565b6060604051908101604052806000815260200160608152602001600081525090565b620005ff91905b80821115620005bc5760008155600101620005e9565b90565b61158e80620006126000396000f3fe6080604052600436106101115763ffffffff7c01000000000000000000000000000000000000000000000000000000006000350416631ddc47a681146101165780631e85df79146101b55780631fd08722146102655780632d336de9146102a15780633f4ba83a146102cb57806344d3498a146102e25780634be0c620146103125780634dac7d6f146103ce57806351ffc3f11461040c5780636e78a9dc1461043f5780637acc0b201461046957806384319d46146105395780638456cb591461056c5780639425753c14610581578063a9afc7fd146105ab578063b03334bf146105d5578063cf08afff146106a8578063dde1bbcf146106d8578063df37f17714610702578063e62dcf2f1461072c575b600080fd5b34801561012257600080fd5b506101406004803603602081101561013957600080fd5b5035610756565b6040805160208082528351818301528351919283929083019185019080838360005b8381101561017a578181015183820152602001610162565b50505050905090810190601f1680156101a75780820380516001836020036101000a031916815260200191505b509250505060405180910390f35b3480156101c157600080fd5b506101df600480360360208110156101d857600080fd5b503561080e565b6040518084815260200180602001838152602001828103825284818151815260200191508051906020019080838360005b83811015610228578181015183820152602001610210565b50505050905090810190601f1680156102555780820380516001836020036101000a031916815260200191505b5094505050505060405180910390f35b34801561027157600080fd5b5061028f6004803603602081101561028857600080fd5b50356108bb565b60408051918252519081900360200190f35b3480156102ad57600080fd5b5061028f600480360360208110156102c457600080fd5b50356108e5565b3480156102d757600080fd5b506102e06108f6565b005b3480156102ee57600080fd5b506102e06004803603604081101561030557600080fd5b50803590602001356109c5565b34801561031e57600080fd5b506102e06004803603606081101561033557600080fd5b8135919081019060408101602082013564010000000081111561035757600080fd5b82018360208201111561036957600080fd5b8035906020019184600183028401116401000000008311171561038b57600080fd5b91908080601f0160208091040260200160405190810160405280939291908181526020018383808284376000920191909152509295505091359250610a9a915050565b3480156103da57600080fd5b506103f8600480360360208110156103f157600080fd5b5035610b2b565b604080519115158252519081900360200190f35b34801561041857600080fd5b506102e06004803603602081101561042f57600080fd5b5035600160a060020a0316610b43565b34801561044b57600080fd5b5061028f6004803603602081101561046257600080fd5b5035610c35565b34801561047557600080fd5b506104936004803603602081101561048c57600080fd5b5035610c4a565b604051808881526020018060200187815260200186815260200185815260200184815260200183151515158152602001828103825288818151815260200191508051906020019080838360005b838110156104f85781810151838201526020016104e0565b50505050905090810190601f1680156105255780820380516001836020036101000a031916815260200191505b509850505050505050505060405180910390f35b34801561054557600080fd5b506102e06004803603602081101561055c57600080fd5b5035600160a060020a0316610d13565b34801561057857600080fd5b506102e0610e05565b34801561058d57600080fd5b5061028f600480360360208110156105a457600080fd5b5035610ef0565b3480156105b757600080fd5b5061028f600480360360208110156105ce57600080fd5b5035610f1a565b3480156105e157600080fd5b506102e0600480360360e08110156105f857600080fd5b8135919081019060408101602082013564010000000081111561061a57600080fd5b82018360208201111561062c57600080fd5b8035906020019184600183028401116401000000008311171561064e57600080fd5b91908080601f01602080910402602001604051908101604052809392919081815260200183838082843760009201919091525092955050823593505050602081013590604081013590606081013590608001351515610f39565b3480156106b457600080fd5b506102e0600480360360408110156106cb57600080fd5b5080359060200135610fd2565b3480156106e457600080fd5b5061028f600480360360208110156106fb57600080fd5b50356110a7565b34801561070e57600080fd5b5061028f6004803603602081101561072557600080fd5b50356110b5565b34801561073857600080fd5b506101406004803603602081101561074f57600080fd5b50356110ca565b6060600a60008381526020019081526020016000206001018054600181600116156101000203166002900480601f0160208091040260200160405190810160405280929190818152602001828054600181600116156101000203166002900480156108025780601f106107d757610100808354040283529160200191610802565b820191906000526020600020905b8154815290600101906020018083116107e557829003601f168201915b50505050509050919050565b600b602090815260009182526040918290208054600180830180548651600293821615610100026000190190911692909204601f8101869004860283018601909652858252919492939092908301828280156108ab5780601f10610880576101008083540402835291602001916108ab565b820191906000526020600020905b81548152906001019060200180831161088e57829003601f168201915b5050505050908060020154905083565b60006007828154811015156108cc57fe5b9060005260206000209060060201600101549050919050565b60006005828154811015156108cc57fe5b6000546101009004600160a060020a0316331461095d576040805160e560020a62461bcd02815260206004820152601560248201527f41757468656e7469636174696f6e206661696c65640000000000000000000000604482015290519081900360640190fd5b60005460ff1615156109b9576040805160e560020a62461bcd02815260206004820152601360248201527f636f6e7472616374206e6f742070617573656400000000000000000000000000604482015290519081900360640190fd5b6000805460ff19169055565b600254600160a060020a03163314806109ed57506000546101009004600160a060020a031633145b80610a025750600154600160a060020a031633145b1515610a46576040805160e560020a62461bcd0281526020600482015260156024820152600080516020611543833981519152604482015290519081900360640190fd5b6000828152600a6020908152604091829020600201839055815184815290810183905281517f8aa4fa52648a6d15edce8a179c792c86f3719d0cc3c572cf90f91948f0f2cb68929181900390910190a15050565b600254600160a060020a0316331480610ac257506000546101009004600160a060020a031633145b80610ad75750600154600160a060020a031633145b1515610b1b576040805160e560020a62461bcd0281526020600482015260156024820152600080516020611543833981519152604482015290519081900360640190fd5b610b2683838361114b565b505050565b6000908152600a602052604090206006015460ff1690565b6000546101009004600160a060020a03163314610baa576040805160e560020a62461bcd02815260206004820152601560248201527f41757468656e7469636174696f6e206661696c65640000000000000000000000604482015290519081900360640190fd5b60005460ff161515610c06576040805160e560020a62461bcd02815260206004820152601360248201527f636f6e7472616374206e6f742070617573656400000000000000000000000000604482015290519081900360640190fd5b6001805473ffffffffffffffffffffffffffffffffffffffff1916600160a060020a0392909216919091179055565b6000908152600b602052604090206002015490565b600a602090815260009182526040918290208054600180830180548651600293821615610100026000190190911692909204601f810186900486028301860190965285825291949293909290830182828015610ce75780601f10610cbc57610100808354040283529160200191610ce7565b820191906000526020600020905b815481529060010190602001808311610cca57829003601f168201915b505050600284015460038501546004860154600587015460069097015495969295919450925060ff1687565b6000546101009004600160a060020a03163314610d7a576040805160e560020a62461bcd02815260206004820152601560248201527f41757468656e7469636174696f6e206661696c65640000000000000000000000604482015290519081900360640190fd5b60005460ff161515610dd6576040805160e560020a62461bcd02815260206004820152601360248201527f636f6e7472616374206e6f742070617573656400000000000000000000000000604482015290519081900360640190fd5b6002805473ffffffffffffffffffffffffffffffffffffffff1916600160a060020a0392909216919091179055565b600254600160a060020a0316331480610e2d57506000546101009004600160a060020a031633145b80610e425750600154600160a060020a031633145b1515610e86576040805160e560020a62461bcd0281526020600482015260156024820152600080516020611543833981519152604482015290519081900360640190fd5b60005460ff1615610ee1576040805160e560020a62461bcd02815260206004820152600f60248201527f636f6e7472616374207061757365640000000000000000000000000000000000604482015290519081900360640190fd5b6000805460ff19166001179055565b6000600482815481101515610f0157fe5b9060005260206000209060050201600101549050919050565b6009805482908110610f2857fe5b600091825260209091200154905081565b600254600160a060020a0316331480610f6157506000546101009004600160a060020a031633145b80610f765750600154600160a060020a031633145b1515610fba576040805160e560020a62461bcd0281526020600482015260156024820152600080516020611543833981519152604482015290519081900360640190fd5b610fc98787878787878761129d565b50505050505050565b600254600160a060020a0316331480610ffa57506000546101009004600160a060020a031633145b8061100f5750600154600160a060020a031633145b1515611053576040805160e560020a62461bcd0281526020600482015260156024820152600080516020611543833981519152604482015290519081900360640190fd5b6000828152600b6020908152604091829020600201839055815184815290810183905281517f8aa4fa52648a6d15edce8a179c792c86f3719d0cc3c572cf90f91948f0f2cb68929181900390910190a15050565b6008805482908110610f2857fe5b6000908152600a602052604090206002015490565b6060600b60008381526020019081526020016000206001018054600181600116156101000203166002900480601f0160208091040260200160405190810160405280929190818152602001828054600181600116156101000203166002900480156108025780601f106107d757610100808354040283529160200191610802565b611153611445565b506040805160608101825284815260208082018581528284018590526000878152600b835293909320825181559251805192938493909261119b926001850192910190611467565b506040918201516002909101556009805460018101825560009182527f6e1540171b6c0c960b71a7020d9f60077f6af931a8bbf590da0223dacf75c7af018690558251602084810151858501518551848152958601819052606086840181815283519188019190915282517f1e12a5fab2b787953bc2de78fb499c05d8790eef10e8d9542b35b27a5f470c699795969395929492939192608085019290870191908190849084905b8381101561125b578181015183820152602001611243565b50505050905090810190601f1680156112885780820380516001836020036101000a031916815260200191505b5094505050505060405180910390a150505050565b6112a56114e5565b506040805160e0810182528881526020808201898152828401869052606083018990526080830188905260a0830187905284151560c084015260008b8152600a835293909320825181559251805192938493909261130a926001850192910190611467565b5060408281015160028301556060808401516003840155608080850151600485015560a0850151600585015560c0909401516006909301805460ff1916931515939093179092556008805460018101825560009182527ff3f7a9fe364faab93b216da50a3214154f22a0a2b415b23a84c8169e8b636ee3018c9055845160208087015187850151855184815295860181905285830187815282519787019790975281517f1e12a5fab2b787953bc2de78fb499c05d8790eef10e8d9542b35b27a5f470c699894979296919591949293928501928701918190849084905b838110156113ff5781810151838201526020016113e7565b50505050905090810190601f16801561142c5780820380516001836020036101000a031916815260200191505b5094505050505060405180910390a15050505050505050565b6060604051908101604052806000815260200160608152602001600081525090565b828054600181600116156101000203166002900490600052602060002090601f016020900481019282601f106114a857805160ff19168380011785556114d5565b828001600101855582156114d5579182015b828111156114d55782518255916020019190600101906114ba565b506114e1929150611525565b5090565b60e0604051908101604052806000815260200160608152602001600081526020016000815260200160008152602001600081526020016000151581525090565b61153f91905b808211156114e1576000815560010161152b565b9056fe61757468656e7469636174696f6e206661696c65640000000000000000000000a165627a7a7230582039be3cd3a9e230eafb097f0d60b8fe36c63d20b8bddb8d35a12916cbc2fd42e900291e12a5fab2b787953bc2de78fb499c05d8790eef10e8d9542b35b27a5f470c69",
  "source": "pragma solidity >=0.4.21 <0.6.0;\n\nimport \"./LicenseInventory.sol\";\n\ncontract ProductInventory is LicenseInventory\n{\n    event ProductOrAddonCreated(uint256 id,string productName,uint256 price);\n    event PriceChanged(uint256 productId,uint256 newPrice);\n\n    constructor () public \n    {\n        _createProduct(101,\"dappFree\",0,2,2,1,false);\n        _createProduct(102,\"dappStart\",300,20,4,2,true);\n        _createProduct(103,\"dappPremium\",800,200,8,4,true);\n        _createAddon(201,\"RocketChat\",100);\n        _createAddon(202,\"Taiga Server\",100); \n    }\n\n    struct Product\n    {\n        uint256 id;\n        string productName;\n        uint256 price;\n        uint256 hardDrive;\n        uint256 maxMemory;\n        uint256 maxProcess ;\n        bool renewable;\n    }\n\n    struct addOnProduct \n    { \n        uint256 addonId;\n        string addonName ;\n        uint256 addonPrice; // only addon price , base dppbox individual price is not added \n    }\n\n    uint256[] public allProductIds;\n    uint256[] public allAddonsIds;\n\n    mapping (uint256 => Product) public products;\n    mapping (uint256 => addOnProduct) public addOnProducts;\n\n    function setProductPrice(uint256 _productId, uint256 _price)public onlyCLevel\n  {\n        products[_productId].price = _price;\n        emit PriceChanged(_productId, _price);\n    }\n\n   /**\n  * @notice setPriceOfAddon - sets the price of a addon\n  * @param _AddonId - the addonId id\n  * @param _price - the product price\n  */\n    function setAddonPrice(uint256 _AddonId, uint256 _price)public onlyCLevel\n    {       \n        addOnProducts[_AddonId].addonPrice = _price;\n        emit PriceChanged(_AddonId,_price);\n    }\n    \n    function _createProduct(\n    uint256 _productId,\n    string memory _productName,\n    uint256 _hardDrive,\n    uint256 _maxMemory,\n    uint256 _maxProcess,\n    uint256 _initialPrice,\n    bool _renewal\n    )\n    internal\n  {\n    //require(_productDoesNotExist(_productId));\n\n    Product memory _product = Product({\n      id: _productId,\n      productName : _productName,\n      price: _initialPrice,\n      hardDrive: _hardDrive,\n      maxMemory: _maxMemory,\n      maxProcess: _maxProcess,\n      renewable: _renewal \n    });\n    products[_productId] = _product;\n    allProductIds.push(_productId);\n\n    emit  ProductOrAddonCreated(\n      _product.id,\n      _product.productName,\n      _product.price\n      );\n  }\n\n  function _createAddon(uint256 _productId,string memory _productName, uint256 _initialPrice)internal\n  {\n    //require(_addonDoesNotExist(_productId));\n\n    addOnProduct  memory _addOnProduct  = addOnProduct ({\n      addonId:_productId,\n      addonName:_productName,\n      addonPrice:_initialPrice \n    });\n    \n    addOnProducts[_productId] = _addOnProduct;\n    allAddonsIds.push(_productId);\n\n     emit ProductOrAddonCreated(\n      _addOnProduct.addonId,\n      _addOnProduct.addonName,\n      _addOnProduct.addonPrice\n      );\n  }\n\n     function createAddon(uint256 _productId,string memory _productName,uint256 _initialPrice) public onlyCLevel\n  {\n    _createAddon(_productId,_productName,_initialPrice);\n  }\n  function createProduct(\n    uint256 _productId,\n    string memory  _productName,\n    uint256 _initialPrice,\n    uint256 _hardDrive,\n    uint256 _maxMemory,\n    uint256 _maxProcess,\n    bool _renewal)\n    public\n    onlyCLevel\n  {\n    _createProduct(\n      _productId,\n      _productName,\n      _initialPrice,\n      _hardDrive,\n      _maxMemory,\n      _maxProcess,\n      _renewal);\n  }\n\n  function renewableOf(uint256 _productId) public view returns (bool) {\n    //require(_productId != 0,\"not a valid product\");\n    return products[_productId].renewable;\n  }\n  \n\n  /*\n   * @dev returns the current price of requesting addon ,\n   * NOTE ; the price is of addon only not te base dappbox individual we are using to serve the addon  \n   */\n  \n\n    /**\n  * @notice The price of a product\n  * @param _productId - the product id\n  */\n  function priceOfProduct(uint256 _productId) public view returns (uint256) {\n    return products[_productId].price;\n  }\n  /*\n   * @dev returns the current price of requesting addon ,\n   * NOTE ; the price is of addon only not te base dappbox individual we are using to serve the addon  \n   */\n  function priceOfAddon (uint256 _addonId) public view returns(uint256)\n  {\n    return addOnProducts[_addonId].addonPrice ;\n  }\n\n  /**\n   * @dev returns the name of addon related to the supplied addonId\n   */\n\n  function _getAddonName(uint256 _addonId) public view returns (string memory)\n  {\n    return addOnProducts[_addonId].addonName;\n\n  }\n\n  function _getProductName(uint256 _productId) public view returns (string memory)\n  {\n    return products[_productId].productName;\n\n  }\n\n\n}\n",
  "sourcePath": "/home/sagar/Desktop/ixxoAllcontracts/30_april_SM/ixxo_smartcontracts/Subscription/contracts/ProductInventory.sol",
  "compiler": {
    "name": "solc",
    "version": "0.5.0+commit.1d4f565a.Emscripten.clang"
  },
  "schemaVersion": "3.0.6",
  "updatedAt": "2019-05-01T05:18:03.283Z",
  "devdoc": {
    "methods": {
      "_getAddonName(uint256)": {
        "details": "returns the name of addon related to the supplied addonId"
      },
      "priceOfProduct(uint256)": {
        "params": {
          "_productId": "- the product id"
        }
      },
      "setAddonPrice(uint256,uint256)": {
        "params": {
          "_AddonId": "- the addonId id",
          "_price": "- the product price"
        }
      }
    }
  },
  "userdoc": {
    "methods": {
      "priceOfProduct(uint256)": {
        "notice": "The price of a product"
      },
      "setAddonPrice(uint256,uint256)": {
        "notice": "setPriceOfAddon - sets the price of a addon"
      }
    }
  }
}