{
  "contractName": "ReleaseTransaction",
  "abi": [
    {
      "constant": true,
      "inputs": [
        {
          "name": "",
          "type": "uint256"
        }
      ],
      "name": "getAllPendingRequests",
      "outputs": [
        {
          "name": "",
          "type": "uint256[]"
        },
        {
          "name": "",
          "type": "uint256"
        },
        {
          "name": "",
          "type": "bool"
        }
      ],
      "payable": false,
      "stateMutability": "view",
      "type": "function"
    },
    {
      "constant": true,
      "inputs": [
        {
          "name": "",
          "type": "uint256"
        },
        {
          "name": "",
          "type": "uint256"
        }
      ],
      "name": "getReleaseTransaction",
      "outputs": [
        {
          "name": "",
          "type": "address"
        },
        {
          "name": "",
          "type": "uint256"
        },
        {
          "name": "",
          "type": "uint256"
        },
        {
          "name": "",
          "type": "address"
        },
        {
          "name": "",
          "type": "uint256"
        },
        {
          "name": "",
          "type": "uint256"
        }
      ],
      "payable": false,
      "stateMutability": "view",
      "type": "function"
    }
  ],
  "bytecode": "0x608060405234801561001057600080fd5b506101ac806100206000396000f3fe60806040526004361061004b5763ffffffff7c010000000000000000000000000000000000000000000000000000000060003504166348a372148114610050578063ee4c5ee0146100d2575b600080fd5b34801561005c57600080fd5b506100806004803603604081101561007357600080fd5b5080359060200135610162565b6040805173ffffffffffffffffffffffffffffffffffffffff9788168152602081019690965285810194909452919094166060840152608083019390935260a082019290925290519081900360c00190f35b3480156100de57600080fd5b506100fc600480360360208110156100f557600080fd5b5035610175565b604051808060200184815260200183151515158152602001828103825285818151815260200191508051906020019060200280838360005b8381101561014c578181015183820152602001610134565b5050505090500194505050505060405180910390f35b6000806000806000809295509295509295565b50606090600090819056fea165627a7a723058204edd38af28e228c04034bb0b80a229bd8b3ea21a386d15a8a1c9055785e66d850029",
  "source": "pragma solidity >=0.4.24<0.6.0;\n\ncontract ReleaseTransaction\n{\n    function getAllPendingRequests(uint256) public view returns(uint256[] memory,uint256,bool){}\n    function getReleaseTransaction(uint256,uint256) public view returns (address , uint256 , uint256,address,uint256,uint256){}\n}  \n",
  "sourcePath": "/home/sagar/Desktop/ixxoAllcontracts/30_april_SM/ixxo_smartcontracts/Subscription/contracts/Deps/ReleaseTransaction.sol",
  "compiler": {
    "name": "solc",
    "version": "0.5.0+commit.1d4f565a.Emscripten.clang"
  },
  "schemaVersion": "3.0.6",
  "updatedAt": "2019-05-01T05:18:03.305Z",
  "devdoc": {
    "methods": {}
  },
  "userdoc": {
    "methods": {}
  }
}