{
  "contractName": "SpendingAllowanceToken",
  "abi": [
    {
      "constant": false,
      "inputs": [
        {
          "name": "",
          "type": "address"
        },
        {
          "name": "",
          "type": "address"
        },
        {
          "name": "",
          "type": "uint256"
        }
      ],
      "name": "transferTokens",
      "outputs": [
        {
          "name": "",
          "type": "uint256"
        },
        {
          "name": "",
          "type": "uint256"
        }
      ],
      "payable": false,
      "stateMutability": "nonpayable",
      "type": "function"
    },
    {
      "constant": false,
      "inputs": [
        {
          "name": "",
          "type": "uint256"
        },
        {
          "name": "",
          "type": "uint256"
        }
      ],
      "name": "validateTransaction",
      "outputs": [
        {
          "name": "",
          "type": "bool"
        }
      ],
      "payable": false,
      "stateMutability": "nonpayable",
      "type": "function"
    },
    {
      "constant": true,
      "inputs": [],
      "name": "totalTokensHeld",
      "outputs": [
        {
          "name": "",
          "type": "uint256"
        }
      ],
      "payable": false,
      "stateMutability": "pure",
      "type": "function"
    }
  ],
  "bytecode": "0x608060405234801561001057600080fd5b50610173806100206000396000f3fe6080604052600436106100565763ffffffff7c0100000000000000000000000000000000000000000000000000000000600035041663802c3c02811461005b5780638eed23971461009f578063a64b6e5f146100c6575b600080fd5b34801561006757600080fd5b5061008b6004803603604081101561007e57600080fd5b508035906020013561012f565b604080519115158252519081900360200190f35b3480156100ab57600080fd5b506100b4610137565b60408051918252519081900360200190f35b3480156100d257600080fd5b50610116600480360360608110156100e957600080fd5b5073ffffffffffffffffffffffffffffffffffffffff81358116916020810135909116906040013561013c565b6040805192835260208301919091528051918290030190f35b600092915050565b600090565b60008093509391505056fea165627a7a72305820091901b2fa68cdf26f2697ad0002f90e034531e34f3d61df2c9580bddcaff70c0029",
  "source": "pragma solidity >=0.4.24<0.6.0;\n\ncontract SpendingAllowanceToken\n{\n    function transferTokens(address,address,uint256) public returns(uint256, uint256){}\n    function validateTransaction(uint256,uint256) public returns(bool){}  \n    function totalTokensHeld() public pure returns(uint256){}\n}\n  \n\n\n\n\n\n\n\n\n\n\n\n\n\n\n\n\n\n\n\n\n\n\n\n\n\n\n\n\n\n\n\n\n",
  "sourcePath": "/home/sagar/Desktop/ixxoAllcontracts/30_april_SM/ixxo_smartcontracts/Subscription/contracts/Deps/SpendingAllowanceToken.sol",
  "compiler": {
    "name": "solc",
    "version": "0.5.0+commit.1d4f565a.Emscripten.clang"
  },
  "schemaVersion": "3.0.6",
  "updatedAt": "2019-05-01T05:18:03.188Z",
  "devdoc": {
    "methods": {}
  },
  "userdoc": {
    "methods": {}
  }
}