{
  "contractName": "ProofOfExistence",
  "abi": [
    {
      "inputs": [],
      "payable": false,
      "stateMutability": "nonpayable",
      "type": "constructor"
    },
    {
      "constant": false,
      "inputs": [
        {
          "name": "dappBoxOrigin",
          "type": "address"
        },
        {
          "name": "_fileHash",
          "type": "string"
        },
        {
          "name": "_filePathHash",
          "type": "string"
        },
        {
          "name": "_contractAddress",
          "type": "address"
        },
        {
          "name": "_identifier",
          "type": "uint8"
        }
      ],
      "name": "SetFileExistenceProof",
      "outputs": [
        {
          "name": "",
          "type": "bytes32"
        }
      ],
      "payable": false,
      "stateMutability": "nonpayable",
      "type": "function"
    },
    {
      "constant": false,
      "inputs": [
        {
          "name": "dappBoxOrigin",
          "type": "address"
        },
        {
          "name": "_fileHash",
          "type": "string"
        },
        {
          "name": "_filePathHash",
          "type": "string"
        },
        {
          "name": "_contractAddress",
          "type": "address"
        },
        {
          "name": "_identifier",
          "type": "uint8"
        }
      ],
      "name": "addExistenceProofUpdate",
      "outputs": [
        {
          "name": "",
          "type": "bool"
        }
      ],
      "payable": false,
      "stateMutability": "nonpayable",
      "type": "function"
    },
    {
      "constant": true,
      "inputs": [
        {
          "name": "dappBoxOrigin",
          "type": "address"
        },
        {
          "name": "fileHash",
          "type": "string"
        },
        {
          "name": "filePathHash",
          "type": "string"
        }
      ],
      "name": "GetFileExistenceProof",
      "outputs": [
        {
          "name": "",
          "type": "uint256"
        },
        {
          "name": "",
          "type": "address"
        },
        {
          "name": "",
          "type": "address"
        },
        {
          "name": "",
          "type": "uint8"
        },
        {
          "name": "",
          "type": "bytes32"
        }
      ],
      "payable": false,
      "stateMutability": "view",
      "type": "function"
    },
    {
      "constant": true,
      "inputs": [
        {
          "name": "dappBoxOrigin",
          "type": "address"
        },
        {
          "name": "fileHash",
          "type": "string"
        },
        {
          "name": "filePathHash",
          "type": "string"
        }
      ],
      "name": "getQRCode",
      "outputs": [
        {
          "name": "",
          "type": "bytes32"
        }
      ],
      "payable": false,
      "stateMutability": "view",
      "type": "function"
    },
    {
      "constant": true,
      "inputs": [
        {
          "name": "dappBoxOrigin",
          "type": "address"
        },
        {
          "name": "QRCodeHash",
          "type": "bytes32"
        }
      ],
      "name": "searchExistenceProoUsngQR",
      "outputs": [
        {
          "name": "",
          "type": "uint256"
        },
        {
          "name": "",
          "type": "address"
        },
        {
          "name": "",
          "type": "address"
        },
        {
          "name": "",
          "type": "uint8"
        },
        {
          "name": "",
          "type": "bytes32"
        }
      ],
      "payable": false,
      "stateMutability": "view",
      "type": "function"
    }
  ],
  "bytecode": "0x608060405234801561001057600080fd5b5060008081905550611d79806100276000396000f3fe60806040526004361061006d576000357c0100000000000000000000000000000000000000000000000000000000900463ffffffff168063327b5e98146100725780633531b98b146102875780637974bc5c14610378578063846d94911461050b578063eb93d30a146106cb575b600080fd5b34801561007e57600080fd5b506101ef6004803603606081101561009557600080fd5b81019080803573ffffffffffffffffffffffffffffffffffffffff169060200190929190803590602001906401000000008111156100d257600080fd5b8201836020820111156100e457600080fd5b8035906020019184600183028401116401000000008311171561010657600080fd5b91908080601f016020809104026020016040519081016040528093929190818152602001838380828437600081840152601f19601f8201169050808301925050505050505091929192908035906020019064010000000081111561016957600080fd5b82018360208201111561017b57600080fd5b8035906020019184600183028401116401000000008311171561019d57600080fd5b91908080601f016020809104026020016040519081016040528093929190818152602001838380828437600081840152601f19601f82011690508083019250505050505050919291929050505061088f565b604051808681526020018573ffffffffffffffffffffffffffffffffffffffff1673ffffffffffffffffffffffffffffffffffffffff1681526020018473ffffffffffffffffffffffffffffffffffffffff1673ffffffffffffffffffffffffffffffffffffffff16815260200183600281111561026957fe5b60ff1681526020018281526020019550505050505060405180910390f35b34801561029357600080fd5b506102e0600480360360408110156102aa57600080fd5b81019080803573ffffffffffffffffffffffffffffffffffffffff16906020019092919080359060200190929190505050610cd8565b604051808681526020018573ffffffffffffffffffffffffffffffffffffffff1673ffffffffffffffffffffffffffffffffffffffff1681526020018473ffffffffffffffffffffffffffffffffffffffff1673ffffffffffffffffffffffffffffffffffffffff16815260200183600281111561035a57fe5b60ff1681526020018281526020019550505050505060405180910390f35b34801561038457600080fd5b506104f56004803603606081101561039b57600080fd5b81019080803573ffffffffffffffffffffffffffffffffffffffff169060200190929190803590602001906401000000008111156103d857600080fd5b8201836020820111156103ea57600080fd5b8035906020019184600183028401116401000000008311171561040c57600080fd5b91908080601f016020809104026020016040519081016040528093929190818152602001838380828437600081840152601f19601f8201169050808301925050505050505091929192908035906020019064010000000081111561046f57600080fd5b82018360208201111561048157600080fd5b803590602001918460018302840111640100000000831117156104a357600080fd5b91908080601f016020809104026020016040519081016040528093929190818152602001838380828437600081840152601f19601f820116905080830192505050505050509192919290505050610f3c565b6040518082815260200191505060405180910390f35b34801561051757600080fd5b506106b5600480360360a081101561052e57600080fd5b81019080803573ffffffffffffffffffffffffffffffffffffffff1690602001909291908035906020019064010000000081111561056b57600080fd5b82018360208201111561057d57600080fd5b8035906020019184600183028401116401000000008311171561059f57600080fd5b91908080601f016020809104026020016040519081016040528093929190818152602001838380828437600081840152601f19601f8201169050808301925050505050505091929192908035906020019064010000000081111561060257600080fd5b82018360208201111561061457600080fd5b8035906020019184600183028401116401000000008311171561063657600080fd5b91908080601f016020809104026020016040519081016040528093929190818152602001838380828437600081840152601f19601f820116905080830192505050505050509192919290803573ffffffffffffffffffffffffffffffffffffffff169060200190929190803560ff16906020019092919050505061120d565b6040518082815260200191505060405180910390f35b3480156106d757600080fd5b50610875600480360360a08110156106ee57600080fd5b81019080803573ffffffffffffffffffffffffffffffffffffffff1690602001909291908035906020019064010000000081111561072b57600080fd5b82018360208201111561073d57600080fd5b8035906020019184600183028401116401000000008311171561075f57600080fd5b91908080601f016020809104026020016040519081016040528093929190818152602001838380828437600081840152601f19601f820116905080830192505050505050509192919290803590602001906401000000008111156107c257600080fd5b8201836020820111156107d457600080fd5b803590602001918460018302840111640100000000831117156107f657600080fd5b91908080601f016020809104026020016040519081016040528093929190818152602001838380828437600081840152601f19601f820116905080830192505050505050509192919290803573ffffffffffffffffffffffffffffffffffffffff169060200190929190803560ff1690602001909291905050506114b8565b604051808215151515815260200191505060405180910390f35b600080600080600080600160008a73ffffffffffffffffffffffffffffffffffffffff1673ffffffffffffffffffffffffffffffffffffffff16815260200190815260200160002080549050905060008060009050600083141515610cc95760008090505b600160008d73ffffffffffffffffffffffffffffffffffffffff1673ffffffffffffffffffffffffffffffffffffffff16815260200190815260200160002080549050811015610cc7576000600160008e73ffffffffffffffffffffffffffffffffffffffff1673ffffffffffffffffffffffffffffffffffffffff1681526020019081526020016000208281548110151561098c57fe5b90600052602060002001549050610a6c8c60026000848152602001908152602001600020848154811015156109bd57fe5b90600052602060002090600702016002018054600181600116156101000203166002900480601f016020809104026020016040519081016040528092919081815260200182805460018160011615610100020316600290048015610a625780601f10610a3757610100808354040283529160200191610a62565b820191906000526020600020905b815481529060010190602001808311610a4557829003601f168201915b505050505061195f565b8015610b475750610b468b6002600084815260200190815260200160002084815481101515610a9757fe5b90600052602060002090600702016003018054600181600116156101000203166002900480601f016020809104026020016040519081016040528092919081815260200182805460018160011615610100020316600290048015610b3c5780601f10610b1157610100808354040283529160200191610b3c565b820191906000526020600020905b815481529060010190602001808311610b1f57829003601f168201915b505050505061195f565b5b9250600115158315151415610cb957809350600260008581526020019081526020016000206000815481101515610b7a57fe5b906000526020600020906007020160000154600260008681526020019081526020016000206000815481101515610bad57fe5b906000526020600020906007020160010160009054906101000a900473ffffffffffffffffffffffffffffffffffffffff16600260008781526020019081526020016000206000815481101515610c0057fe5b906000526020600020906007020160040160009054906101000a900473ffffffffffffffffffffffffffffffffffffffff16600260008881526020019081526020016000206000815481101515610c5357fe5b906000526020600020906007020160060160009054906101000a900460ff16600260008981526020019081526020016000206000815481101515610c9357fe5b906000526020600020906007020160050154995099509950995099505050505050610ccd565b5080806001019150506108f4565b505b5050505b939792965093509350565b600080600080600080600160008973ffffffffffffffffffffffffffffffffffffffff1673ffffffffffffffffffffffffffffffffffffffff16815260200190815260200160002080549050905060008090505b81811015610f2f576000600160008b73ffffffffffffffffffffffffffffffffffffffff1673ffffffffffffffffffffffffffffffffffffffff16815260200190815260200160002082815481101515610d8257fe5b906000526020600020015490506002600082815260200190815260200160002082815481101515610daf57fe5b906000526020600020906007020160050154891415610f21576002600082815260200190815260200160002082815481101515610de857fe5b9060005260206000209060070201600001546002600083815260200190815260200160002083815481101515610e1a57fe5b906000526020600020906007020160010160009054906101000a900473ffffffffffffffffffffffffffffffffffffffff166002600084815260200190815260200160002084815481101515610e6c57fe5b906000526020600020906007020160040160009054906101000a900473ffffffffffffffffffffffffffffffffffffffff166002600085815260200190815260200160002085815481101515610ebe57fe5b906000526020600020906007020160060160009054906101000a900460ff166002600086815260200190815260200160002086815481101515610efd57fe5b90600052602060002090600702016005015497509750975097509750505050610f32565b508080600101915050610d2c565b50505b9295509295909350565b600080600160008673ffffffffffffffffffffffffffffffffffffffff1673ffffffffffffffffffffffffffffffffffffffff1681526020019081526020016000208054905090506000811415156112045760008090505b81811015611202576000600160008873ffffffffffffffffffffffffffffffffffffffff1673ffffffffffffffffffffffffffffffffffffffff16815260200190815260200160002082815481101515610fea57fe5b9060005260206000200154905060006110cc87600260008581526020019081526020016000208581548110151561101d57fe5b90600052602060002090600702016002018054600181600116156101000203166002900480601f0160208091040260200160405190810160405280929190818152602001828054600181600116156101000203166002900480156110c25780601f10611097576101008083540402835291602001916110c2565b820191906000526020600020905b8154815290600101906020018083116110a557829003601f168201915b505050505061195f565b80156111a757506111a68660026000858152602001908152602001600020858154811015156110f757fe5b90600052602060002090600702016003018054600181600116156101000203166002900480601f01602080910402602001604051908101604052809291908181526020018280546001816001161561010002031660029004801561119c5780601f106111715761010080835404028352916020019161119c565b820191906000526020600020905b81548152906001019060200180831161117f57829003601f168201915b505050505061195f565b5b90506001151581151514156111f35760026000838152602001908152602001600020838154811015156111d657fe5b906000526020600020906007020160050154945050505050611206565b50508080600101915050610f94565b505b505b9392505050565b6000611217611c30565b6000429050600061122b8989898989611a97565b90508183600001818152505088836020019073ffffffffffffffffffffffffffffffffffffffff16908173ffffffffffffffffffffffffffffffffffffffff168152505087836040018190525086836060018190525085836080019073ffffffffffffffffffffffffffffffffffffffff16908173ffffffffffffffffffffffffffffffffffffffff1681525050848360c0019060028111156112ca57fe5b908160028111156112d757fe5b81525050808360a0018181525050600160008a73ffffffffffffffffffffffffffffffffffffffff1673ffffffffffffffffffffffffffffffffffffffff1681526020019081526020016000206000549080600181540180825580915050906001820390600052602060002001600090919290919091505550600260008054815260200190815260200160002083908060018154018082558091505090600182039060005260206000209060070201600090919290919091506000820151816000015560208201518160010160006101000a81548173ffffffffffffffffffffffffffffffffffffffff021916908373ffffffffffffffffffffffffffffffffffffffff16021790555060408201518160020190805190602001906113fd929190611ca8565b50606082015181600301908051906020019061141a929190611ca8565b5060808201518160040160006101000a81548173ffffffffffffffffffffffffffffffffffffffff021916908373ffffffffffffffffffffffffffffffffffffffff16021790555060a0820151816005015560c08201518160060160006101000a81548160ff0219169083600281111561149057fe5b0217905550505050600080815480929190600101919050555080935050505095945050505050565b6000806000905060008090505b600160008973ffffffffffffffffffffffffffffffffffffffff1673ffffffffffffffffffffffffffffffffffffffff16815260200190815260200160002080549050811015611951576000600160008a73ffffffffffffffffffffffffffffffffffffffff1673ffffffffffffffffffffffffffffffffffffffff1681526020019081526020016000208281548110151561155d57fe5b9060005260206000200154905061163d88600260008481526020019081526020016000208481548110151561158e57fe5b90600052602060002090600702016002018054600181600116156101000203166002900480601f0160208091040260200160405190810160405280929190818152602001828054600181600116156101000203166002900480156116335780601f1061160857610100808354040283529160200191611633565b820191906000526020600020905b81548152906001019060200180831161161657829003601f168201915b505050505061195f565b8015611718575061171787600260008481526020019081526020016000208481548110151561166857fe5b90600052602060002090600702016003018054600181600116156101000203166002900480601f01602080910402602001604051908101604052809291908181526020018280546001816001161561010002031660029004801561170d5780601f106116e25761010080835404028352916020019161170d565b820191906000526020600020905b8154815290600101906020018083116116f057829003601f168201915b505050505061195f565b5b92506001151583151514156119435761172f611c30565b600061173e8b8b8b8b8b611a97565b9050428260000181815250508a826020019073ffffffffffffffffffffffffffffffffffffffff16908173ffffffffffffffffffffffffffffffffffffffff168152505089826040018190525088826060018190525087826080019073ffffffffffffffffffffffffffffffffffffffff16908173ffffffffffffffffffffffffffffffffffffffff1681525050868260c0019060028111156117dd57fe5b908160028111156117ea57fe5b81525050808260a0018181525050600260008054815260200190815260200160002082908060018154018082558091505090600182039060005260206000209060070201600090919290919091506000820151816000015560208201518160010160006101000a81548173ffffffffffffffffffffffffffffffffffffffff021916908373ffffffffffffffffffffffffffffffffffffffff16021790555060408201518160020190805190602001906118a5929190611ca8565b5060608201518160030190805190602001906118c2929190611ca8565b5060808201518160040160006101000a81548173ffffffffffffffffffffffffffffffffffffffff021916908373ffffffffffffffffffffffffffffffffffffffff16021790555060a0820151816005015560c08201518160060160006101000a81548160ff0219169083600281111561193857fe5b021790555050505050505b5080806001019150506114c5565b508091505095945050505050565b6000815183511415156119755760009050611a91565b816040516020018080602001828103825283818151815260200191508051906020019080838360005b838110156119b957808201518184015260208101905061199e565b50505050905090810190601f1680156119e65780820380516001836020036101000a031916815260200191505b509250505060405160208183030381529060405280519060200120836040516020018080602001828103825283818151815260200191508051906020019080838360005b83811015611a45578082015181840152602081019050611a2a565b50505050905090810190601f168015611a725780820380516001836020036101000a031916815260200191505b5092505050604051602081830303815290604052805190602001201490505b92915050565b6000808686868686604051602001808673ffffffffffffffffffffffffffffffffffffffff1673ffffffffffffffffffffffffffffffffffffffff166c0100000000000000000000000002815260140185805190602001908083835b602083101515611b185780518252602082019150602081019050602083039250611af3565b6001836020036101000a03801982511681845116808217855250505050505090500184805190602001908083835b602083101515611b6b5780518252602082019150602081019050602083039250611b46565b6001836020036101000a0380198251168184511680821785525050505050509050018373ffffffffffffffffffffffffffffffffffffffff1673ffffffffffffffffffffffffffffffffffffffff166c01000000000000000000000000028152601401826002811115611bda57fe5b60ff167f0100000000000000000000000000000000000000000000000000000000000000028152600101955050505050506040516020818303038152906040528051906020012090508091505095945050505050565b60e06040519081016040528060008152602001600073ffffffffffffffffffffffffffffffffffffffff1681526020016060815260200160608152602001600073ffffffffffffffffffffffffffffffffffffffff1681526020016000801916815260200160006002811115611ca257fe5b81525090565b828054600181600116156101000203166002900490600052602060002090601f016020900481019282601f10611ce957805160ff1916838001178555611d17565b82800160010185558215611d17579182015b82811115611d16578251825591602001919060010190611cfb565b5b509050611d249190611d28565b5090565b611d4a91905b80821115611d46576000816000905550600101611d2e565b5090565b9056fea165627a7a7230582050d01f0cdf8ce51761fa40309c55f2c28661fa53c8001895fe575a91ab641c8a0029",
  "source": "pragma solidity >=0.4.21 <0.6.0;\n\ncontract ProofOfExistence {\n\nenum BlockchainIdentification {Ixxo,Ethereum,Gochain}\n\nuint256 intCounter ;\n\nstruct FileExistenceStruct {\nuint256 date;\naddress filesender;\nstring fileHash;\nstring filePathHash;\naddress contractAddress;\nbytes32 QRCodeHash;\nBlockchainIdentification identifier;\n}\n\nmapping(address => uint256[]) fileIndexCount;\nmapping(uint256 => FileExistenceStruct[]) fileExistenceProofs;\n\n\nconstructor() public {\n    intCounter = 0;\n}\n\n\n/**\n *@dev function to set the Proof of existence for a file \n */\n    function SetFileExistenceProof(address dappBoxOrigin, string memory _fileHash, string memory _filePathHash, address _contractAddress ,BlockchainIdentification _identifier) public returns (bytes32)\n    {\n        FileExistenceStruct memory newInfo;\n\n        uint256 _date = now;\n        bytes32 QRCodeHash = generateQRCodeForFile(dappBoxOrigin,_fileHash,_filePathHash,_contractAddress ,_identifier);\n        newInfo.date = _date;\n        newInfo.filesender = dappBoxOrigin;\n        newInfo.fileHash = _fileHash;\n        newInfo.filePathHash = _filePathHash;\n        newInfo.contractAddress = _contractAddress;\n        newInfo.identifier = _identifier;\n        newInfo.QRCodeHash = QRCodeHash;\n        fileIndexCount[dappBoxOrigin].push(intCounter);\n        fileExistenceProofs[intCounter].push(newInfo);\n        intCounter++;\n        return QRCodeHash;\n    }\n\n/**\n * @dev add any update in existence of any file update                                                    \n */\n    function addExistenceProofUpdate(address dappBoxOrigin, string memory _fileHash, string memory _filePathHash, address _contractAddress ,BlockchainIdentification _identifier) public returns (bool) \n    {\n        bool res = false ;\n        for(uint i = 0 ; i <  fileIndexCount[dappBoxOrigin].length ; i++)\n        {\n            uint256 pass =  fileIndexCount[dappBoxOrigin][i];\n             res = compareStrings(_fileHash,fileExistenceProofs[pass][i].fileHash) &&\n            compareStrings(_filePathHash,fileExistenceProofs[pass][i].filePathHash);\n            if(res == true)\n            {\n                 FileExistenceStruct memory newInfo;\n            bytes32 QRCodeHash = generateQRCodeForFile(dappBoxOrigin,_fileHash,_filePathHash,_contractAddress ,_identifier);\n            newInfo.date = now;\n            newInfo.filesender = dappBoxOrigin;\n            newInfo.fileHash = _fileHash;\n            newInfo.filePathHash = _filePathHash;\n            newInfo.contractAddress = _contractAddress;\n            newInfo.identifier = _identifier;\n            newInfo.QRCodeHash = QRCodeHash;\n\n            fileExistenceProofs[intCounter].push(newInfo);\n\n            }\n        }\n        return res;\n    }\n\n\n/**\n *@dev function to get the Proof of existence for a file \n */\n    function GetFileExistenceProof(address dappBoxOrigin,string memory fileHash, string memory filePathHash) public view returns(uint256,address,address,BlockchainIdentification,bytes32) {\n    \n    uint256 check = fileIndexCount[dappBoxOrigin].length;\n    uint256 currentCount;\n    bool res = false;\n    if (check != 0){\n         for(uint i = 0 ; i < fileIndexCount[dappBoxOrigin].length ; i++)\n        {\n            uint256 pass =  fileIndexCount[dappBoxOrigin][i];\n             res = compareStrings(fileHash,fileExistenceProofs[pass][i].fileHash) &&\n          compareStrings(filePathHash,fileExistenceProofs[pass][i].filePathHash);\n            if(res == true )\n            {\n                currentCount = pass;\n                return( fileExistenceProofs[currentCount][0].date,\n                fileExistenceProofs[currentCount][0].filesender,\n                fileExistenceProofs[currentCount][0].contractAddress,\n                fileExistenceProofs[currentCount][0].identifier,\n                fileExistenceProofs[currentCount][0].QRCodeHash);\n            }\n            \n        }\n    }\n}\n\n/**\n *@dev function to compare strings \n */\n    function compareStrings(string memory a, string memory b) internal pure returns (bool)\n    {\n    if(bytes(a).length != bytes(b).length) {\n        return false;\n    } else {\n      return keccak256(abi.encode(a)) == keccak256(abi.encode(b));\n    }\n    }\n\n/**\n *@dev function to generate QR code string \n */\n    function generateQRCodeForFile(address dappBoxOrigin, string memory _fileHash, string memory filePath, address _contractAddress ,BlockchainIdentification _identifier ) internal pure returns (bytes32)\n    {\n        bytes32 QRCodeHash;\n        QRCodeHash = keccak256(abi.encodePacked(dappBoxOrigin, _fileHash,filePath,_contractAddress,_identifier));        \n        return QRCodeHash;\n    }\n\n\n/**\n *@dev function to retreive QR code in string format \n */\n\n    function getQRCode(address dappBoxOrigin, string memory fileHash, string memory filePathHash ) public view returns(bytes32) {\n        uint256 len = fileIndexCount[dappBoxOrigin].length;\n        if (len != 0)\n        {\n        for(uint i = 0 ; i < len ; i++)\n        {\n         uint256 pass =  fileIndexCount[dappBoxOrigin][i];\n          bool res = compareStrings(fileHash,fileExistenceProofs[pass][i].fileHash) &&\n          compareStrings(filePathHash,fileExistenceProofs[pass][i].filePathHash);\n            if(res == true )\n            {\n                return fileExistenceProofs[pass][i].QRCodeHash;\n            }\n\n    }\n        }\n    }\n\n\n/**\n *@dev function to get proof of existence using QR code\n */\n    function searchExistenceProoUsngQR(address dappBoxOrigin,bytes32 QRCodeHash) public view returns(uint256,address,address,BlockchainIdentification,bytes32) {\n         uint256 len = fileIndexCount[dappBoxOrigin].length;\n        for(uint i = 0 ; i < len ; i++)\n        {\n            uint256 pass =  fileIndexCount[dappBoxOrigin][i];\n            if(QRCodeHash == fileExistenceProofs[pass][i].QRCodeHash)\n            {\n             return( fileExistenceProofs[pass][i].date,\n                fileExistenceProofs[pass][i].filesender,\n                fileExistenceProofs[pass][i].contractAddress,\n                fileExistenceProofs[pass][i].identifier,\n                fileExistenceProofs[pass][i].QRCodeHash);\n        }\n        }\n    }\n\n\n}",
  "sourcePath": "/home/sagar/go/src/github.com/AlphaDinoRC/ixxo_smartcontracts/ProofOfExistence/contracts/ProofOfExistence.sol",
  "compiler": {
    "name": "solc",
    "version": "0.5.0+commit.1d4f565a.Emscripten.clang"
  },
  "schemaVersion": "3.0.6",
  "updatedAt": "2019-11-04T07:44:07.803Z",
  "devdoc": {
    "methods": {
      "addExistenceProofUpdate(address,string,string,address,uint8)": {
        "details": "add any update in existence of any file update                                                    "
      }
    }
  },
  "userdoc": {
    "methods": {
      "GetFileExistenceProof(address,string,string)": {
        "notice": "dev function to get the Proof of existence for a file "
      },
      "SetFileExistenceProof(address,string,string,address,uint8)": {
        "notice": "dev function to set the Proof of existence for a file "
      },
      "getQRCode(address,string,string)": {
        "notice": "dev function to retreive QR code in string format "
      },
      "searchExistenceProoUsngQR(address,bytes32)": {
        "notice": "dev function to get proof of existence using QR code"
      }
    }
  }
}