{
  "contractName": "OwnershipManagement",
  "abi": [
    {
      "constant": true,
      "inputs": [
        {
          "name": "",
          "type": "bytes32"
        }
      ],
      "name": "usedFileHashes",
      "outputs": [
        {
          "name": "",
          "type": "bool"
        }
      ],
      "payable": false,
      "stateMutability": "view",
      "type": "function",
      "signature": "0x9b1e9253"
    },
    {
      "constant": true,
      "inputs": [
        {
          "name": "",
          "type": "address"
        }
      ],
      "name": "usedFoldersAddress",
      "outputs": [
        {
          "name": "",
          "type": "bool"
        }
      ],
      "payable": false,
      "stateMutability": "view",
      "type": "function",
      "signature": "0xe9685859"
    },
    {
      "anonymous": false,
      "inputs": [
        {
          "indexed": false,
          "name": "blockNumber",
          "type": "uint256"
        },
        {
          "indexed": false,
          "name": "blockTimeStamp",
          "type": "uint256"
        },
        {
          "indexed": false,
          "name": "_hash",
          "type": "bytes32"
        },
        {
          "indexed": false,
          "name": "from",
          "type": "address"
        },
        {
          "indexed": false,
          "name": "to",
          "type": "address"
        },
        {
          "indexed": false,
          "name": "_OwnershipOfFrom",
          "type": "uint8"
        },
        {
          "indexed": false,
          "name": "_OwnershipOfTo",
          "type": "uint8"
        }
      ],
      "name": "DocumentOwnershipEvent",
      "type": "event",
      "signature": "0x6c028d60de8705009717db25bddebccd490f6c0571babb91fa3a931fea804e47"
    },
    {
      "anonymous": false,
      "inputs": [
        {
          "indexed": false,
          "name": "blockNumber",
          "type": "uint256"
        },
        {
          "indexed": false,
          "name": "blockTimeStamp",
          "type": "uint256"
        },
        {
          "indexed": false,
          "name": "dappboxfolder",
          "type": "address"
        },
        {
          "indexed": false,
          "name": "from",
          "type": "address"
        },
        {
          "indexed": false,
          "name": "to",
          "type": "address"
        },
        {
          "indexed": false,
          "name": "_OwnershipOfFrom",
          "type": "uint8"
        },
        {
          "indexed": false,
          "name": "_OwnershipOfTo",
          "type": "uint8"
        }
      ],
      "name": "FolderOwnerShipEvent",
      "type": "event",
      "signature": "0x8aa29585ac8bb4f41c320fb09880d27e817a199b9214c00ba34b25b8d6afa561"
    }
  ],
  "bytecode": "0x608060405234801561001057600080fd5b50610161806100206000396000f30060806040526004361061004c576000357c0100000000000000000000000000000000000000000000000000000000900463ffffffff1680639b1e925314610051578063e96858591461009a575b600080fd5b34801561005d57600080fd5b5061008060048036038101908080356000191690602001909291905050506100f5565b604051808215151515815260200191505060405180910390f35b3480156100a657600080fd5b506100db600480360381019080803573ffffffffffffffffffffffffffffffffffffffff169060200190929190505050610115565b604051808215151515815260200191505060405180910390f35b60046020528060005260406000206000915054906101000a900460ff1681565b60056020528060005260406000206000915054906101000a900460ff16815600a165627a7a723058206676cb91df70b977e00415564f410b0f4cf916034e46d260b90167b74a402a980029",
  "source": "pragma solidity >=0.4.21 <0.6.0;\n\ncontract OwnershipManagement\n{\n\n  uint256 documentOwnershipCount;\n  uint256 folderOwnershipCount;\n  enum OwnershipType {owner, tenant, none} \n \n\nstruct DocumentOwnership { \n   uint256 blockNumber; \n   uint256 timestamp; \n   bytes32 hash; \n   address from; \n   address to; \n   OwnershipType ownershipFrom; \n   OwnershipType ownershipTo; \n } \n  struct FolderOwnership { \n   uint256 blockNumber; \n   uint256 timestamp; \n   address dappboxfolder; \n   address from; \n   address to; \n   OwnershipType ownershipFrom; \n   OwnershipType ownershipTo; \n }\n\n  DocumentOwnership[] docOwnHistory;\n  FolderOwnership[] foldOwnHistory;\n\n  mapping(bytes32 => bool) public usedFileHashes;\n  mapping(address => bool) public usedFoldersAddress;\n\n  event DocumentOwnershipEvent(uint blockNumber, uint blockTimeStamp, bytes32 _hash, address from, address to,OwnershipType _OwnershipOfFrom, OwnershipType _OwnershipOfTo);\n  event FolderOwnerShipEvent(uint blockNumber, uint blockTimeStamp, address dappboxfolder, address from, address to,OwnershipType _OwnershipOfFrom, OwnershipType _OwnershipOfTo);\n/**\n  * @dev use to add history of transfers and emit transfer event\n  * @param _hash hash of the document\n  * @param _from address from whom the transfer is originated\n  * @param _to addess to whom transfer is done\n  * @param _OwnershipOfFrom enum OwnershipType of delegator\n  * @param _OwnershipOfTo enum OwnershipType of delegated\n  */\n  function transferDocumentOwnership(bytes32 _hash, address _from, address _to, OwnershipType _OwnershipOfFrom, OwnershipType _OwnershipOfTo) internal{\n    docOwnHistory.push(DocumentOwnership(block.number, block.timestamp, _hash, _from, _to,_OwnershipOfFrom, _OwnershipOfTo));\n    emit DocumentOwnershipEvent(block.number, block.timestamp,  _hash, _from, _to,_OwnershipOfFrom, _OwnershipOfTo);\n  }\n\n  function transferFolderOwnership(address dappboxfolder, address _from, address _to,  OwnershipType _OwnershipOfFrom, OwnershipType _OwnershipOfTo) internal{\n    foldOwnHistory.push(FolderOwnership(block.number, block.timestamp, dappboxfolder, _from, _to, _OwnershipOfFrom, _OwnershipOfTo));\n    emit FolderOwnerShipEvent(block.number, block.timestamp,  dappboxfolder, _from, _to,  _OwnershipOfFrom, _OwnershipOfTo);\n  }\n  \n  /**\n  * @dev use to check if the documents exists or not\n  * @param _hash hash of the document\n  */\n  function documentOwnershipExists(bytes32 _hash) view internal returns (bool exists){\n    if (usedFileHashes[_hash]) {\n      exists = true;\n    }else{\n      exists= false;\n    }\n    return exists;\n  }\n  \n  function folderOwnershipExists(address dappboxfolder) view internal returns (bool exists){\n    if (usedFoldersAddress[dappboxfolder]) {\n      exists = true;\n    }else{\n      exists= false;\n    }\n    return exists;\n  }\n\n  /**\n  * @dev returns the total number of documents/hashes\n  */\n  function getCountLatest() view internal returns (uint256 latest){\n      return documentOwnershipCount;\n      return folderOwnershipCount;\n      \n  }\n}\n",
  "sourcePath": "/home/sagar/Desktop/final merge/ixxo_smartcontracts/Ownership/contracts/OwnershipManagement.sol",
  "compiler": {
    "name": "solc",
    "version": "0.4.25+commit.59dbf8f1.Emscripten.clang"
  },
  "schemaVersion": "3.0.1",
  "updatedAt": "2019-03-27T07:48:55.130Z",
  "devdoc": {
    "methods": {}
  },
  "userdoc": {
    "methods": {}
  }
}