{
  "contractName": "VerifiedOwnershipManagement",
  "abi": [
    {
      "constant": true,
      "inputs": [
        {
          "name": "",
          "type": "bytes32"
        }
      ],
      "name": "usedFileHashes",
      "outputs": [
        {
          "name": "",
          "type": "bool"
        }
      ],
      "payable": false,
      "stateMutability": "view",
      "type": "function"
    },
    {
      "constant": true,
      "inputs": [
        {
          "name": "",
          "type": "address"
        }
      ],
      "name": "usedFoldersAddress",
      "outputs": [
        {
          "name": "",
          "type": "bool"
        }
      ],
      "payable": false,
      "stateMutability": "view",
      "type": "function"
    },
    {
      "inputs": [],
      "payable": false,
      "stateMutability": "nonpayable",
      "type": "constructor"
    },
    {
      "anonymous": false,
      "inputs": [
        {
          "indexed": false,
          "name": "blockNumber",
          "type": "uint256"
        },
        {
          "indexed": false,
          "name": "blockTimeStamp",
          "type": "uint256"
        },
        {
          "indexed": false,
          "name": "_hash",
          "type": "bytes32"
        },
        {
          "indexed": false,
          "name": "from",
          "type": "address"
        },
        {
          "indexed": false,
          "name": "to",
          "type": "address"
        },
        {
          "indexed": false,
          "name": "_OwnershipOfFrom",
          "type": "uint8"
        },
        {
          "indexed": false,
          "name": "_OwnershipOfTo",
          "type": "uint8"
        }
      ],
      "name": "DocumentOwnershipEvent",
      "type": "event"
    },
    {
      "anonymous": false,
      "inputs": [
        {
          "indexed": false,
          "name": "blockNumber",
          "type": "uint256"
        },
        {
          "indexed": false,
          "name": "blockTimeStamp",
          "type": "uint256"
        },
        {
          "indexed": false,
          "name": "dappboxfolder",
          "type": "address"
        },
        {
          "indexed": false,
          "name": "from",
          "type": "address"
        },
        {
          "indexed": false,
          "name": "to",
          "type": "address"
        },
        {
          "indexed": false,
          "name": "_OwnershipOfFrom",
          "type": "uint8"
        },
        {
          "indexed": false,
          "name": "_OwnershipOfTo",
          "type": "uint8"
        }
      ],
      "name": "FolderOwnerShipEvent",
      "type": "event"
    },
    {
      "constant": false,
      "inputs": [
        {
          "name": "_hash",
          "type": "bytes32"
        },
        {
          "name": "_from",
          "type": "address"
        },
        {
          "name": "_to",
          "type": "address"
        },
        {
          "name": "_OwnershipOfFrom",
          "type": "uint8"
        },
        {
          "name": "_OwnershipOfTo",
          "type": "uint8"
        }
      ],
      "name": "transferDocumentOwnership",
      "outputs": [],
      "payable": false,
      "stateMutability": "nonpayable",
      "type": "function"
    },
    {
      "constant": false,
      "inputs": [
        {
          "name": "dappboxfolder",
          "type": "address"
        },
        {
          "name": "_from",
          "type": "address"
        },
        {
          "name": "_to",
          "type": "address"
        },
        {
          "name": "_OwnershipOfFrom",
          "type": "uint8"
        },
        {
          "name": "_OwnershipOfTo",
          "type": "uint8"
        }
      ],
      "name": "transferFolderOwnership",
      "outputs": [],
      "payable": false,
      "stateMutability": "nonpayable",
      "type": "function"
    },
    {
      "constant": true,
      "inputs": [
        {
          "name": "_hash",
          "type": "bytes32"
        }
      ],
      "name": "documentOwnershipExists",
      "outputs": [
        {
          "name": "exists",
          "type": "bool"
        }
      ],
      "payable": false,
      "stateMutability": "view",
      "type": "function"
    },
    {
      "constant": true,
      "inputs": [
        {
          "name": "dappboxfolder",
          "type": "address"
        }
      ],
      "name": "folderOwnershipExists",
      "outputs": [
        {
          "name": "exists",
          "type": "bool"
        }
      ],
      "payable": false,
      "stateMutability": "view",
      "type": "function"
    },
    {
      "constant": true,
      "inputs": [],
      "name": "getCountLatest",
      "outputs": [
        {
          "name": "latest",
          "type": "uint256"
        }
      ],
      "payable": false,
      "stateMutability": "view",
      "type": "function"
    }
  ],
  "bytecode": "0x608060405234801561001057600080fd5b5033600260006101000a81548173ffffffffffffffffffffffffffffffffffffffff021916908373ffffffffffffffffffffffffffffffffffffffff160217905550610a9d806100616000396000f300608060405260043610610083576000357c0100000000000000000000000000000000000000000000000000000000900463ffffffff16806323ee5c571461008857806331db613e146100b35780639aaf68871461013e5780639b1e925314610187578063a5f12887146101d0578063b8e2f2651461026d578063e9685859146102c8575b600080fd5b34801561009457600080fd5b5061009d610323565b6040518082815260200191505060405180910390f35b3480156100bf57600080fd5b5061013c6004803603810190808035600019169060200190929190803573ffffffffffffffffffffffffffffffffffffffff169060200190929190803573ffffffffffffffffffffffffffffffffffffffff169060200190929190803560ff169060200190929190803560ff16906020019092919050505061032c565b005b34801561014a57600080fd5b5061016d6004803603810190808035600019169060200190929190505050610620565b604051808215151515815260200191505060405180910390f35b34801561019357600080fd5b506101b66004803603810190808035600019169060200190929190505050610666565b604051808215151515815260200191505060405180910390f35b3480156101dc57600080fd5b5061026b600480360381019080803573ffffffffffffffffffffffffffffffffffffffff169060200190929190803573ffffffffffffffffffffffffffffffffffffffff169060200190929190803573ffffffffffffffffffffffffffffffffffffffff169060200190929190803560ff169060200190929190803560ff169060200190929190505050610686565b005b34801561027957600080fd5b506102ae600480360381019080803573ffffffffffffffffffffffffffffffffffffffff1690602001909291905050506109e7565b604051808215151515815260200191505060405180910390f35b3480156102d457600080fd5b50610309600480360381019080803573ffffffffffffffffffffffffffffffffffffffff169060200190929190505050610a51565b604051808215151515815260200191505060405180910390f35b60008054905090565b3373ffffffffffffffffffffffffffffffffffffffff16600260009054906101000a900473ffffffffffffffffffffffffffffffffffffffff1673ffffffffffffffffffffffffffffffffffffffff1614151561038857600080fd5b600360e060405190810160405280438152602001428152602001876000191681526020018673ffffffffffffffffffffffffffffffffffffffff1681526020018573ffffffffffffffffffffffffffffffffffffffff1681526020018460028111156103f057fe5b815260200183600281111561040157fe5b8152509080600181540180825580915050906001820390600052602060002090600502016000909192909190915060008201518160000155602082015181600101556040820151816002019060001916905560608201518160030160006101000a81548173ffffffffffffffffffffffffffffffffffffffff021916908373ffffffffffffffffffffffffffffffffffffffff16021790555060808201518160040160006101000a81548173ffffffffffffffffffffffffffffffffffffffff021916908373ffffffffffffffffffffffffffffffffffffffff16021790555060a08201518160040160146101000a81548160ff0219169083600281111561050557fe5b021790555060c08201518160040160156101000a81548160ff0219169083600281111561052e57fe5b02179055505050507f6c028d60de8705009717db25bddebccd490f6c0571babb91fa3a931fea804e47434287878787876040518088815260200187815260200186600019166000191681526020018573ffffffffffffffffffffffffffffffffffffffff1673ffffffffffffffffffffffffffffffffffffffff1681526020018473ffffffffffffffffffffffffffffffffffffffff1673ffffffffffffffffffffffffffffffffffffffff1681526020018360028111156105ec57fe5b60ff16815260200182600281111561060057fe5b60ff16815260200197505050505050505060405180910390a15050505050565b600060056000836000191660001916815260200190815260200160002060009054906101000a900460ff1615610659576001905061065e565b600090505b809050919050565b60056020528060005260406000206000915054906101000a900460ff1681565b3373ffffffffffffffffffffffffffffffffffffffff16600260009054906101000a900473ffffffffffffffffffffffffffffffffffffffff1673ffffffffffffffffffffffffffffffffffffffff161415156106e257600080fd5b600460e0604051908101604052804381526020014281526020018773ffffffffffffffffffffffffffffffffffffffff1681526020018673ffffffffffffffffffffffffffffffffffffffff1681526020018573ffffffffffffffffffffffffffffffffffffffff16815260200184600281111561075c57fe5b815260200183600281111561076d57fe5b81525090806001815401808255809150509060018203906000526020600020906005020160009091929091909150600082015181600001556020820151816001015560408201518160020160006101000a81548173ffffffffffffffffffffffffffffffffffffffff021916908373ffffffffffffffffffffffffffffffffffffffff16021790555060608201518160030160006101000a81548173ffffffffffffffffffffffffffffffffffffffff021916908373ffffffffffffffffffffffffffffffffffffffff16021790555060808201518160040160006101000a81548173ffffffffffffffffffffffffffffffffffffffff021916908373ffffffffffffffffffffffffffffffffffffffff16021790555060a08201518160040160146101000a81548160ff021916908360028111156108a857fe5b021790555060c08201518160040160156101000a81548160ff021916908360028111156108d157fe5b02179055505050507f8aa29585ac8bb4f41c320fb09880d27e817a199b9214c00ba34b25b8d6afa56143428787878787604051808881526020018781526020018673ffffffffffffffffffffffffffffffffffffffff1673ffffffffffffffffffffffffffffffffffffffff1681526020018573ffffffffffffffffffffffffffffffffffffffff1673ffffffffffffffffffffffffffffffffffffffff1681526020018473ffffffffffffffffffffffffffffffffffffffff1673ffffffffffffffffffffffffffffffffffffffff1681526020018360028111156109b357fe5b60ff1681526020018260028111156109c757fe5b60ff16815260200197505050505050505060405180910390a15050505050565b6000600660008373ffffffffffffffffffffffffffffffffffffffff1673ffffffffffffffffffffffffffffffffffffffff16815260200190815260200160002060009054906101000a900460ff1615610a445760019050610a49565b600090505b809050919050565b60066020528060005260406000206000915054906101000a900460ff16815600a165627a7a72305820af6b137a9d19faf1e204daaf5e34bc2102d5cc208f583938781d288f6b3ff5390029",
  "source": "pragma solidity >=0.4.21 <0.6.0;\n\ncontract VerifiedOwnershipManagement\n{\n\n  uint256 documentOwnershipCount;\n  uint256 folderOwnershipCount;\n  enum OwnershipType {owner, tenant, none} \n  address contractOwner;\n  modifier onlyOwner ()\n  {\n    require(contractOwner == msg.sender );\n    _;\n  }\n\n  constructor () public\n  {\n    contractOwner = msg.sender;\n  }\n\nstruct DocumentOwnership { \n   uint256 blockNumber; \n   uint256 timestamp; \n   bytes32 hash; \n   address from; \n   address to; \n   OwnershipType ownershipFrom; \n   OwnershipType ownershipTo; \n } \n  struct FolderOwnership { \n   uint256 blockNumber; \n   uint256 timestamp; \n   address dappboxfolder; \n   address from; \n   address to; \n   OwnershipType ownershipFrom; \n   OwnershipType ownershipTo; \n }\n\n  DocumentOwnership[] docOwnHistory;\n  FolderOwnership[] foldOwnHistory;\n\n  mapping(bytes32 => bool) public usedFileHashes;\n  mapping(address => bool) public usedFoldersAddress;\n\n  event DocumentOwnershipEvent(uint blockNumber, uint blockTimeStamp, bytes32 _hash, address from, address to,OwnershipType _OwnershipOfFrom, OwnershipType _OwnershipOfTo);\n  event FolderOwnerShipEvent(uint blockNumber, uint blockTimeStamp, address dappboxfolder, address from, address to,OwnershipType _OwnershipOfFrom, OwnershipType _OwnershipOfTo);\n/**\n  * @dev use to add history of transfers and emit transfer event\n  * @param _hash hash of the document\n  * @param _from address from whom the transfer is originated\n  * @param _to addess to whom transfer is done\n  * @param _OwnershipOfFrom enum OwnershipType of delegator\n  * @param _OwnershipOfTo enum OwnershipType of delegated\n  */\n  function transferDocumentOwnership(bytes32 _hash, address _from, address _to, OwnershipType _OwnershipOfFrom, OwnershipType _OwnershipOfTo) public onlyOwner{\n    docOwnHistory.push(DocumentOwnership(block.number, block.timestamp, _hash, _from, _to,_OwnershipOfFrom, _OwnershipOfTo));\n    emit DocumentOwnershipEvent(block.number, block.timestamp,  _hash, _from, _to,_OwnershipOfFrom, _OwnershipOfTo);\n  }\n\n  function transferFolderOwnership(address dappboxfolder, address _from, address _to,  OwnershipType _OwnershipOfFrom, OwnershipType _OwnershipOfTo) public onlyOwner{\n    foldOwnHistory.push(FolderOwnership(block.number, block.timestamp, dappboxfolder, _from, _to, _OwnershipOfFrom, _OwnershipOfTo));\n    emit FolderOwnerShipEvent(block.number, block.timestamp,  dappboxfolder, _from, _to,  _OwnershipOfFrom, _OwnershipOfTo);\n  }\n  \n  /**\n  * @dev use to check if the documents exists or not\n  * @param _hash hash of the document\n  */\n  function documentOwnershipExists(bytes32 _hash) view public returns (bool exists){\n    if (usedFileHashes[_hash]) {\n      exists = true;\n    }else{\n      exists= false;\n    }\n    return exists;\n  }\n  \n  function folderOwnershipExists(address dappboxfolder) view public returns (bool exists){\n    if (usedFoldersAddress[dappboxfolder]) {\n      exists = true;\n    }else{\n      exists= false;\n    }\n    return exists;\n  }\n\n  /**\n  * @dev returns the total number of documents/hashes\n  */\n  function getCountLatest() view public returns (uint256 latest){\n      return documentOwnershipCount;\n      return folderOwnershipCount;\n      \n  }\n}\n",
  "sourcePath": "/home/sagar/Desktop/final merge/ixxo_smartcontracts/Ownership/contracts/VerifiedOwnershipManagement.sol",
  "compiler": {
    "name": "solc",
    "version": "0.4.25+commit.59dbf8f1.Emscripten.clang"
  },
  "schemaVersion": "3.0.1",
  "updatedAt": "2019-03-27T07:48:54.803Z",
  "devdoc": {
    "methods": {
      "documentOwnershipExists(bytes32)": {
        "details": "use to check if the documents exists or not",
        "params": {
          "_hash": "hash of the document"
        }
      },
      "getCountLatest()": {
        "details": "returns the total number of documents/hashes"
      },
      "transferDocumentOwnership(bytes32,address,address,uint8,uint8)": {
        "details": "use to add history of transfers and emit transfer event",
        "params": {
          "_OwnershipOfFrom": "enum OwnershipType of delegator",
          "_OwnershipOfTo": "enum OwnershipType of delegated",
          "_from": "address from whom the transfer is originated",
          "_hash": "hash of the document",
          "_to": "addess to whom transfer is done"
        }
      }
    }
  },
  "userdoc": {
    "methods": {}
  }
}