{
  "contractName": "relationManager",
  "abi": [
    {
      "constant": true,
      "inputs": [
        {
          "name": "_name",
          "type": "bytes32"
        },
        {
          "name": "_parent",
          "type": "bytes32"
        }
      ],
      "name": "get",
      "outputs": [
        {
          "name": "",
          "type": "bytes32"
        },
        {
          "name": "",
          "type": "bytes32"
        },
        {
          "name": "",
          "type": "bytes32"
        },
        {
          "name": "",
          "type": "bytes32[]"
        }
      ],
      "payable": false,
      "stateMutability": "view",
      "type": "function"
    },
    {
      "constant": false,
      "inputs": [
        {
          "name": "_name",
          "type": "bytes32"
        },
        {
          "name": "_parent",
          "type": "bytes32"
        },
        {
          "name": "_data",
          "type": "bytes32"
        }
      ],
      "name": "add",
      "outputs": [],
      "payable": false,
      "stateMutability": "nonpayable",
      "type": "function"
    },
    {
      "constant": false,
      "inputs": [
        {
          "name": "_name",
          "type": "bytes32"
        },
        {
          "name": "_parent",
          "type": "bytes32"
        },
        {
          "name": "_data",
          "type": "bytes32"
        }
      ],
      "name": "update",
      "outputs": [],
      "payable": false,
      "stateMutability": "nonpayable",
      "type": "function"
    },
    {
      "constant": false,
      "inputs": [
        {
          "name": "_name",
          "type": "bytes32"
        },
        {
          "name": "_parent",
          "type": "bytes32"
        }
      ],
      "name": "remove",
      "outputs": [],
      "payable": false,
      "stateMutability": "nonpayable",
      "type": "function"
    }
  ],
  "bytecode": "0x608060405234801561001057600080fd5b50610722806100206000396000f3fe608060405260043610610062576000357c0100000000000000000000000000000000000000000000000000000000900463ffffffff16806342de838d14610067578063658cc1f6146100b65780639c0d252514610165578063b10e4172146101b4575b600080fd5b34801561007357600080fd5b506100b46004803603606081101561008a57600080fd5b810190808035906020019092919080359060200190929190803590602001909291905050506101f9565b005b3480156100c257600080fd5b506100f9600480360360408110156100d957600080fd5b810190808035906020019092919080359060200190929190505050610326565b6040518085815260200184815260200183815260200180602001828103825283818151815260200191508051906020019060200280838360005b8381101561014e578082015181840152602081019050610133565b505050509050019550505050505060405180910390f35b34801561017157600080fd5b506101b26004803603606081101561018857600080fd5b810190808035906020019092919080359060200190929190803590602001909291905050506103e8565b005b3480156101c057600080fd5b506101f7600480360360408110156101d757600080fd5b810190808035906020019092919080359060200190929190505050610441565b005b6000602060ff1611151561020c57600080fd5b600082846040516020018083815260200182815260200192505050604051602081830303815290604052805190602001209050608060405190810160405280858152602001848152602001838152602001600060405190808252806020026020018201604052801561028d5781602001602082028038833980820191505090505b5081525060008083815260200190815260200160002060008201518160000155602082015181600101556040820151816002015560608201518160030190805190602001906102dd929190610637565b5090505060008084815260200190815260200160002060030181908060018154018082558091505090600182039060005260206000200160009091929091909150555050505050565b60008060006060600080600087896040516020018083815260200182815260200192505050604051602081830303815290604052805190602001208152602001908152602001600020905080600001548160010154826002015483600301808054806020026020016040519081016040528092919081815260200182805480156103cf57602002820191906000526020600020905b8154815260200190600101908083116103bb575b5050505050905094509450945094505092959194509250565b600082846040516020018083815260200182815260200192505050604051602081830303815290604052805190602001209050600080600083815260200190815260200160002090508281600201819055505050505050565b60008183604051602001808381526020018281526020019250505060405160208183030381529060405280519060200120905060008060008381526020019081526020016000206003018054905014151561049b57600080fd5b600080828152602001908152602001600020600080820160009055600182016000905560028201600090556003820160006104d69190610684565b505060008060008481526020019081526020016000206003019050600061054c8280548060200260200160405190810160405280929190818152602001828054801561054157602002820191906000526020600020905b81548152602001906001019080831161052d575b5050505050846105e2565b90505b60018280549050038110156105a357816001820181548110151561056f57fe5b9060005260206000200154828281548110151561058857fe5b9060005260206000200181905550808060010191505061054f565b508060018280549050038154811015156105b957fe5b9060005260206000200160009055808054809190600190036105db91906106a5565b5050505050565b600080600090505b835181101561062857838181518110151561060157fe5b9060200190602002015183141561061b5780915050610631565b80806001019150506105ea565b50600183510390505b92915050565b828054828255906000526020600020908101928215610673579160200282015b82811115610672578251825591602001919060010190610657565b5b50905061068091906106d1565b5090565b50805460008255906000526020600020908101906106a291906106d1565b50565b8154818355818111156106cc578183600052602060002091820191016106cb91906106d1565b5b505050565b6106f391905b808211156106ef5760008160009055506001016106d7565b5090565b9056fea165627a7a72305820f9fb147964f6cfb33e3a3c3fbdcd74a6848f977cccb7348a338cbb0ef32c04900029",
  "source": "pragma solidity  ^0.5.0;\n\ncontract relationManager {\n\n    struct Node {\n bytes32 name;     // name of node\n bytes32 parent;   // parent node’s path\n bytes32 data;     // node’s data\n bytes32[] nodes;  // list of linked nodes’ paths\n}\n\nmapping(bytes32 => Node) nodes;\nfunction get(bytes32 _name, bytes32 _parent) public view returns (bytes32, bytes32, bytes32, bytes32[] memory ) {\n    Node storage node = nodes[keccak256(abi.encodePacked(_parent, _name))];\n    return (node.name, node.parent, node.data, node.nodes);\n}\n    \nfunction add(bytes32 _name, bytes32 _parent, bytes32 _data) public {\n    require(_name.length > 0);\n    bytes32 path = keccak256(abi.encodePacked(_parent, _name));\n    nodes[path] = Node({\n        name: _name, \n        parent: _parent, \n        data: _data, \n        nodes: new bytes32[](0)\n    });\n    nodes[_parent].nodes.push(path);\n}\nfunction update(bytes32 _name, bytes32 _parent, bytes32 _data) public {\n    bytes32 path = keccak256(abi.encodePacked(_parent, _name));\n    Node storage node = nodes[path];\n    node.data = _data;\n}\nfunction remove(bytes32 _name, bytes32 _parent) public {\n    bytes32 path = keccak256(abi.encodePacked(_parent, _name));\n    // allow to remove leaves (node without linked nodes)\n    require(nodes[path].nodes.length == 0);\n    // removes from nodes\n    delete nodes[path];\n    \n    // removes from parent list of nodes\n    bytes32[] storage childs = nodes[_parent].nodes;\n    for (uint256 i = getIndex(childs, path); i < childs.length - 1; i++) {\n        childs[i] = childs[i + 1];\n    }\n    delete childs[childs.length - 1];\n    childs.length--;\n}\nfunction getIndex(bytes32[] memory childs, bytes32 _path) pure internal returns (uint256) {\n    for (uint256 i = 0; i < childs.length; i++) {\n        if (_path == childs[i]) {\n            return i;\n        }\n    }\n    return childs.length - 1;\n}\n}",
  "sourcePath": "/home/sagar/go/src/github.com/AlphaDinoRC/ixxo_smartcontracts/RelationManager/contracts/relationManager.sol",
  "compiler": {
    "name": "solc",
    "version": "0.5.0+commit.1d4f565a.Emscripten.clang"
  },
  "schemaVersion": "3.0.6",
  "updatedAt": "2019-11-04T15:21:34.126Z",
  "devdoc": {
    "methods": {}
  },
  "userdoc": {
    "methods": {}
  }
}