{
  "contractName": "dappboxManager",
  "abi": [
    {
      "constant": false,
      "inputs": [
        {
          "name": "dAppBoxOrigin",
          "type": "address"
        },
        {
          "name": "_address",
          "type": "address"
        },
        {
          "name": "_userName",
          "type": "string"
        },
        {
          "name": "_defaultURL",
          "type": "string"
        },
        {
          "name": "_shortenURL",
          "type": "string"
        }
      ],
      "name": "addUsers",
      "outputs": [
        {
          "name": "",
          "type": "bool"
        }
      ],
      "payable": false,
      "stateMutability": "nonpayable",
      "type": "function"
    },
    {
      "constant": false,
      "inputs": [
        {
          "name": "dAppBoxOrigin",
          "type": "address"
        },
        {
          "name": "_fileHash",
          "type": "string"
        },
        {
          "name": "_fileNameHash",
          "type": "string"
        },
        {
          "name": "_filePathHash",
          "type": "string"
        },
        {
          "name": "_folderAddress",
          "type": "address"
        }
      ],
      "name": "addFileInformation",
      "outputs": [
        {
          "name": "",
          "type": "string"
        },
        {
          "name": "",
          "type": "address"
        }
      ],
      "payable": false,
      "stateMutability": "nonpayable",
      "type": "function"
    },
    {
      "constant": false,
      "inputs": [
        {
          "name": "dAppBoxOrigin",
          "type": "address"
        },
        {
          "name": "_folderPathHash",
          "type": "string"
        },
        {
          "name": "_folderNameHash",
          "type": "string"
        },
        {
          "name": "_folderAddress",
          "type": "address"
        }
      ],
      "name": "addFolderInformation",
      "outputs": [
        {
          "name": "",
          "type": "address"
        }
      ],
      "payable": false,
      "stateMutability": "nonpayable",
      "type": "function"
    },
    {
      "constant": false,
      "inputs": [
        {
          "name": "dAppBoxOrigin",
          "type": "address"
        },
        {
          "name": "_folderNameHash",
          "type": "string"
        },
        {
          "name": "_remoteFolderOriginalOwner",
          "type": "address"
        },
        {
          "name": "_remoteFolderAddress",
          "type": "address"
        }
      ],
      "name": "addRemoteFolderInformation",
      "outputs": [
        {
          "name": "",
          "type": "bool"
        }
      ],
      "payable": false,
      "stateMutability": "nonpayable",
      "type": "function"
    },
    {
      "constant": false,
      "inputs": [
        {
          "name": "dAppBoxOrigin",
          "type": "address"
        },
        {
          "name": "_folderPathHash",
          "type": "string"
        },
        {
          "name": "_folderNameHash",
          "type": "string"
        },
        {
          "name": "_folderAddress",
          "type": "address"
        },
        {
          "name": "_BeforefolderAddress",
          "type": "address"
        }
      ],
      "name": "addSubFolderInformation",
      "outputs": [
        {
          "name": "",
          "type": "address"
        }
      ],
      "payable": false,
      "stateMutability": "nonpayable",
      "type": "function"
    },
    {
      "constant": true,
      "inputs": [
        {
          "name": "_Address",
          "type": "address"
        },
        {
          "name": "index",
          "type": "uint256"
        }
      ],
      "name": "getByAddress",
      "outputs": [
        {
          "name": "",
          "type": "string"
        },
        {
          "name": "",
          "type": "uint256"
        },
        {
          "name": "",
          "type": "string"
        },
        {
          "name": "",
          "type": "string"
        },
        {
          "name": "",
          "type": "bool"
        },
        {
          "name": "",
          "type": "uint256"
        }
      ],
      "payable": false,
      "stateMutability": "view",
      "type": "function"
    },
    {
      "constant": true,
      "inputs": [
        {
          "name": "_UserName",
          "type": "string"
        }
      ],
      "name": "getByUserName",
      "outputs": [
        {
          "name": "",
          "type": "address"
        },
        {
          "name": "",
          "type": "uint256"
        },
        {
          "name": "",
          "type": "string"
        },
        {
          "name": "",
          "type": "string"
        }
      ],
      "payable": false,
      "stateMutability": "view",
      "type": "function"
    },
    {
      "constant": true,
      "inputs": [
        {
          "name": "_DefaultURL",
          "type": "string"
        }
      ],
      "name": "getByUrl",
      "outputs": [
        {
          "name": "",
          "type": "address"
        },
        {
          "name": "",
          "type": "string"
        },
        {
          "name": "",
          "type": "uint256"
        },
        {
          "name": "",
          "type": "string"
        }
      ],
      "payable": false,
      "stateMutability": "view",
      "type": "function"
    },
    {
      "constant": true,
      "inputs": [
        {
          "name": "_ShortenURl",
          "type": "string"
        }
      ],
      "name": "getByShortUrl",
      "outputs": [
        {
          "name": "",
          "type": "address"
        },
        {
          "name": "",
          "type": "string"
        },
        {
          "name": "",
          "type": "uint256"
        },
        {
          "name": "",
          "type": "string"
        }
      ],
      "payable": false,
      "stateMutability": "view",
      "type": "function"
    },
    {
      "constant": true,
      "inputs": [
        {
          "name": "index",
          "type": "uint256"
        }
      ],
      "name": "returnAllDappboxes",
      "outputs": [
        {
          "name": "",
          "type": "address"
        },
        {
          "name": "",
          "type": "address"
        },
        {
          "name": "",
          "type": "string"
        },
        {
          "name": "",
          "type": "uint256"
        },
        {
          "name": "",
          "type": "string"
        },
        {
          "name": "",
          "type": "string"
        },
        {
          "name": "",
          "type": "bool"
        },
        {
          "name": "",
          "type": "uint256"
        }
      ],
      "payable": false,
      "stateMutability": "view",
      "type": "function"
    },
    {
      "constant": true,
      "inputs": [
        {
          "name": "dappboxAddress",
          "type": "address"
        },
        {
          "name": "index",
          "type": "uint256"
        }
      ],
      "name": "returnAllDappboxFolders",
      "outputs": [
        {
          "name": "",
          "type": "string"
        },
        {
          "name": "",
          "type": "string"
        },
        {
          "name": "",
          "type": "address"
        },
        {
          "name": "",
          "type": "uint256"
        },
        {
          "name": "",
          "type": "bool"
        },
        {
          "name": "",
          "type": "bool"
        }
      ],
      "payable": false,
      "stateMutability": "view",
      "type": "function"
    },
    {
      "constant": true,
      "inputs": [
        {
          "name": "dappboxAddress",
          "type": "address"
        },
        {
          "name": "index",
          "type": "uint256"
        }
      ],
      "name": "returnAllDappboxSubFolders",
      "outputs": [
        {
          "name": "",
          "type": "string"
        },
        {
          "name": "",
          "type": "string"
        },
        {
          "name": "",
          "type": "uint256"
        },
        {
          "name": "",
          "type": "bool"
        },
        {
          "name": "",
          "type": "bool"
        }
      ],
      "payable": false,
      "stateMutability": "view",
      "type": "function"
    },
    {
      "constant": true,
      "inputs": [
        {
          "name": "dappboxAddress",
          "type": "address"
        },
        {
          "name": "folderNameHash",
          "type": "string"
        }
      ],
      "name": "returnRemoteFolderInfo",
      "outputs": [
        {
          "name": "",
          "type": "address"
        },
        {
          "name": "",
          "type": "address"
        }
      ],
      "payable": false,
      "stateMutability": "view",
      "type": "function"
    },
    {
      "constant": true,
      "inputs": [
        {
          "name": "dappboxAddress",
          "type": "address"
        },
        {
          "name": "index",
          "type": "uint256"
        }
      ],
      "name": "returnAllDappboxRemoteFolders",
      "outputs": [
        {
          "name": "",
          "type": "string"
        },
        {
          "name": "",
          "type": "address"
        },
        {
          "name": "",
          "type": "address"
        },
        {
          "name": "",
          "type": "bool"
        },
        {
          "name": "",
          "type": "bool"
        }
      ],
      "payable": false,
      "stateMutability": "view",
      "type": "function"
    },
    {
      "constant": true,
      "inputs": [
        {
          "name": "dappboxAddress",
          "type": "address"
        }
      ],
      "name": "returnNumberOfFilesInDappbox",
      "outputs": [
        {
          "name": "",
          "type": "uint256"
        },
        {
          "name": "",
          "type": "uint256"
        }
      ],
      "payable": false,
      "stateMutability": "view",
      "type": "function"
    },
    {
      "constant": true,
      "inputs": [
        {
          "name": "dappboxAddress",
          "type": "address"
        },
        {
          "name": "folderAddress",
          "type": "address"
        },
        {
          "name": "index",
          "type": "uint256"
        }
      ],
      "name": "returnAllFileFromFolder",
      "outputs": [
        {
          "name": "",
          "type": "string"
        },
        {
          "name": "",
          "type": "string"
        },
        {
          "name": "",
          "type": "string"
        },
        {
          "name": "",
          "type": "bool"
        },
        {
          "name": "",
          "type": "uint256"
        }
      ],
      "payable": false,
      "stateMutability": "view",
      "type": "function"
    },
    {
      "constant": true,
      "inputs": [
        {
          "name": "dappboxAddress",
          "type": "address"
        },
        {
          "name": "remoteFolderAddress",
          "type": "address"
        }
      ],
      "name": "isRemoteFolder",
      "outputs": [
        {
          "name": "",
          "type": "bool"
        },
        {
          "name": "",
          "type": "address"
        },
        {
          "name": "",
          "type": "uint256"
        }
      ],
      "payable": false,
      "stateMutability": "view",
      "type": "function"
    },
    {
      "constant": false,
      "inputs": [
        {
          "name": "dappboxAddress",
          "type": "address"
        },
        {
          "name": "fileNameMD5",
          "type": "string"
        },
        {
          "name": "fileNameSHA256",
          "type": "string"
        },
        {
          "name": "fileNameSHA1",
          "type": "string"
        },
        {
          "name": "folderAddress",
          "type": "address"
        }
      ],
      "name": "RemoveFile",
      "outputs": [
        {
          "name": "",
          "type": "bool"
        }
      ],
      "payable": false,
      "stateMutability": "nonpayable",
      "type": "function"
    },
    {
      "constant": false,
      "inputs": [
        {
          "name": "dappboxAddress",
          "type": "address"
        },
        {
          "name": "folderNameHash",
          "type": "string"
        }
      ],
      "name": "removeRemoteFolder",
      "outputs": [
        {
          "name": "",
          "type": "bool"
        }
      ],
      "payable": false,
      "stateMutability": "nonpayable",
      "type": "function"
    },
    {
      "constant": false,
      "inputs": [
        {
          "name": "dappboxAddress",
          "type": "address"
        },
        {
          "name": "folderAddress",
          "type": "address"
        }
      ],
      "name": "RemoveFolder",
      "outputs": [],
      "payable": false,
      "stateMutability": "nonpayable",
      "type": "function"
    },
    {
      "constant": false,
      "inputs": [
        {
          "name": "dappboxAddress",
          "type": "address"
        },
        {
          "name": "folderAddress",
          "type": "address"
        }
      ],
      "name": "removeSubFolder",
      "outputs": [],
      "payable": false,
      "stateMutability": "nonpayable",
      "type": "function"
    }
  ],
  "bytecode": "0x608060405234801561001057600080fd5b50615f4380620000216000396000f30060806040526004361061011d576000357c0100000000000000000000000000000000000000000000000000000000900463ffffffff16806308ec65eb146101225780631dcf6ea6146102515780633db776db146102b4578063430adf441461043c57806345c5cdea146105c45780634c03f84814610746578063787e201e14610893578063815a6a6114610a4a5780638d18a72014610aff57806392d8361214610ce0578063a27dd0ce14610e22578063a9d85a9614610e85578063aae5775b14610fd4578063b5cfa62a146110d0578063b722600814611258578063ba3b81c9146112f9578063bd152cbf14611357578063c63f8991146114a4578063e92fb519146116a1578063ea56bb47146117f0578063eee473d1146118d1575b600080fd5b34801561012e57600080fd5b5061020f600480360381019080803573ffffffffffffffffffffffffffffffffffffffff169060200190929190803590602001908201803590602001908080601f0160208091040260200160405190810160405280939291908181526020018383808284378201915050505050509192919290803590602001908201803590602001908080601f0160208091040260200160405190810160405280939291908181526020018383808284378201915050505050509192919290803573ffffffffffffffffffffffffffffffffffffffff169060200190929190505050611aa1565b604051808273ffffffffffffffffffffffffffffffffffffffff1673ffffffffffffffffffffffffffffffffffffffff16815260200191505060405180910390f35b34801561025d57600080fd5b506102b2600480360381019080803573ffffffffffffffffffffffffffffffffffffffff169060200190929190803573ffffffffffffffffffffffffffffffffffffffff169060200190929190505050611cdd565b005b3480156102c057600080fd5b5061031b600480360381019080803590602001908201803590602001908080601f0160208091040260200160405190810160405280939291908181526020018383808284378201915050505050509192919290505050611f04565b604051808573ffffffffffffffffffffffffffffffffffffffff1673ffffffffffffffffffffffffffffffffffffffff1681526020018060200184815260200180602001838103835286818151815260200191508051906020019080838360005b8381101561039757808201518184015260208101905061037c565b50505050905090810190601f1680156103c45780820380516001836020036101000a031916815260200191505b50838103825284818151815260200191508051906020019080838360005b838110156103fd5780820151818401526020810190506103e2565b50505050905090810190601f16801561042a5780820380516001836020036101000a031916815260200191505b50965050505050505060405180910390f35b34801561044857600080fd5b506104a3600480360381019080803590602001908201803590602001908080601f01602080910402602001604051908101604052809392919081815260200183838082843782019150505050505091929192905050506121db565b604051808573ffffffffffffffffffffffffffffffffffffffff1673ffffffffffffffffffffffffffffffffffffffff1681526020018481526020018060200180602001838103835285818151815260200191508051906020019080838360005b8381101561051f578082015181840152602081019050610504565b50505050905090810190601f16801561054c5780820380516001836020036101000a031916815260200191505b50838103825284818151815260200191508051906020019080838360005b8381101561058557808201518184015260208101905061056a565b50505050905090810190601f1680156105b25780820380516001836020036101000a031916815260200191505b50965050505050505060405180910390f35b3480156105d057600080fd5b5061060f600480360381019080803573ffffffffffffffffffffffffffffffffffffffff169060200190929190803590602001909291905050506124af565b6040518080602001806020018773ffffffffffffffffffffffffffffffffffffffff1673ffffffffffffffffffffffffffffffffffffffff1681526020018681526020018515151515815260200184151515158152602001838103835289818151815260200191508051906020019080838360005b8381101561069f578082015181840152602081019050610684565b50505050905090810190601f1680156106cc5780820380516001836020036101000a031916815260200191505b50838103825288818151815260200191508051906020019080838360005b838110156107055780820151818401526020810190506106ea565b50505050905090810190601f1680156107325780820380516001836020036101000a031916815260200191505b509850505050505050505060405180910390f35b34801561075257600080fd5b50610879600480360381019080803573ffffffffffffffffffffffffffffffffffffffff169060200190929190803573ffffffffffffffffffffffffffffffffffffffff169060200190929190803590602001908201803590602001908080601f0160208091040260200160405190810160405280939291908181526020018383808284378201915050505050509192919290803590602001908201803590602001908080601f0160208091040260200160405190810160405280939291908181526020018383808284378201915050505050509192919290803590602001908201803590602001908080601f016020809104026020016040519081016040528093929190818152602001838380828437820191505050505050919291929050505061288f565b604051808215151515815260200191505060405180910390f35b34801561089f57600080fd5b506108de600480360381019080803573ffffffffffffffffffffffffffffffffffffffff16906020019092919080359060200190929190505050612ad2565b604051808060200187815260200180602001806020018615151515815260200185815260200184810384528a818151815260200191508051906020019080838360005b8381101561093c578082015181840152602081019050610921565b50505050905090810190601f1680156109695780820380516001836020036101000a031916815260200191505b50848103835288818151815260200191508051906020019080838360005b838110156109a2578082015181840152602081019050610987565b50505050905090810190601f1680156109cf5780820380516001836020036101000a031916815260200191505b50848103825287818151815260200191508051906020019080838360005b83811015610a085780820151818401526020810190506109ed565b50505050905090810190601f168015610a355780820380516001836020036101000a031916815260200191505b50995050505050505050505060405180910390f35b348015610a5657600080fd5b50610aab600480360381019080803573ffffffffffffffffffffffffffffffffffffffff169060200190929190803573ffffffffffffffffffffffffffffffffffffffff169060200190929190505050613010565b60405180841515151581526020018373ffffffffffffffffffffffffffffffffffffffff1673ffffffffffffffffffffffffffffffffffffffff168152602001828152602001935050505060405180910390f35b348015610b0b57600080fd5b50610c32600480360381019080803573ffffffffffffffffffffffffffffffffffffffff169060200190929190803590602001908201803590602001908080601f0160208091040260200160405190810160405280939291908181526020018383808284378201915050505050509192919290803590602001908201803590602001908080601f0160208091040260200160405190810160405280939291908181526020018383808284378201915050505050509192919290803590602001908201803590602001908080601f0160208091040260200160405190810160405280939291908181526020018383808284378201915050505050509192919290803573ffffffffffffffffffffffffffffffffffffffff1690602001909291905050506131d2565b60405180806020018373ffffffffffffffffffffffffffffffffffffffff1673ffffffffffffffffffffffffffffffffffffffff168152602001828103825284818151815260200191508051906020019080838360005b83811015610ca4578082015181840152602081019050610c89565b50505050905090810190601f168015610cd15780820380516001836020036101000a031916815260200191505b50935050505060405180910390f35b348015610cec57600080fd5b50610d2b600480360381019080803573ffffffffffffffffffffffffffffffffffffffff1690602001909291908035906020019092919050505061343b565b60405180806020018673ffffffffffffffffffffffffffffffffffffffff1673ffffffffffffffffffffffffffffffffffffffff1681526020018573ffffffffffffffffffffffffffffffffffffffff1673ffffffffffffffffffffffffffffffffffffffff1681526020018415151515815260200183151515158152602001828103825287818151815260200191508051906020019080838360005b83811015610de3578082015181840152602081019050610dc8565b50505050905090810190601f168015610e105780820380516001836020036101000a031916815260200191505b50965050505050505060405180910390f35b348015610e2e57600080fd5b50610e83600480360381019080803573ffffffffffffffffffffffffffffffffffffffff169060200190929190803573ffffffffffffffffffffffffffffffffffffffff16906020019092919050505061373a565b005b348015610e9157600080fd5b50610ed0600480360381019080803573ffffffffffffffffffffffffffffffffffffffff169060200190929190803590602001909291905050506138de565b6040518080602001806020018681526020018515151515815260200184151515158152602001838103835288818151815260200191508051906020019080838360005b83811015610f2e578082015181840152602081019050610f13565b50505050905090810190601f168015610f5b5780820380516001836020036101000a031916815260200191505b50838103825287818151815260200191508051906020019080838360005b83811015610f94578082015181840152602081019050610f79565b50505050905090810190601f168015610fc15780820380516001836020036101000a031916815260200191505b5097505050505050505060405180910390f35b348015610fe057600080fd5b5061105b600480360381019080803573ffffffffffffffffffffffffffffffffffffffff169060200190929190803590602001908201803590602001908080601f0160208091040260200160405190810160405280939291908181526020018383808284378201915050505050509192919290505050613c35565b604051808373ffffffffffffffffffffffffffffffffffffffff1673ffffffffffffffffffffffffffffffffffffffff1681526020018273ffffffffffffffffffffffffffffffffffffffff1673ffffffffffffffffffffffffffffffffffffffff1681526020019250505060405180910390f35b3480156110dc57600080fd5b50611137600480360381019080803590602001908201803590602001908080601f0160208091040260200160405190810160405280939291908181526020018383808284378201915050505050509192919290505050613f43565b604051808573ffffffffffffffffffffffffffffffffffffffff1673ffffffffffffffffffffffffffffffffffffffff1681526020018060200184815260200180602001838103835286818151815260200191508051906020019080838360005b838110156111b3578082015181840152602081019050611198565b50505050905090810190601f1680156111e05780820380516001836020036101000a031916815260200191505b50838103825284818151815260200191508051906020019080838360005b838110156112195780820151818401526020810190506111fe565b50505050905090810190601f1680156112465780820380516001836020036101000a031916815260200191505b50965050505050505060405180910390f35b34801561126457600080fd5b506112df600480360381019080803573ffffffffffffffffffffffffffffffffffffffff169060200190929190803590602001908201803590602001908080601f016020809104026020016040519081016040528093929190818152602001838380828437820191505050505050919291929050505061421a565b604051808215151515815260200191505060405180910390f35b34801561130557600080fd5b5061133a600480360381019080803573ffffffffffffffffffffffffffffffffffffffff169060200190929190505050614411565b604051808381526020018281526020019250505060405180910390f35b34801561136357600080fd5b5061148a600480360381019080803573ffffffffffffffffffffffffffffffffffffffff169060200190929190803590602001908201803590602001908080601f0160208091040260200160405190810160405280939291908181526020018383808284378201915050505050509192919290803590602001908201803590602001908080601f0160208091040260200160405190810160405280939291908181526020018383808284378201915050505050509192919290803590602001908201803590602001908080601f0160208091040260200160405190810160405280939291908181526020018383808284378201915050505050509192919290803573ffffffffffffffffffffffffffffffffffffffff16906020019092919050505061446d565b604051808215151515815260200191505060405180910390f35b3480156114b057600080fd5b506114cf60048036038101908080359060200190929190505050614947565b604051808973ffffffffffffffffffffffffffffffffffffffff1673ffffffffffffffffffffffffffffffffffffffff1681526020018873ffffffffffffffffffffffffffffffffffffffff1673ffffffffffffffffffffffffffffffffffffffff1681526020018060200187815260200180602001806020018615151515815260200185815260200184810384528a818151815260200191508051906020019080838360005b83811015611591578082015181840152602081019050611576565b50505050905090810190601f1680156115be5780820380516001836020036101000a031916815260200191505b50848103835288818151815260200191508051906020019080838360005b838110156115f75780820151818401526020810190506115dc565b50505050905090810190601f1680156116245780820380516001836020036101000a031916815260200191505b50848103825287818151815260200191508051906020019080838360005b8381101561165d578082015181840152602081019050611642565b50505050905090810190601f16801561168a5780820380516001836020036101000a031916815260200191505b509b50505050505050505050505060405180910390f35b3480156116ad57600080fd5b506117ae600480360381019080803573ffffffffffffffffffffffffffffffffffffffff169060200190929190803590602001908201803590602001908080601f0160208091040260200160405190810160405280939291908181526020018383808284378201915050505050509192919290803590602001908201803590602001908080601f0160208091040260200160405190810160405280939291908181526020018383808284378201915050505050509192919290803573ffffffffffffffffffffffffffffffffffffffff169060200190929190803573ffffffffffffffffffffffffffffffffffffffff169060200190929190505050614f5c565b604051808273ffffffffffffffffffffffffffffffffffffffff1673ffffffffffffffffffffffffffffffffffffffff16815260200191505060405180910390f35b3480156117fc57600080fd5b506118b7600480360381019080803573ffffffffffffffffffffffffffffffffffffffff169060200190929190803590602001908201803590602001908080601f0160208091040260200160405190810160405280939291908181526020018383808284378201915050505050509192919290803573ffffffffffffffffffffffffffffffffffffffff169060200190929190803573ffffffffffffffffffffffffffffffffffffffff169060200190929190505050615207565b604051808215151515815260200191505060405180910390f35b3480156118dd57600080fd5b5061193c600480360381019080803573ffffffffffffffffffffffffffffffffffffffff169060200190929190803573ffffffffffffffffffffffffffffffffffffffff16906020019092919080359060200190929190505050615484565b6040518080602001806020018060200186151515158152602001858152602001848103845289818151815260200191508051906020019080838360005b83811015611994578082015181840152602081019050611979565b50505050905090810190601f1680156119c15780820380516001836020036101000a031916815260200191505b50848103835288818151815260200191508051906020019080838360005b838110156119fa5780820151818401526020810190506119df565b50505050905090810190601f168015611a275780820380516001836020036101000a031916815260200191505b50848103825287818151815260200191508051906020019080838360005b83811015611a60578082015181840152602081019050611a45565b50505050905090810190601f168015611a8d5780820380516001836020036101000a031916815260200191505b509850505050505050505060405180910390f35b600080611aac615cd9565b8673ffffffffffffffffffffffffffffffffffffffff163373ffffffffffffffffffffffffffffffffffffffff16141515611b4f576040517f08c379a00000000000000000000000000000000000000000000000000000000081526004018080602001828103825260158152602001807f61757468656e7469636174696f6e206661696c6564000000000000000000000081525060200191505060405180910390fd5b42915084816000018190525085816020018190525083816040019073ffffffffffffffffffffffffffffffffffffffff16908173ffffffffffffffffffffffffffffffffffffffff1681525050818160600181815250506000816080019015159081151581525050600360008873ffffffffffffffffffffffffffffffffffffffff1673ffffffffffffffffffffffffffffffffffffffff16815260200190815260200160002081908060018154018082558091505090600182039060005260206000209060050201600090919290919091506000820151816000019080519060200190611c3e929190615d21565b506020820151816001019080519060200190611c5b929190615d21565b5060408201518160020160006101000a81548173ffffffffffffffffffffffffffffffffffffffff021916908373ffffffffffffffffffffffffffffffffffffffff1602179055506060820151816003015560808201518160040160006101000a81548160ff0219169083151502179055505050508392505050949350505050565b6000806000600460008673ffffffffffffffffffffffffffffffffffffffff1673ffffffffffffffffffffffffffffffffffffffff168152602001908152602001600020805490509250600091505b82821015611efd578373ffffffffffffffffffffffffffffffffffffffff16600460008773ffffffffffffffffffffffffffffffffffffffff1673ffffffffffffffffffffffffffffffffffffffff16815260200190815260200160002083815481101515611d9757fe5b906000526020600020906006020160030160009054906101000a900473ffffffffffffffffffffffffffffffffffffffff1673ffffffffffffffffffffffffffffffffffffffff161415611ef057600460008673ffffffffffffffffffffffffffffffffffffffff1673ffffffffffffffffffffffffffffffffffffffff16815260200190815260200160002082815481101515611e3157fe5b906000526020600020906006020160020160009054906101000a900473ffffffffffffffffffffffffffffffffffffffff1690506001600460008773ffffffffffffffffffffffffffffffffffffffff1673ffffffffffffffffffffffffffffffffffffffff16815260200190815260200160002083815481101515611eb357fe5b906000526020600020906006020160050160006101000a81548160ff021916908315150217905550611ee58582615953565b611eef8582611cdd565b5b8180600101925050611d2c565b5050505050565b600060606000606060008060606000806060600060606000805490509750600096505b878710156121cb57600160008881526020019081526020016000206004018054600181600116156101000203166002900480601f016020809104026020016040519081016040528092919081815260200182805460018160011615610100020316600290048015611fd95780601f10611fae57610100808354040283529160200191611fd9565b820191906000526020600020905b815481529060010190602001808311611fbc57829003601f168201915b50505050509550611fea8d87615ae3565b94506001151585151514156121be576001600088815260200190815260200160002060000160009054906101000a900473ffffffffffffffffffffffffffffffffffffffff169350600160008881526020019081526020016000206001018054600181600116156101000203166002900480601f0160208091040260200160405190810160405280929190818152602001828054600181600116156101000203166002900480156120dc5780601f106120b1576101008083540402835291602001916120dc565b820191906000526020600020905b8154815290600101906020018083116120bf57829003601f168201915b5050505050925060016000888152602001908152602001600020600201549150600160008881526020019081526020016000206003018054600181600116156101000203166002900480601f0160208091040260200160405190810160405280929190818152602001828054600181600116156101000203166002900480156121a65780601f1061217b576101008083540402835291602001916121a6565b820191906000526020600020905b81548152906001019060200180831161218957829003601f168201915b50505050509050838383839b509b509b509b506121cc565b8680600101975050611f27565b5b50505050505050509193509193565b600080606080600080606060008060006060806000805490509750600096505b8787101561249f57600160008881526020019081526020016000206001018054600181600116156101000203166002900480601f0160208091040260200160405190810160405280929190818152602001828054600181600116156101000203166002900480156122ad5780601f10612282576101008083540402835291602001916122ad565b820191906000526020600020905b81548152906001019060200180831161229057829003601f168201915b505050505095506122be8d87615ae3565b9450600115158515151415612492576001600088815260200190815260200160002060000160009054906101000a900473ffffffffffffffffffffffffffffffffffffffff16935060016000888152602001908152602001600020600201549250600160008881526020019081526020016000206003018054600181600116156101000203166002900480601f0160208091040260200160405190810160405280929190818152602001828054600181600116156101000203166002900480156123c95780601f1061239e576101008083540402835291602001916123c9565b820191906000526020600020905b8154815290600101906020018083116123ac57829003601f168201915b50505050509150600160008881526020019081526020016000206004018054600181600116156101000203166002900480601f01602080910402602001604051908101604052809291908181526020018280546001816001161561010002031660029004801561247a5780601f1061244f5761010080835404028352916020019161247a565b820191906000526020600020905b81548152906001019060200180831161245d57829003601f168201915b50505050509050838383839b509b509b509b506124a0565b86806001019750506121fb565b5b50505050505050509193509193565b606080600080600080606080600080600080600360008f73ffffffffffffffffffffffffffffffffffffffff1673ffffffffffffffffffffffffffffffffffffffff1681526020019081526020016000208d81548110151561250d57fe5b90600052602060002090600502016000018054600181600116156101000203166002900480601f0160208091040260200160405190810160405280929190818152602001828054600181600116156101000203166002900480156125b25780601f10612587576101008083540402835291602001916125b2565b820191906000526020600020905b81548152906001019060200180831161259557829003601f168201915b50505050509550600360008f73ffffffffffffffffffffffffffffffffffffffff1673ffffffffffffffffffffffffffffffffffffffff1681526020019081526020016000208d81548110151561260557fe5b90600052602060002090600502016001018054600181600116156101000203166002900480601f0160208091040260200160405190810160405280929190818152602001828054600181600116156101000203166002900480156126aa5780601f1061267f576101008083540402835291602001916126aa565b820191906000526020600020905b81548152906001019060200180831161268d57829003601f168201915b50505050509450600360008f73ffffffffffffffffffffffffffffffffffffffff1673ffffffffffffffffffffffffffffffffffffffff1681526020019081526020016000208d8154811015156126fd57fe5b906000526020600020906005020160040160009054906101000a900460ff169350600360008f73ffffffffffffffffffffffffffffffffffffffff1673ffffffffffffffffffffffffffffffffffffffff1681526020019081526020016000208d81548110151561276a57fe5b906000526020600020906005020160020160009054906101000a900473ffffffffffffffffffffffffffffffffffffffff169250600360008f73ffffffffffffffffffffffffffffffffffffffff1673ffffffffffffffffffffffffffffffffffffffff1681526020019081526020016000208d8154811015156127ea57fe5b9060005260206000209060050201600301549150600360008f73ffffffffffffffffffffffffffffffffffffffff1673ffffffffffffffffffffffffffffffffffffffff1681526020019081526020016000208054905090508c806001019d5050808d101561286b57858584848760019b509b509b509b509b509b5061287f565b858584848760009b509b509b509b509b509b505b5050505050509295509295509295565b60008061289a615da1565b8773ffffffffffffffffffffffffffffffffffffffff163373ffffffffffffffffffffffffffffffffffffffff1614151561293d576040517f08c379a00000000000000000000000000000000000000000000000000000000081526004018080602001828103825260158152602001807f41757468656e7469636174696f6e206661696c6564000000000000000000000081525060200191505060405180910390fd5b600160003390806001815401808255809150509060018203906000526020600020016000909192909190916101000a81548173ffffffffffffffffffffffffffffffffffffffff021916908373ffffffffffffffffffffffffffffffffffffffff16021790555003915086816000019073ffffffffffffffffffffffffffffffffffffffff16908173ffffffffffffffffffffffffffffffffffffffff168152505085816020018190525042816040018181525050848160600181905250838160800181905250806001600084815260200190815260200160002060008201518160000160006101000a81548173ffffffffffffffffffffffffffffffffffffffff021916908373ffffffffffffffffffffffffffffffffffffffff1602179055506020820151816001019080519060200190612a7b929190615d21565b50604082015181600201556060820151816003019080519060200190612aa2929190615d21565b506080820151816004019080519060200190612abf929190615d21565b5090505060019250505095945050505050565b6060600060608060008060008790505b600080549050811015612b6e576001600082815260200190815260200160002060000160009054906101000a900473ffffffffffffffffffffffffffffffffffffffff1673ffffffffffffffffffffffffffffffffffffffff168973ffffffffffffffffffffffffffffffffffffffff161415612b6157809750612b6e565b8080600101915050612ae2565b600160008054905003881015612dc55760016000898152602001908152602001600020600101600160008a815260200190815260200160002060020154600160008b8152602001908152602001600020600301600160008c815260200190815260200160002060040160018c6001019c508c858054600181600116156101000203166002900480601f016020809104026020016040519081016040528092919081815260200182805460018160011615610100020316600290048015612c755780601f10612c4a57610100808354040283529160200191612c75565b820191906000526020600020905b815481529060010190602001808311612c5857829003601f168201915b50505050509550838054600181600116156101000203166002900480601f016020809104026020016040519081016040528092919081815260200182805460018160011615610100020316600290048015612d115780601f10612ce657610100808354040283529160200191612d11565b820191906000526020600020905b815481529060010190602001808311612cf457829003601f168201915b50505050509350828054600181600116156101000203166002900480601f016020809104026020016040519081016040528092919081815260200182805460018160011615610100020316600290048015612dad5780601f10612d8257610100808354040283529160200191612dad565b820191906000526020600020905b815481529060010190602001808311612d9057829003601f168201915b50505050509250965096509650965096509650613005565b60016000898152602001908152602001600020600101600160008a815260200190815260200160002060020154600160008b8152602001908152602001600020600301600160008c8152602001908152602001600020600401600080858054600181600116156101000203166002900480601f016020809104026020016040519081016040528092919081815260200182805460018160011615610100020316600290048015612eb65780601f10612e8b57610100808354040283529160200191612eb6565b820191906000526020600020905b815481529060010190602001808311612e9957829003601f168201915b50505050509550838054600181600116156101000203166002900480601f016020809104026020016040519081016040528092919081815260200182805460018160011615610100020316600290048015612f525780601f10612f2757610100808354040283529160200191612f52565b820191906000526020600020905b815481529060010190602001808311612f3557829003601f168201915b50505050509350828054600181600116156101000203166002900480601f016020809104026020016040519081016040528092919081815260200182805460018160011615610100020316600290048015612fee5780601f10612fc357610100808354040283529160200191612fee565b820191906000526020600020905b815481529060010190602001808311612fd157829003601f168201915b505050505092508090509650965096509650965096505b509295509295509295565b6000806000806000806000806000945060009250600560008b73ffffffffffffffffffffffffffffffffffffffff1673ffffffffffffffffffffffffffffffffffffffff168152602001908152602001600020805490509150600090505b818110156131bd57600560008b73ffffffffffffffffffffffffffffffffffffffff1673ffffffffffffffffffffffffffffffffffffffff168152602001908152602001600020818154811015156130c257fe5b906000526020600020906004020160010160009054906101000a900473ffffffffffffffffffffffffffffffffffffffff1673ffffffffffffffffffffffffffffffffffffffff168973ffffffffffffffffffffffffffffffffffffffff1614156131b05760019450600560008b73ffffffffffffffffffffffffffffffffffffffff1673ffffffffffffffffffffffffffffffffffffffff1681526020019081526020016000208181548110151561317757fe5b906000526020600020906004020160000160009054906101000a900473ffffffffffffffffffffffffffffffffffffffff1693506131bd565b808060010191505061306e565b84848497509750975050505050509250925092565b60606000806131df615de7565b8873ffffffffffffffffffffffffffffffffffffffff163373ffffffffffffffffffffffffffffffffffffffff16141515613282576040517f08c379a00000000000000000000000000000000000000000000000000000000081526004018080602001828103825260158152602001807f61757468656e7469636174696f6e206661696c6564000000000000000000000081525060200191505060405180910390fd5b42915086816000018190525087816020018190525085816040018190525084816060019073ffffffffffffffffffffffffffffffffffffffff16908173ffffffffffffffffffffffffffffffffffffffff16815250508181608001818152505060008160a0019015159081151581525050600260008a73ffffffffffffffffffffffffffffffffffffffff1673ffffffffffffffffffffffffffffffffffffffff1681526020019081526020016000208190806001815401808255809150509060018203906000526020600020906006020160009091929091909150600082015181600001908051906020019061337a929190615d21565b506020820151816001019080519060200190613397929190615d21565b5060408201518160020190805190602001906133b4929190615d21565b5060608201518160030160006101000a81548173ffffffffffffffffffffffffffffffffffffffff021916908373ffffffffffffffffffffffffffffffffffffffff1602179055506080820151816004015560a08201518160050160006101000a81548160ff02191690831515021790555050505087859350935050509550959350505050565b60606000806000806060600080600080600560008d73ffffffffffffffffffffffffffffffffffffffff1673ffffffffffffffffffffffffffffffffffffffff1681526020019081526020016000208b81548110151561349757fe5b90600052602060002090600402016002018054600181600116156101000203166002900480601f01602080910402602001604051908101604052809291908181526020018280546001816001161561010002031660029004801561353c5780601f106135115761010080835404028352916020019161353c565b820191906000526020600020905b81548152906001019060200180831161351f57829003601f168201915b50505050509450600560008d73ffffffffffffffffffffffffffffffffffffffff1673ffffffffffffffffffffffffffffffffffffffff1681526020019081526020016000208b81548110151561358f57fe5b906000526020600020906004020160010160009054906101000a900473ffffffffffffffffffffffffffffffffffffffff169350600560008d73ffffffffffffffffffffffffffffffffffffffff1673ffffffffffffffffffffffffffffffffffffffff1681526020019081526020016000208b81548110151561360f57fe5b906000526020600020906004020160000160009054906101000a900473ffffffffffffffffffffffffffffffffffffffff169250600560008d73ffffffffffffffffffffffffffffffffffffffff1673ffffffffffffffffffffffffffffffffffffffff1681526020019081526020016000208b81548110151561368f57fe5b906000526020600020906004020160030160009054906101000a900460ff169150600560008d73ffffffffffffffffffffffffffffffffffffffff1673ffffffffffffffffffffffffffffffffffffffff1681526020019081526020016000208054905090508a806001019b5050808b101561371a578483858460019950995099509950995061372b565b848385846000995099509950995099505b50505050509295509295909350565b600080600360008573ffffffffffffffffffffffffffffffffffffffff1673ffffffffffffffffffffffffffffffffffffffff168152602001908152602001600020805490509150600090505b818110156138d857600360008573ffffffffffffffffffffffffffffffffffffffff1673ffffffffffffffffffffffffffffffffffffffff168152602001908152602001600020818154811015156137db57fe5b906000526020600020906005020160020160009054906101000a900473ffffffffffffffffffffffffffffffffffffffff1673ffffffffffffffffffffffffffffffffffffffff168373ffffffffffffffffffffffffffffffffffffffff1614156138cb576001600360008673ffffffffffffffffffffffffffffffffffffffff1673ffffffffffffffffffffffffffffffffffffffff1681526020019081526020016000208281548110151561388e57fe5b906000526020600020906005020160040160006101000a81548160ff0219169083151502179055506138c08484615953565b6138ca8484611cdd565b5b8080600101915050613787565b50505050565b60608060008060006060806000806000600460008d73ffffffffffffffffffffffffffffffffffffffff1673ffffffffffffffffffffffffffffffffffffffff1681526020019081526020016000208b81548110151561393a57fe5b90600052602060002090600602016000018054600181600116156101000203166002900480601f0160208091040260200160405190810160405280929190818152602001828054600181600116156101000203166002900480156139df5780601f106139b4576101008083540402835291602001916139df565b820191906000526020600020905b8154815290600101906020018083116139c257829003601f168201915b50505050509450600460008d73ffffffffffffffffffffffffffffffffffffffff1673ffffffffffffffffffffffffffffffffffffffff1681526020019081526020016000208b815481101515613a3257fe5b90600052602060002090600602016001018054600181600116156101000203166002900480601f016020809104026020016040519081016040528092919081815260200182805460018160011615610100020316600290048015613ad75780601f10613aac57610100808354040283529160200191613ad7565b820191906000526020600020905b815481529060010190602001808311613aba57829003601f168201915b50505050509350600460008d73ffffffffffffffffffffffffffffffffffffffff1673ffffffffffffffffffffffffffffffffffffffff1681526020019081526020016000208b815481101515613b2a57fe5b906000526020600020906006020160050160009054906101000a900460ff169250600460008d73ffffffffffffffffffffffffffffffffffffffff1673ffffffffffffffffffffffffffffffffffffffff1681526020019081526020016000208b815481101515613b9757fe5b9060005260206000209060060201600401549150600460008d73ffffffffffffffffffffffffffffffffffffffff1673ffffffffffffffffffffffffffffffffffffffff1681526020019081526020016000208054905090508a806001019b5050808b1015613c155784848385600199509950995099509950613c26565b848483856000995099509950995099505b50505050509295509295909350565b6000806000806000806000600560008a73ffffffffffffffffffffffffffffffffffffffff1673ffffffffffffffffffffffffffffffffffffffff1681526020019081526020016000208054905094506000935084841015613f3657613d90600560008b73ffffffffffffffffffffffffffffffffffffffff1673ffffffffffffffffffffffffffffffffffffffff16815260200190815260200160002085815481101515613ce057fe5b90600052602060002090600402016002018054600181600116156101000203166002900480601f016020809104026020016040519081016040528092919081815260200182805460018160011615610100020316600290048015613d855780601f10613d5a57610100808354040283529160200191613d85565b820191906000526020600020905b815481529060010190602001808311613d6857829003601f168201915b505050505089615ae3565b925060011515831515148015613e14575060001515600560008b73ffffffffffffffffffffffffffffffffffffffff1673ffffffffffffffffffffffffffffffffffffffff16815260200190815260200160002085815481101515613df157fe5b906000526020600020906004020160030160009054906101000a900460ff161515145b15613f2457600560008a73ffffffffffffffffffffffffffffffffffffffff1673ffffffffffffffffffffffffffffffffffffffff16815260200190815260200160002084815481101515613e6557fe5b906000526020600020906004020160000160009054906101000a900473ffffffffffffffffffffffffffffffffffffffff169150600560008a73ffffffffffffffffffffffffffffffffffffffff1673ffffffffffffffffffffffffffffffffffffffff16815260200190815260200160002084815481101515613ee557fe5b906000526020600020906004020160010160009054906101000a900473ffffffffffffffffffffffffffffffffffffffff169050818196509650613f37565b60008081915080905096509650613f37565b5b50505050509250929050565b600060606000606060008060606000806060600060606000805490509750600096505b8787101561420a57600160008881526020019081526020016000206003018054600181600116156101000203166002900480601f0160208091040260200160405190810160405280929190818152602001828054600181600116156101000203166002900480156140185780601f10613fed57610100808354040283529160200191614018565b820191906000526020600020905b815481529060010190602001808311613ffb57829003601f168201915b505050505095506140298d87615ae3565b94506001151585151514156141fd576001600088815260200190815260200160002060000160009054906101000a900473ffffffffffffffffffffffffffffffffffffffff169350600160008881526020019081526020016000206001018054600181600116156101000203166002900480601f01602080910402602001604051908101604052809291908181526020018280546001816001161561010002031660029004801561411b5780601f106140f05761010080835404028352916020019161411b565b820191906000526020600020905b8154815290600101906020018083116140fe57829003601f168201915b5050505050925060016000888152602001908152602001600020600201549150600160008881526020019081526020016000206004018054600181600116156101000203166002900480601f0160208091040260200160405190810160405280929190818152602001828054600181600116156101000203166002900480156141e55780601f106141ba576101008083540402835291602001916141e5565b820191906000526020600020905b8154815290600101906020018083116141c857829003601f168201915b50505050509050838383839b509b509b509b5061420b565b8680600101975050613f66565b5b50505050505050509193509193565b600080600080600560008773ffffffffffffffffffffffffffffffffffffffff1673ffffffffffffffffffffffffffffffffffffffff168152602001908152602001600020805490509250600091505b8282101561440457614371600560008873ffffffffffffffffffffffffffffffffffffffff1673ffffffffffffffffffffffffffffffffffffffff168152602001908152602001600020838154811015156142c157fe5b90600052602060002090600402016002018054600181600116156101000203166002900480601f0160208091040260200160405190810160405280929190818152602001828054600181600116156101000203166002900480156143665780601f1061433b57610100808354040283529160200191614366565b820191906000526020600020905b81548152906001019060200180831161434957829003601f168201915b505050505086615ae3565b90506001151581151514156143f7576001600560008873ffffffffffffffffffffffffffffffffffffffff1673ffffffffffffffffffffffffffffffffffffffff168152602001908152602001600020838154811015156143ce57fe5b906000526020600020906004020160030160006101000a81548160ff0219169083151502179055505b818060010192505061426a565b6001935050505092915050565b60008060008060009150600260008673ffffffffffffffffffffffffffffffffffffffff1673ffffffffffffffffffffffffffffffffffffffff1681526020019081526020016000208054905090508181935093505050915091565b600080600080600080600260008c73ffffffffffffffffffffffffffffffffffffffff1673ffffffffffffffffffffffffffffffffffffffff168152602001908152602001600020805490509450600093505b84841015614934578673ffffffffffffffffffffffffffffffffffffffff16600260008d73ffffffffffffffffffffffffffffffffffffffff1673ffffffffffffffffffffffffffffffffffffffff1681526020019081526020016000208581548110151561452b57fe5b906000526020600020906006020160030160009054906101000a900473ffffffffffffffffffffffffffffffffffffffff1673ffffffffffffffffffffffffffffffffffffffff161415614927576146788a600260008e73ffffffffffffffffffffffffffffffffffffffff1673ffffffffffffffffffffffffffffffffffffffff168152602001908152602001600020868154811015156145c957fe5b90600052602060002090600602016000018054600181600116156101000203166002900480601f01602080910402602001604051908101604052809291908181526020018280546001816001161561010002031660029004801561466e5780601f106146435761010080835404028352916020019161466e565b820191906000526020600020905b81548152906001019060200180831161465157829003601f168201915b5050505050615ae3565b925061477989600260008e73ffffffffffffffffffffffffffffffffffffffff1673ffffffffffffffffffffffffffffffffffffffff168152602001908152602001600020868154811015156146ca57fe5b90600052602060002090600602016000018054600181600116156101000203166002900480601f01602080910402602001604051908101604052809291908181526020018280546001816001161561010002031660029004801561476f5780601f106147445761010080835404028352916020019161476f565b820191906000526020600020905b81548152906001019060200180831161475257829003601f168201915b5050505050615ae3565b915061487a88600260008e73ffffffffffffffffffffffffffffffffffffffff1673ffffffffffffffffffffffffffffffffffffffff168152602001908152602001600020868154811015156147cb57fe5b90600052602060002090600602016000018054600181600116156101000203166002900480601f0160208091040260200160405190810160405280929190818152602001828054600181600116156101000203166002900480156148705780601f1061484557610100808354040283529160200191614870565b820191906000526020600020905b81548152906001019060200180831161485357829003601f168201915b5050505050615ae3565b9050600115158315151480614893575060011515821515145b806148a2575060011515811515145b15614926576001600260008d73ffffffffffffffffffffffffffffffffffffffff1673ffffffffffffffffffffffffffffffffffffffff168152602001908152602001600020858154811015156148f557fe5b906000526020600020906006020160050160006101000a81548160ff02191690831515021790555060019550614939565b5b83806001019450506144c0565b600095505b505050505095945050505050565b60008060606000606080600080600080549050891015156149d0576040517f08c379a00000000000000000000000000000000000000000000000000000000081526004018080602001828103825260138152602001807f696e646578206f7574206f6620626f756e64730000000000000000000000000081525060200191505060405180910390fd5b600160008054905003891015614c9c576000898154811015156149ef57fe5b9060005260206000200160009054906101000a900473ffffffffffffffffffffffffffffffffffffffff16600160008b815260200190815260200160002060000160009054906101000a900473ffffffffffffffffffffffffffffffffffffffff16600160008c8152602001908152602001600020600101600160008d815260200190815260200160002060020154600160008e8152602001908152602001600020600301600160008f815260200190815260200160002060040160018f6001019f508f858054600181600116156101000203166002900480601f016020809104026020016040519081016040528092919081815260200182805460018160011615610100020316600290048015614b485780601f10614b1d57610100808354040283529160200191614b48565b820191906000526020600020905b815481529060010190602001808311614b2b57829003601f168201915b50505050509550838054600181600116156101000203166002900480601f016020809104026020016040519081016040528092919081815260200182805460018160011615610100020316600290048015614be45780601f10614bb957610100808354040283529160200191614be4565b820191906000526020600020905b815481529060010190602001808311614bc757829003601f168201915b50505050509350828054600181600116156101000203166002900480601f016020809104026020016040519081016040528092919081815260200182805460018160011615610100020316600290048015614c805780601f10614c5557610100808354040283529160200191614c80565b820191906000526020600020905b815481529060010190602001808311614c6357829003601f168201915b5050505050925097509750975097509750975097509750614f51565b600089815481101515614cab57fe5b9060005260206000200160009054906101000a900473ffffffffffffffffffffffffffffffffffffffff16600160008b815260200190815260200160002060000160009054906101000a900473ffffffffffffffffffffffffffffffffffffffff16600160008c8152602001908152602001600020600101600160008d815260200190815260200160002060020154600160008e8152602001908152602001600020600301600160008f8152602001908152602001600020600401600080858054600181600116156101000203166002900480601f016020809104026020016040519081016040528092919081815260200182805460018160011615610100020316600290048015614dfe5780601f10614dd357610100808354040283529160200191614dfe565b820191906000526020600020905b815481529060010190602001808311614de157829003601f168201915b50505050509550838054600181600116156101000203166002900480601f016020809104026020016040519081016040528092919081815260200182805460018160011615610100020316600290048015614e9a5780601f10614e6f57610100808354040283529160200191614e9a565b820191906000526020600020905b815481529060010190602001808311614e7d57829003601f168201915b50505050509350828054600181600116156101000203166002900480601f016020809104026020016040519081016040528092919081815260200182805460018160011615610100020316600290048015614f365780601f10614f0b57610100808354040283529160200191614f36565b820191906000526020600020905b815481529060010190602001808311614f1957829003601f168201915b50505050509250809050975097509750975097509750975097505b919395975091939597565b600080614f67615e36565b8773ffffffffffffffffffffffffffffffffffffffff163373ffffffffffffffffffffffffffffffffffffffff1614151561500a576040517f08c379a00000000000000000000000000000000000000000000000000000000081526004018080602001828103825260158152602001807f61757468656e7469636174696f6e206661696c6564000000000000000000000081525060200191505060405180910390fd5b42915085816000018190525086816020018190525084816040019073ffffffffffffffffffffffffffffffffffffffff16908173ffffffffffffffffffffffffffffffffffffffff168152505083816060019073ffffffffffffffffffffffffffffffffffffffff16908173ffffffffffffffffffffffffffffffffffffffff168152505081816080018181525050600460008973ffffffffffffffffffffffffffffffffffffffff1673ffffffffffffffffffffffffffffffffffffffff16815260200190815260200160002081908060018154018082558091505090600182039060005260206000209060060201600090919290919091506000820151816000019080519060200190615120929190615d21565b50602082015181600101908051906020019061513d929190615d21565b5060408201518160020160006101000a81548173ffffffffffffffffffffffffffffffffffffffff021916908373ffffffffffffffffffffffffffffffffffffffff16021790555060608201518160030160006101000a81548173ffffffffffffffffffffffffffffffffffffffff021916908373ffffffffffffffffffffffffffffffffffffffff1602179055506080820151816004015560a08201518160050160006101000a81548160ff021916908315150217905550505050849250505095945050505050565b6000615211615e9b565b8573ffffffffffffffffffffffffffffffffffffffff163373ffffffffffffffffffffffffffffffffffffffff161415156152b4576040517f08c379a00000000000000000000000000000000000000000000000000000000081526004018080602001828103825260158152602001807f61757468656e7469636174696f6e206661696c6564000000000000000000000081525060200191505060405180910390fd5b83816000019073ffffffffffffffffffffffffffffffffffffffff16908173ffffffffffffffffffffffffffffffffffffffff168152505084816040018190525082816020019073ffffffffffffffffffffffffffffffffffffffff16908173ffffffffffffffffffffffffffffffffffffffff16815250506000816060019015159081151581525050600560008773ffffffffffffffffffffffffffffffffffffffff1673ffffffffffffffffffffffffffffffffffffffff168152602001908152602001600020819080600181540180825580915050906001820390600052602060002090600402016000909192909190915060008201518160000160006101000a81548173ffffffffffffffffffffffffffffffffffffffff021916908373ffffffffffffffffffffffffffffffffffffffff16021790555060208201518160010160006101000a81548173ffffffffffffffffffffffffffffffffffffffff021916908373ffffffffffffffffffffffffffffffffffffffff1602179055506040820151816002019080519060200190615453929190615d21565b5060608201518160030160006101000a81548160ff0219169083151502179055505050506001915050949350505050565b60608060606000806000806060806060600260008e73ffffffffffffffffffffffffffffffffffffffff1673ffffffffffffffffffffffffffffffffffffffff1681526020019081526020016000208054905094508a93505b8484101561594257600260008e73ffffffffffffffffffffffffffffffffffffffff1673ffffffffffffffffffffffffffffffffffffffff1681526020019081526020016000208481548110151561553157fe5b906000526020600020906006020160030160009054906101000a900473ffffffffffffffffffffffffffffffffffffffff1673ffffffffffffffffffffffffffffffffffffffff168c73ffffffffffffffffffffffffffffffffffffffff1614801561560b575060001515600260008f73ffffffffffffffffffffffffffffffffffffffff1673ffffffffffffffffffffffffffffffffffffffff168152602001908152602001600020858154811015156155e857fe5b906000526020600020906006020160050160009054906101000a900460ff161515145b1561593557600260008e73ffffffffffffffffffffffffffffffffffffffff1673ffffffffffffffffffffffffffffffffffffffff1681526020019081526020016000208481548110151561565c57fe5b90600052602060002090600602016000018054600181600116156101000203166002900480601f0160208091040260200160405190810160405280929190818152602001828054600181600116156101000203166002900480156157015780601f106156d657610100808354040283529160200191615701565b820191906000526020600020905b8154815290600101906020018083116156e457829003601f168201915b50505050509250600260008e73ffffffffffffffffffffffffffffffffffffffff1673ffffffffffffffffffffffffffffffffffffffff1681526020019081526020016000208481548110151561575457fe5b90600052602060002090600602016001018054600181600116156101000203166002900480601f0160208091040260200160405190810160405280929190818152602001828054600181600116156101000203166002900480156157f95780601f106157ce576101008083540402835291602001916157f9565b820191906000526020600020905b8154815290600101906020018083116157dc57829003601f168201915b50505050509150600260008e73ffffffffffffffffffffffffffffffffffffffff1673ffffffffffffffffffffffffffffffffffffffff1681526020019081526020016000208481548110151561584c57fe5b90600052602060002090600602016002018054600181600116156101000203166002900480601f0160208091040260200160405190810160405280929190818152602001828054600181600116156101000203166002900480156158f15780601f106158c6576101008083540402835291602001916158f1565b820191906000526020600020905b8154815290600101906020018083116158d457829003601f168201915b5050505050905083806001019450508484101561591d5782818360018799509950995099509950615943565b82818360008080905099509950995099509950615943565b83806001019450506154dd565b5b5050505050939792965093509350565b600080600260008573ffffffffffffffffffffffffffffffffffffffff1673ffffffffffffffffffffffffffffffffffffffff168152602001908152602001600020805490509150600090505b81811015615add57600260008573ffffffffffffffffffffffffffffffffffffffff1673ffffffffffffffffffffffffffffffffffffffff168152602001908152602001600020818154811015156159f457fe5b906000526020600020906006020160030160009054906101000a900473ffffffffffffffffffffffffffffffffffffffff1673ffffffffffffffffffffffffffffffffffffffff168373ffffffffffffffffffffffffffffffffffffffff161415615ad0576001600260008673ffffffffffffffffffffffffffffffffffffffff1673ffffffffffffffffffffffffffffffffffffffff16815260200190815260200160002082815481101515615aa757fe5b906000526020600020906006020160050160006101000a81548160ff0219169083151502179055505b80806001019150506159a0565b50505050565b600081518351141515615af95760009050615cd3565b816040516020018080602001828103825283818151815260200191508051906020019080838360005b83811015615b3d578082015181840152602081019050615b22565b50505050905090810190601f168015615b6a5780820380516001836020036101000a031916815260200191505b50925050506040516020818303038152906040526040518082805190602001908083835b602083101515615bb35780518252602082019150602081019050602083039250615b8e565b6001836020036101000a038019825116818451168082178552505050505050905001915050604051809103902060001916836040516020018080602001828103825283818151815260200191508051906020019080838360005b83811015615c28578082015181840152602081019050615c0d565b50505050905090810190601f168015615c555780820380516001836020036101000a031916815260200191505b50925050506040516020818303038152906040526040518082805190602001908083835b602083101515615c9e5780518252602082019150602081019050602083039250615c79565b6001836020036101000a0380198251168184511680821785525050505050509050019150506040518091039020600019161490505b92915050565b60a0604051908101604052806060815260200160608152602001600073ffffffffffffffffffffffffffffffffffffffff168152602001600081526020016000151581525090565b828054600181600116156101000203166002900490600052602060002090601f016020900481019282601f10615d6257805160ff1916838001178555615d90565b82800160010185558215615d90579182015b82811115615d8f578251825591602001919060010190615d74565b5b509050615d9d9190615ef2565b5090565b60a060405190810160405280600073ffffffffffffffffffffffffffffffffffffffff168152602001606081526020016000815260200160608152602001606081525090565b60c060405190810160405280606081526020016060815260200160608152602001600073ffffffffffffffffffffffffffffffffffffffff168152602001600081526020016000151581525090565b60c0604051908101604052806060815260200160608152602001600073ffffffffffffffffffffffffffffffffffffffff168152602001600073ffffffffffffffffffffffffffffffffffffffff168152602001600081526020016000151581525090565b608060405190810160405280600073ffffffffffffffffffffffffffffffffffffffff168152602001600073ffffffffffffffffffffffffffffffffffffffff168152602001606081526020016000151581525090565b615f1491905b80821115615f10576000816000905550600101615ef8565b5090565b905600a165627a7a72305820b0a009f78b7c035b89e8a66fbdba0f05ad5bd2abddb8c0a0703c14c3f1b10f8a0029",
  "source": "pragma solidity >=0.4.21 <0.6.0;\n\n\ncontract dappboxManager\n{\n\n   /**\n    * @dev struct to store different information regarding specific user \n    */\n   struct Dictionary\n   {\n    address UserAddress;\n    string UserName;\n    uint256 RegistrationDate;\n    string DefaultURL;\n    string ShortenURL;\n   }\n\n   address[] allDappboxes;\n   mapping(uint256 => Dictionary) dictionary ;\n\n   struct fileInformation\n   {\n      string fileNameHash;\n      string fileHash;\n      string filePathHash;\n      address folderAddress;\n      uint256 creationTime;\n      bool fileDeleted;\n   }\n\n   mapping(address => fileInformation[]) dappboxAllFiles;\n\n   struct FolderInformation\n   {\n      string folderNameHash;\n      string folderPathHash;\n      address folderAddress;\n      uint256 creationTime;\n      bool folderDeleted;\n   }\n   struct SubFolderInformation\n   {\n      string folderNameHash;\n      string folderPathHash;\n      address folderAddress;\n      address BeforeFolderAddress;\n      uint256 creationTime;\n      bool folderDeleted;\n   }\n   mapping(address => FolderInformation[]) dappboxAllFolders;\n\n   mapping(address => SubFolderInformation[]) dappboxAllSubFolders;\n\n   struct remoteFolderInformation\n   {\n      address originalOwner;\n      address remoteFolderAddress;\n      string folderNameHash;\n      bool folderDeleted;\n\n   }\n   mapping(address => remoteFolderInformation[]) dappboxAllRemoteFolders;\n\n\n   //should only be called once , whe new dappbox is created\n   /**\n    * @dev stores the details in a structure mapped to a public account of ixxo\n    * This function can only be accessed by the deployeer of the contracts\n    * @param _address : address of the entity whose information is to be stored // public user ethereum addresss\n    * @param _userName : name of the user\n    * @param _defaultURL  : default url generated at the time of register\n    * @param _shortenURL : shortened url of the user\n    * @return bool : on successful storage of user details\n    */\n   function addUsers(\n      address dAppBoxOrigin,address _address , string memory _userName , string memory _defaultURL , string memory _shortenURL \n      )public  returns (bool)\n   {\n      require(msg.sender == dAppBoxOrigin,\"Authentication failed\");\n      uint256 index = allDappboxes.push(msg.sender) - 1;\n      Dictionary memory currentUserInfo;\n\n      currentUserInfo.UserAddress = _address;\n      currentUserInfo.UserName = _userName;\n      currentUserInfo.RegistrationDate = block.timestamp;\n      currentUserInfo.DefaultURL = _defaultURL;\n      currentUserInfo.ShortenURL = _shortenURL;\n      dictionary[index]=(currentUserInfo);\n\n      return true ;\n   }\n\n\n   function addFileInformation(address dAppBoxOrigin,string memory _fileHash,string memory _fileNameHash,string memory _filePathHash,address _folderAddress) public returns(string memory, address)\n   {\n      require(msg.sender == dAppBoxOrigin,\"authentication failed\");\n      uint256 createDate = block.timestamp;\n      fileInformation memory currentInfo;\n      currentInfo.fileNameHash = _fileNameHash;\n      currentInfo.fileHash = _fileHash;\n      currentInfo.filePathHash = _filePathHash;\n      currentInfo.folderAddress = _folderAddress;\n      currentInfo.creationTime = createDate;\n      currentInfo.fileDeleted = false;\n      dappboxAllFiles[dAppBoxOrigin].push(currentInfo);\n      return (_fileHash,_folderAddress);\n   }\n\n\n   function addFolderInformation(address dAppBoxOrigin,string memory _folderPathHash, string memory _folderNameHash, address _folderAddress) public returns(address)\n   {\n      require(msg.sender == dAppBoxOrigin,\"authentication failed\");\n      uint256 createDate = block.timestamp;\n      FolderInformation memory currentInfo;\n      currentInfo.folderNameHash = _folderNameHash;\n      currentInfo.folderPathHash = _folderPathHash;\n      currentInfo.folderAddress = _folderAddress;\n      currentInfo.creationTime = createDate;\n      currentInfo.folderDeleted = false;\n      dappboxAllFolders[dAppBoxOrigin].push(currentInfo);\n      return _folderAddress;\n   }\n\n   function addRemoteFolderInformation(address dAppBoxOrigin, string memory _folderNameHash,address _remoteFolderOriginalOwner, address _remoteFolderAddress) public returns(bool)\n   {\n      require(msg.sender == dAppBoxOrigin,\"authentication failed\");\n      remoteFolderInformation memory currentInfo;\n      currentInfo.originalOwner = _remoteFolderOriginalOwner;\n      currentInfo.folderNameHash = _folderNameHash;\n      currentInfo.remoteFolderAddress = _remoteFolderAddress;\n      currentInfo.folderDeleted = false;\n      dappboxAllRemoteFolders[dAppBoxOrigin].push(currentInfo);\n      return true;\n   }\n\n\n   function addSubFolderInformation(address dAppBoxOrigin, string memory _folderPathHash, string memory _folderNameHash, address _folderAddress, address _BeforefolderAddress) public returns(address)\n   {\n      require(msg.sender == dAppBoxOrigin,\"authentication failed\");\n      uint256 createDate = block.timestamp;\n      SubFolderInformation memory currentInfo;\n      currentInfo.folderNameHash = _folderNameHash;\n      currentInfo.folderPathHash = _folderPathHash;\n      currentInfo.folderAddress = _folderAddress;\n      currentInfo.BeforeFolderAddress = _BeforefolderAddress;\n      currentInfo.creationTime = createDate;\n      dappboxAllSubFolders[dAppBoxOrigin].push(currentInfo);\n      return _folderAddress;\n   }\n\n   /**\n    * @dev get details of user by using address of the user\n    * @param _Address address of user whose info if to be fetched // user ethereum public address\n    NOTE : it returns expected value true if user dappbox has more user address\n    */\n   function getByAddress(address _Address , uint256 index) public view returns (string memory, uint256 , string memory , string memory,bool,uint256)\n   {\n      for(uint256 i=index ; i < allDappboxes.length ; i++)\n      {\n         if (_Address == dictionary[i].UserAddress)\n         {\n            index = i;\n            break;\n         }\n\n      }\n      if(index < allDappboxes.length -1)\n      {\n         return (dictionary[index].UserName,dictionary[index].RegistrationDate,dictionary[index].DefaultURL,dictionary[index].ShortenURL,true,++index);\n      }\n      else\n      {\n         return (dictionary[index].UserName,dictionary[index].RegistrationDate,dictionary[index].DefaultURL,dictionary[index].ShortenURL,false,0);\n      }\n\n   }\n\n /**\n    * @dev fetch all details of users by using username\n    * @param _UserName : name of the user by whic all other attributes are to be fetched \n    */\n   function getByUserName(string memory _UserName) public view returns (address ,uint256 ,string memory ,string memory)\n   {\n      uint256 len = allDappboxes.length;\n      for(uint256 i=0 ; i< len ; i++)\n      { string memory String = (dictionary[i].UserName) ;\n\n      bool res = compareStrings(_UserName ,String);\n         if (res == true )\n         {\n            address Address = dictionary[i].UserAddress  ;\n            uint256 Date = dictionary[i].RegistrationDate ;\n            string memory DUrl = dictionary[i].DefaultURL ;\n            string memory SUrl = dictionary[i].ShortenURL ;\n                  \n            return( Address ,Date , DUrl , SUrl);\n         }\n\n      }\n\n   }\n /**\n    * @dev fetch all the user information using URl\n    * @param _DefaultURL : URl genrated at the time of Dappbox register \n    */\n   function getByUrl(string memory _DefaultURL) public view returns (address , string memory, uint256 ,string memory)\n   {\n      uint256 len = allDappboxes.length;\n      for(uint256 i=0 ; i< len ; i++)\n      { \n          string memory URL1 =  dictionary[i].DefaultURL ; \n          bool res = compareStrings(_DefaultURL ,URL1);\n         if (res == true)\n         {\n            address Address = dictionary[i].UserAddress  ;\n            string memory Username = dictionary[i].UserName ;\n            uint256 Date = dictionary[i].RegistrationDate ;\n            string memory SUrl = dictionary[i].ShortenURL ;\n                  \n                  return(Address , Username , Date, SUrl);\n         }\n\n      }\n\n   }\n\n\n /**\n    * @dev fetch all the information about user using shortened url\n    * @param _ShortenURl : shorneded url of the url generated by dappbox \n    */\n   function getByShortUrl(string memory _ShortenURl) public view returns (address, string memory, uint256 , string memory)\n   {\n      uint256 len = allDappboxes.length;\n      for(uint256 i=0 ; i< len ; i++)\n      {\n         string memory url = dictionary[i].ShortenURL ;  \n         bool res  = compareStrings(_ShortenURl , url );\n         if (res == true)\n         {\n            address Address = dictionary[i].UserAddress  ;\n            string memory Username = dictionary[i].UserName ;\n            uint256 Date = dictionary[i].RegistrationDate ;\n            string memory DUrl = dictionary[i].DefaultURL ;\n                  \n            return (Address , Username , Date , DUrl);\n         }\n\n      }\n\n   }\n\n\n   /**\n    * @dev compares two string on the basis of length and than does the hash comparison \n    * hash formed by strings\n    * @param a : first string\n    * @param b : second string\n    */\n   function compareStrings(string memory a, string memory b) internal pure returns (bool)\n    {\n    if(bytes(a).length != bytes(b).length) {\n        return false;\n    } else {\n      return keccak256(abi.encode(a)) == keccak256(abi.encode(b));\n    }\n    }\n\n\n    function returnAllDappboxes(uint256 index) public view returns(address,address,string memory,uint256,string memory,string memory,bool,uint256 )\n    {\n       require(index < allDappboxes.length,\"index out of bounds\");\n            if(index < allDappboxes.length-1)\n            {\n       return(allDappboxes[index],dictionary[index].UserAddress,dictionary[index].UserName,dictionary[index].RegistrationDate,dictionary[index].DefaultURL,dictionary[index].ShortenURL,true,++index);\n            }\n      else\n      {\n      return(allDappboxes[index],dictionary[index].UserAddress,dictionary[index].UserName,dictionary[index].RegistrationDate,dictionary[index].DefaultURL,dictionary[index].ShortenURL,false,0);\n      }\n    }\n   \n   function returnAllDappboxFolders(address dappboxAddress ,uint256 index) public view returns(string memory,string memory,address , uint256,bool,bool)\n   {\n      \n      string memory folderNameHash = dappboxAllFolders[dappboxAddress][index].folderNameHash;\n      string memory folderPathHash = dappboxAllFolders[dappboxAddress][index].folderPathHash;\n      bool folderDeleted = dappboxAllFolders[dappboxAddress][index].folderDeleted;\n      address folderAddress = dappboxAllFolders[dappboxAddress][index].folderAddress;\n      uint256 createTime = dappboxAllFolders[dappboxAddress][index].creationTime;\n      uint256 len = dappboxAllFolders[dappboxAddress].length;\n      index++;\n      if(index < len)\n      {\n         return(folderNameHash,folderPathHash,folderAddress,createTime,folderDeleted,true);\n      }\n      else\n      {\n         return(folderNameHash,folderPathHash,folderAddress,createTime,folderDeleted,false);\n      }\n   }\n\n   function returnAllDappboxSubFolders(address dappboxAddress ,uint256 index) public view returns(string memory,string memory , uint256,bool,bool)\n   {\n      \n      string memory folderNameHash = dappboxAllSubFolders[dappboxAddress][index].folderNameHash;\n      string memory folderPathHash = dappboxAllSubFolders[dappboxAddress][index].folderPathHash;\n       bool folderDeleted = dappboxAllSubFolders[dappboxAddress][index].folderDeleted;\n      uint256 createTime = dappboxAllSubFolders[dappboxAddress][index].creationTime;\n      uint256 len = dappboxAllSubFolders[dappboxAddress].length;\n      index++;\n      if(index < len)\n      {\n         return(folderNameHash,folderPathHash,createTime,folderDeleted,true);\n      }\n      else\n      {\n         return(folderNameHash,folderPathHash,createTime,folderDeleted,false);\n      }\n   }\n\n   function returnRemoteFolderInfo( address dappboxAddress,string memory folderNameHash) public view returns (address,address)\n   {\n      uint256 len = dappboxAllRemoteFolders[dappboxAddress].length;\n\n      for(uint256 i=0;i<len;i++)\n      {\n         bool res = compareStrings(dappboxAllRemoteFolders[dappboxAddress][i].folderNameHash, folderNameHash);\n         if (res == true && dappboxAllRemoteFolders[dappboxAddress][i].folderDeleted == false)\n         {\n            address originalOwner = dappboxAllRemoteFolders[dappboxAddress][i].originalOwner;\n            address folderAddress = dappboxAllRemoteFolders[dappboxAddress][i].remoteFolderAddress;\n            return (originalOwner,folderAddress);\n         }\n         else \n         {\n            return(0,0);\n         }\n      }\n      \n      \n\n   }\n\n   function returnAllDappboxRemoteFolders(address dappboxAddress ,uint256 index) public view returns(string memory,address,address,bool,bool)\n   {\n      string memory folderNameHash = dappboxAllRemoteFolders[dappboxAddress][index].folderNameHash;\n      address remoteFolderAddress = dappboxAllRemoteFolders[dappboxAddress][index].remoteFolderAddress;\n      address originalOwner = dappboxAllRemoteFolders[dappboxAddress][index].originalOwner;\n      bool isFolderDeleted = dappboxAllRemoteFolders[dappboxAddress][index].folderDeleted;\n      uint256 len = dappboxAllRemoteFolders[dappboxAddress].length;\n      index++;\n      if(index < len)\n      {\n         return(folderNameHash,originalOwner,remoteFolderAddress,isFolderDeleted,true);\n      }\n      else\n      {\n         return(folderNameHash,originalOwner,remoteFolderAddress,isFolderDeleted,false);\n      }\n   }\n\n   function returnNumberOfFilesInDappbox(address dappboxAddress) public view returns(uint256 ,uint256)\n   {\n      uint256 startingIndex = 0;\n      uint256 totalLength = dappboxAllFiles[dappboxAddress].length;\n      return(startingIndex,totalLength);\n   }\n\n   function returnAllFileFromFolder(address dappboxAddress , address folderAddress , uint256 index ) public view returns(string memory,string memory,string memory,bool,uint256)\n   {\n      uint256 len = dappboxAllFiles[dappboxAddress].length;\n      for(uint256 i = index ; i < len ; i++)\n      {\n         if(folderAddress == dappboxAllFiles[dappboxAddress][i].folderAddress && dappboxAllFiles[dappboxAddress][i].fileDeleted == false )\n         {\n            string memory fileNameHash = dappboxAllFiles[dappboxAddress][i].fileNameHash;\n            string memory fileHash = dappboxAllFiles[dappboxAddress][i].fileHash;\n            string memory filePathHash = dappboxAllFiles[dappboxAddress][i].filePathHash;\n            \n            i++;\n            if(i < len)\n            {\n               return (fileNameHash,filePathHash,fileHash,true,i); \n            }\n            else\n            {\n               return (fileNameHash,filePathHash,fileHash,false,0); \n            }\n         }\n      }\n   }\n\n   function isRemoteFolder(address dappboxAddress, address remoteFolderAddress) public view returns(bool,address,uint256)\n   {\n       bool res = false;\n       address originalOwner;\n       uint256 index= 0;\n       uint256 len = dappboxAllRemoteFolders[dappboxAddress].length;\n\n       for(uint256 i = 0 ; i < len ; i++)\n       {\n           if(remoteFolderAddress == dappboxAllRemoteFolders[dappboxAddress][i].remoteFolderAddress)\n          {\n             res = true;\n             originalOwner = dappboxAllRemoteFolders[dappboxAddress][i].originalOwner;\n             break;\n          }\n       }\n       return (res,originalOwner,index);     \n   }\n\n\n   function RemoveFile(address dappboxAddress,string memory fileNameMD5,string memory fileNameSHA256,string memory fileNameSHA1 ,address folderAddress) public returns(bool)  \n   {\n      uint256 len = dappboxAllFiles[dappboxAddress].length; \n      for(uint256 i = 0 ; i< len ; i++)\n       {\n          if (dappboxAllFiles[dappboxAddress][i].folderAddress == folderAddress)\n          {\n          bool flag = compareStrings(fileNameMD5,dappboxAllFiles[dappboxAddress][i].fileNameHash);\n          bool flag1 = compareStrings(fileNameSHA256,dappboxAllFiles[dappboxAddress][i].fileNameHash);\n          bool flag2 = compareStrings(fileNameSHA1,dappboxAllFiles[dappboxAddress][i].fileNameHash);\n           if(flag == true || flag1 == true || flag2 == true)\n         {\n            dappboxAllFiles[dappboxAddress][i].fileDeleted = true;\n            return true;\n         }\n       }\n       }\n\n      return false;\n   }\n\n   function removeRemoteFolder(address dappboxAddress , string memory folderNameHash) public returns(bool)\n   {\n      uint256 len = dappboxAllRemoteFolders[dappboxAddress].length;\n\n      for(uint256 i=0;i<len;i++)\n      {\n         bool res = compareStrings(dappboxAllRemoteFolders[dappboxAddress][i].folderNameHash, folderNameHash);\n         if (res == true)\n         {\n            dappboxAllRemoteFolders[dappboxAddress][i].folderDeleted = true;\n            \n         }\n      }\n      return true;   \n   }\n\n   function RemoveFolder(address dappboxAddress,address folderAddress) public \n   {\n      uint256 len = dappboxAllFolders[dappboxAddress].length;\n      for(uint256 i = 0 ; i< len ; i++)\n      {\n          if(folderAddress == dappboxAllFolders[dappboxAddress][i].folderAddress)\n          {\n            dappboxAllFolders[dappboxAddress][i].folderDeleted = true;\n            removeAllFilesFromFolder(dappboxAddress,folderAddress);\n            removeSubFolder(dappboxAddress , folderAddress);\n          }\n          \n      }\n   }\n\n\n   function removeSubFolder(address dappboxAddress, address folderAddress) public \n   {\n     uint256 len = dappboxAllSubFolders[dappboxAddress].length;\n     for(uint256 i = 0 ; i < len ; i++)\n     {\n        if(dappboxAllSubFolders[dappboxAddress][i].BeforeFolderAddress == folderAddress)\n        {\n           address newFolderAddress = dappboxAllSubFolders[dappboxAddress][i].folderAddress;\n           dappboxAllSubFolders[dappboxAddress][i].folderDeleted = true;\n           removeAllFilesFromFolder(dappboxAddress,newFolderAddress);\n           removeSubFolder(dappboxAddress, newFolderAddress);\n        }\n     }  \n   }\n\n   function removeAllFilesFromFolder(address dappboxAddress,address folderAddress) internal\n   {\n       uint256 len = dappboxAllFiles[dappboxAddress].length; \n      for(uint256 i = 0 ; i< len ; i++)\n       {\n          if(folderAddress == dappboxAllFiles[dappboxAddress][i].folderAddress)\n          {\n             dappboxAllFiles[dappboxAddress][i].fileDeleted = true;\n          }\n       }\n\n}\n\n}\n",
  "sourcePath": "/home/sagar/go/src/github.com/AlphaDinoRC/ixxo_smartcontracts/dappboxManager/contracts/dappboxManager.sol",
  "compiler": {
    "name": "solc",
    "version": "0.4.25+commit.59dbf8f1.Emscripten.clang"
  },
  "schemaVersion": "3.0.6",
  "updatedAt": "2019-08-19T13:58:30.878Z",
  "devdoc": {
    "methods": {
      "addUsers(address,address,string,string,string)": {
        "details": "stores the details in a structure mapped to a public account of ixxo This function can only be accessed by the deployeer of the contracts",
        "params": {
          "_address": ": address of the entity whose information is to be stored // public user ethereum addresss",
          "_defaultURL": ": default url generated at the time of register",
          "_shortenURL": ": shortened url of the user",
          "_userName": ": name of the user"
        },
        "return": "bool : on successful storage of user details"
      },
      "getByAddress(address,uint256)": {
        "details": "get details of user by using address of the user",
        "params": {
          "_Address": "address of user whose info if to be fetched // user ethereum public address NOTE : it returns expected value true if user dappbox has more user address"
        }
      },
      "getByShortUrl(string)": {
        "details": "fetch all the information about user using shortened url",
        "params": {
          "_ShortenURl": ": shorneded url of the url generated by dappbox "
        }
      },
      "getByUrl(string)": {
        "details": "fetch all the user information using URl",
        "params": {
          "_DefaultURL": ": URl genrated at the time of Dappbox register "
        }
      },
      "getByUserName(string)": {
        "details": "fetch all details of users by using username",
        "params": {
          "_UserName": ": name of the user by whic all other attributes are to be fetched "
        }
      }
    }
  },
  "userdoc": {
    "methods": {}
  }
}