{
  "contractName": "IdentitySmartContract",
  "abi": [
    {
      "constant": false,
      "inputs": [
        {
          "name": "dAppBoxOrigin",
          "type": "address"
        },
        {
          "name": "_address",
          "type": "address"
        },
        {
          "name": "_userName",
          "type": "string"
        },
        {
          "name": "_defaultURL",
          "type": "string"
        },
        {
          "name": "_shortenURL",
          "type": "string"
        }
      ],
      "name": "addUsers",
      "outputs": [
        {
          "name": "",
          "type": "bool"
        }
      ],
      "payable": false,
      "stateMutability": "nonpayable",
      "type": "function"
    },
    {
      "constant": false,
      "inputs": [
        {
          "name": "dAppBoxOrigin",
          "type": "address"
        },
        {
          "name": "_fileHash",
          "type": "bytes32"
        },
        {
          "name": "_fileName",
          "type": "string"
        }
      ],
      "name": "addFileInformation",
      "outputs": [
        {
          "name": "",
          "type": "bool"
        }
      ],
      "payable": false,
      "stateMutability": "nonpayable",
      "type": "function"
    },
    {
      "constant": false,
      "inputs": [
        {
          "name": "dAppBoxOrigin",
          "type": "address"
        },
        {
          "name": "_folderAddress",
          "type": "address"
        },
        {
          "name": "_folderName",
          "type": "string"
        }
      ],
      "name": "addFolderInformation",
      "outputs": [
        {
          "name": "",
          "type": "bool"
        }
      ],
      "payable": false,
      "stateMutability": "nonpayable",
      "type": "function"
    },
    {
      "constant": true,
      "inputs": [
        {
          "name": "_Address",
          "type": "address"
        },
        {
          "name": "index",
          "type": "uint256"
        }
      ],
      "name": "getByAddress",
      "outputs": [
        {
          "name": "",
          "type": "string"
        },
        {
          "name": "",
          "type": "uint256"
        },
        {
          "name": "",
          "type": "string"
        },
        {
          "name": "",
          "type": "string"
        },
        {
          "name": "",
          "type": "bool"
        },
        {
          "name": "",
          "type": "uint256"
        }
      ],
      "payable": false,
      "stateMutability": "view",
      "type": "function"
    },
    {
      "constant": true,
      "inputs": [
        {
          "name": "_UserName",
          "type": "string"
        }
      ],
      "name": "getByUserName",
      "outputs": [
        {
          "name": "",
          "type": "address"
        },
        {
          "name": "",
          "type": "uint256"
        },
        {
          "name": "",
          "type": "string"
        },
        {
          "name": "",
          "type": "string"
        }
      ],
      "payable": false,
      "stateMutability": "view",
      "type": "function"
    },
    {
      "constant": true,
      "inputs": [
        {
          "name": "_DefaultURL",
          "type": "string"
        }
      ],
      "name": "getByUrl",
      "outputs": [
        {
          "name": "",
          "type": "address"
        },
        {
          "name": "",
          "type": "string"
        },
        {
          "name": "",
          "type": "uint256"
        },
        {
          "name": "",
          "type": "string"
        }
      ],
      "payable": false,
      "stateMutability": "view",
      "type": "function"
    },
    {
      "constant": true,
      "inputs": [
        {
          "name": "_ShortenURl",
          "type": "string"
        }
      ],
      "name": "getByShortUrl",
      "outputs": [
        {
          "name": "",
          "type": "address"
        },
        {
          "name": "",
          "type": "string"
        },
        {
          "name": "",
          "type": "uint256"
        },
        {
          "name": "",
          "type": "string"
        }
      ],
      "payable": false,
      "stateMutability": "view",
      "type": "function"
    },
    {
      "constant": true,
      "inputs": [
        {
          "name": "index",
          "type": "uint256"
        }
      ],
      "name": "returnAllDappboxes",
      "outputs": [
        {
          "name": "",
          "type": "address"
        },
        {
          "name": "",
          "type": "address"
        },
        {
          "name": "",
          "type": "string"
        },
        {
          "name": "",
          "type": "uint256"
        },
        {
          "name": "",
          "type": "string"
        },
        {
          "name": "",
          "type": "string"
        },
        {
          "name": "",
          "type": "bool"
        },
        {
          "name": "",
          "type": "uint256"
        }
      ],
      "payable": false,
      "stateMutability": "view",
      "type": "function"
    },
    {
      "constant": true,
      "inputs": [
        {
          "name": "dappboxAddress",
          "type": "address"
        },
        {
          "name": "index",
          "type": "uint256"
        }
      ],
      "name": "returnAllDappboxFiles",
      "outputs": [
        {
          "name": "",
          "type": "bytes32"
        },
        {
          "name": "",
          "type": "string"
        },
        {
          "name": "",
          "type": "uint256"
        },
        {
          "name": "",
          "type": "bool"
        },
        {
          "name": "",
          "type": "uint256"
        }
      ],
      "payable": false,
      "stateMutability": "view",
      "type": "function"
    },
    {
      "constant": true,
      "inputs": [
        {
          "name": "dappboxAddress",
          "type": "address"
        },
        {
          "name": "index",
          "type": "uint256"
        }
      ],
      "name": "returnAllDappboxFolders",
      "outputs": [
        {
          "name": "",
          "type": "address"
        },
        {
          "name": "",
          "type": "string"
        },
        {
          "name": "",
          "type": "uint256"
        },
        {
          "name": "",
          "type": "bool"
        },
        {
          "name": "",
          "type": "uint256"
        }
      ],
      "payable": false,
      "stateMutability": "view",
      "type": "function"
    },
    {
      "constant": true,
      "inputs": [
        {
          "name": "dappboxAddress",
          "type": "address"
        },
        {
          "name": "fileHash",
          "type": "bytes32"
        }
      ],
      "name": "returnFileInformation",
      "outputs": [
        {
          "name": "",
          "type": "bytes32"
        },
        {
          "name": "",
          "type": "string"
        },
        {
          "name": "",
          "type": "uint256"
        }
      ],
      "payable": false,
      "stateMutability": "view",
      "type": "function"
    },
    {
      "constant": true,
      "inputs": [
        {
          "name": "dappboxAddress",
          "type": "address"
        },
        {
          "name": "FolderAddress",
          "type": "address"
        }
      ],
      "name": "returnFolderInformation",
      "outputs": [
        {
          "name": "",
          "type": "address"
        },
        {
          "name": "",
          "type": "string"
        },
        {
          "name": "",
          "type": "uint256"
        }
      ],
      "payable": false,
      "stateMutability": "view",
      "type": "function"
    }
  ],
  "bytecode": "0x608060405234801561001057600080fd5b50613cfe806100206000396000f3006080604052600436106100ba576000357c0100000000000000000000000000000000000000000000000000000000900463ffffffff1680633db776db146100bf578063430adf441461024757806345c5cdea146103cf5780634638fe8e146104e15780634c03f848146105905780635bc7f6a8146106dd5780636f1f82df146107bd578063787e201e1461087e578063b5cfa62a14610a35578063c63f899114610bbd578063e6a618d814610dba578063ec191dea14610ed0575b600080fd5b3480156100cb57600080fd5b50610126600480360381019080803590602001908201803590602001908080601f0160208091040260200160405190810160405280939291908181526020018383808284378201915050505050509192919290505050610fbe565b604051808573ffffffffffffffffffffffffffffffffffffffff1673ffffffffffffffffffffffffffffffffffffffff1681526020018060200184815260200180602001838103835286818151815260200191508051906020019080838360005b838110156101a2578082015181840152602081019050610187565b50505050905090810190601f1680156101cf5780820380516001836020036101000a031916815260200191505b50838103825284818151815260200191508051906020019080838360005b838110156102085780820151818401526020810190506101ed565b50505050905090810190601f1680156102355780820380516001836020036101000a031916815260200191505b50965050505050505060405180910390f35b34801561025357600080fd5b506102ae600480360381019080803590602001908201803590602001908080601f0160208091040260200160405190810160405280939291908181526020018383808284378201915050505050509192919290505050611295565b604051808573ffffffffffffffffffffffffffffffffffffffff1673ffffffffffffffffffffffffffffffffffffffff1681526020018481526020018060200180602001838103835285818151815260200191508051906020019080838360005b8381101561032a57808201518184015260208101905061030f565b50505050905090810190601f1680156103575780820380516001836020036101000a031916815260200191505b50838103825284818151815260200191508051906020019080838360005b83811015610390578082015181840152602081019050610375565b50505050905090810190601f1680156103bd5780820380516001836020036101000a031916815260200191505b50965050505050505060405180910390f35b3480156103db57600080fd5b5061041a600480360381019080803573ffffffffffffffffffffffffffffffffffffffff16906020019092919080359060200190929190505050611569565b604051808673ffffffffffffffffffffffffffffffffffffffff1673ffffffffffffffffffffffffffffffffffffffff1681526020018060200185815260200184151515158152602001838152602001828103825286818151815260200191508051906020019080838360005b838110156104a2578082015181840152602081019050610487565b50505050905090810190601f1680156104cf5780820380516001836020036101000a031916815260200191505b50965050505050505060405180910390f35b3480156104ed57600080fd5b50610576600480360381019080803573ffffffffffffffffffffffffffffffffffffffff1690602001909291908035600019169060200190929190803590602001908201803590602001908080601f0160208091040260200160405190810160405280939291908181526020018383808284378201915050505050509192919290505050611904565b604051808215151515815260200191505060405180910390f35b34801561059c57600080fd5b506106c3600480360381019080803573ffffffffffffffffffffffffffffffffffffffff169060200190929190803573ffffffffffffffffffffffffffffffffffffffff169060200190929190803590602001908201803590602001908080601f0160208091040260200160405190810160405280939291908181526020018383808284378201915050505050509192919290803590602001908201803590602001908080601f0160208091040260200160405190810160405280939291908181526020018383808284378201915050505050509192919290803590602001908201803590602001908080601f0160208091040260200160405190810160405280939291908181526020018383808284378201915050505050509192919290505050611b12565b604051808215151515815260200191505060405180910390f35b3480156106e957600080fd5b5061072c600480360381019080803573ffffffffffffffffffffffffffffffffffffffff1690602001909291908035600019169060200190929190505050611d55565b60405180846000191660001916815260200180602001838152602001828103825284818151815260200191508051906020019080838360005b83811015610780578082015181840152602081019050610765565b50505050905090810190601f1680156107ad5780820380516001836020036101000a031916815260200191505b5094505050505060405180910390f35b3480156107c957600080fd5b50610864600480360381019080803573ffffffffffffffffffffffffffffffffffffffff169060200190929190803573ffffffffffffffffffffffffffffffffffffffff169060200190929190803590602001908201803590602001908080601f0160208091040260200160405190810160405280939291908181526020018383808284378201915050505050509192919290505050611ffb565b604051808215151515815260200191505060405180910390f35b34801561088a57600080fd5b506108c9600480360381019080803573ffffffffffffffffffffffffffffffffffffffff16906020019092919080359060200190929190505050612264565b604051808060200187815260200180602001806020018615151515815260200185815260200184810384528a818151815260200191508051906020019080838360005b8381101561092757808201518184015260208101905061090c565b50505050905090810190601f1680156109545780820380516001836020036101000a031916815260200191505b50848103835288818151815260200191508051906020019080838360005b8381101561098d578082015181840152602081019050610972565b50505050905090810190601f1680156109ba5780820380516001836020036101000a031916815260200191505b50848103825287818151815260200191508051906020019080838360005b838110156109f35780820151818401526020810190506109d8565b50505050905090810190601f168015610a205780820380516001836020036101000a031916815260200191505b50995050505050505050505060405180910390f35b348015610a4157600080fd5b50610a9c600480360381019080803590602001908201803590602001908080601f01602080910402602001604051908101604052809392919081815260200183838082843782019150505050505091929192905050506127a2565b604051808573ffffffffffffffffffffffffffffffffffffffff1673ffffffffffffffffffffffffffffffffffffffff1681526020018060200184815260200180602001838103835286818151815260200191508051906020019080838360005b83811015610b18578082015181840152602081019050610afd565b50505050905090810190601f168015610b455780820380516001836020036101000a031916815260200191505b50838103825284818151815260200191508051906020019080838360005b83811015610b7e578082015181840152602081019050610b63565b50505050905090810190601f168015610bab5780820380516001836020036101000a031916815260200191505b50965050505050505060405180910390f35b348015610bc957600080fd5b50610be860048036038101908080359060200190929190505050612a79565b604051808973ffffffffffffffffffffffffffffffffffffffff1673ffffffffffffffffffffffffffffffffffffffff1681526020018873ffffffffffffffffffffffffffffffffffffffff1673ffffffffffffffffffffffffffffffffffffffff1681526020018060200187815260200180602001806020018615151515815260200185815260200184810384528a818151815260200191508051906020019080838360005b83811015610caa578082015181840152602081019050610c8f565b50505050905090810190601f168015610cd75780820380516001836020036101000a031916815260200191505b50848103835288818151815260200191508051906020019080838360005b83811015610d10578082015181840152602081019050610cf5565b50505050905090810190601f168015610d3d5780820380516001836020036101000a031916815260200191505b50848103825287818151815260200191508051906020019080838360005b83811015610d76578082015181840152602081019050610d5b565b50505050905090810190601f168015610da35780820380516001836020036101000a031916815260200191505b509b50505050505050505050505060405180910390f35b348015610dc657600080fd5b50610e1b600480360381019080803573ffffffffffffffffffffffffffffffffffffffff169060200190929190803573ffffffffffffffffffffffffffffffffffffffff16906020019092919050505061308e565b604051808473ffffffffffffffffffffffffffffffffffffffff1673ffffffffffffffffffffffffffffffffffffffff16815260200180602001838152602001828103825284818151815260200191508051906020019080838360005b83811015610e93578082015181840152602081019050610e78565b50505050905090810190601f168015610ec05780820380516001836020036101000a031916815260200191505b5094505050505060405180910390f35b348015610edc57600080fd5b50610f1b600480360381019080803573ffffffffffffffffffffffffffffffffffffffff16906020019092919080359060200190929190505050613334565b6040518086600019166000191681526020018060200185815260200184151515158152602001838152602001828103825286818151815260200191508051906020019080838360005b83811015610f7f578082015181840152602081019050610f64565b50505050905090810190601f168015610fac5780820380516001836020036101000a031916815260200191505b50965050505050505060405180910390f35b600060606000606060008060606000806060600060606000805490509750600096505b8787101561128557600160008881526020019081526020016000206004018054600181600116156101000203166002900480601f0160208091040260200160405190810160405280929190818152602001828054600181600116156101000203166002900480156110935780601f1061106857610100808354040283529160200191611093565b820191906000526020600020905b81548152906001019060200180831161107657829003601f168201915b505050505095506110a48d876136af565b9450600115158515151415611278576001600088815260200190815260200160002060000160009054906101000a900473ffffffffffffffffffffffffffffffffffffffff169350600160008881526020019081526020016000206001018054600181600116156101000203166002900480601f0160208091040260200160405190810160405280929190818152602001828054600181600116156101000203166002900480156111965780601f1061116b57610100808354040283529160200191611196565b820191906000526020600020905b81548152906001019060200180831161117957829003601f168201915b5050505050925060016000888152602001908152602001600020600201549150600160008881526020019081526020016000206003018054600181600116156101000203166002900480601f0160208091040260200160405190810160405280929190818152602001828054600181600116156101000203166002900480156112605780601f1061123557610100808354040283529160200191611260565b820191906000526020600020905b81548152906001019060200180831161124357829003601f168201915b50505050509050838383839b509b509b509b50611286565b8680600101975050610fe1565b5b50505050505050509193509193565b600080606080600080606060008060006060806000805490509750600096505b8787101561155957600160008881526020019081526020016000206001018054600181600116156101000203166002900480601f0160208091040260200160405190810160405280929190818152602001828054600181600116156101000203166002900480156113675780601f1061133c57610100808354040283529160200191611367565b820191906000526020600020905b81548152906001019060200180831161134a57829003601f168201915b505050505095506113788d876136af565b945060011515851515141561154c576001600088815260200190815260200160002060000160009054906101000a900473ffffffffffffffffffffffffffffffffffffffff16935060016000888152602001908152602001600020600201549250600160008881526020019081526020016000206003018054600181600116156101000203166002900480601f0160208091040260200160405190810160405280929190818152602001828054600181600116156101000203166002900480156114835780601f1061145857610100808354040283529160200191611483565b820191906000526020600020905b81548152906001019060200180831161146657829003601f168201915b50505050509150600160008881526020019081526020016000206004018054600181600116156101000203166002900480601f0160208091040260200160405190810160405280929190818152602001828054600181600116156101000203166002900480156115345780601f1061150957610100808354040283529160200191611534565b820191906000526020600020905b81548152906001019060200180831161151757829003601f168201915b50505050509050838383839b509b509b509b5061155a565b86806001019750506112b5565b5b50505050505050509193509193565b600060606000806000806000606060003373ffffffffffffffffffffffffffffffffffffffff168b73ffffffffffffffffffffffffffffffffffffffff1614151561161c576040517f08c379a00000000000000000000000000000000000000000000000000000000081526004018080602001828103825260158152602001807f61757468656e7469636174696f6e206661696c6564000000000000000000000081525060200191505060405180910390fd5b600115156116298c6138a5565b15151415156116a0576040517f08c379a00000000000000000000000000000000000000000000000000000000081526004018080602001828103825260168152602001807f6e6f20737563682064617070626f78206578697374730000000000000000000081525060200191505060405180910390fd5b600360008c73ffffffffffffffffffffffffffffffffffffffff1673ffffffffffffffffffffffffffffffffffffffff168152602001908152602001600020805490509350600360008c73ffffffffffffffffffffffffffffffffffffffff1673ffffffffffffffffffffffffffffffffffffffff1681526020019081526020016000208a81548110151561173157fe5b906000526020600020906003020160000160009054906101000a900473ffffffffffffffffffffffffffffffffffffffff169250600360008c73ffffffffffffffffffffffffffffffffffffffff1673ffffffffffffffffffffffffffffffffffffffff1681526020019081526020016000208a8154811015156117b157fe5b90600052602060002090600302016001018054600181600116156101000203166002900480601f0160208091040260200160405190810160405280929190818152602001828054600181600116156101000203166002900480156118565780601f1061182b57610100808354040283529160200191611856565b820191906000526020600020905b81548152906001019060200180831161183957829003601f168201915b50505050509150600360008c73ffffffffffffffffffffffffffffffffffffffff1673ffffffffffffffffffffffffffffffffffffffff1681526020019081526020016000208a8154811015156118a957fe5b906000526020600020906003020160020154905089806001019a5050838a10156118e25782828260018d985098509850985098506118f6565b828282600080809050985098509850985098505b505050509295509295909350565b60008061190f613b8a565b8573ffffffffffffffffffffffffffffffffffffffff163373ffffffffffffffffffffffffffffffffffffffff161415156119b2576040517f08c379a00000000000000000000000000000000000000000000000000000000081526004018080602001828103825260158152602001807f61757468656e7469636174696f6e206661696c6564000000000000000000000081525060200191505060405180910390fd5b600115156119bf876138a5565b1515141515611a36576040517f08c379a00000000000000000000000000000000000000000000000000000000081526004018080602001828103825260178152602001807f64617070626f7820646f6573206e6f742065786973747300000000000000000081525060200191505060405180910390fd5b429150848160000190600019169081600019168152505083816020018190525081816040018181525050600260003373ffffffffffffffffffffffffffffffffffffffff1673ffffffffffffffffffffffffffffffffffffffff1681526020019081526020016000208190806001815401808255809150509060018203906000526020600020906003020160009091929091909150600082015181600001906000191690556020820151816001019080519060200190611af7929190613baf565b50604082015181600201555050506001925050509392505050565b600080611b1d613c2f565b8773ffffffffffffffffffffffffffffffffffffffff163373ffffffffffffffffffffffffffffffffffffffff16141515611bc0576040517f08c379a00000000000000000000000000000000000000000000000000000000081526004018080602001828103825260158152602001807f41757468656e7469636174696f6e206661696c6564000000000000000000000081525060200191505060405180910390fd5b600160003390806001815401808255809150509060018203906000526020600020016000909192909190916101000a81548173ffffffffffffffffffffffffffffffffffffffff021916908373ffffffffffffffffffffffffffffffffffffffff16021790555003915086816000019073ffffffffffffffffffffffffffffffffffffffff16908173ffffffffffffffffffffffffffffffffffffffff168152505085816020018190525042816040018181525050848160600181905250838160800181905250806001600084815260200190815260200160002060008201518160000160006101000a81548173ffffffffffffffffffffffffffffffffffffffff021916908373ffffffffffffffffffffffffffffffffffffffff1602179055506020820151816001019080519060200190611cfe929190613baf565b50604082015181600201556060820151816003019080519060200190611d25929190613baf565b506080820151816004019080519060200190611d42929190613baf565b5090505060019250505095945050505050565b600060606000806000606060008873ffffffffffffffffffffffffffffffffffffffff163373ffffffffffffffffffffffffffffffffffffffff16141515611e05576040517f08c379a00000000000000000000000000000000000000000000000000000000081526004018080602001828103825260158152602001807f61757468656e7469636174696f6e206661696c6564000000000000000000000081525060200191505060405180910390fd5b611e0f8989613952565b9350935060011515841515141515611e8f576040517f08c379a00000000000000000000000000000000000000000000000000000000081526004018080602001828103825260178152602001807f646f63756d656e7420646f6573206e6f7420657869737400000000000000000081525060200191505060405180910390fd5b600260008a73ffffffffffffffffffffffffffffffffffffffff1673ffffffffffffffffffffffffffffffffffffffff16815260200190815260200160002083815481101515611edb57fe5b90600052602060002090600302016001018054600181600116156101000203166002900480601f016020809104026020016040519081016040528092919081815260200182805460018160011615610100020316600290048015611f805780601f10611f5557610100808354040283529160200191611f80565b820191906000526020600020905b815481529060010190602001808311611f6357829003601f168201915b50505050509150600260008a73ffffffffffffffffffffffffffffffffffffffff1673ffffffffffffffffffffffffffffffffffffffff16815260200190815260200160002083815481101515611fd357fe5b9060005260206000209060030201600201549050878282965096509650505050509250925092565b600080612006613c75565b8573ffffffffffffffffffffffffffffffffffffffff163373ffffffffffffffffffffffffffffffffffffffff161415156120a9576040517f08c379a00000000000000000000000000000000000000000000000000000000081526004018080602001828103825260158152602001807f61757468656e7469636174696f6e206661696c6564000000000000000000000081525060200191505060405180910390fd5b600115156120b6876138a5565b151514151561212d576040517f08c379a00000000000000000000000000000000000000000000000000000000081526004018080602001828103825260178152602001807f64617070626f7820646f6573206e6f742065786973747300000000000000000081525060200191505060405180910390fd5b42915084816000019073ffffffffffffffffffffffffffffffffffffffff16908173ffffffffffffffffffffffffffffffffffffffff168152505083816020018190525081816040018181525050600360003373ffffffffffffffffffffffffffffffffffffffff1673ffffffffffffffffffffffffffffffffffffffff168152602001908152602001600020819080600181540180825580915050906001820390600052602060002090600302016000909192909190915060008201518160000160006101000a81548173ffffffffffffffffffffffffffffffffffffffff021916908373ffffffffffffffffffffffffffffffffffffffff1602179055506020820151816001019080519060200190612249929190613baf565b50604082015181600201555050506001925050509392505050565b6060600060608060008060008790505b600080549050811015612300576001600082815260200190815260200160002060000160009054906101000a900473ffffffffffffffffffffffffffffffffffffffff1673ffffffffffffffffffffffffffffffffffffffff168973ffffffffffffffffffffffffffffffffffffffff1614156122f357809750612300565b8080600101915050612274565b6001600080549050038810156125575760016000898152602001908152602001600020600101600160008a815260200190815260200160002060020154600160008b8152602001908152602001600020600301600160008c815260200190815260200160002060040160018c6001019c508c858054600181600116156101000203166002900480601f0160208091040260200160405190810160405280929190818152602001828054600181600116156101000203166002900480156124075780601f106123dc57610100808354040283529160200191612407565b820191906000526020600020905b8154815290600101906020018083116123ea57829003601f168201915b50505050509550838054600181600116156101000203166002900480601f0160208091040260200160405190810160405280929190818152602001828054600181600116156101000203166002900480156124a35780601f10612478576101008083540402835291602001916124a3565b820191906000526020600020905b81548152906001019060200180831161248657829003601f168201915b50505050509350828054600181600116156101000203166002900480601f01602080910402602001604051908101604052809291908181526020018280546001816001161561010002031660029004801561253f5780601f106125145761010080835404028352916020019161253f565b820191906000526020600020905b81548152906001019060200180831161252257829003601f168201915b50505050509250965096509650965096509650612797565b60016000898152602001908152602001600020600101600160008a815260200190815260200160002060020154600160008b8152602001908152602001600020600301600160008c8152602001908152602001600020600401600080858054600181600116156101000203166002900480601f0160208091040260200160405190810160405280929190818152602001828054600181600116156101000203166002900480156126485780601f1061261d57610100808354040283529160200191612648565b820191906000526020600020905b81548152906001019060200180831161262b57829003601f168201915b50505050509550838054600181600116156101000203166002900480601f0160208091040260200160405190810160405280929190818152602001828054600181600116156101000203166002900480156126e45780601f106126b9576101008083540402835291602001916126e4565b820191906000526020600020905b8154815290600101906020018083116126c757829003601f168201915b50505050509350828054600181600116156101000203166002900480601f0160208091040260200160405190810160405280929190818152602001828054600181600116156101000203166002900480156127805780601f1061275557610100808354040283529160200191612780565b820191906000526020600020905b81548152906001019060200180831161276357829003601f168201915b505050505092508090509650965096509650965096505b509295509295509295565b600060606000606060008060606000806060600060606000805490509750600096505b87871015612a6957600160008881526020019081526020016000206003018054600181600116156101000203166002900480601f0160208091040260200160405190810160405280929190818152602001828054600181600116156101000203166002900480156128775780601f1061284c57610100808354040283529160200191612877565b820191906000526020600020905b81548152906001019060200180831161285a57829003601f168201915b505050505095506128888d876136af565b9450600115158515151415612a5c576001600088815260200190815260200160002060000160009054906101000a900473ffffffffffffffffffffffffffffffffffffffff169350600160008881526020019081526020016000206001018054600181600116156101000203166002900480601f01602080910402602001604051908101604052809291908181526020018280546001816001161561010002031660029004801561297a5780601f1061294f5761010080835404028352916020019161297a565b820191906000526020600020905b81548152906001019060200180831161295d57829003601f168201915b5050505050925060016000888152602001908152602001600020600201549150600160008881526020019081526020016000206004018054600181600116156101000203166002900480601f016020809104026020016040519081016040528092919081815260200182805460018160011615610100020316600290048015612a445780601f10612a1957610100808354040283529160200191612a44565b820191906000526020600020905b815481529060010190602001808311612a2757829003601f168201915b50505050509050838383839b509b509b509b50612a6a565b86806001019750506127c5565b5b50505050505050509193509193565b6000806060600060608060008060008054905089101515612b02576040517f08c379a00000000000000000000000000000000000000000000000000000000081526004018080602001828103825260138152602001807f696e646578206f7574206f6620626f756e64730000000000000000000000000081525060200191505060405180910390fd5b600160008054905003891015612dce57600089815481101515612b2157fe5b9060005260206000200160009054906101000a900473ffffffffffffffffffffffffffffffffffffffff16600160008b815260200190815260200160002060000160009054906101000a900473ffffffffffffffffffffffffffffffffffffffff16600160008c8152602001908152602001600020600101600160008d815260200190815260200160002060020154600160008e8152602001908152602001600020600301600160008f815260200190815260200160002060040160018f6001019f508f858054600181600116156101000203166002900480601f016020809104026020016040519081016040528092919081815260200182805460018160011615610100020316600290048015612c7a5780601f10612c4f57610100808354040283529160200191612c7a565b820191906000526020600020905b815481529060010190602001808311612c5d57829003601f168201915b50505050509550838054600181600116156101000203166002900480601f016020809104026020016040519081016040528092919081815260200182805460018160011615610100020316600290048015612d165780601f10612ceb57610100808354040283529160200191612d16565b820191906000526020600020905b815481529060010190602001808311612cf957829003601f168201915b50505050509350828054600181600116156101000203166002900480601f016020809104026020016040519081016040528092919081815260200182805460018160011615610100020316600290048015612db25780601f10612d8757610100808354040283529160200191612db2565b820191906000526020600020905b815481529060010190602001808311612d9557829003601f168201915b5050505050925097509750975097509750975097509750613083565b600089815481101515612ddd57fe5b9060005260206000200160009054906101000a900473ffffffffffffffffffffffffffffffffffffffff16600160008b815260200190815260200160002060000160009054906101000a900473ffffffffffffffffffffffffffffffffffffffff16600160008c8152602001908152602001600020600101600160008d815260200190815260200160002060020154600160008e8152602001908152602001600020600301600160008f8152602001908152602001600020600401600080858054600181600116156101000203166002900480601f016020809104026020016040519081016040528092919081815260200182805460018160011615610100020316600290048015612f305780601f10612f0557610100808354040283529160200191612f30565b820191906000526020600020905b815481529060010190602001808311612f1357829003601f168201915b50505050509550838054600181600116156101000203166002900480601f016020809104026020016040519081016040528092919081815260200182805460018160011615610100020316600290048015612fcc5780601f10612fa157610100808354040283529160200191612fcc565b820191906000526020600020905b815481529060010190602001808311612faf57829003601f168201915b50505050509350828054600181600116156101000203166002900480601f0160208091040260200160405190810160405280929190818152602001828054600181600116156101000203166002900480156130685780601f1061303d57610100808354040283529160200191613068565b820191906000526020600020905b81548152906001019060200180831161304b57829003601f168201915b50505050509250809050975097509750975097509750975097505b919395975091939597565b600060606000806000606060008873ffffffffffffffffffffffffffffffffffffffff163373ffffffffffffffffffffffffffffffffffffffff1614151561313e576040517f08c379a00000000000000000000000000000000000000000000000000000000081526004018080602001828103825260158152602001807f61757468656e7469636174696f6e206661696c6564000000000000000000000081525060200191505060405180910390fd5b6131488989613a4c565b93509350600115158415151415156131c8576040517f08c379a00000000000000000000000000000000000000000000000000000000081526004018080602001828103825260178152602001807f646f63756d656e7420646f6573206e6f7420657869737400000000000000000081525060200191505060405180910390fd5b600360008a73ffffffffffffffffffffffffffffffffffffffff1673ffffffffffffffffffffffffffffffffffffffff1681526020019081526020016000208381548110151561321457fe5b90600052602060002090600302016001018054600181600116156101000203166002900480601f0160208091040260200160405190810160405280929190818152602001828054600181600116156101000203166002900480156132b95780601f1061328e576101008083540402835291602001916132b9565b820191906000526020600020905b81548152906001019060200180831161329c57829003601f168201915b50505050509150600360008a73ffffffffffffffffffffffffffffffffffffffff1673ffffffffffffffffffffffffffffffffffffffff1681526020019081526020016000208381548110151561330c57fe5b9060005260206000209060030201600201549050878282965096509650505050509250925092565b600060606000806000806000606060003373ffffffffffffffffffffffffffffffffffffffff168b73ffffffffffffffffffffffffffffffffffffffff161415156133e7576040517f08c379a00000000000000000000000000000000000000000000000000000000081526004018080602001828103825260158152602001807f61757468656e7469636174696f6e206661696c6564000000000000000000000081525060200191505060405180910390fd5b600115156133f48c6138a5565b151514151561346b576040517f08c379a00000000000000000000000000000000000000000000000000000000081526004018080602001828103825260168152602001807f6e6f20737563682064617070626f78206578697374730000000000000000000081525060200191505060405180910390fd5b600260008c73ffffffffffffffffffffffffffffffffffffffff1673ffffffffffffffffffffffffffffffffffffffff168152602001908152602001600020805490509350600260008c73ffffffffffffffffffffffffffffffffffffffff1673ffffffffffffffffffffffffffffffffffffffff1681526020019081526020016000208a8154811015156134fc57fe5b9060005260206000209060030201600001549250600260008c73ffffffffffffffffffffffffffffffffffffffff1673ffffffffffffffffffffffffffffffffffffffff1681526020019081526020016000208a81548110151561355c57fe5b90600052602060002090600302016001018054600181600116156101000203166002900480601f0160208091040260200160405190810160405280929190818152602001828054600181600116156101000203166002900480156136015780601f106135d657610100808354040283529160200191613601565b820191906000526020600020905b8154815290600101906020018083116135e457829003601f168201915b50505050509150600260008c73ffffffffffffffffffffffffffffffffffffffff1673ffffffffffffffffffffffffffffffffffffffff1681526020019081526020016000208a81548110151561365457fe5b906000526020600020906003020160020154905089806001019a5050838a101561368d5782828260018d985098509850985098506136a1565b828282600080809050985098509850985098505b505050509295509295909350565b6000815183511415156136c5576000905061389f565b816040516020018080602001828103825283818151815260200191508051906020019080838360005b838110156137095780820151818401526020810190506136ee565b50505050905090810190601f1680156137365780820380516001836020036101000a031916815260200191505b50925050506040516020818303038152906040526040518082805190602001908083835b60208310151561377f578051825260208201915060208101905060208303925061375a565b6001836020036101000a038019825116818451168082178552505050505050905001915050604051809103902060001916836040516020018080602001828103825283818151815260200191508051906020019080838360005b838110156137f45780820151818401526020810190506137d9565b50505050905090810190601f1680156138215780820380516001836020036101000a031916815260200191505b50925050506040516020818303038152906040526040518082805190602001908083835b60208310151561386a5780518252602082019150602081019050602083039250613845565b6001836020036101000a0380198251168184511680821785525050505050509050019150506040518091039020600019161490505b92915050565b600080600080600092506000805490509150600090505b81811015613947576000818154811015156138d357fe5b9060005260206000200160009054906101000a900473ffffffffffffffffffffffffffffffffffffffff1673ffffffffffffffffffffffffffffffffffffffff168573ffffffffffffffffffffffffffffffffffffffff16141561393a5760019250613947565b80806001019150506138bc565b829350505050919050565b6000806000806000806000935060009250600260008973ffffffffffffffffffffffffffffffffffffffff1673ffffffffffffffffffffffffffffffffffffffff168152602001908152602001600020805490509150600090505b81811015613a3b57600260008973ffffffffffffffffffffffffffffffffffffffff1673ffffffffffffffffffffffffffffffffffffffff16815260200190815260200160002081815481101515613a0157fe5b9060005260206000209060030201600001546000191687600019161415613a2e5760019350809250613a3b565b80806001019150506139ad565b838395509550505050509250929050565b6000806000806000806000935060009250600360008973ffffffffffffffffffffffffffffffffffffffff1673ffffffffffffffffffffffffffffffffffffffff168152602001908152602001600020805490509150600090505b81811015613b7957600360008973ffffffffffffffffffffffffffffffffffffffff1673ffffffffffffffffffffffffffffffffffffffff16815260200190815260200160002081815481101515613afb57fe5b906000526020600020906003020160000160009054906101000a900473ffffffffffffffffffffffffffffffffffffffff1673ffffffffffffffffffffffffffffffffffffffff168773ffffffffffffffffffffffffffffffffffffffff161415613b6c5760019350809250613b79565b8080600101915050613aa7565b838395509550505050509250929050565b6060604051908101604052806000801916815260200160608152602001600081525090565b828054600181600116156101000203166002900490600052602060002090601f016020900481019282601f10613bf057805160ff1916838001178555613c1e565b82800160010185558215613c1e579182015b82811115613c1d578251825591602001919060010190613c02565b5b509050613c2b9190613cad565b5090565b60a060405190810160405280600073ffffffffffffffffffffffffffffffffffffffff168152602001606081526020016000815260200160608152602001606081525090565b606060405190810160405280600073ffffffffffffffffffffffffffffffffffffffff16815260200160608152602001600081525090565b613ccf91905b80821115613ccb576000816000905550600101613cb3565b5090565b905600a165627a7a72305820365eb5a4af2cb8a74ef2aa86d648dc7317335651423b98b7174e9cf4f10bb35e0029",
  "source": "pragma solidity >=0.4.21 <0.6.0;\n\n\ncontract IdentitySmartContract\n{\n\n   /**\n    * @dev struct to store different information regarding specific user \n    */\n   struct Dictionary\n   {\n    address UserAddress;\n    string UserName;\n    uint256 RegistrationDate;\n    string DefaultURL;\n    string ShortenURL;\n   }\n\n   address[] allDappboxes;\n   mapping(uint256 => Dictionary) dictionary ;\n\n   struct fileInformation\n   {\n      bytes32 fileHash;\n      string fileName;\n      uint256 creationTime;\n   }\n\n   mapping(address => fileInformation[]) dappboxAllFiles;\n\n   struct FolderInformation\n   {\n      address folderAddress;\n      string folderName;\n      uint256 creationTime;\n   }\n   mapping(address => FolderInformation[]) dappboxAllFolders;\n\n\n   //should only be called once , whe new dappbox is created\n   /**\n    * @dev stores the details in a structure mapped to a public account of ixxo\n    * This function can only be accessed by the deployeer of the contracts\n    * @param _address : address of the entity whose information is to be stored // public user ethereum addresss\n    * @param _userName : name of the user\n    * @param _defaultURL  : default url generated at the time of register\n    * @param _shortenURL : shortened url of the user\n    * @return bool : on successful storage of user details\n    */\n   function addUsers(\n      address dAppBoxOrigin,address _address , string memory _userName , string memory _defaultURL , string memory _shortenURL \n      )public  returns (bool)\n   {\n      require(msg.sender == dAppBoxOrigin,\"Authentication failed\");\n      uint256 index = allDappboxes.push(msg.sender) - 1;\n      Dictionary memory currentUserInfo;\n\n      currentUserInfo.UserAddress = _address;\n      currentUserInfo.UserName = _userName;\n      currentUserInfo.RegistrationDate = block.timestamp ;\n      currentUserInfo.DefaultURL =_defaultURL ;\n      currentUserInfo.ShortenURL = _shortenURL;\n      dictionary[index]=(currentUserInfo);\n\n      return true ;\n   }\n\n\n   function addFileInformation(address dAppBoxOrigin,bytes32 _fileHash,string memory _fileName) public returns(bool)\n   {\n      require(msg.sender == dAppBoxOrigin,\"authentication failed\");\n      require(dappBoxExists(dAppBoxOrigin) == true,\"dappbox does not exists\");\n      uint256 createDate = block.timestamp;\n      fileInformation memory currentInfo;\n      currentInfo.fileHash =  _fileHash;\n      currentInfo.fileName = _fileName;\n      currentInfo.creationTime = createDate;\n      dappboxAllFiles[msg.sender].push(currentInfo);\n      return true;\n   }\n\n\n   function addFolderInformation(address dAppBoxOrigin,address _folderAddress, string memory _folderName) public returns(bool)\n   {\n      require(msg.sender == dAppBoxOrigin,\"authentication failed\");\n      require(dappBoxExists(dAppBoxOrigin) == true,\"dappbox does not exists\");\n      uint256 createDate = block.timestamp;\n      FolderInformation memory currentInfo;\n      currentInfo.folderAddress = _folderAddress;\n      currentInfo.folderName = _folderName;\n      currentInfo.creationTime = createDate;\n      dappboxAllFolders[msg.sender].push(currentInfo);\n      return true;\n   }\n\n\n   /**\n    * @dev get details of user by using address of the user\n    * @param _Address address of user whose info if to be fetched // user ethereum public address\n    NOTE : it returns expected value true if user dappbox has more user address\n    */\n   function getByAddress(address _Address , uint256 index) public view returns (string memory, uint256 , string memory , string memory,bool,uint256)\n   {\n      for(uint256 i=index ; i < allDappboxes.length ; i++)\n      {\n         if (_Address == dictionary[i].UserAddress)\n         {\n            index = i;\n            break;\n         }\n\n      }\n      if(index < allDappboxes.length -1)\n      {\n         return (dictionary[index].UserName,dictionary[index].RegistrationDate,dictionary[index].DefaultURL,dictionary[index].ShortenURL,true,++index);\n      }\n      else\n      {\n         return (dictionary[index].UserName,dictionary[index].RegistrationDate,dictionary[index].DefaultURL,dictionary[index].ShortenURL,false,0);\n      }\n\n   }\n\n /**\n    * @dev fetch all details of users by using username\n    * @param _UserName : name of the user by whic all other attributes are to be fetched \n    */\n   function getByUserName(string memory _UserName) public view returns (address ,uint256 ,string memory ,string memory)\n   {\n      uint256 len = allDappboxes.length;\n      for(uint256 i=0 ; i< len ; i++)\n      { string memory String = (dictionary[i].UserName) ;\n\n      bool res = compareStrings(_UserName ,String);\n         if (res == true )\n         {\n            address Address = dictionary[i].UserAddress  ;\n            uint256 Date = dictionary[i].RegistrationDate ;\n            string memory DUrl = dictionary[i].DefaultURL ;\n            string memory SUrl = dictionary[i].ShortenURL ;\n                  \n            return( Address ,Date , DUrl , SUrl);\n         }\n\n      }\n\n   }\n /**\n    * @dev fetch all the user information using URl\n    * @param _DefaultURL : URl genrated at the time of Dappbox register \n    */\n   function getByUrl(string memory _DefaultURL) public view returns (address , string memory, uint256 ,string memory)\n   {\n      uint256 len = allDappboxes.length;\n      for(uint256 i=0 ; i< len ; i++)\n      { \n          string memory URL1 =  dictionary[i].DefaultURL ; \n          bool res = compareStrings(_DefaultURL ,URL1);\n         if (res == true)\n         {\n            address Address = dictionary[i].UserAddress  ;\n            string memory Username = dictionary[i].UserName ;\n            uint256 Date = dictionary[i].RegistrationDate ;\n            string memory SUrl = dictionary[i].ShortenURL ;\n                  \n                  return(Address , Username , Date, SUrl);\n         }\n\n      }\n\n   }\n\n\n /**\n    * @dev fetch all the information about user using shortened url\n    * @param _ShortenURl : shorneded url of the url generated by dappbox \n    */\n   function getByShortUrl(string memory _ShortenURl) public view returns (address, string memory, uint256 , string memory)\n   {\n      uint256 len = allDappboxes.length;\n      for(uint256 i=0 ; i< len ; i++)\n      {\n         string memory url = dictionary[i].ShortenURL ;  \n         bool res  = compareStrings(_ShortenURl , url );\n         if (res == true)\n         {\n            address Address = dictionary[i].UserAddress  ;\n            string memory Username = dictionary[i].UserName ;\n            uint256 Date = dictionary[i].RegistrationDate ;\n            string memory DUrl = dictionary[i].DefaultURL ;\n                  \n            return (Address , Username , Date , DUrl);\n         }\n\n      }\n\n   }\n\n\n   /**\n    * @dev compares two string on the basis of length and than does the hash comparison \n    * hash formed by strings\n    * @param a : first string\n    * @param b : second string\n    */\n   function compareStrings(string memory a, string memory b) internal pure returns (bool)\n    {\n    if(bytes(a).length != bytes(b).length) {\n        return false;\n    } else {\n      return keccak256(abi.encode(a)) == keccak256(abi.encode(b));\n    }\n    }\n\n\n    function returnAllDappboxes(uint256 index) public view returns(address,address,string memory,uint256,string memory,string memory,bool,uint256 )\n    {\n       require(index < allDappboxes.length,\"index out of bounds\");\n            if(index < allDappboxes.length-1)\n            {\n       return(allDappboxes[index],dictionary[index].UserAddress,dictionary[index].UserName,dictionary[index].RegistrationDate,dictionary[index].DefaultURL,dictionary[index].ShortenURL,true,++index);\n            }\n      else\n      {\n      return(allDappboxes[index],dictionary[index].UserAddress,dictionary[index].UserName,dictionary[index].RegistrationDate,dictionary[index].DefaultURL,dictionary[index].ShortenURL,false,0);\n    }\n    }\n\n\n   function returnAllDappboxFiles(address dappboxAddress ,uint256 index) public view returns(bytes32,string memory,uint256,bool,uint256)\n   {\n      require(dappboxAddress == msg.sender,\"authentication failed\");\n      require(dappBoxExists(dappboxAddress) == true,\"no such dappbox exists\");\n      uint256 len = dappboxAllFiles[dappboxAddress].length;\n      bytes32 fileHash = dappboxAllFiles[dappboxAddress][index].fileHash;\n      string memory fileName = dappboxAllFiles[dappboxAddress][index].fileName;\n      uint256 createTime = dappboxAllFiles[dappboxAddress][index].creationTime;\n\n      index++;\n      if(index < len)\n      {\n         return(fileHash,fileName,createTime,true,index);\n      }\n      else\n      {\n         return(fileHash,fileName,createTime,false,0);\n      }\n\n   }\n\n   function returnAllDappboxFolders(address dappboxAddress ,uint256 index) public view returns(address,string memory,uint256,bool,uint256)\n   {\n      require(dappboxAddress == msg.sender,\"authentication failed\");\n      require(dappBoxExists(dappboxAddress) == true,\"no such dappbox exists\");\n      uint256 len = dappboxAllFolders[dappboxAddress].length;\n      address folderAddress = dappboxAllFolders[dappboxAddress][index].folderAddress;\n      string memory folderName = dappboxAllFolders[dappboxAddress][index].folderName;\n      uint256 createTime = dappboxAllFolders[dappboxAddress][index].creationTime;\n\n      index++;\n      if(index < len)\n      {\n         return(folderAddress,folderName,createTime,true,index);\n      }\n      else\n      {\n         return(folderAddress,folderName,createTime,false,0);\n      }\n\n\n   }\n\n   \n   function returnFileInformation(address dappboxAddress,bytes32 fileHash) public view returns(bytes32, string memory,uint256)\n   {\n      require(msg.sender == dappboxAddress ,\"authentication failed\");\n      (bool res,uint256 index) = checkFileExists(dappboxAddress,fileHash);\n      require(res == true,\"document does not exist\");\n      string memory fileName =dappboxAllFiles[dappboxAddress][index].fileName;\n      uint256 createDate = dappboxAllFiles[dappboxAddress][index].creationTime;\n      return(fileHash,fileName,createDate);   \n   }\n    \n   function returnFolderInformation(address dappboxAddress,address FolderAddress) public view returns(address,string memory,uint256)\n   {\n      require(msg.sender == dappboxAddress ,\"authentication failed\");\n      (bool res,uint256 index) = checkFolderExists(dappboxAddress,FolderAddress);\n      require(res == true,\"document does not exist\");\n      string memory folderName =dappboxAllFolders[dappboxAddress][index].folderName;\n      uint256 createDate = dappboxAllFolders[dappboxAddress][index].creationTime;\n      return(FolderAddress,folderName,createDate);      \n   }\n\n\n   function dappBoxExists(address dappboxAddress) internal view returns(bool)\n   {\n      bool res = false;\n      uint256 len = allDappboxes.length;\n      for(uint256 i = 0 ; i< len ; i++)\n      {\n         if(dappboxAddress == allDappboxes[i])\n         {\n            res = true;\n            break;\n         }\n      }\n\n      return res;\n   }\n\n\n   function checkFileExists(address dappboxAddress, bytes32 filehash) internal view returns(bool,uint256)\n   {\n       bool res = false;\n       uint256 index =0;\n       uint256 len = dappboxAllFiles[dappboxAddress].length;\n       for(uint256 i = 0 ; i< len ; i++)\n       {\n          if(filehash == dappboxAllFiles[dappboxAddress][i].fileHash)\n          {\n             res = true;\n             index =i;\n             break;\n          }\n       }\n       return (res,index);\n\n   }\n\n\n   function checkFolderExists(address dappboxAddress, address folderAddress) internal view returns(bool,uint256)\n   {\n       bool res = false;\n       uint256 index = 0;\n       uint256 len = dappboxAllFolders[dappboxAddress].length;\n       for(uint256 i = 0 ; i< len ; i++)\n       {\n           if(folderAddress == dappboxAllFolders[dappboxAddress][i].folderAddress)\n          {\n             res = true;\n             index = i;\n             break;\n          }\n       }\n       return (res,index);\n          \n   }\n\n}\n",
  "sourcePath": "/home/sagar/Desktop/delivery final/28_may_ixxo_allsmart_contract/ixxo_smartcontracts/Identity/contracts/IdentitySmartContract.sol",
  "compiler": {
    "name": "solc",
    "version": "0.4.25+commit.59dbf8f1.Emscripten.clang"
  },
  "schemaVersion": "3.0.6",
  "updatedAt": "2019-05-28T12:03:05.973Z",
  "devdoc": {
    "methods": {
      "addUsers(address,address,string,string,string)": {
        "details": "stores the details in a structure mapped to a public account of ixxo This function can only be accessed by the deployeer of the contracts",
        "params": {
          "_address": ": address of the entity whose information is to be stored // public user ethereum addresss",
          "_defaultURL": ": default url generated at the time of register",
          "_shortenURL": ": shortened url of the user",
          "_userName": ": name of the user"
        },
        "return": "bool : on successful storage of user details"
      },
      "getByAddress(address,uint256)": {
        "details": "get details of user by using address of the user",
        "params": {
          "_Address": "address of user whose info if to be fetched // user ethereum public address NOTE : it returns expected value true if user dappbox has more user address"
        }
      },
      "getByShortUrl(string)": {
        "details": "fetch all the information about user using shortened url",
        "params": {
          "_ShortenURl": ": shorneded url of the url generated by dappbox "
        }
      },
      "getByUrl(string)": {
        "details": "fetch all the user information using URl",
        "params": {
          "_DefaultURL": ": URl genrated at the time of Dappbox register "
        }
      },
      "getByUserName(string)": {
        "details": "fetch all details of users by using username",
        "params": {
          "_UserName": ": name of the user by whic all other attributes are to be fetched "
        }
      }
    }
  },
  "userdoc": {
    "methods": {}
  }
}