{
  "contractName": "deps",
  "abi": [
    {
      "constant": true,
      "inputs": [
        {
          "name": "",
          "type": "bytes32"
        },
        {
          "name": "",
          "type": "uint256"
        }
      ],
      "name": "folderQrCodeWithTime",
      "outputs": [
        {
          "name": "folderAddress",
          "type": "address"
        },
        {
          "name": "index",
          "type": "uint256"
        }
      ],
      "payable": false,
      "stateMutability": "view",
      "type": "function"
    },
    {
      "constant": true,
      "inputs": [
        {
          "name": "timestamp",
          "type": "uint256"
        }
      ],
      "name": "getHour",
      "outputs": [
        {
          "name": "",
          "type": "uint8"
        }
      ],
      "payable": false,
      "stateMutability": "pure",
      "type": "function"
    },
    {
      "constant": true,
      "inputs": [
        {
          "name": "",
          "type": "bytes32"
        },
        {
          "name": "",
          "type": "uint256"
        }
      ],
      "name": "fileQrCodeWithTime",
      "outputs": [
        {
          "name": "hashFile",
          "type": "bytes32"
        },
        {
          "name": "index",
          "type": "uint256"
        }
      ],
      "payable": false,
      "stateMutability": "view",
      "type": "function"
    },
    {
      "constant": true,
      "inputs": [
        {
          "name": "timestamp",
          "type": "uint256"
        }
      ],
      "name": "getWeekday",
      "outputs": [
        {
          "name": "",
          "type": "uint8"
        }
      ],
      "payable": false,
      "stateMutability": "pure",
      "type": "function"
    },
    {
      "constant": true,
      "inputs": [
        {
          "name": "year",
          "type": "uint16"
        },
        {
          "name": "month",
          "type": "uint8"
        },
        {
          "name": "day",
          "type": "uint8"
        },
        {
          "name": "hour",
          "type": "uint8"
        },
        {
          "name": "minute",
          "type": "uint8"
        }
      ],
      "name": "toTimestamp",
      "outputs": [
        {
          "name": "timestamp",
          "type": "uint256"
        }
      ],
      "payable": false,
      "stateMutability": "pure",
      "type": "function"
    },
    {
      "constant": true,
      "inputs": [
        {
          "name": "timestamp",
          "type": "uint256"
        }
      ],
      "name": "getDay",
      "outputs": [
        {
          "name": "",
          "type": "uint8"
        }
      ],
      "payable": false,
      "stateMutability": "pure",
      "type": "function"
    },
    {
      "constant": true,
      "inputs": [
        {
          "name": "",
          "type": "bytes32"
        },
        {
          "name": "",
          "type": "uint256"
        }
      ],
      "name": "folderQrCodeWithoutTime",
      "outputs": [
        {
          "name": "folderAddress",
          "type": "address"
        },
        {
          "name": "index",
          "type": "uint256"
        }
      ],
      "payable": false,
      "stateMutability": "view",
      "type": "function"
    },
    {
      "constant": true,
      "inputs": [
        {
          "name": "year",
          "type": "uint16"
        },
        {
          "name": "month",
          "type": "uint8"
        },
        {
          "name": "day",
          "type": "uint8"
        },
        {
          "name": "hour",
          "type": "uint8"
        }
      ],
      "name": "toTimestamp",
      "outputs": [
        {
          "name": "timestamp",
          "type": "uint256"
        }
      ],
      "payable": false,
      "stateMutability": "pure",
      "type": "function"
    },
    {
      "constant": true,
      "inputs": [
        {
          "name": "timestamp",
          "type": "uint256"
        }
      ],
      "name": "getSecond",
      "outputs": [
        {
          "name": "",
          "type": "uint8"
        }
      ],
      "payable": false,
      "stateMutability": "pure",
      "type": "function"
    },
    {
      "constant": true,
      "inputs": [
        {
          "name": "year",
          "type": "uint16"
        },
        {
          "name": "month",
          "type": "uint8"
        },
        {
          "name": "day",
          "type": "uint8"
        }
      ],
      "name": "toTimestamp",
      "outputs": [
        {
          "name": "timestamp",
          "type": "uint256"
        }
      ],
      "payable": false,
      "stateMutability": "pure",
      "type": "function"
    },
    {
      "constant": true,
      "inputs": [
        {
          "name": "year",
          "type": "uint16"
        },
        {
          "name": "month",
          "type": "uint8"
        },
        {
          "name": "day",
          "type": "uint8"
        },
        {
          "name": "hour",
          "type": "uint8"
        },
        {
          "name": "minute",
          "type": "uint8"
        },
        {
          "name": "second",
          "type": "uint8"
        }
      ],
      "name": "toTimestamp",
      "outputs": [
        {
          "name": "timestamp",
          "type": "uint256"
        }
      ],
      "payable": false,
      "stateMutability": "pure",
      "type": "function"
    },
    {
      "constant": true,
      "inputs": [
        {
          "name": "timestamp",
          "type": "uint256"
        }
      ],
      "name": "getYear",
      "outputs": [
        {
          "name": "",
          "type": "uint16"
        }
      ],
      "payable": false,
      "stateMutability": "pure",
      "type": "function"
    },
    {
      "constant": true,
      "inputs": [
        {
          "name": "",
          "type": "bytes32"
        }
      ],
      "name": "usedFileHashes",
      "outputs": [
        {
          "name": "",
          "type": "bool"
        }
      ],
      "payable": false,
      "stateMutability": "view",
      "type": "function"
    },
    {
      "constant": true,
      "inputs": [
        {
          "name": "",
          "type": "bytes32"
        },
        {
          "name": "",
          "type": "uint256"
        }
      ],
      "name": "fileProofs",
      "outputs": [
        {
          "name": "sender",
          "type": "address"
        },
        {
          "name": "receiver",
          "type": "address"
        },
        {
          "name": "fileHash",
          "type": "bytes32"
        },
        {
          "name": "timestamp",
          "type": "uint256"
        },
        {
          "name": "QR",
          "type": "bytes32"
        },
        {
          "name": "QRTime",
          "type": "bytes32"
        }
      ],
      "payable": false,
      "stateMutability": "view",
      "type": "function"
    },
    {
      "constant": true,
      "inputs": [
        {
          "name": "timestamp",
          "type": "uint256"
        }
      ],
      "name": "getMonth",
      "outputs": [
        {
          "name": "",
          "type": "uint8"
        }
      ],
      "payable": false,
      "stateMutability": "pure",
      "type": "function"
    },
    {
      "constant": true,
      "inputs": [
        {
          "name": "year",
          "type": "uint16"
        }
      ],
      "name": "isLeapYear",
      "outputs": [
        {
          "name": "",
          "type": "bool"
        }
      ],
      "payable": false,
      "stateMutability": "pure",
      "type": "function"
    },
    {
      "constant": true,
      "inputs": [
        {
          "name": "year",
          "type": "uint256"
        }
      ],
      "name": "leapYearsBefore",
      "outputs": [
        {
          "name": "",
          "type": "uint256"
        }
      ],
      "payable": false,
      "stateMutability": "pure",
      "type": "function"
    },
    {
      "constant": true,
      "inputs": [
        {
          "name": "month",
          "type": "uint8"
        },
        {
          "name": "year",
          "type": "uint16"
        }
      ],
      "name": "getDaysInMonth",
      "outputs": [
        {
          "name": "",
          "type": "uint8"
        }
      ],
      "payable": false,
      "stateMutability": "pure",
      "type": "function"
    },
    {
      "constant": true,
      "inputs": [
        {
          "name": "",
          "type": "address"
        }
      ],
      "name": "usedFolderAddresses",
      "outputs": [
        {
          "name": "",
          "type": "bool"
        }
      ],
      "payable": false,
      "stateMutability": "view",
      "type": "function"
    },
    {
      "constant": true,
      "inputs": [
        {
          "name": "",
          "type": "address"
        },
        {
          "name": "",
          "type": "uint256"
        }
      ],
      "name": "folderProofs",
      "outputs": [
        {
          "name": "sender",
          "type": "address"
        },
        {
          "name": "receiver",
          "type": "address"
        },
        {
          "name": "folderAddress",
          "type": "address"
        },
        {
          "name": "timestamp",
          "type": "uint256"
        },
        {
          "name": "QR",
          "type": "bytes32"
        },
        {
          "name": "QRTime",
          "type": "bytes32"
        }
      ],
      "payable": false,
      "stateMutability": "view",
      "type": "function"
    },
    {
      "constant": true,
      "inputs": [
        {
          "name": "",
          "type": "bytes32"
        },
        {
          "name": "",
          "type": "uint256"
        }
      ],
      "name": "fileQrCodeWithoutTime",
      "outputs": [
        {
          "name": "hashFile",
          "type": "bytes32"
        },
        {
          "name": "index",
          "type": "uint256"
        }
      ],
      "payable": false,
      "stateMutability": "view",
      "type": "function"
    },
    {
      "constant": true,
      "inputs": [
        {
          "name": "timestamp",
          "type": "uint256"
        }
      ],
      "name": "getMinute",
      "outputs": [
        {
          "name": "",
          "type": "uint8"
        }
      ],
      "payable": false,
      "stateMutability": "pure",
      "type": "function"
    },
    {
      "constant": false,
      "inputs": [
        {
          "name": "_sender",
          "type": "address"
        },
        {
          "name": "_receiver",
          "type": "address"
        },
        {
          "name": "_fileHash",
          "type": "bytes32"
        },
        {
          "name": "time",
          "type": "uint256"
        },
        {
          "name": "QRWithNoTime",
          "type": "bytes32"
        },
        {
          "name": "QRWithTime",
          "type": "bytes32"
        }
      ],
      "name": "_createFileTransferProof",
      "outputs": [
        {
          "name": "",
          "type": "bool"
        }
      ],
      "payable": false,
      "stateMutability": "nonpayable",
      "type": "function"
    },
    {
      "constant": false,
      "inputs": [
        {
          "name": "_sender",
          "type": "address"
        },
        {
          "name": "_receiver",
          "type": "address"
        },
        {
          "name": "_folderAddress",
          "type": "address"
        },
        {
          "name": "time",
          "type": "uint256"
        },
        {
          "name": "QRWithNoTime",
          "type": "bytes32"
        },
        {
          "name": "QRWithTime",
          "type": "bytes32"
        }
      ],
      "name": "_createFolderTransferProof",
      "outputs": [
        {
          "name": "",
          "type": "bool"
        }
      ],
      "payable": false,
      "stateMutability": "nonpayable",
      "type": "function"
    }
  ],
  "bytecode": "0x608060405234801561001057600080fd5b50611fd8806100206000396000f3fe60806040526004361061013e576000357c0100000000000000000000000000000000000000000000000000000000900463ffffffff1680632c0c3e06146101435780633e239e1a146101cf57806341019886146102245780634ac1ad781461028457806362ba9687146102d957806365c728401461036057806370850554146103b55780637f791833146104415780638aa001fc146104bb5780638c8d98a0146105105780638e0f57961461057d5780639054bdec1461062e57806392d66313146106c25780639b1e9253146107195780639f2133931461076c578063a324ad2414610840578063a6f0e57714610895578063b1999937146108ec578063b238ad0e1461093b578063b3f85998146109a1578063babc5b6614610a0a578063ce7121b714610b20578063cf8b0f6c14610be7578063fa93f88314610c47575b600080fd5b34801561014f57600080fd5b506101866004803603604081101561016657600080fd5b810190808035906020019092919080359060200190929190505050610c9c565b604051808373ffffffffffffffffffffffffffffffffffffffff1673ffffffffffffffffffffffffffffffffffffffff1681526020018281526020019250505060405180910390f35b3480156101db57600080fd5b50610208600480360360208110156101f257600080fd5b8101908080359060200190929190505050610cfc565b604051808260ff1660ff16815260200191505060405180910390f35b34801561023057600080fd5b506102676004803603604081101561024757600080fd5b810190808035906020019092919080359060200190929190505050610d29565b604051808381526020018281526020019250505060405180910390f35b34801561029057600080fd5b506102bd600480360360208110156102a757600080fd5b8101908080359060200190929190505050610d69565b604051808260ff1660ff16815260200191505060405180910390f35b3480156102e557600080fd5b5061034a600480360360a08110156102fc57600080fd5b81019080803561ffff169060200190929190803560ff169060200190929190803560ff169060200190929190803560ff169060200190929190803560ff169060200190929190505050610d90565b6040518082815260200191505060405180910390f35b34801561036c57600080fd5b506103996004803603602081101561038357600080fd5b8101908080359060200190929190505050610dac565b604051808260ff1660ff16815260200191505060405180910390f35b3480156103c157600080fd5b506103f8600480360360408110156103d857600080fd5b810190808035906020019092919080359060200190929190505050610dc2565b604051808373ffffffffffffffffffffffffffffffffffffffff1673ffffffffffffffffffffffffffffffffffffffff1681526020018281526020019250505060405180910390f35b34801561044d57600080fd5b506104a56004803603608081101561046457600080fd5b81019080803561ffff169060200190929190803560ff169060200190929190803560ff169060200190929190803560ff169060200190929190505050610e22565b6040518082815260200191505060405180910390f35b3480156104c757600080fd5b506104f4600480360360208110156104de57600080fd5b8101908080359060200190929190505050610e3d565b604051808260ff1660ff16815260200191505060405180910390f35b34801561051c57600080fd5b506105676004803603606081101561053357600080fd5b81019080803561ffff169060200190929190803560ff169060200190929190803560ff169060200190929190505050610e53565b6040518082815260200191505060405180910390f35b34801561058957600080fd5b50610614600480360360c08110156105a057600080fd5b81019080803573ffffffffffffffffffffffffffffffffffffffff169060200190929190803573ffffffffffffffffffffffffffffffffffffffff16906020019092919080359060200190929190803590602001909291908035906020019092919080359060200190929190505050610e6e565b604051808215151515815260200191505060405180910390f35b34801561063a57600080fd5b506106ac600480360360c081101561065157600080fd5b81019080803561ffff169060200190929190803560ff169060200190929190803560ff169060200190929190803560ff169060200190929190803560ff169060200190929190803560ff169060200190929190505050611129565b6040518082815260200191505060405180910390f35b3480156106ce57600080fd5b506106fb600480360360208110156106e557600080fd5b81019080803590602001909291905050506113d0565b604051808261ffff1661ffff16815260200191505060405180910390f35b34801561072557600080fd5b506107526004803603602081101561073c57600080fd5b810190808035906020019092919050505061147b565b604051808215151515815260200191505060405180910390f35b34801561077857600080fd5b506107af6004803603604081101561078f57600080fd5b81019080803590602001909291908035906020019092919050505061149b565b604051808773ffffffffffffffffffffffffffffffffffffffff1673ffffffffffffffffffffffffffffffffffffffff1681526020018673ffffffffffffffffffffffffffffffffffffffff1673ffffffffffffffffffffffffffffffffffffffff168152602001858152602001848152602001838152602001828152602001965050505050505060405180910390f35b34801561084c57600080fd5b506108796004803603602081101561086357600080fd5b8101908080359060200190929190505050611533565b604051808260ff1660ff16815260200191505060405180910390f35b3480156108a157600080fd5b506108d2600480360360208110156108b857600080fd5b81019080803561ffff169060200190929190505050611549565b604051808215151515815260200191505060405180910390f35b3480156108f857600080fd5b506109256004803603602081101561090f57600080fd5b81019080803590602001909291905050506115ca565b6040518082815260200191505060405180910390f35b34801561094757600080fd5b506109856004803603604081101561095e57600080fd5b81019080803560ff169060200190929190803561ffff169060200190929190505050611603565b604051808260ff1660ff16815260200191505060405180910390f35b3480156109ad57600080fd5b506109f0600480360360208110156109c457600080fd5b81019080803573ffffffffffffffffffffffffffffffffffffffff1690602001909291905050506116cf565b604051808215151515815260200191505060405180910390f35b348015610a1657600080fd5b50610a6360048036036040811015610a2d57600080fd5b81019080803573ffffffffffffffffffffffffffffffffffffffff169060200190929190803590602001909291905050506116ef565b604051808773ffffffffffffffffffffffffffffffffffffffff1673ffffffffffffffffffffffffffffffffffffffff1681526020018673ffffffffffffffffffffffffffffffffffffffff1673ffffffffffffffffffffffffffffffffffffffff1681526020018573ffffffffffffffffffffffffffffffffffffffff1673ffffffffffffffffffffffffffffffffffffffff168152602001848152602001838152602001828152602001965050505050505060405180910390f35b348015610b2c57600080fd5b50610bcd600480360360c0811015610b4357600080fd5b81019080803573ffffffffffffffffffffffffffffffffffffffff169060200190929190803573ffffffffffffffffffffffffffffffffffffffff169060200190929190803573ffffffffffffffffffffffffffffffffffffffff1690602001909291908035906020019092919080359060200190929190803590602001909291905050506117a7565b604051808215151515815260200191505060405180910390f35b348015610bf357600080fd5b50610c2a60048036036040811015610c0a57600080fd5b810190808035906020019092919080359060200190929190505050611bfa565b604051808381526020018281526020019250505060405180910390f35b348015610c5357600080fd5b50610c8060048036036020811015610c6a57600080fd5b8101908080359060200190929190505050611c3a565b604051808260ff1660ff16815260200191505060405180910390f35b600560205281600052604060002081815481101515610cb757fe5b9060005260206000209060020201600091509150508060000160009054906101000a900473ffffffffffffffffffffffffffffffffffffffff16908060010154905082565b60006018603c8084811515610d0d57fe5b04811515610d1757fe5b04811515610d2157fe5b069050919050565b600360205281600052604060002081815481101515610d4457fe5b9060005260206000209060020201600091509150508060000154908060010154905082565b6000600760046201518084811515610d7d57fe5b0401811515610d8857fe5b069050919050565b6000610da186868686866000611129565b905095945050505050565b6000610db782611c5b565b604001519050919050565b600460205281600052604060002081815481101515610ddd57fe5b9060005260206000209060020201600091509150508060000160009054906101000a900473ffffffffffffffffffffffffffffffffffffffff16908060010154905082565b6000610e3385858585600080611129565b9050949350505050565b6000603c82811515610e4b57fe5b069050919050565b6000610e658484846000806000611129565b90509392505050565b6000610e78611dfc565b87816000019073ffffffffffffffffffffffffffffffffffffffff16908173ffffffffffffffffffffffffffffffffffffffff168152505086816020019073ffffffffffffffffffffffffffffffffffffffff16908173ffffffffffffffffffffffffffffffffffffffff1681525050858160400181815250508481606001818152505083816080018181525050838160a0018181525050600080878152602001908152602001600020819080600181540180825580915050906001820390600052602060002090600602016000909192909190915060008201518160000160006101000a81548173ffffffffffffffffffffffffffffffffffffffff021916908373ffffffffffffffffffffffffffffffffffffffff16021790555060208201518160010160006101000a81548173ffffffffffffffffffffffffffffffffffffffff021916908373ffffffffffffffffffffffffffffffffffffffff16021790555060408201518160020155606082015181600301556080820151816004015560a08201518160050155505050600060016000808981526020019081526020016000208054905003905061102c611e68565b8781600001818152505081816020018181525050600260008781526020019081526020016000208190806001815401808255809150509060018203906000526020600020906002020160009091929091909150600082015181600001556020820151816001015550505060036000868152602001908152602001600020819080600181540180825580915050906001820390600052602060002090600202016000909192909190915060008201518160000155602082015181600101555050506001600660008a815260200190815260200160002060006101000a81548160ff021916908315150217905550600193505050509695505050505050565b6000806107b290505b8761ffff168161ffff1610156111755761114b81611549565b1561115e576301e2850082019150611168565b6301e13380820191505b8080600101915050611132565b61117d611e85565b601f816000600c8110151561118e57fe5b602002019060ff16908160ff16815250506111a889611549565b156111d457601d816001600c811015156111be57fe5b602002019060ff16908160ff16815250506111f7565b601c816001600c811015156111e557fe5b602002019060ff16908160ff16815250505b601f816002600c8110151561120857fe5b602002019060ff16908160ff1681525050601e816003600c8110151561122a57fe5b602002019060ff16908160ff1681525050601f816004600c8110151561124c57fe5b602002019060ff16908160ff1681525050601e816005600c8110151561126e57fe5b602002019060ff16908160ff1681525050601f816006600c8110151561129057fe5b602002019060ff16908160ff1681525050601f816007600c811015156112b257fe5b602002019060ff16908160ff1681525050601e816008600c811015156112d457fe5b602002019060ff16908160ff1681525050601f816009600c811015156112f657fe5b602002019060ff16908160ff1681525050601e81600a600c8110151561131857fe5b602002019060ff16908160ff1681525050601f81600b600c8110151561133a57fe5b602002019060ff16908160ff1681525050600191505b8760ff168261ffff16101561139257806001830361ffff16600c8110151561137457fe5b602002015160ff166201518002830192508180600101925050611350565b6001870360ff166201518002830192508560ff16610e1002830192508460ff16603c02830192508360ff168301925082925050509695505050505050565b600080600090506000806301e13380858115156113e957fe5b046107b261ffff160191506114036107b261ffff166115ca565b6114108361ffff166115ca565b039050806301e285000283019250806107b2830361ffff16036301e1338002830192505b848311156114705761144860018303611549565b1561145b576301e2850083039250611465565b6301e13380830392505b600182039150611434565b819350505050919050565b60066020528060005260406000206000915054906101000a900460ff1681565b6000602052816000526040600020818154811015156114b657fe5b9060005260206000209060060201600091509150508060000160009054906101000a900473ffffffffffffffffffffffffffffffffffffffff16908060010160009054906101000a900473ffffffffffffffffffffffffffffffffffffffff16908060020154908060030154908060040154908060050154905086565b600061153e82611c5b565b602001519050919050565b60008060048361ffff1681151561155c57fe5b0661ffff1614151561157157600090506115c5565b600060648361ffff1681151561158357fe5b0661ffff1614151561159857600190506115c5565b60006101908361ffff168115156115ab57fe5b0661ffff161415156115c057600090506115c5565b600190505b919050565b6000600182039150610190828115156115df57fe5b046064838115156115ec57fe5b046004848115156115f957fe5b0403019050919050565b600060018360ff16148061161a575060038360ff16145b80611628575060058360ff16145b80611636575060078360ff16145b80611644575060088360ff16145b806116525750600a8360ff16145b806116605750600c8360ff16145b1561166e57601f90506116c9565b60048360ff161480611683575060068360ff16145b80611691575060098360ff16145b8061169f5750600b8360ff16145b156116ad57601e90506116c9565b6116b682611549565b156116c457601d90506116c9565b601c90505b92915050565b60076020528060005260406000206000915054906101000a900460ff1681565b60016020528160005260406000208181548110151561170a57fe5b9060005260206000209060060201600091509150508060000160009054906101000a900473ffffffffffffffffffffffffffffffffffffffff16908060010160009054906101000a900473ffffffffffffffffffffffffffffffffffffffff16908060020160009054906101000a900473ffffffffffffffffffffffffffffffffffffffff16908060030154908060040154908060050154905086565b60006117b1611ea9565b87816000019073ffffffffffffffffffffffffffffffffffffffff16908173ffffffffffffffffffffffffffffffffffffffff168152505086816020019073ffffffffffffffffffffffffffffffffffffffff16908173ffffffffffffffffffffffffffffffffffffffff168152505085816040019073ffffffffffffffffffffffffffffffffffffffff16908173ffffffffffffffffffffffffffffffffffffffff16815250508481606001818152505083816080018181525050838160a0018181525050600160008773ffffffffffffffffffffffffffffffffffffffff1673ffffffffffffffffffffffffffffffffffffffff168152602001908152602001600020819080600181540180825580915050906001820390600052602060002090600602016000909192909190915060008201518160000160006101000a81548173ffffffffffffffffffffffffffffffffffffffff021916908373ffffffffffffffffffffffffffffffffffffffff16021790555060208201518160010160006101000a81548173ffffffffffffffffffffffffffffffffffffffff021916908373ffffffffffffffffffffffffffffffffffffffff16021790555060408201518160020160006101000a81548173ffffffffffffffffffffffffffffffffffffffff021916908373ffffffffffffffffffffffffffffffffffffffff160217905550606082015181600301556080820151816004015560a08201518160050155505050600060018060008973ffffffffffffffffffffffffffffffffffffffff1673ffffffffffffffffffffffffffffffffffffffff16815260200190815260200160002080549050039050611a29611f28565b87816000019073ffffffffffffffffffffffffffffffffffffffff16908173ffffffffffffffffffffffffffffffffffffffff16815250508181602001818152505060046000878152602001908152602001600020819080600181540180825580915050906001820390600052602060002090600202016000909192909190915060008201518160000160006101000a81548173ffffffffffffffffffffffffffffffffffffffff021916908373ffffffffffffffffffffffffffffffffffffffff1602179055506020820151816001015550505060056000868152602001908152602001600020819080600181540180825580915050906001820390600052602060002090600202016000909192909190915060008201518160000160006101000a81548173ffffffffffffffffffffffffffffffffffffffff021916908373ffffffffffffffffffffffffffffffffffffffff160217905550602082015181600101555050506001600760008a73ffffffffffffffffffffffffffffffffffffffff1673ffffffffffffffffffffffffffffffffffffffff16815260200190815260200160002060006101000a81548160ff021916908315150217905550600193505050509695505050505050565b600260205281600052604060002081815481101515611c1557fe5b9060005260206000209060020201600091509150508060000154908060010154905082565b6000603c8083811515611c4957fe5b04811515611c5357fe5b069050919050565b611c63611f58565b6000809050600080611c74856113d0565b846000019061ffff16908161ffff1681525050611c966107b261ffff166115ca565b611ca7856000015161ffff166115ca565b039150816301e285000283019250816107b285600001510361ffff16036301e1338002830192506000600191505b600c8260ff16111515611d2d57611cf0828660000151611603565b60ff1662015180029050858482011115611d1b5781856020019060ff16908160ff1681525050611d2d565b80840193508180600101925050611cd5565b600191505b611d4485602001518660000151611603565b60ff168260ff16111515611d8b57858462015180011115611d765781856040019060ff16908160ff1681525050611d8b565b62015180840193508180600101925050611d32565b611d9486610cfc565b856060019060ff16908160ff1681525050611dae86611c3a565b856080019060ff16908160ff1681525050611dc886610e3d565b8560a0019060ff16908160ff1681525050611de286610d69565b8560c0019060ff16908160ff168152505050505050919050565b60c060405190810160405280600073ffffffffffffffffffffffffffffffffffffffff168152602001600073ffffffffffffffffffffffffffffffffffffffff168152602001600080191681526020016000815260200160008019168152602001600080191681525090565b604080519081016040528060008019168152602001600081525090565b61018060405190810160405280600c90602082028038833980820191505090505090565b60c060405190810160405280600073ffffffffffffffffffffffffffffffffffffffff168152602001600073ffffffffffffffffffffffffffffffffffffffff168152602001600073ffffffffffffffffffffffffffffffffffffffff1681526020016000815260200160008019168152602001600080191681525090565b6040805190810160405280600073ffffffffffffffffffffffffffffffffffffffff168152602001600081525090565b60e060405190810160405280600061ffff168152602001600060ff168152602001600060ff168152602001600060ff168152602001600060ff168152602001600060ff168152602001600060ff168152509056fea165627a7a72305820c8cd000bd5cbc2164a1c944dc56ead07841c8edfd766f422674ccbcebc12cd870029",
  "source": "pragma solidity >=0.4.21 <0.6.0;\n\nimport \"./Deps/DateTime.sol\";\n\n\n//NOTE: we are using different function for QR code generation ,different mapping ,etc because , \n//for file code we are using FILE HASH as main element and for folder code we are using FOLDER ADDRESS\n\ncontract deps is DateTime \n{ \n\n  /**\n   * @dev struture to store File transfer related information\n   */\n    struct FileProof\n    {\n        address sender;\n        address receiver;\n        bytes32 fileHash;\n        uint256 timestamp;\n        bytes32 QR;\n        bytes32 QRTime;\n    }\n  /**\n   * @dev structure to store Folder transfer related information\n   */\n    struct FolderProof\n    {\n        address sender;\n        address receiver;\n        address folderAddress;\n        uint256 timestamp;\n        bytes32 QR;\n        bytes32 QRTime;\n    }\n\n    struct FileQRWithIndex\n    {\n        bytes32 hashFile;\n        uint256 index;\n    }\n\n    struct FolderQRWithIndex\n    {\n        address folderAddress;\n        uint256 index;\n    }\n\n  /**\n   * @dev mapping to map the proof and QR codes(both with and Without time)\n   * @mapping fileProofs , map the struct of file proof with file hash as its key\n   * @mapoing folderProofs , map the struct of folder proof with folder hash as its key\n   * @mapping fileQrCodeWithoutTime , map the QR code with file  hash as key . It helps in searching proof via QR\n   * @mapping fileQrCodeWithTime , map the QR code with Time with file hash as key   \n   * @mapping folderQrCodeWithoutTime , map the QR code with folder address as key . It helps in searching proof via QR\n   * @mapping folderQrCodeWithTime , map the QR code with Time with folder address as key   \n   */\n    mapping (bytes32 => FileProof[]) public fileProofs; // this allows to look up proof of transfer by the hashfile\n    mapping (address => FolderProof[]) public folderProofs;\n    mapping (bytes32 => FileQRWithIndex[]) public fileQrCodeWithoutTime; //  QrCode => hashFile\n    mapping (bytes32 => FileQRWithIndex[]) public fileQrCodeWithTime;\n    mapping (bytes32 => FolderQRWithIndex[]) public folderQrCodeWithoutTime; //  QrCode => hashFile\n    mapping (bytes32 => FolderQRWithIndex[]) public folderQrCodeWithTime;\n\n    mapping(bytes32 => bool) public usedFileHashes;\n    mapping(address => bool) public usedFolderAddresses;\n\n\n\n\n\n\n    function _createFileTransferProof(address _sender, address _receiver, bytes32 _fileHash,uint256 time, bytes32 QRWithNoTime ,bytes32 QRWithTime) public returns (bool)\n    {\n        FileProof memory currentInfo;\n        currentInfo.sender = _sender;\n        currentInfo.receiver = _receiver;\n        currentInfo.fileHash = _fileHash;\n        currentInfo.timestamp = time;\n        currentInfo.QR = QRWithNoTime;\n        currentInfo.QRTime = QRWithNoTime;\n        fileProofs[_fileHash].push(currentInfo);\n        uint256 index = fileProofs[_fileHash].length - 1;\n        FileQRWithIndex memory indexInfo;\n        indexInfo.hashFile = _fileHash;\n        indexInfo.index = index;\n        fileQrCodeWithoutTime[QRWithNoTime].push(indexInfo);\n        fileQrCodeWithTime[QRWithTime].push(indexInfo);\n        usedFileHashes[_fileHash] = true;\n        return true;\n    }\n\n    function _createFolderTransferProof(address _sender,address _receiver,address _folderAddress,uint256 time,bytes32 QRWithNoTime,bytes32 QRWithTime) public returns(bool)\n    {\n        FolderProof memory currentInfo;\n        currentInfo.sender = _sender;\n        currentInfo.receiver = _receiver;\n        currentInfo.folderAddress = _folderAddress;\n        currentInfo.timestamp = time;\n        currentInfo.QR = QRWithNoTime;\n        currentInfo.QRTime = QRWithNoTime;\n        folderProofs[_folderAddress].push(currentInfo); // if the entry is already present in mapping with same folder address then it add the info in the array of struct \"FolderProof\" mapped to the specific address , And if not present then creates the new entry\n        uint256 index = folderProofs[_folderAddress].length - 1;\n        FolderQRWithIndex memory indexInfo;\n        indexInfo.folderAddress = _folderAddress;\n        indexInfo.index = index;\n        folderQrCodeWithoutTime[QRWithNoTime].push(indexInfo);\n        folderQrCodeWithTime[QRWithTime].push(indexInfo);\n        usedFolderAddresses[_folderAddress] = true;\n        return true;\n    }\n\n  /*  function getFileTransferProofs(bytes32 fileHash) public view returns(address[] memory,address[] memory,bytes32[] memory)\n    {   \n        require(fileExists(fileHash),\"No file found\");\n        uint256 len = fileProofs[fileHash].length;\n\n        address[] memory allSenders = new address[](len);\n        address[] memory allReceivers = new address[](len);\n        bytes32[] memory allQRs = new bytes32[](len);\n        for(uint256 i = 0 ; i<len ; i++)\n        {\n            allSenders[i] = fileProofs[fileHash][i].sender;\n            allReceivers[i] = fileProofs[fileHash][i].receiver;\n            allQRs[i] = fileProofs[fileHash][i].QR;\n        }\n        return (allSenders, allReceivers, allQRs);\n    }\n    */\n\n\nfunction _getFileTransferProofsAllSendersAndReceivers(bytes32 fileHash , uint256 len) internal view returns (address[] memory, address[] memory)\n{\n      address[] memory allSenders = new address[](len);\n      address[] memory allReceivers = new address[](len);\n      for(uint256 i = 0 ; i<len ; i++)\n        {\n            allSenders[i] = fileProofs[fileHash][i].sender;\n            allReceivers[i] = fileProofs[fileHash][i].receiver;\n        }\n        return (allSenders , allReceivers);    \n\n}\n\nfunction  _getFileTransferProofsQR(bytes32 fileHash , uint256 len) internal view returns (bytes32 [] memory)\n{\n  bytes32[] memory allQRs = new bytes32[](len);\n  for(uint256 i = 0 ; i<len ; i++)\n        {\n           allQRs[i] = fileProofs[fileHash][i].QR;\n        }\n        return allQRs; \n\n}\n\nfunction _getFileTransferProofsQRTime(bytes32 fileHash ,uint256 len) internal view returns (bytes32 [] memory)\n{\n  bytes32[] memory allQRs = new bytes32[](len);\n  for(uint256 i = 0 ; i<len ; i++)\n        {\n           allQRs[i] = fileProofs[fileHash][i].QRTime;\n        }\n        return allQRs; \n        \n\n}\n\n    /**\n   * @dev calculates the day , month , year using the timestamp\n   * @param time , timestamp whose day,month,year is to be calculated \n   */\n    function getDateTime (uint256 time) internal pure returns(uint256,uint256,uint256)\n      {\n        uint256 year = getYear(time);\n        uint256 month = getMonth(time);\n        uint256 day = getDay(time);\n        return (year, month, day );\n    }\n\n    function _getFileTransferProofsDateTime(bytes32 fileHash ,uint256 len) internal view returns (uint256[] memory , uint256[] memory , uint256 [] memory)\n  {\n     uint256[] memory allDays = new uint256[](len);\n        uint256[] memory allMonths = new uint256[](len);\n        uint256[] memory allYears = new uint256[](len);\n    for(uint256 i = 0 ; i<len ; i++)\n        {\n            uint256 time = fileProofs[fileHash][i].timestamp; \n            (uint256 year, uint256 month, uint256 day) = getDateTime(time);\n            allDays[i] = day;\n            allMonths[i] = month;\n            allYears[i] = year;\n        }\n        return (allDays, allMonths, allYears);\n    }\n\n\n\n  function _getFolderTransferProofsAllSenderAndReceivers(address folderAddress,uint256 len) internal view returns(address[] memory , address[] memory)\n  {\n      address[] memory allSenders = new address[](len);\n        address[] memory allReceivers = new address[](len);\n        for(uint256 i = 0 ; i<len ; i++)\n        {\n            allSenders[i] = folderProofs[folderAddress][i].sender;\n            allReceivers[i] = folderProofs[folderAddress][i].receiver;\n        }\n        return (allSenders, allReceivers);\n  }\n\n\n  function _getFolderTransferProofsAllQR(address folderAddress,uint256 len) internal view returns (bytes32[] memory)\n  {\n    bytes32[] memory allQRs = new bytes32[](len);\n        for(uint256 i = 0 ; i<len ; i++)\n        {\n           allQRs[i] = folderProofs[folderAddress][i].QR;\n        }\n        return (allQRs);\n\n        }\n\n  function _getFolderTransferProofsAllQRTime(address folderAddress,uint256 len) internal view returns(bytes32[] memory)\n  {\n\n   bytes32[] memory allQRs = new bytes32[](len);\n        for(uint256 i = 0 ; i<len ; i++)\n        {\n           allQRs[i] = folderProofs[folderAddress][i].QRTime;\n        }\n        return (allQRs);\n\n        }\n  function _getFolderTransferProofsDateTime(address folderAddress ,uint256 len) internal view returns (uint256[] memory , uint256[] memory , uint256 [] memory)\n  {\n    uint256[] memory allDays = new uint256[](len);\n        uint256[] memory allMonths = new uint256[](len);\n        uint256[] memory allYears = new uint256[](len);\n    for(uint256 i = 0 ; i<len ; i++)\n        {\n            uint256 time = folderProofs[folderAddress][i].timestamp; \n            (uint256 year, uint256 month, uint256 day) = getDateTime(time);\n            allDays[i] = day;\n            allMonths[i] = month;\n            allYears[i] = year;\n        }\n        return (allDays, allMonths, allYears);\n    }\n    \n}",
  "sourcePath": "/home/sagar/Desktop/proof of transfer flattened/contracts/deps.sol",
  "compiler": {
    "name": "solc",
    "version": "0.5.0+commit.1d4f565a.Emscripten.clang"
  },
  "schemaVersion": "3.0.1",
  "updatedAt": "2019-03-12T06:22:55.236Z",
  "devdoc": {
    "methods": {}
  },
  "userdoc": {
    "methods": {}
  }
}