{
  "contractName": "ProofOfTransfer",
  "abi": [
    {
      "constant": false,
      "inputs": [
        {
          "name": "_sender",
          "type": "address"
        },
        {
          "name": "_receiver",
          "type": "address"
        },
        {
          "name": "_fileHash",
          "type": "bytes32"
        }
      ],
      "name": "createFileTransferProof",
      "outputs": [
        {
          "name": "",
          "type": "bool"
        }
      ],
      "payable": false,
      "stateMutability": "nonpayable",
      "type": "function"
    },
    {
      "constant": false,
      "inputs": [
        {
          "name": "_sender",
          "type": "address"
        },
        {
          "name": "_receiver",
          "type": "address"
        },
        {
          "name": "_folderAddress",
          "type": "address"
        },
        {
          "name": "folderHash",
          "type": "bytes32"
        }
      ],
      "name": "createFolderTransferProof",
      "outputs": [
        {
          "name": "",
          "type": "bool"
        }
      ],
      "payable": false,
      "stateMutability": "nonpayable",
      "type": "function"
    },
    {
      "constant": true,
      "inputs": [
        {
          "name": "fileHash",
          "type": "bytes32"
        },
        {
          "name": "Index",
          "type": "uint256"
        }
      ],
      "name": "getFileTransferProofs",
      "outputs": [
        {
          "name": "",
          "type": "address[]"
        },
        {
          "name": "",
          "type": "bytes32"
        },
        {
          "name": "",
          "type": "bool"
        }
      ],
      "payable": false,
      "stateMutability": "view",
      "type": "function"
    },
    {
      "constant": true,
      "inputs": [
        {
          "name": "fileHash",
          "type": "bytes32"
        },
        {
          "name": "Index",
          "type": "uint256"
        }
      ],
      "name": "getFileTransferProofWithTDateTime",
      "outputs": [
        {
          "name": "",
          "type": "address[]"
        },
        {
          "name": "",
          "type": "bytes32"
        },
        {
          "name": "",
          "type": "uint256[]"
        },
        {
          "name": "",
          "type": "bool"
        }
      ],
      "payable": false,
      "stateMutability": "view",
      "type": "function"
    },
    {
      "constant": true,
      "inputs": [
        {
          "name": "folderAddress",
          "type": "address"
        },
        {
          "name": "Index",
          "type": "uint256"
        }
      ],
      "name": "getFolderTransferProofs",
      "outputs": [
        {
          "name": "",
          "type": "address[]"
        },
        {
          "name": "",
          "type": "bytes32"
        },
        {
          "name": "",
          "type": "bytes32"
        },
        {
          "name": "",
          "type": "bool"
        }
      ],
      "payable": false,
      "stateMutability": "view",
      "type": "function"
    },
    {
      "constant": true,
      "inputs": [
        {
          "name": "folderAddress",
          "type": "address"
        },
        {
          "name": "Index",
          "type": "uint256"
        }
      ],
      "name": "getFolderTransferProofsWithDateTime",
      "outputs": [
        {
          "name": "",
          "type": "address[]"
        },
        {
          "name": "",
          "type": "bytes32"
        },
        {
          "name": "",
          "type": "bytes32"
        },
        {
          "name": "",
          "type": "uint256[]"
        },
        {
          "name": "",
          "type": "bool"
        }
      ],
      "payable": false,
      "stateMutability": "view",
      "type": "function"
    },
    {
      "constant": true,
      "inputs": [
        {
          "name": "QRCode",
          "type": "bytes32"
        }
      ],
      "name": "SearchFileTransferProof",
      "outputs": [
        {
          "name": "",
          "type": "address"
        },
        {
          "name": "",
          "type": "address"
        },
        {
          "name": "",
          "type": "bytes32"
        }
      ],
      "payable": false,
      "stateMutability": "view",
      "type": "function"
    },
    {
      "constant": true,
      "inputs": [
        {
          "name": "QRCodeTime",
          "type": "bytes32"
        }
      ],
      "name": "SearchFileTransferProofWithTime",
      "outputs": [
        {
          "name": "",
          "type": "address"
        },
        {
          "name": "",
          "type": "address"
        },
        {
          "name": "",
          "type": "uint256"
        },
        {
          "name": "",
          "type": "uint256"
        },
        {
          "name": "",
          "type": "uint256"
        },
        {
          "name": "",
          "type": "bytes32"
        }
      ],
      "payable": false,
      "stateMutability": "view",
      "type": "function"
    },
    {
      "constant": true,
      "inputs": [
        {
          "name": "QRCode",
          "type": "bytes32"
        }
      ],
      "name": "SearchFolderTransferProof",
      "outputs": [
        {
          "name": "",
          "type": "address"
        },
        {
          "name": "",
          "type": "address"
        },
        {
          "name": "",
          "type": "address"
        },
        {
          "name": "",
          "type": "bytes32"
        }
      ],
      "payable": false,
      "stateMutability": "view",
      "type": "function"
    },
    {
      "constant": true,
      "inputs": [
        {
          "name": "QRCodeTime",
          "type": "bytes32"
        }
      ],
      "name": "SearchFolderTransferProofWithTime",
      "outputs": [
        {
          "name": "",
          "type": "address"
        },
        {
          "name": "",
          "type": "address"
        },
        {
          "name": "",
          "type": "address"
        },
        {
          "name": "",
          "type": "bytes32"
        },
        {
          "name": "",
          "type": "uint256"
        },
        {
          "name": "",
          "type": "uint256"
        },
        {
          "name": "",
          "type": "uint256"
        }
      ],
      "payable": false,
      "stateMutability": "view",
      "type": "function"
    }
  ],
  "bytecode": "0x608060405234801561001057600080fd5b50613433806100206000396000f3fe6080604052600436106100a4576000357c0100000000000000000000000000000000000000000000000000000000900463ffffffff1680630bc1e0fb146100a9578063178a329b1461015c578063260a2ca0146102505780636e69bebe146103385780638ea389a8146103e45780639bd092e4146104e1578063c9fec892146105f2578063cf0af4b5146106a7578063db7d22da14610770578063fb9a0eb71461083a575b600080fd5b3480156100b557600080fd5b50610142600480360360808110156100cc57600080fd5b81019080803573ffffffffffffffffffffffffffffffffffffffff169060200190929190803573ffffffffffffffffffffffffffffffffffffffff169060200190929190803573ffffffffffffffffffffffffffffffffffffffff169060200190929190803590602001909291905050506108cd565b604051808215151515815260200191505060405180910390f35b34801561016857600080fd5b5061019f6004803603604081101561017f57600080fd5b810190808035906020019092919080359060200190929190505050610912565b60405180806020018581526020018060200184151515158152602001838103835287818151815260200191508051906020019060200280838360005b838110156101f65780820151818401526020810190506101db565b50505050905001838103825285818151815260200191508051906020019060200280838360005b8381101561023857808201518184015260208101905061021d565b50505050905001965050505050505060405180910390f35b34801561025c57600080fd5b506102896004803603602081101561027357600080fd5b81019080803590602001909291905050506109e6565b604051808573ffffffffffffffffffffffffffffffffffffffff1673ffffffffffffffffffffffffffffffffffffffff1681526020018473ffffffffffffffffffffffffffffffffffffffff1673ffffffffffffffffffffffffffffffffffffffff1681526020018373ffffffffffffffffffffffffffffffffffffffff1673ffffffffffffffffffffffffffffffffffffffff16815260200182815260200194505050505060405180910390f35b34801561034457600080fd5b5061037b6004803603604081101561035b57600080fd5b810190808035906020019092919080359060200190929190505050610a04565b604051808060200184815260200183151515158152602001828103825285818151815260200191508051906020019060200280838360005b838110156103ce5780820151818401526020810190506103b3565b5050505090500194505050505060405180910390f35b3480156103f057600080fd5b5061041d6004803603602081101561040757600080fd5b8101908080359060200190929190505050610aae565b604051808873ffffffffffffffffffffffffffffffffffffffff1673ffffffffffffffffffffffffffffffffffffffff1681526020018773ffffffffffffffffffffffffffffffffffffffff1673ffffffffffffffffffffffffffffffffffffffff1681526020018673ffffffffffffffffffffffffffffffffffffffff1673ffffffffffffffffffffffffffffffffffffffff16815260200185815260200184815260200183815260200182815260200197505050505050505060405180910390f35b3480156104ed57600080fd5b5061053a6004803603604081101561050457600080fd5b81019080803573ffffffffffffffffffffffffffffffffffffffff16906020019092919080359060200190929190505050610adb565b60405180806020018681526020018581526020018060200184151515158152602001838103835288818151815260200191508051906020019060200280838360005b8381101561059757808201518184015260208101905061057c565b50505050905001838103825285818151815260200191508051906020019060200280838360005b838110156105d95780820151818401526020810190506105be565b5050505090500197505050505050505060405180910390f35b3480156105fe57600080fd5b5061062b6004803603602081101561061557600080fd5b8101908080359060200190929190505050610be5565b604051808473ffffffffffffffffffffffffffffffffffffffff1673ffffffffffffffffffffffffffffffffffffffff1681526020018373ffffffffffffffffffffffffffffffffffffffff1673ffffffffffffffffffffffffffffffffffffffff168152602001828152602001935050505060405180910390f35b3480156106b357600080fd5b50610700600480360360408110156106ca57600080fd5b81019080803573ffffffffffffffffffffffffffffffffffffffff16906020019092919080359060200190929190505050610c00565b604051808060200185815260200184815260200183151515158152602001828103825286818151815260200191508051906020019060200280838360005b8381101561075957808201518184015260208101905061073e565b505050509050019550505050505060405180910390f35b34801561077c57600080fd5b506107a96004803603602081101561079357600080fd5b8101908080359060200190929190505050610cb6565b604051808773ffffffffffffffffffffffffffffffffffffffff1673ffffffffffffffffffffffffffffffffffffffff1681526020018673ffffffffffffffffffffffffffffffffffffffff1673ffffffffffffffffffffffffffffffffffffffff168152602001858152602001848152602001838152602001828152602001965050505050505060405180910390f35b34801561084657600080fd5b506108b36004803603606081101561085d57600080fd5b81019080803573ffffffffffffffffffffffffffffffffffffffff169060200190929190803573ffffffffffffffffffffffffffffffffffffffff16906020019092919080359060200190929190505050610cdd565b604051808215151515815260200191505060405180910390f35b60008042905060006108e3878787876000610d1e565b905060006108f48888888887610d1e565b905061090588888888878787610f50565b9350505050949350505050565b6060600060606000610923866113b8565b1515610997576040517f08c379a000000000000000000000000000000000000000000000000000000000815260040180806020018281038252600d8152602001807f4e6f2066696c6520666f756e640000000000000000000000000000000000000081525060200191505060405180910390fd5b600080600088815260200190815260200160002080549050905060606000606060006109c48b8b876113f3565b9350935093509350838383839850985098509850505050505092959194509250565b6000806000806109f5856116b6565b93509350935093509193509193565b6060600080610a12856113b8565b1515610a86576040517f08c379a000000000000000000000000000000000000000000000000000000000815260040180806020018281038252600d8152602001807f4e6f2066696c6520666f756e640000000000000000000000000000000000000081525060200191505060405180910390fd5b6060600080610a958888611945565b9250925092508282829550955095505050509250925092565b6000806000806000806000610ac288611b31565b9650965096509650965096509650919395979092949650565b606060008060606000610aed87611e45565b1515610b61576040517f08c379a000000000000000000000000000000000000000000000000000000000815260040180806020018281038252600f8152602001807f4e6f20666f6c64657220666f756e64000000000000000000000000000000000081525060200191505060405180910390fd5b6000600160008973ffffffffffffffffffffffffffffffffffffffff1673ffffffffffffffffffffffffffffffffffffffff168152602001908152602001600020805490509050606060008060606000610bbc8d8d88611eac565b9450945094509450945084848484849a509a509a509a509a505050505050509295509295909350565b6000806000610bf38461227c565b9250925092509193909250565b60606000806000610c1086611e45565b1515610c84576040517f08c379a000000000000000000000000000000000000000000000000000000000815260040180806020018281038252600f8152602001807f4e6f20666f6c64657220666f756e64000000000000000000000000000000000081525060200191505060405180910390fd5b60606000806000610c958a8a612429565b93509350935093508383838397509750975097505050505092959194509250565b600080600080600080610cc887612736565b95509550955095509550955091939550919395565b6000804290506000610cf2868686600061293a565b90506000610d028787878661293a565b9050610d12878787868686612ae5565b93505050509392505050565b6000806000831415610e215786868686604051602001808573ffffffffffffffffffffffffffffffffffffffff1673ffffffffffffffffffffffffffffffffffffffff166c010000000000000000000000000281526014018473ffffffffffffffffffffffffffffffffffffffff1673ffffffffffffffffffffffffffffffffffffffff166c010000000000000000000000000281526014018373ffffffffffffffffffffffffffffffffffffffff1673ffffffffffffffffffffffffffffffffffffffff166c01000000000000000000000000028152601401828152602001945050505050604051602081830303815290604052805190602001209050610f43565b6000806000610e2f86612da0565b92509250925089898989848688604051602001808873ffffffffffffffffffffffffffffffffffffffff1673ffffffffffffffffffffffffffffffffffffffff166c010000000000000000000000000281526014018773ffffffffffffffffffffffffffffffffffffffff1673ffffffffffffffffffffffffffffffffffffffff166c010000000000000000000000000281526014018673ffffffffffffffffffffffffffffffffffffffff1673ffffffffffffffffffffffffffffffffffffffff166c010000000000000000000000000281526014018581526020018481526020018381526020018281526020019750505050505050506040516020818303038152906040528051906020012093505050505b8091505095945050505050565b6000610f5a613271565b88816000019073ffffffffffffffffffffffffffffffffffffffff16908173ffffffffffffffffffffffffffffffffffffffff168152505087816020019073ffffffffffffffffffffffffffffffffffffffff16908173ffffffffffffffffffffffffffffffffffffffff168152505086816040019073ffffffffffffffffffffffffffffffffffffffff16908173ffffffffffffffffffffffffffffffffffffffff16815250508581606001818152505084816080018181525050838160a0018181525050828160c0018181525050600160008873ffffffffffffffffffffffffffffffffffffffff1673ffffffffffffffffffffffffffffffffffffffff168152602001908152602001600020819080600181540180825580915050906001820390600052602060002090600702016000909192909190915060008201518160000160006101000a81548173ffffffffffffffffffffffffffffffffffffffff021916908373ffffffffffffffffffffffffffffffffffffffff16021790555060208201518160010160006101000a81548173ffffffffffffffffffffffffffffffffffffffff021916908373ffffffffffffffffffffffffffffffffffffffff16021790555060408201518160020160006101000a81548173ffffffffffffffffffffffffffffffffffffffff021916908373ffffffffffffffffffffffffffffffffffffffff160217905550606082015181600301556080820151816004015560a0820151816005015560c08201518160060155505050600060018060008a73ffffffffffffffffffffffffffffffffffffffff1673ffffffffffffffffffffffffffffffffffffffff168152602001908152602001600020805490500390506111e66132fa565b88816000019073ffffffffffffffffffffffffffffffffffffffff16908173ffffffffffffffffffffffffffffffffffffffff16815250508181602001818152505060046000878152602001908152602001600020819080600181540180825580915050906001820390600052602060002090600202016000909192909190915060008201518160000160006101000a81548173ffffffffffffffffffffffffffffffffffffffff021916908373ffffffffffffffffffffffffffffffffffffffff1602179055506020820151816001015550505060056000868152602001908152602001600020819080600181540180825580915050906001820390600052602060002090600202016000909192909190915060008201518160000160006101000a81548173ffffffffffffffffffffffffffffffffffffffff021916908373ffffffffffffffffffffffffffffffffffffffff160217905550602082015181600101555050506001600760008b73ffffffffffffffffffffffffffffffffffffffff1673ffffffffffffffffffffffffffffffffffffffff16815260200190815260200160002060006101000a81548160ff02191690831515021790555060019350505050979650505050505050565b600080600090506006600084815260200190815260200160002060009054906101000a900460ff16156113ea57600190505b80915050919050565b6060600060606000806000808981526020019081526020016000208781548110151561141b57fe5b9060005260206000209060060201600301549050600080600061143d84612da0565b925092509250606060026040519080825280602002602001820160405280156114755781602001602082028038833980820191505090505b5090506000808d81526020019081526020016000208b81548110151561149757fe5b906000526020600020906006020160000160009054906101000a900473ffffffffffffffffffffffffffffffffffffffff168160008151811015156114d857fe5b9060200190602002019073ffffffffffffffffffffffffffffffffffffffff16908173ffffffffffffffffffffffffffffffffffffffff16815250506000808d81526020019081526020016000208b81548110151561153357fe5b906000526020600020906006020160010160009054906101000a900473ffffffffffffffffffffffffffffffffffffffff1681600181518110151561157457fe5b9060200190602002019073ffffffffffffffffffffffffffffffffffffffff16908173ffffffffffffffffffffffffffffffffffffffff168152505060008060008e81526020019081526020016000208c8154811015156115d157fe5b9060005260206000209060060201600501549050606060036040519080825280602002602001820160405280156116175781602001602082028038833980820191505090505b5090508381600081518110151561162a57fe5b90602001906020020181815250508481600181518110151561164857fe5b90602001906020020181815250508581600281518110151561166657fe5b90602001906020020181815250508c60018d0311156116985782828260019a509a509a509a50505050505050506116ad565b82828260009a509a509a509a50505050505050505b93509350935093565b60008060008060006004600087815260200190815260200160002060008154811015156116df57fe5b906000526020600020906002020160000160009054906101000a900473ffffffffffffffffffffffffffffffffffffffff16905061171c81611e45565b1515611790576040517f08c379a00000000000000000000000000000000000000000000000000000000081526004018080602001828103825260158152602001807f666f6c64657220646f6573206e6f74206578697374000000000000000000000081525060200191505060405180910390fd5b60006004600088815260200190815260200160002060008154811015156117b357fe5b90600052602060002090600202016001015490506000600160008473ffffffffffffffffffffffffffffffffffffffff1673ffffffffffffffffffffffffffffffffffffffff1681526020019081526020016000208281548110151561181557fe5b906000526020600020906007020160000160009054906101000a900473ffffffffffffffffffffffffffffffffffffffff1690506000600160008573ffffffffffffffffffffffffffffffffffffffff1673ffffffffffffffffffffffffffffffffffffffff1681526020019081526020016000208381548110151561189757fe5b906000526020600020906007020160010160009054906101000a900473ffffffffffffffffffffffffffffffffffffffff1690506000600160008673ffffffffffffffffffffffffffffffffffffffff1673ffffffffffffffffffffffffffffffffffffffff1681526020019081526020016000208481548110151561191957fe5b906000526020600020906007020160030154905082828683985098509850985050505050509193509193565b60606000806060600260405190808252806020026020018201604052801561197c5781602001602082028038833980820191505090505b5090506000808781526020019081526020016000208581548110151561199e57fe5b906000526020600020906006020160000160009054906101000a900473ffffffffffffffffffffffffffffffffffffffff168160008151811015156119df57fe5b9060200190602002019073ffffffffffffffffffffffffffffffffffffffff16908173ffffffffffffffffffffffffffffffffffffffff168152505060008087815260200190815260200160002085815481101515611a3a57fe5b906000526020600020906006020160010160009054906101000a900473ffffffffffffffffffffffffffffffffffffffff16816001815181101515611a7b57fe5b9060200190602002019073ffffffffffffffffffffffffffffffffffffffff16908173ffffffffffffffffffffffffffffffffffffffff1681525050600080600088815260200190815260200160002086815481101515611ad857fe5b90600052602060002090600602016004015490508560016000808a815260200190815260200160002080549050031115611b1d57818160019450945094505050611b2a565b8181600094509450945050505b9250925092565b600080600080600080600080600560008a81526020019081526020016000206000815481101515611b5e57fe5b906000526020600020906002020160000160009054906101000a900473ffffffffffffffffffffffffffffffffffffffff169050611b9b81611e45565b1515611c0f576040517f08c379a00000000000000000000000000000000000000000000000000000000081526004018080602001828103825260158152602001807f666f6c64657220646f6573206e6f74206578697374000000000000000000000081525060200191505060405180910390fd5b6000600560008b81526020019081526020016000206000815481101515611c3257fe5b90600052602060002090600202016001015490506000600160008473ffffffffffffffffffffffffffffffffffffffff1673ffffffffffffffffffffffffffffffffffffffff16815260200190815260200160002082815481101515611c9457fe5b906000526020600020906007020160000160009054906101000a900473ffffffffffffffffffffffffffffffffffffffff1690506000600160008573ffffffffffffffffffffffffffffffffffffffff1673ffffffffffffffffffffffffffffffffffffffff16815260200190815260200160002083815481101515611d1657fe5b906000526020600020906007020160010160009054906101000a900473ffffffffffffffffffffffffffffffffffffffff1690506000600160008673ffffffffffffffffffffffffffffffffffffffff1673ffffffffffffffffffffffffffffffffffffffff16815260200190815260200160002084815481101515611d9857fe5b90600052602060002090600702016003015490506000806000611e17600160008a73ffffffffffffffffffffffffffffffffffffffff1673ffffffffffffffffffffffffffffffffffffffff16815260200190815260200160002088815481101515611e0057fe5b906000526020600020906007020160040154612da0565b925092509250858589868486889e509e509e509e509e509e509e505050505050505050919395979092949650565b60008060009050600760008473ffffffffffffffffffffffffffffffffffffffff1673ffffffffffffffffffffffffffffffffffffffff16815260200190815260200160002060009054906101000a900460ff1615611ea357600190505b80915050919050565b60606000806060600080600160008a73ffffffffffffffffffffffffffffffffffffffff1673ffffffffffffffffffffffffffffffffffffffff16815260200190815260200160002088815481101515611f0257fe5b906000526020600020906007020160040154905060606002604051908082528060200260200182016040528015611f485781602001602082028038833980820191505090505b509050600160008b73ffffffffffffffffffffffffffffffffffffffff1673ffffffffffffffffffffffffffffffffffffffff16815260200190815260200160002089815481101515611f9757fe5b906000526020600020906007020160000160009054906101000a900473ffffffffffffffffffffffffffffffffffffffff16816000815181101515611fd857fe5b9060200190602002019073ffffffffffffffffffffffffffffffffffffffff16908173ffffffffffffffffffffffffffffffffffffffff1681525050600160008b73ffffffffffffffffffffffffffffffffffffffff1673ffffffffffffffffffffffffffffffffffffffff1681526020019081526020016000208981548110151561206057fe5b906000526020600020906007020160010160009054906101000a900473ffffffffffffffffffffffffffffffffffffffff168160018151811015156120a157fe5b9060200190602002019073ffffffffffffffffffffffffffffffffffffffff16908173ffffffffffffffffffffffffffffffffffffffff16815250506000600160008c73ffffffffffffffffffffffffffffffffffffffff1673ffffffffffffffffffffffffffffffffffffffff1681526020019081526020016000208a81548110151561212b57fe5b90600052602060002090600702016003015490506000600160008d73ffffffffffffffffffffffffffffffffffffffff1673ffffffffffffffffffffffffffffffffffffffff1681526020019081526020016000208b81548110151561218d57fe5b9060005260206000209060070201600601549050606060036040519080825280602002602001820160405280156121d35781602001602082028038833980820191505090505b5090506121df85612da0565b8360028151811015156121ee57fe5b90602001906020020184600181518110151561220657fe5b90602001906020020185600081518110151561221e57fe5b9060200190602002018381525083815250838152505050508b60018c03111561225b57838383836001995099509950995099505050505050612271565b8383838360009950995099509950995050505050505b939792965093509350565b6000806000806002600086815260200190815260200160002060008154811015156122a357fe5b90600052602060002090600202016000015490506122c0816113b8565b1515612334576040517f08c379a00000000000000000000000000000000000000000000000000000000081526004018080602001828103825260148152602001807f66696c6520646f6573206e6f742065786973747300000000000000000000000081525060200191505060405180910390fd5b600060026000878152602001908152602001600020600081548110151561235757fe5b906000526020600020906002020160010154905060008060008481526020019081526020016000208281548110151561238c57fe5b906000526020600020906006020160000160009054906101000a900473ffffffffffffffffffffffffffffffffffffffff1690506000806000858152602001908152602001600020838154811015156123e157fe5b906000526020600020906006020160010160009054906101000a900473ffffffffffffffffffffffffffffffffffffffff169050818185965096509650505050509193909250565b60606000806000606060026040519080825280602002602001820160405280156124625781602001602082028038833980820191505090505b509050600160008873ffffffffffffffffffffffffffffffffffffffff1673ffffffffffffffffffffffffffffffffffffffff168152602001908152602001600020868154811015156124b157fe5b906000526020600020906007020160000160009054906101000a900473ffffffffffffffffffffffffffffffffffffffff168160008151811015156124f257fe5b9060200190602002019073ffffffffffffffffffffffffffffffffffffffff16908173ffffffffffffffffffffffffffffffffffffffff1681525050600160008873ffffffffffffffffffffffffffffffffffffffff1673ffffffffffffffffffffffffffffffffffffffff1681526020019081526020016000208681548110151561257a57fe5b906000526020600020906007020160010160009054906101000a900473ffffffffffffffffffffffffffffffffffffffff168160018151811015156125bb57fe5b9060200190602002019073ffffffffffffffffffffffffffffffffffffffff16908173ffffffffffffffffffffffffffffffffffffffff16815250506000600160008973ffffffffffffffffffffffffffffffffffffffff1673ffffffffffffffffffffffffffffffffffffffff1681526020019081526020016000208781548110151561264557fe5b90600052602060002090600702016005015490506000600160008a73ffffffffffffffffffffffffffffffffffffffff1673ffffffffffffffffffffffffffffffffffffffff168152602001908152602001600020888154811015156126a757fe5b90600052602060002090600702016003015490508760018060008c73ffffffffffffffffffffffffffffffffffffffff1673ffffffffffffffffffffffffffffffffffffffff1681526020019081526020016000208054905003111561271c578281836001965096509650965050505061272d565b828183600096509650965096505050505b92959194509250565b600080600080600080600060036000898152602001908152602001600020600081548110151561276257fe5b906000526020600020906002020160000154905061277f816113b8565b15156127f3576040517f08c379a00000000000000000000000000000000000000000000000000000000081526004018080602001828103825260148152602001807f66696c6520646f6573206e6f742065786973747300000000000000000000000081525060200191505060405180910390fd5b6000600360008a8152602001908152602001600020600081548110151561281657fe5b906000526020600020906002020160010154905060008060008481526020019081526020016000208281548110151561284b57fe5b906000526020600020906006020160000160009054906101000a900473ffffffffffffffffffffffffffffffffffffffff1690506000806000858152602001908152602001600020838154811015156128a057fe5b906000526020600020906006020160010160009054906101000a900473ffffffffffffffffffffffffffffffffffffffff1690506000806000612912600080898152602001908152602001600020878154811015156128fb57fe5b906000526020600020906006020160030154612da0565b92509250925084848284868b9c509c509c509c509c509c505050505050505091939550919395565b60008060008314156129fa57858585604051602001808473ffffffffffffffffffffffffffffffffffffffff1673ffffffffffffffffffffffffffffffffffffffff166c010000000000000000000000000281526014018373ffffffffffffffffffffffffffffffffffffffff1673ffffffffffffffffffffffffffffffffffffffff166c010000000000000000000000000281526014018281526020019350505050604051602081830303815290604052805190602001209050612ad9565b6000806000612a0886612da0565b925092509250888888838587604051602001808773ffffffffffffffffffffffffffffffffffffffff1673ffffffffffffffffffffffffffffffffffffffff166c010000000000000000000000000281526014018673ffffffffffffffffffffffffffffffffffffffff1673ffffffffffffffffffffffffffffffffffffffff166c0100000000000000000000000002815260140185815260200184815260200183815260200182815260200196505050505050506040516020818303038152906040528051906020012093505050505b80915050949350505050565b6000612aef61332a565b87816000019073ffffffffffffffffffffffffffffffffffffffff16908173ffffffffffffffffffffffffffffffffffffffff168152505086816020019073ffffffffffffffffffffffffffffffffffffffff16908173ffffffffffffffffffffffffffffffffffffffff1681525050858160400181815250508481606001818152505083816080018181525050828160a0018181525050600080878152602001908152602001600020819080600181540180825580915050906001820390600052602060002090600602016000909192909190915060008201518160000160006101000a81548173ffffffffffffffffffffffffffffffffffffffff021916908373ffffffffffffffffffffffffffffffffffffffff16021790555060208201518160010160006101000a81548173ffffffffffffffffffffffffffffffffffffffff021916908373ffffffffffffffffffffffffffffffffffffffff16021790555060408201518160020155606082015181600301556080820151816004015560a082015181600501555050506000600160008089815260200190815260200160002080549050039050612ca3613396565b8781600001818152505081816020018181525050600260008781526020019081526020016000208190806001815401808255809150509060018203906000526020600020906002020160009091929091909150600082015181600001556020820151816001015550505060036000868152602001908152602001600020819080600181540180825580915050906001820390600052602060002090600202016000909192909190915060008201518160000155602082015181600101555050506001600660008a815260200190815260200160002060006101000a81548160ff021916908315150217905550600193505050509695505050505050565b600080600080612daf85612de8565b61ffff1690506000612dc086612e93565b60ff1690506000612dd087612ea9565b60ff1690508282829550955095505050509193909250565b600080600090506000806301e1338085811515612e0157fe5b046107b261ffff16019150612e1b6107b261ffff16612ebf565b612e288361ffff16612ebf565b039050806301e285000283019250806107b2830361ffff16036301e1338002830192505b84831115612e8857612e6060018303612ef8565b15612e73576301e2850083039250612e7d565b6301e13380830392505b600182039150612e4c565b819350505050919050565b6000612e9e82612f79565b602001519050919050565b6000612eb482612f79565b604001519050919050565b600060018203915061019082811515612ed457fe5b04606483811515612ee157fe5b04600484811515612eee57fe5b0403019050919050565b60008060048361ffff16811515612f0b57fe5b0661ffff16141515612f205760009050612f74565b600060648361ffff16811515612f3257fe5b0661ffff16141515612f475760019050612f74565b60006101908361ffff16811515612f5a57fe5b0661ffff16141515612f6f5760009050612f74565b600190505b919050565b612f816133b3565b6000809050600080612f9285612de8565b846000019061ffff16908161ffff1681525050612fb46107b261ffff16612ebf565b612fc5856000015161ffff16612ebf565b039150816301e285000283019250816107b285600001510361ffff16036301e1338002830192506000600191505b600c8260ff1611151561304b5761300e82866000015161311a565b60ff16620151800290508584820111156130395781856020019060ff16908160ff168152505061304b565b80840193508180600101925050612ff3565b600191505b6130628560200151866000015161311a565b60ff168260ff161115156130a9578584620151800111156130945781856040019060ff16908160ff16815250506130a9565b62015180840193508180600101925050613050565b6130b2866131e6565b856060019060ff16908160ff16815250506130cc86613213565b856080019060ff16908160ff16815250506130e686613234565b8560a0019060ff16908160ff16815250506131008661324a565b8560c0019060ff16908160ff168152505050505050919050565b600060018360ff161480613131575060038360ff16145b8061313f575060058360ff16145b8061314d575060078360ff16145b8061315b575060088360ff16145b806131695750600a8360ff16145b806131775750600c8360ff16145b1561318557601f90506131e0565b60048360ff16148061319a575060068360ff16145b806131a8575060098360ff16145b806131b65750600b8360ff16145b156131c457601e90506131e0565b6131cd82612ef8565b156131db57601d90506131e0565b601c90505b92915050565b60006018603c80848115156131f757fe5b0481151561320157fe5b0481151561320b57fe5b069050919050565b6000603c808381151561322257fe5b0481151561322c57fe5b069050919050565b6000603c8281151561324257fe5b069050919050565b600060076004620151808481151561325e57fe5b040181151561326957fe5b069050919050565b60e060405190810160405280600073ffffffffffffffffffffffffffffffffffffffff168152602001600073ffffffffffffffffffffffffffffffffffffffff168152602001600073ffffffffffffffffffffffffffffffffffffffff168152602001600080191681526020016000815260200160008019168152602001600080191681525090565b6040805190810160405280600073ffffffffffffffffffffffffffffffffffffffff168152602001600081525090565b60c060405190810160405280600073ffffffffffffffffffffffffffffffffffffffff168152602001600073ffffffffffffffffffffffffffffffffffffffff168152602001600080191681526020016000815260200160008019168152602001600080191681525090565b604080519081016040528060008019168152602001600081525090565b60e060405190810160405280600061ffff168152602001600060ff168152602001600060ff168152602001600060ff168152602001600060ff168152602001600060ff168152602001600060ff168152509056fea165627a7a72305820b44bf834fa7dcb40aad62b1baa601f4b696cc20b557d8279ca99cd0bccf2f41a0029",
  "source": "pragma solidity >=0.4.21 <0.6.0;\n\nimport \"./Dependency.sol\";\n\ncontract ProofOfTransfer is Dependency\n{ \n\n  /**\n   * @dev Creates and stores the File transfer proof at the block timestamp\n   * timestamp in stored as no minor change in time shall be there at time of storing and creting QR hash\n   * @param _sender , represents the entity who is sending the file\n   * @param _receiver , represents the entity who is receiving the file \n   * @param _fileHash , hash of file being transferred\n   * @return bool , true if creates the file transfer proof entry successfully\n   */\n    function createFileTransferProof(address _sender, address _receiver, bytes32 _fileHash) public returns (bool)\n    {\n        uint256 time = block.timestamp;\n        bytes32 QRWithNoTime = getQRCodeForFile(_sender, _receiver, _fileHash, 0);\n        bytes32 QRWithTime = getQRCodeForFile(_sender, _receiver,_fileHash, time);\n        return _inCreateFileTransferProof(_sender,_receiver,_fileHash,time,QRWithNoTime,QRWithTime);\n    }\n\n\n      /**\n   * @dev Creates and stores the Folder transfer proof at the block timestamp\n   * @param _sender , represents the entity who is sending folder\n   * @param _receiver , represents the entity who is receiving folder\n   * @param _folderAddress , address of folder which is being send\n   * @return bool , true if creates the fiolder transfer proof entry successfully\n   */\n    function createFolderTransferProof(address _sender, address _receiver, address _folderAddress , bytes32 folderHash ) public returns(bool)\n    { \n        uint256 time = block.timestamp;\n        bytes32 QRWithNoTime = getQRCodeForFolder(_sender, _receiver, _folderAddress,folderHash, 0);\n        bytes32 QRWithTime = getQRCodeForFolder(_sender, _receiver, _folderAddress,folderHash, time);\n        return _inCreateFolderTransferProof(_sender,_receiver,_folderAddress,folderHash,time,QRWithNoTime,QRWithTime);        \n    }\n\n\n /**\n   * @dev get file transfer proof by using filehash\n   * @param fileHash , hash of file , whose information is to be fetched\n   * @return , address of sender , reciever and QR code \n   */\n    function getFileTransferProofs(bytes32 fileHash, uint256 Index) public view returns(address[] memory,bytes32,bool)\n    {   \n        require(fileExists(fileHash),\"No file found\");\n        (address[] memory senderAndReceiver,bytes32 QR,bool nextIndexPresent) = _inGetFileTransferProofs(fileHash, Index);\n        return (senderAndReceiver,QR,nextIndexPresent);\n    }\n\n\n  /**\n    * @dev get file transfer proof with time detail by using filehash\n    * @param fileHash , hash of file , whose information is to be fetched\n    * @return , address of sender , reciever and QR code with day ,month and year information also\n    */\n    function getFileTransferProofWithTDateTime(bytes32 fileHash, uint256 Index) public view returns(address[] memory,bytes32, uint256[] memory,bool)\n    {\n        require(fileExists(fileHash),\"No file found\");\n        //sending length in this function to remove \"STACK TOO DEEEP ERROR\" \n        uint256 len = fileProofs[fileHash].length;\n        (address[] memory senderAndReceiver,bytes32 QR,uint256[] memory Date,bool nextIndexPresent) = _inGetFileTransferProofsDateTime(fileHash, Index ,len);\n        return (senderAndReceiver,QR,Date,nextIndexPresent);\n    }\n    \n\n    /**\n   * @dev get folder transfer proof by using folder address\n   * @param folderAddress , address of folder , whose information is to be fetched\n   * @return , address of sender , reciever and QR code \n   */\n    function getFolderTransferProofs(address folderAddress, uint256 Index) public view returns (address[] memory, bytes32,bytes32,bool)\n    {   \n        require(folderExists(folderAddress),\"No folder found\");\n        (address[] memory senderAndReceiver ,bytes32 folderHash,bytes32 QR,bool nextIndexPresent) = _inGetFolderTransferProofs(folderAddress, Index); \n        return (senderAndReceiver,folderHash,QR,nextIndexPresent);\n    }\n\n\n  /**\n   * @dev get folder transfer proof by using folder address with date time details\n   * @param folderAddress , address of folder , whose information is to be fetched\n   * @return , address of sender , reciever and QR code with day ,month and year information also\n   */\n    function getFolderTransferProofsWithDateTime(address folderAddress , uint256 Index) public view returns(address[] memory, bytes32,bytes32, uint256[] memory,bool)\n    {\n        require(folderExists(folderAddress),\"No folder found\");\n        //sending length in this function to remove \"STACK TOO DEEEP ERROR\" \n        uint256 len = folderProofs[folderAddress].length;\n        (address[] memory senderAndReceiver, bytes32 folderHash,bytes32 QR,uint256[] memory Date,bool nextIndexPresent) = _inGetFolderTransferProofsWithDateTime(folderAddress, Index, len);\n        return (senderAndReceiver,folderHash,QR,Date,nextIndexPresent);\n    }\n\n  /**\n   * @dev search file transfer proof using QR code\n   * @param QRCode , whose information is to be fetched\n   * @return , address of sender, reciever and fileHash\n   */\n    function SearchFileTransferProof(bytes32 QRCode) public view returns(address , address ,bytes32)\n    {\n        return _InSearchFileTransferProof(QRCode);\n    }\n\n\n  /**\n   * @dev search file transfer proof using QR code with time details\n   * @param QRCodeTime , whose information is to be fetched\n   * @return , address of sender, reciever and fileHash with day ,month and year information also\n   */\n    function SearchFileTransferProofWithTime(bytes32 QRCodeTime) public view returns(address , address , uint256 , uint256 , uint256 ,bytes32)\n    {\n        return _InSearchFileTransferProofWithTime(QRCodeTime);\n    }\n\n\n   /**\n   * @dev search folder transfer proof using QR code \n   * @param QRCode , whose information is to be fetched\n   * @return , address of sender, reciever and address of the folder\n   */\n    function SearchFolderTransferProof(bytes32 QRCode) public view returns(address , address , address , bytes32)\n    {\n        return _InSearchFolderTransferProof(QRCode);\n    }\n\n   /**\n   * @dev search folder transfer proof using QR code with time details\n   * @param QRCodeTime , whose information is to be fetched\n   * @return , address of sender, reciever and address of the folder with day ,month and year information also\n   */\n    function SearchFolderTransferProofWithTime(bytes32 QRCodeTime) public view returns(address ,address , address, bytes32 , uint256 , uint256 , uint256)\n    {\n        return _InSearchFolderTransferProofWithTime(QRCodeTime);\n    }     \n\n\n  /**\n   * @dev generates the QR code using filehash ,etc\n   * Can generate QR code with time and without time\n   */\n    function getQRCodeForFile (address _sender, address _receiver,bytes32 fileHash, uint256 timestamp) internal pure returns (bytes32)\n    {\n        bytes32 QRCodeHash;\n\n        if(timestamp == 0)  //generate QR code without dateTime\n        {\n            QRCodeHash = keccak256(abi.encodePacked(_sender, _receiver,fileHash));\n        }\n        else \n        {\n            (uint256 year, uint256 month, uint256 day) = getDateTime(timestamp);\n            QRCodeHash = keccak256(abi.encodePacked(_sender, _receiver, fileHash, day, month, year));\n        }\n\n        return QRCodeHash;\n    }\n\n\n  /**\n   * @dev generates the QR code using Folder address , etc \n   * Can generate QR code with time and without time\n   */\n    function getQRCodeForFolder (address _sender, address _receiver,address folderAddress,bytes32 folderHash, uint256 timestamp) internal pure returns (bytes32)\n    {\n        bytes32 QRCodeHash;\n\n        if(timestamp == 0)  //generate QR code without dateTime\n        {\n            QRCodeHash = keccak256(abi.encodePacked(_sender, _receiver,folderAddress , folderHash));\n        }\n        else \n        {\n            (uint256 year, uint256 month, uint256 day) = getDateTime(timestamp);\n            QRCodeHash = keccak256(abi.encodePacked(_sender, _receiver,folderAddress,folderHash,day,month, year));\n        }\n\n        return QRCodeHash;\n    }\n\n}\n",
  "sourcePath": "/home/sagar/Desktop/delivery final/28_may_ixxo_allsmart_contract/new/ixxo_smartcontracts/ProofOfTransfer/contracts/ProofOfTransfer.sol",
  "compiler": {
    "name": "solc",
    "version": "0.5.0+commit.1d4f565a.Emscripten.clang"
  },
  "schemaVersion": "3.0.6",
  "updatedAt": "2019-05-28T14:52:30.789Z",
  "devdoc": {
    "methods": {
      "SearchFileTransferProof(bytes32)": {
        "details": "search file transfer proof using QR code",
        "params": {
          "QRCode": ", whose information is to be fetched"
        },
        "return": ", address of sender, reciever and fileHash"
      },
      "SearchFileTransferProofWithTime(bytes32)": {
        "details": "search file transfer proof using QR code with time details",
        "params": {
          "QRCodeTime": ", whose information is to be fetched"
        },
        "return": ", address of sender, reciever and fileHash with day ,month and year information also"
      },
      "SearchFolderTransferProof(bytes32)": {
        "details": "search folder transfer proof using QR code ",
        "params": {
          "QRCode": ", whose information is to be fetched"
        },
        "return": ", address of sender, reciever and address of the folder"
      },
      "SearchFolderTransferProofWithTime(bytes32)": {
        "details": "search folder transfer proof using QR code with time details",
        "params": {
          "QRCodeTime": ", whose information is to be fetched"
        },
        "return": ", address of sender, reciever and address of the folder with day ,month and year information also"
      },
      "createFileTransferProof(address,address,bytes32)": {
        "details": "Creates and stores the File transfer proof at the block timestamp timestamp in stored as no minor change in time shall be there at time of storing and creting QR hash",
        "params": {
          "_fileHash": ", hash of file being transferred",
          "_receiver": ", represents the entity who is receiving the file ",
          "_sender": ", represents the entity who is sending the file"
        },
        "return": "bool , true if creates the file transfer proof entry successfully"
      },
      "createFolderTransferProof(address,address,address,bytes32)": {
        "details": "Creates and stores the Folder transfer proof at the block timestamp",
        "params": {
          "_folderAddress": ", address of folder which is being send",
          "_receiver": ", represents the entity who is receiving folder",
          "_sender": ", represents the entity who is sending folder"
        },
        "return": "bool , true if creates the fiolder transfer proof entry successfully"
      },
      "getFileTransferProofWithTDateTime(bytes32,uint256)": {
        "details": "get file transfer proof with time detail by using filehash",
        "params": {
          "fileHash": ", hash of file , whose information is to be fetched"
        },
        "return": ", address of sender , reciever and QR code with day ,month and year information also"
      },
      "getFileTransferProofs(bytes32,uint256)": {
        "details": "get file transfer proof by using filehash",
        "params": {
          "fileHash": ", hash of file , whose information is to be fetched"
        },
        "return": ", address of sender , reciever and QR code "
      },
      "getFolderTransferProofs(address,uint256)": {
        "details": "get folder transfer proof by using folder address",
        "params": {
          "folderAddress": ", address of folder , whose information is to be fetched"
        },
        "return": ", address of sender , reciever and QR code "
      },
      "getFolderTransferProofsWithDateTime(address,uint256)": {
        "details": "get folder transfer proof by using folder address with date time details",
        "params": {
          "folderAddress": ", address of folder , whose information is to be fetched"
        },
        "return": ", address of sender , reciever and QR code with day ,month and year information also"
      }
    }
  },
  "userdoc": {
    "methods": {}
  }
}