{
  "contractName": "AccessRightsDefinition",
  "abi": [
    {
      "constant": true,
      "inputs": [
        {
          "name": "",
          "type": "address"
        }
      ],
      "name": "usedFolders",
      "outputs": [
        {
          "name": "",
          "type": "bool"
        }
      ],
      "payable": false,
      "stateMutability": "view",
      "type": "function",
      "signature": "0x885a0973"
    },
    {
      "constant": true,
      "inputs": [
        {
          "name": "",
          "type": "bytes32"
        }
      ],
      "name": "usedHashes",
      "outputs": [
        {
          "name": "",
          "type": "bool"
        }
      ],
      "payable": false,
      "stateMutability": "view",
      "type": "function",
      "signature": "0xaef18bf7"
    },
    {
      "anonymous": false,
      "inputs": [
        {
          "indexed": false,
          "name": "folderAddress",
          "type": "address"
        },
        {
          "indexed": false,
          "name": "master",
          "type": "address"
        },
        {
          "indexed": false,
          "name": "blockNumber",
          "type": "uint256"
        }
      ],
      "name": "NewFolder",
      "type": "event",
      "signature": "0x9fbd1e6d18c87f60d60a06b2479641d217ae9fe32c8c0ed019bf2db0d71ff671"
    },
    {
      "anonymous": false,
      "inputs": [
        {
          "indexed": false,
          "name": "blockNumber",
          "type": "uint256"
        },
        {
          "indexed": false,
          "name": "blockTimeStamp",
          "type": "uint256"
        },
        {
          "indexed": false,
          "name": "folderAddress",
          "type": "address"
        },
        {
          "indexed": false,
          "name": "from",
          "type": "address"
        },
        {
          "indexed": false,
          "name": "to",
          "type": "address"
        },
        {
          "indexed": false,
          "name": "permissionOfFrom",
          "type": "uint8"
        },
        {
          "indexed": false,
          "name": "permissionOfTo",
          "type": "uint8"
        },
        {
          "indexed": false,
          "name": "fromTime",
          "type": "uint256"
        },
        {
          "indexed": false,
          "name": "toTime",
          "type": "uint256"
        }
      ],
      "name": "TimeRestrictedPermission",
      "type": "event",
      "signature": "0x1f773f2d4194d174a7d94783a6ab5579be8fba542adbf8c5e3fd074570375243"
    },
    {
      "anonymous": false,
      "inputs": [
        {
          "indexed": false,
          "name": "blockNumber",
          "type": "uint256"
        },
        {
          "indexed": false,
          "name": "blockTimeStamp",
          "type": "uint256"
        },
        {
          "indexed": false,
          "name": "folderAddress",
          "type": "address"
        },
        {
          "indexed": false,
          "name": "from",
          "type": "address"
        },
        {
          "indexed": false,
          "name": "to",
          "type": "address"
        },
        {
          "indexed": false,
          "name": "permissionOfFrom",
          "type": "uint8"
        },
        {
          "indexed": false,
          "name": "permissionOfTo",
          "type": "uint8"
        },
        {
          "indexed": false,
          "name": "fromTime",
          "type": "uint256"
        },
        {
          "indexed": false,
          "name": "toTime",
          "type": "uint256"
        }
      ],
      "name": "TemporaryPermission",
      "type": "event",
      "signature": "0x1b998809a69208ac98028e459bf32c99b6ac2dd03a577ef96cf1a0ef7eac198d"
    },
    {
      "anonymous": false,
      "inputs": [
        {
          "indexed": false,
          "name": "blockNumber",
          "type": "uint256"
        },
        {
          "indexed": false,
          "name": "blockTimeStamp",
          "type": "uint256"
        },
        {
          "indexed": false,
          "name": "_hash",
          "type": "bytes32"
        },
        {
          "indexed": false,
          "name": "from",
          "type": "address"
        },
        {
          "indexed": false,
          "name": "to",
          "type": "address"
        },
        {
          "indexed": false,
          "name": "permissionOfFrom",
          "type": "uint8"
        },
        {
          "indexed": false,
          "name": "permissionOfTo",
          "type": "uint8"
        }
      ],
      "name": "DocumentEvent",
      "type": "event",
      "signature": "0x423e2cfeb77afca996aa68c849d36f546ce094000b815aff15c43846c36513f2"
    },
    {
      "anonymous": false,
      "inputs": [
        {
          "indexed": false,
          "name": "blockNumber",
          "type": "uint256"
        },
        {
          "indexed": false,
          "name": "blockTimeStamp",
          "type": "uint256"
        },
        {
          "indexed": false,
          "name": "dappboxfolder",
          "type": "address"
        },
        {
          "indexed": false,
          "name": "from",
          "type": "address"
        },
        {
          "indexed": false,
          "name": "to",
          "type": "address"
        },
        {
          "indexed": false,
          "name": "permissionOfFrom",
          "type": "uint8"
        },
        {
          "indexed": false,
          "name": "permissionOfTo",
          "type": "uint8"
        }
      ],
      "name": "FolderEvent",
      "type": "event",
      "signature": "0x877da8263ce2b45df7cc29b7fc73685cf28d154889ae04f93332680329f81b14"
    },
    {
      "constant": false,
      "inputs": [
        {
          "name": "_delegate",
          "type": "address"
        },
        {
          "name": "_folderAddress",
          "type": "address"
        },
        {
          "name": "_fromTime",
          "type": "uint256"
        },
        {
          "name": "_toTime",
          "type": "uint256"
        }
      ],
      "name": "upgradeToOwner",
      "outputs": [
        {
          "name": "success",
          "type": "bool"
        }
      ],
      "payable": false,
      "stateMutability": "nonpayable",
      "type": "function",
      "signature": "0xa241ee5a"
    }
  ],
  "bytecode": "0x608060405234801561001057600080fd5b50611434806100206000396000f3fe6080604052600436106100565763ffffffff7c0100000000000000000000000000000000000000000000000000000000600035041663885a0973811461005b578063a241ee5a146100a2578063aef18bf7146100eb575b600080fd5b34801561006757600080fd5b5061008e6004803603602081101561007e57600080fd5b5035600160a060020a0316610115565b604080519115158252519081900360200190f35b3480156100ae57600080fd5b5061008e600480360360808110156100c557600080fd5b50600160a060020a0381358116916020810135909116906040810135906060013561012a565b3480156100f757600080fd5b5061008e6004803603602081101561010e57600080fd5b5035610f9e565b60066020526000908152604090205460ff1681565b600061013584610fb3565b151561018b576040805160e560020a62461bcd02815260206004820152601660248201527f466f6c64657220646f6573206e6f742065786973747300000000000000000000604482015290519081900360640190fd5b82421115801561019a57508183105b15156101f0576040805160e560020a62461bcd02815260206004820152601460248201527f496e76616c69642054696d6520426f756e64732e000000000000000000000000604482015290519081900360640190fd5b600160a060020a0380851660009081526009602090815260408083209389168352600a90930190522060010154421161022857600080fd5b60006102343386610fe5565b9050600081600481111561024457fe5b14610299576040805160e560020a62461bcd02815260206004820152600d60248201527f4163636573732044656e69656400000000000000000000000000000000000000604482015290519081900360640190fd5b60006102a58787610fe5565b90506102b087611114565b600160a060020a038087166000908152600960209081526040808320938b16835260079093019052205460ff16151561072c5760028160048111156102f157fe5b141561053657600160a060020a038087166000908152600960209081526040808320938b168352600b909301905220600101544210156104d157600160a060020a038087166000908152600960209081526040808320938b168352600b909301905220600101548410156103c257505050600160a060020a038381166000908152600960208181526040808420948916845291840181528183208054600160ff199182168117909255600d86018352838520805490911682179055600a909401905290208381558101829055610f96565b600160a060020a038087166000908152600960209081526040808320938b168352600b9093019052206001015485111561045b57505050600160a060020a03838116600090815260096020908152604080832093881683526008840182528083208054600160ff199182168117909255600d86018452828520805490911682179055600a90940190915290208381558101829055610f96565b6040805160e560020a62461bcd02815260206004820152602160248201527f476976656e2054696d6520426f756e64732061726520636f6e666c696374696e60448201527f6700000000000000000000000000000000000000000000000000000000000000606482015290519081900360840190fd5b505050600160a060020a03838116600090815260096020908152604080832093881683526008840182528083208054600160ff199182168117909255600d86018452828520805490911682179055600a90940190915290208381558101829055610f96565b600381600481111561054457fe5b14156106dc57600160a060020a038087166000908152600960209081526040808320938b168352600b909301905220544210156104d157600160a060020a038087166000908152600960209081526040808320938b168352600b9093019052205484101561061157505050600160a060020a03838116600090815260096020908152604080832093881683526008840182528083208054600160ff199182168117909255600d86018452828520805490911682179055600a90940190915290208381558101829055610f96565b600160a060020a038087166000908152600960209081526040808320938b168352600b90930190522054851180156106745750600160a060020a038087166000908152600960209081526040808320938b168352600b9093019052206001015484105b156103c257505050600160a060020a038381166000908152600960208181526040808420948916845291840181528183208054600160ff199182168117909255600d86018352838520805490911682179055600a909401905290208381558101829055610f96565b6040805160e560020a62461bcd02815260206004820152601760248201527f42617365205065726d697373696f6e20496e76616c6964000000000000000000604482015290519081900360640190fd5b600160a060020a038087166000908152600960209081526040808320938b16835260079093019052205460ff16151560011415610f4657600381600481111561077157fe5b1415610ac557600160a060020a038087166000908152600960209081526040808320938b168352600b909301905220600101544210156109dc57600160a060020a038087166000908152600960209081526040808320938b168352600b9093019052205484101561084157505050600160a060020a03838116600090815260096020908152604080832093881683526008840182528083208054600160ff199182168117909255600d86018452828520805490911682179055600a90940190915290208381558101829055610f96565b600160a060020a038087166000908152600960209081526040808320938b168352600b90930190522054851180156108a45750600160a060020a038087166000908152600960209081526040808320938b168352600b9093019052206001015484105b1561090c57505050600160a060020a038381166000908152600960208181526040808420948916845291840181528183208054600160ff199182168117909255600d86018352838520805490911682179055600a909401905290208381558101829055610f96565b600160a060020a038087166000908152600960209081526040808320938b168352600b90930190522060010154851180156109725750600160a060020a038087166000908152600960209081526040808320938b168352600c9093019052206001015484105b1561045b57505050600160a060020a03838116600090815260096020908152604080832093881683526008840182528083208054600160ff199182168117909255600d86018452828520805490911682179055600a90940190915290208381558101829055610f96565b600160a060020a038087166000908152600960209081526040808320938b168352600c90930190522060010154841015610a7557505050600160a060020a03838116600090815260096020908152604080832093881683526008840182528083208054600160ff199182168117909255600d86018452828520805490911682179055600a90940190915290208381558101829055610f96565b6040805160e560020a62461bcd02815260206004820181905260248201527f476976656e2054696d6520426f756e64732061726520436f6e666c6974696e67604482015290519081900360640190fd5b6002816004811115610ad357fe5b1415610c3d57600160a060020a038087166000908152600960209081526040808320938b168352600c90930190522060010154421015610ba457600160a060020a038087166000908152600960209081526040808320938b168352600b9093019052206001015484101561090c57505050600160a060020a038381166000908152600960208181526040808420948916845291840181528183208054600160ff199182168117909255600d86018352838520805490911682179055600a909401905290208381558101829055610f96565b600160a060020a038087166000908152600960209081526040808320938b168352600b9093019052206001015484101561045b57505050600160a060020a03838116600090815260096020908152604080832093881683526008840182528083208054600160ff199182168117909255600d86018452828520805490911682179055600a90940190915290208381558101829055610f96565b6004816004811115610c4b57fe5b14156106dc57600160a060020a038087166000908152600960209081526040808320938b168352600c90930190522054421015610e4957600160a060020a038087166000908152600960209081526040808320938b168352600b90930190522054421015610d7d57600160a060020a038087166000908152600960209081526040808320938b168352600c9093019052205485118015610d135750600160a060020a038087166000908152600960209081526040808320938b168352600b9093019052205484105b1561084157505050600160a060020a03838116600090815260096020908152604080832093881683526008840182528083208054600160ff199182168117909255600d86018452828520805490911682179055600a90940190915290208381558101829055610f96565b600160a060020a038087166000908152600960209081526040808320938b168352600c90930190522054851180156109725750600160a060020a038087166000908152600960209081526040808320938b168352600c9093019052206001015484101561045b57505050600160a060020a03838116600090815260096020908152604080832093881683526008840182528083208054600160ff199182168117909255600d86018452828520805490911682179055600a90940190915290208381558101829055610f96565b600160a060020a038087166000908152600960209081526040808320938b168352600b909301905220544210156106dc57600160a060020a038087166000908152600960209081526040808320938b168352600b90930190522054851180156109725750600160a060020a038087166000908152600960209081526040808320938b168352600b9093019052206001015484101561045b57505050600160a060020a03838116600090815260096020908152604080832093881683526008840182528083208054600160ff199182168117909255600d86018452828520805490911682179055600a90940190915290208381558101829055610f96565b6040805160e560020a62461bcd02815260206004820152601260248201527f556e6578706563746564204661696c7572650000000000000000000000000000604482015290519081900360640190fd5b949350505050565b60056020526000908152604090205460ff1681565b600160a060020a03811660009081526006602052604081205460ff1615610fdc57506001610fe0565b5060005b919050565b600160a060020a038181166000908152600960205260408120549091848116911614156110145750600061110e565b600160a060020a038083166000908152600960209081526040808320938716835260079093019052205460ff1615156110c957600160a060020a038083166000908152600960209081526040808320938716835260089093019052205460ff161515600114156110b857600061108a84846111ac565b9050600481600481111561109a57fe5b146110a657905061110e565b6110b08484611301565b91505061110e565b6110c28383611301565b905061110e565b600160a060020a038083166000908152600960209081526040808320938716835260079093019052205460ff1615156001141561110a576110c283836111ac565b5060045b92915050565b600160a060020a03811660009081526008602052604090205460ff1615156111a957600160a060020a0381166000818152600860205260408120805460ff191660019081179091556007805491820181559091527fa66cc928b5edb82af9bd49922954155ab7b0942694bea4ce44661d9a8736c68801805473ffffffffffffffffffffffffffffffffffffffff191690911790555b50565b600160a060020a0380821660009081526009602090815260408083209386168352600a90930190529081205442108015906112125750600160a060020a0380831660009081526009602090815260408083209387168352600a9093019052206001015442105b1561121f5750600161110e565b600160a060020a0380831660009081526009602090815260408083209387168352600b9093019052205442108015906112835750600160a060020a0380831660009081526009602090815260408083209387168352600b9093019052206001015442105b156112905750600261110e565b600160a060020a0380831660009081526009602090815260408083209387168352600c9093019052205442108015906112f45750600160a060020a0380831660009081526009602090815260408083209387168352600c9093019052206001015442105b1561110a5750600361110e565b600061130d838361133b565b1561131a5750600161110e565b6113248383611386565b156113315750600261110e565b6112f483836113c7565b600160a060020a03808216600090815260096020908152604080832093861683526001938401909152812054909160ff9091161515141561137e5750600161110e565b50600061110e565b600160a060020a0380821660009081526009602090815260408083209386168352600290930190529081205460ff1615156001141561137e5750600161110e565b600160a060020a0380821660009081526009602090815260408083209386168352600390930190529081205460ff1615156001141561137e5750600161110e56fea165627a7a723058200a989bb56d41644e6f75fb3db1221130bf4f78735ba51ab2e371d82e3dd50e900029",
  "source": "pragma solidity >=0.4.21 <0.6.0;\nimport \"./NotarizationManagement.sol\";\n// import \"./PermissionManagement.sol\";\n/// @title PermissionManagement\n/// @author Ashwin Arora\n//  @updateBy Md Shadab Alam\n\ncontract AccessRightsDefinition is NotarizationManagement{\n   //struct to hold permissions of respective hashes\n  struct Permissions{\n    address master;\n    mapping(address => bool) DelegatedOwners;\n    mapping(address => bool) write;\n    mapping(address => bool) read;\n    uint ownerLength;\n    uint writeLength;\n    uint readLength;\n    mapping(address => bool) isBaseRestricted;\n    mapping(address => bool) isTemporarilyUpgraded;\n    mapping(address => bool) isUpgradedAgain;\n    mapping(address => TimeBounds) DelegatedOwnersTime;\n    mapping(address => TimeBounds) writeTime;\n    mapping(address => TimeBounds) readTime;\n    mapping(address => bool) isDelegatedOwnerRestricted;\n    mapping(address => bool) isWriteRestricted;\n    mapping(address => bool) isReadRestricted;\n  }\n  //how to access above varibles-\n  //permissionOf[_hash].DelegatedOwners[_delegate]\n  //permissionOf[_hash].DelegatedOwnersTime[_delegate].fromTime\n  //permissiosOf[_hash].isBaseRestricted[_delegate]\n\n  /*\n  struct AddressDetails{\n    bool isBaseRestricted;\n    bool isTemporarilyUpgraded;\n    bool isUpgradedAgain;\n  }\n  */\n\n  struct TimeBounds{\n    uint256 fromTime;\n    uint256 toTime;\n  }\n  address[] permissionAddresses;\n  mapping(address => bool) addressPresent;\n\n  //maps to all the permissions of a particular hash\n  //bytes32 to store the hash\n  mapping(address => Permissions) permissionOf;\n\n  event NewFolder(address folderAddress, address master, uint blockNumber);\n\n  event TimeRestrictedPermission(\n    uint blockNumber,\n    uint blockTimeStamp,\n    address folderAddress,\n    address from,\n    address to,\n    PermissionType permissionOfFrom,\n    PermissionType permissionOfTo,\n    uint256 fromTime,\n    uint256 toTime\n  );\n\n  event TemporaryPermission(\n    uint blockNumber,\n    uint blockTimeStamp,\n    address folderAddress,\n    address from,\n    address to,\n    PermissionType permissionOfFrom,\n    PermissionType permissionOfTo,\n    uint256 fromTime,\n    uint256 toTime\n  );\n  \n  /**\n  * @dev use to check what permissions the delegate hash\n  * @param _delegate Ethereum address of whos permission is to be checked\n  * @param _folderAddress folderAddress of the NewFolder\n  */\n  function checkPermission(address _delegate, address _folderAddress) internal view returns (PermissionType){\n    if(permissionOf[_folderAddress].master == _delegate){\n      return PermissionType.master;\n    }\n    //checking if the delegte's permission are time restricted or not\n    if(permissionOf[_folderAddress].isBaseRestricted[_delegate] == false){\n      //checking if there is any upgrade\n      if(permissionOf[_folderAddress].isTemporarilyUpgraded[_delegate] == true){\n        PermissionType timeRestrictedPermission = checkTimedPermission(_delegate, _folderAddress);\n        if(timeRestrictedPermission != PermissionType.none){\n          return timeRestrictedPermission;\n        }else{\n          return checkPermanentPermission(_delegate,_folderAddress);\n        }\n      }else{\n        return checkPermanentPermission(_delegate, _folderAddress);\n      }\n    }else if(permissionOf[_folderAddress].isBaseRestricted[_delegate] == true){\n      return checkTimedPermission(_delegate,_folderAddress);\n    }else{\n      return PermissionType.none;\n    }\n  }\n   /**\n  * @dev use to check just the base permission of delegate\n  * @param _delegate Ethereum address of whos permission is to be checked\n  * @param _folderAddress folderAddress of the NewFolder\n  */\n  function checkTimedPermission(address _delegate, address _folderAddress) private view returns(PermissionType){\n    if(permissionOf[_folderAddress].DelegatedOwnersTime[_delegate].fromTime <= now && permissionOf[_folderAddress].DelegatedOwnersTime[_delegate].toTime > now){\n      return PermissionType.owner;\n    }else if(permissionOf[_folderAddress].writeTime[_delegate].fromTime <= now && permissionOf[_folderAddress].writeTime[_delegate].toTime > now){\n      return PermissionType.write;\n    }else if(permissionOf[_folderAddress].readTime[_delegate].fromTime <= now && permissionOf[_folderAddress].readTime[_delegate].toTime > now){\n      return PermissionType.read;\n    }else{\n      return PermissionType.none;\n    }\n  }\n  /**\n  * @dev use to check just the base permission of delegate\n  * @param _delegate Ethereum address of whos permission is to be checked\n  * @param _folderAddress folderAddress of the NewFolder\n  */\n  function checkPermanentPermission(address _delegate, address _folderAddress) internal view returns(PermissionType){\n    if(isOwner(_delegate, _folderAddress)){\n      return PermissionType.owner;\n    }else if(isWriter(_delegate, _folderAddress)){\n      return PermissionType.write;\n    }else if(isReader(_delegate, _folderAddress)){\n      return PermissionType.read;\n    }else{\n      return PermissionType.none;\n    }\n  }\n    /**\n  * @dev use to check if the delegate has owner exists\n  * @param _delegate Ethereum address of whos owner access is being checked\n  * @param _folderAddress folderAddress of the NewFolder\n  */\n  function isOwner(address _delegate, address _folderAddress) private view returns (bool){\n    if(permissionOf[_folderAddress].DelegatedOwners[_delegate] == true){\n      return true;\n    }else{\n      return false;\n    }\n  }\n\n  /**\n  * @dev use to check if has delegate has owner exists\n  * @param _delegate Ethereum address of whos write access is being checked\n  * @param _folderAddress folderAddress of the NewFolder\n  */\n  function isWriter(address _delegate, address _folderAddress) private view returns (bool){\n    if(permissionOf[_folderAddress].write[_delegate] == true){\n      return true;\n    }else{\n      return false;\n    }\n  }\n\n  /**\n  * @dev use to check if has delegate has read exists\n  * @param _delegate Ethereum address of whos read access is being checked\n  * @param _folderAddress folderAddress of the NewFolder\n  */\n  function isReader(address _delegate, address _folderAddress) private view returns (bool){\n    if(permissionOf[_folderAddress].read[_delegate] == true){\n      return true;\n    }else{\n      return false;\n    }\n  }\n\n  function pushAddress(address _delegate) internal {\n    if (addressPresent[_delegate] == false){\n      addressPresent[_delegate] = true;\n      permissionAddresses.push(_delegate);\n    }\n  }\n\n   /**\n  * @dev use to temporarily upgrade read or write access of an address to owner access\n  * @param _delegate Ethereum address whos permission is to be temporarily upgarded\n  * @param _folderAddress folderAddress of the document\n  * @param _fromTime Time from which the delegate has upgraded write access\n  * @param _toTime Time till which the delegate has upgraded write access\n  */\n  function upgradeToOwner(address _delegate, address _folderAddress, uint256 _fromTime, uint256 _toTime) public returns (bool success){\n    require(folderExists(_folderAddress), \"Folder does not exists\");\n    require(block.timestamp <= _fromTime && _fromTime < _toTime, \"Invalid Time Bounds.\");\n    require(permissionOf[_folderAddress].DelegatedOwnersTime[_delegate].toTime < block.timestamp);\n    PermissionType permissionOfCaller = checkPermission(msg.sender, _folderAddress);\n    require(permissionOfCaller == PermissionType.master , \"Access Denied\");\n\n    PermissionType permissionOfDelegate = checkPermission(_delegate, _folderAddress);\n    pushAddress(_delegate);\n    //checking if the base permission is restricted of not\n    //in case base permission is not restricted\n    if(permissionOf[_folderAddress].isBaseRestricted[_delegate] == false){\n      //Delegate's Permission can be write in 2 cases\n      //1. Base Permission is write\n      //2. Base Permission is Read and delegate was previously granted temporary write upgrade\n      if(permissionOfDelegate == PermissionType.write){\n        //Case 2. Base Permission is Read and delegate is previously granted temporary write upgrade\n        if(permissionOf[_folderAddress].writeTime[_delegate].toTime > block.timestamp){\n          //checking if given time bounds are inside temporarily upgraded write time bounds\n          if(permissionOf[_folderAddress].writeTime[_delegate].toTime > _toTime){\n            permissionOf[_folderAddress].isUpgradedAgain[_delegate] = true;\n            permissionOf[_folderAddress].isDelegatedOwnerRestricted[_delegate] = true;\n            permissionOf[_folderAddress].DelegatedOwnersTime[_delegate].fromTime = _fromTime;\n            permissionOf[_folderAddress].DelegatedOwnersTime[_delegate].toTime = _toTime;\n            success = true;\n            return success;\n          }// in case given time bounds begin after the end of write time bounds\n          else if(permissionOf[_folderAddress].writeTime[_delegate].toTime < _fromTime){\n            permissionOf[_folderAddress].isTemporarilyUpgraded[_delegate] = true;\n            permissionOf[_folderAddress].isDelegatedOwnerRestricted[_delegate] = true;\n            permissionOf[_folderAddress].DelegatedOwnersTime[_delegate].fromTime = _fromTime;\n            permissionOf[_folderAddress].DelegatedOwnersTime[_delegate].toTime = _toTime;\n            success = true;\n            return success;\n          }else{\n            revert(\"Given Time Bounds are conflicting\");\n          }\n        }\n        //Case 1. Base Permission is Write\n        else{\n          permissionOf[_folderAddress].isTemporarilyUpgraded[_delegate] = true;\n          permissionOf[_folderAddress].isDelegatedOwnerRestricted[_delegate] = true;\n          permissionOf[_folderAddress].DelegatedOwnersTime[_delegate].fromTime = _fromTime;\n          permissionOf[_folderAddress].DelegatedOwnersTime[_delegate].toTime = _toTime;\n          success = true;\n          return success;\n        }\n      }\n      //Delegate's permission can be read in 2 cases\n      //1. Base permission is Read with no write upgrades later in time\n      //2. Base Permission is Read with write upgrade later in times\n      else if(permissionOfDelegate == PermissionType.read){\n        //Case 2. Base Permission is Read with write upgrades later in times\n        if(permissionOf[_folderAddress].writeTime[_delegate].fromTime > block.timestamp){\n          //in case given time bounds start and end before the start of write time bounds\n          if(permissionOf[_folderAddress].writeTime[_delegate].fromTime > _toTime){\n            permissionOf[_folderAddress].isTemporarilyUpgraded[_delegate] = true;\n            permissionOf[_folderAddress].isDelegatedOwnerRestricted[_delegate] = true;\n            permissionOf[_folderAddress].DelegatedOwnersTime[_delegate].fromTime = _fromTime;\n            permissionOf[_folderAddress].DelegatedOwnersTime[_delegate].toTime = _toTime;\n            success = true;\n            return success;\n          }\n          //in case given time bounds are inside write time bounds\n          else if(permissionOf[_folderAddress].writeTime[_delegate].fromTime < _fromTime && permissionOf[_folderAddress].writeTime[_delegate].toTime > _toTime){\n            permissionOf[_folderAddress].isUpgradedAgain[_delegate] = true;\n            permissionOf[_folderAddress].isDelegatedOwnerRestricted[_delegate] = true;\n            permissionOf[_folderAddress].DelegatedOwnersTime[_delegate].fromTime = _fromTime;\n            permissionOf[_folderAddress].DelegatedOwnersTime[_delegate].toTime = _toTime;\n            success = true;\n            return success;\n          }\n          // in case given time bounds begin after the end of write time bounds\n          else if(permissionOf[_folderAddress].writeTime[_delegate].toTime < _fromTime){\n            permissionOf[_folderAddress].isTemporarilyUpgraded[_delegate] = true;\n            permissionOf[_folderAddress].isDelegatedOwnerRestricted[_delegate] = true;\n            permissionOf[_folderAddress].DelegatedOwnersTime[_delegate].fromTime = _fromTime;\n            permissionOf[_folderAddress].DelegatedOwnersTime[_delegate].toTime = _toTime;\n            success = true;\n            return success;\n          }else{\n            revert(\"Given Time Bounds are conflicting\");\n          }\n        }\n        // Case 1. Base permission is Read with no write upgrades later in time\n        else{\n          permissionOf[_folderAddress].isTemporarilyUpgraded[_delegate] = true;\n          permissionOf[_folderAddress].isDelegatedOwnerRestricted[_delegate] = true;\n          permissionOf[_folderAddress].DelegatedOwnersTime[_delegate].fromTime = _fromTime;\n          permissionOf[_folderAddress].DelegatedOwnersTime[_delegate].toTime = _toTime;\n          success = true;\n          return success;\n        }\n      }else{\n        revert(\"Base Permission Invalid\");\n      }\n    }\n    // in case base is restricted\n    else if(permissionOf[_folderAddress].isBaseRestricted[_delegate] == true){\n      //Delegates Permission can be read in 2 cases\n      //1. Base Permission is read with no write upgrade later in time\n      //2. Base Permission is Read with write upgrade later in times\n      if(permissionOfDelegate == PermissionType.read){\n        //Case 2.  Base Permission is Read with write upgrade later in times\n        if(permissionOf[_folderAddress].writeTime[_delegate].toTime > block.timestamp){\n          //in case time bounds start and end before the start of write time bounds\n          if(permissionOf[_folderAddress].writeTime[_delegate].fromTime > _toTime){\n            permissionOf[_folderAddress].isTemporarilyUpgraded[_delegate] = true;\n            permissionOf[_folderAddress].isDelegatedOwnerRestricted[_delegate] = true;\n            permissionOf[_folderAddress].DelegatedOwnersTime[_delegate].fromTime = _fromTime;\n            permissionOf[_folderAddress].DelegatedOwnersTime[_delegate].toTime = _toTime;\n            success = true;\n            return success;\n          }\n          //in case given time bounds are inside write time bounds\n          else if(permissionOf[_folderAddress].writeTime[_delegate].fromTime < _fromTime && permissionOf[_folderAddress].writeTime[_delegate].toTime > _toTime){\n            permissionOf[_folderAddress].isUpgradedAgain[_delegate] = true;\n            permissionOf[_folderAddress].isDelegatedOwnerRestricted[_delegate] = true;\n            permissionOf[_folderAddress].DelegatedOwnersTime[_delegate].fromTime = _fromTime;\n            permissionOf[_folderAddress].DelegatedOwnersTime[_delegate].toTime = _toTime;\n            success = true;\n            return success;\n          }\n          // in case given time bounds begin after the end of write time  bounds and are inside read time bounds\n          else if(permissionOf[_folderAddress].writeTime[_delegate].toTime < _fromTime && permissionOf[_folderAddress].readTime[_delegate].toTime > _toTime){\n            permissionOf[_folderAddress].isTemporarilyUpgraded[_delegate] = true;\n            permissionOf[_folderAddress].isDelegatedOwnerRestricted[_delegate] = true;\n            permissionOf[_folderAddress].DelegatedOwnersTime[_delegate].fromTime = _fromTime;\n            permissionOf[_folderAddress].DelegatedOwnersTime[_delegate].toTime = _toTime;\n            success = true;\n            return success;\n          }else{\n            revert(\"Given Time Bounds are conflicting\");\n          }\n        }\n        //Case 2. Base Permission is read with no write upgrade later in time\n        else{\n          //checking if given time bounds are inside read time bounds\n          if(permissionOf[_folderAddress].readTime[_delegate].toTime > _toTime){\n            permissionOf[_folderAddress].isTemporarilyUpgraded[_delegate] = true;\n            permissionOf[_folderAddress].isDelegatedOwnerRestricted[_delegate] = true;\n            permissionOf[_folderAddress].DelegatedOwnersTime[_delegate].fromTime = _fromTime;\n            permissionOf[_folderAddress].DelegatedOwnersTime[_delegate].toTime = _toTime;\n            success = true;\n            return success;\n          }else{\n            revert(\"Given Time Bounds are Confliting\");\n          }\n        }\n      }\n      //Delegate's permission can be write in 2 cases\n      //1. Base Permission is write\n      //2. Base Permission is Read and delegate was previously granted temporary write upgrade\n      else if(permissionOfDelegate == PermissionType.write){\n        //Case 2. Base Permission is Read and delegate was previously granted temporary write upgrade\n        if(permissionOf[_folderAddress].readTime[_delegate].toTime > block.timestamp){\n          //checking if given time bounds are inside temporarily upgraded write time bounds\n          if(permissionOf[_folderAddress].writeTime[_delegate].toTime > _toTime){\n            permissionOf[_folderAddress].isUpgradedAgain[_delegate] = true;\n            permissionOf[_folderAddress].isDelegatedOwnerRestricted[_delegate] = true;\n            permissionOf[_folderAddress].DelegatedOwnersTime[_delegate].fromTime = _fromTime;\n            permissionOf[_folderAddress].DelegatedOwnersTime[_delegate].toTime = _toTime;\n            success = true;\n            return success;\n          }\n          // in case given time bounds begin after the end of write time bounds\n          // and checking if given time bounds end before the end of read time bounds\n          else if(permissionOf[_folderAddress].writeTime[_delegate].toTime < _fromTime && permissionOf[_folderAddress].readTime[_delegate].toTime > _toTime){\n            permissionOf[_folderAddress].isTemporarilyUpgraded[_delegate] = true;\n            permissionOf[_folderAddress].isDelegatedOwnerRestricted[_delegate] = true;\n            permissionOf[_folderAddress].DelegatedOwnersTime[_delegate].fromTime = _fromTime;\n            permissionOf[_folderAddress].DelegatedOwnersTime[_delegate].toTime = _toTime;\n            success = true;\n            return success;\n          }else{\n            revert(\"Given Time Bounds are conflicting\");\n          }\n        }\n        //Case 1. Base Permission is write \n        else{  \n          if(permissionOf[_folderAddress].writeTime[_delegate].toTime > _toTime){\n            permissionOf[_folderAddress].isTemporarilyUpgraded[_delegate] = true;\n            permissionOf[_folderAddress].isDelegatedOwnerRestricted[_delegate] = true;\n            permissionOf[_folderAddress].DelegatedOwnersTime[_delegate].fromTime = _fromTime;\n            permissionOf[_folderAddress].DelegatedOwnersTime[_delegate].toTime = _toTime;\n            success = true;\n            return success;\n          }else{\n            revert(\"Given Time Bounds are conflicting\");\n          }\n        }\n      }\n      //Permission of delegate can be none when-\n      //Delegate has time restricted write access begining later in time\n      //Delegate has time restricted read access begining later in time\n      else if(permissionOfDelegate == PermissionType.none){\n        //Delegate's base permission can be read in 2 cases\n        //1. read access is begining later in time with no temporary write upgrade\n        //2. read access is begining later in time with temporary write upgrade\n        if(permissionOf[_folderAddress].readTime[_delegate].fromTime > block.timestamp){\n          //Case 2. read access is begining later in time with temporary write upgrade\n          if(permissionOf[_folderAddress].writeTime[_delegate].fromTime > block.timestamp){\n            //checking if given bounds\n            //begin after the start of read time bounds\n            //and end before the start of write time bounds\n            if(permissionOf[_folderAddress].readTime[_delegate].fromTime < _fromTime && permissionOf[_folderAddress].writeTime[_delegate].fromTime >_toTime){\n              permissionOf[_folderAddress].isTemporarilyUpgraded[_delegate] = true;\n              permissionOf[_folderAddress].isDelegatedOwnerRestricted[_delegate] = true;\n              permissionOf[_folderAddress].DelegatedOwnersTime[_delegate].fromTime = _fromTime;\n              permissionOf[_folderAddress].DelegatedOwnersTime[_delegate].toTime = _toTime;\n              success = true;\n              return success;\n            }\n            //checking if given time bounds\n            //begin after the start of write time bounds\n            //and end before the end of write time bounds\n            else if(permissionOf[_folderAddress].writeTime[_delegate].fromTime < _fromTime && permissionOf[_folderAddress].writeTime[_delegate].toTime >_toTime){\n              permissionOf[_folderAddress].isUpgradedAgain[_delegate] = true;\n              permissionOf[_folderAddress].isDelegatedOwnerRestricted[_delegate] = true;\n              permissionOf[_folderAddress].DelegatedOwnersTime[_delegate].fromTime = _fromTime;\n              permissionOf[_folderAddress].DelegatedOwnersTime[_delegate].toTime = _toTime;\n              success = true;\n              return success;\n            }\n            //checking if the given time bounds\n            //begin after the end of write time bounds\n            //and before the end of read bounds\n            else if(permissionOf[_folderAddress].writeTime[_delegate].toTime < _fromTime && permissionOf[_folderAddress].readTime[_delegate].toTime > _toTime){\n              permissionOf[_folderAddress].isTemporarilyUpgraded[_delegate] = true;\n              permissionOf[_folderAddress].isDelegatedOwnerRestricted[_delegate] = true;\n              permissionOf[_folderAddress].DelegatedOwnersTime[_delegate].fromTime = _fromTime;\n              permissionOf[_folderAddress].DelegatedOwnersTime[_delegate].toTime = _toTime;\n              success = true;\n              return success;\n            }else{\n              revert(\"Given Time Bounds are conflicting\");\n            }\n          }\n          //Case 1. read access is begining later in time with no temporary write upgrade\n          else{\n            if(permissionOf[_folderAddress].readTime[_delegate].fromTime < _fromTime && permissionOf[_folderAddress].readTime[_delegate].toTime > _toTime){\n              permissionOf[_folderAddress].isTemporarilyUpgraded[_delegate] = true;\n              permissionOf[_folderAddress].isDelegatedOwnerRestricted[_delegate] = true;\n              permissionOf[_folderAddress].DelegatedOwnersTime[_delegate].fromTime = _fromTime;\n              permissionOf[_folderAddress].DelegatedOwnersTime[_delegate].toTime = _toTime;\n              success = true;\n              return success;\n            }else{\n              revert(\"Given Time Bounds are conflicting\");\n            }\n          }\n        }\n        //in case delegate's base permissions is write begining later in time\n        else if(permissionOf[_folderAddress].writeTime[_delegate].fromTime > block.timestamp){\n          //checking if given time bounds are inside write time bounds\n          if(permissionOf[_folderAddress].writeTime[_delegate].fromTime < _fromTime && permissionOf[_folderAddress].writeTime[_delegate].toTime > _toTime){\n            permissionOf[_folderAddress].isTemporarilyUpgraded[_delegate] = true;\n            permissionOf[_folderAddress].isDelegatedOwnerRestricted[_delegate] = true;\n            permissionOf[_folderAddress].DelegatedOwnersTime[_delegate].fromTime = _fromTime;\n            permissionOf[_folderAddress].DelegatedOwnersTime[_delegate].toTime = _toTime;\n            success = true;\n            return success;\n          }else{\n            revert(\"Given Time Bounds are conflicting\");\n          }\n\n        }else{\n          revert(\"Base Permission Invalid\");\n        }\n\n      }else{\n        revert(\"Base Permission Invalid\");\n      }\n\n    }else{\n      revert(\"Unexpected Failure\");\n    }\n  }  \n}",
  "sourcePath": "/home/sagar/Desktop/contract merging/ixxo_smartcontracts/AccessRight/PermissionManagementComplete/contracts/AccessRightsDefinition.sol",
  "compiler": {
    "name": "solc",
    "version": "0.5.0+commit.1d4f565a.Emscripten.clang"
  },
  "schemaVersion": "3.0.1",
  "updatedAt": "2019-03-27T07:50:56.177Z",
  "devdoc": {
    "author": "Ashwin Arora",
    "methods": {
      "upgradeToOwner(address,address,uint256,uint256)": {
        "details": "use to temporarily upgrade read or write access of an address to owner access",
        "params": {
          "_delegate": "Ethereum address whos permission is to be temporarily upgarded",
          "_folderAddress": "folderAddress of the document",
          "_fromTime": "Time from which the delegate has upgraded write access",
          "_toTime": "Time till which the delegate has upgraded write access"
        }
      }
    },
    "title": "PermissionManagement"
  },
  "userdoc": {
    "methods": {}
  }
}