{
  "contractName": "DocDependency",
  "abi": [
    {
      "constant": true,
      "inputs": [
        {
          "name": "",
          "type": "address"
        }
      ],
      "name": "usedFolders",
      "outputs": [
        {
          "name": "",
          "type": "bool"
        }
      ],
      "payable": false,
      "stateMutability": "view",
      "type": "function",
      "signature": "0x885a0973"
    },
    {
      "constant": true,
      "inputs": [
        {
          "name": "",
          "type": "bytes32"
        }
      ],
      "name": "usedHashes",
      "outputs": [
        {
          "name": "",
          "type": "bool"
        }
      ],
      "payable": false,
      "stateMutability": "view",
      "type": "function",
      "signature": "0xaef18bf7"
    },
    {
      "anonymous": false,
      "inputs": [
        {
          "indexed": false,
          "name": "_hash",
          "type": "bytes32"
        },
        {
          "indexed": false,
          "name": "master",
          "type": "address"
        },
        {
          "indexed": false,
          "name": "blockNumber",
          "type": "uint256"
        }
      ],
      "name": "NewDocument",
      "type": "event",
      "signature": "0xdb0cb24f9a64b8efb05388cfb2eeb0773513770b2d5a64ce7905dbd03e93fc2e"
    },
    {
      "anonymous": false,
      "inputs": [
        {
          "indexed": false,
          "name": "blockNumber",
          "type": "uint256"
        },
        {
          "indexed": false,
          "name": "blockTimeStamp",
          "type": "uint256"
        },
        {
          "indexed": false,
          "name": "documentHash",
          "type": "bytes32"
        },
        {
          "indexed": false,
          "name": "from",
          "type": "address"
        },
        {
          "indexed": false,
          "name": "to",
          "type": "address"
        },
        {
          "indexed": false,
          "name": "permissionOfFrom",
          "type": "uint8"
        },
        {
          "indexed": false,
          "name": "permissionOfTo",
          "type": "uint8"
        },
        {
          "indexed": false,
          "name": "fromTime",
          "type": "uint256"
        },
        {
          "indexed": false,
          "name": "toTime",
          "type": "uint256"
        }
      ],
      "name": "TimeRestrictedPermission",
      "type": "event",
      "signature": "0x351bb1a27a477bad8ad41c4a5e70ea476e31f5348c8136591d29f34f37b5a3ac"
    },
    {
      "anonymous": false,
      "inputs": [
        {
          "indexed": false,
          "name": "blockNumber",
          "type": "uint256"
        },
        {
          "indexed": false,
          "name": "blockTimeStamp",
          "type": "uint256"
        },
        {
          "indexed": false,
          "name": "documentHash",
          "type": "bytes32"
        },
        {
          "indexed": false,
          "name": "from",
          "type": "address"
        },
        {
          "indexed": false,
          "name": "to",
          "type": "address"
        },
        {
          "indexed": false,
          "name": "permissionOfFrom",
          "type": "uint8"
        },
        {
          "indexed": false,
          "name": "permissionOfTo",
          "type": "uint8"
        },
        {
          "indexed": false,
          "name": "fromTime",
          "type": "uint256"
        },
        {
          "indexed": false,
          "name": "toTime",
          "type": "uint256"
        }
      ],
      "name": "TemporaryPermission",
      "type": "event",
      "signature": "0xfc1f50a0758af13044fad1d7617063e882740a751197d2550d24cac371855034"
    },
    {
      "anonymous": false,
      "inputs": [
        {
          "indexed": false,
          "name": "blockNumber",
          "type": "uint256"
        },
        {
          "indexed": false,
          "name": "blockTimeStamp",
          "type": "uint256"
        },
        {
          "indexed": false,
          "name": "_hash",
          "type": "bytes32"
        },
        {
          "indexed": false,
          "name": "from",
          "type": "address"
        },
        {
          "indexed": false,
          "name": "to",
          "type": "address"
        },
        {
          "indexed": false,
          "name": "permissionOfFrom",
          "type": "uint8"
        },
        {
          "indexed": false,
          "name": "permissionOfTo",
          "type": "uint8"
        }
      ],
      "name": "DocumentEvent",
      "type": "event",
      "signature": "0x423e2cfeb77afca996aa68c849d36f546ce094000b815aff15c43846c36513f2"
    },
    {
      "anonymous": false,
      "inputs": [
        {
          "indexed": false,
          "name": "blockNumber",
          "type": "uint256"
        },
        {
          "indexed": false,
          "name": "blockTimeStamp",
          "type": "uint256"
        },
        {
          "indexed": false,
          "name": "dappboxfolder",
          "type": "address"
        },
        {
          "indexed": false,
          "name": "from",
          "type": "address"
        },
        {
          "indexed": false,
          "name": "to",
          "type": "address"
        },
        {
          "indexed": false,
          "name": "permissionOfFrom",
          "type": "uint8"
        },
        {
          "indexed": false,
          "name": "permissionOfTo",
          "type": "uint8"
        }
      ],
      "name": "FolderEvent",
      "type": "event",
      "signature": "0x877da8263ce2b45df7cc29b7fc73685cf28d154889ae04f93332680329f81b14"
    },
    {
      "constant": false,
      "inputs": [
        {
          "name": "_delegate",
          "type": "address"
        },
        {
          "name": "_folderAddress",
          "type": "bytes32"
        },
        {
          "name": "_fromTime",
          "type": "uint256"
        },
        {
          "name": "_toTime",
          "type": "uint256"
        }
      ],
      "name": "upgradeToOwner",
      "outputs": [
        {
          "name": "success",
          "type": "bool"
        }
      ],
      "payable": false,
      "stateMutability": "nonpayable",
      "type": "function",
      "signature": "0x69d7efee"
    }
  ],
  "bytecode": "0x608060405234801561001057600080fd5b5061134d806100206000396000f3fe6080604052600436106100565763ffffffff7c010000000000000000000000000000000000000000000000000000000060003504166369d7efee811461005b578063885a0973146100b4578063aef18bf7146100e7575b600080fd5b34801561006757600080fd5b506100a06004803603608081101561007e57600080fd5b50600160a060020a038135169060208101359060408101359060600135610111565b604080519115158252519081900360200190f35b3480156100c057600080fd5b506100a0600480360360208110156100d757600080fd5b5035600160a060020a0316610eeb565b3480156100f357600080fd5b506100a06004803603602081101561010a57600080fd5b5035610f00565b600061011c84610f15565b1515610172576040805160e560020a62461bcd02815260206004820152601660248201527f466f6c64657220646f6573206e6f742065786973747300000000000000000000604482015290519081900360640190fd5b82421115801561018157508183105b15156101d7576040805160e560020a62461bcd02815260206004820152601460248201527f496e76616c69642054696d6520426f756e64732e000000000000000000000000604482015290519081900360640190fd5b6000848152600960209081526040808320600160a060020a0389168452600a01909152902060010154421161020b57600080fd5b60006102173386610f3d565b9050600081600481111561022757fe5b1461027c576040805160e560020a62461bcd02815260206004820152600d60248201527f4163636573732044656e69656400000000000000000000000000000000000000604482015290519081900360640190fd5b60006102888787610f3d565b90506102938761105b565b6000868152600960209081526040808320600160a060020a038b16845260070190915290205460ff1615156106e25760028160048111156102d057fe5b1415610501576000868152600960209081526040808320600160a060020a038b168452600b0190915290206001015442101561049f576000868152600960209081526040808320600160a060020a038b168452600b01909152902060010154841015610397575050506000838152600960208181526040808420600160a060020a038916855292830182528084208054600160ff199182168117909255600d85018452828620805490911682179055600a9093019091529091208381558101829055610ee3565b6000868152600960209081526040808320600160a060020a038b168452600b01909152902060010154851115610429575050506000838152600960209081526040808320600160a060020a03881684526008810183528184208054600160ff199182168117909255600d83018552838620805490911682179055600a9091019092529091208381558101829055610ee3565b6040805160e560020a62461bcd02815260206004820152602160248201527f476976656e2054696d6520426f756e64732061726520636f6e666c696374696e60448201527f6700000000000000000000000000000000000000000000000000000000000000606482015290519081900360840190fd5b5050506000838152600960209081526040808320600160a060020a03881684526008810183528184208054600160ff199182168117909255600d83018552838620805490911682179055600a9091019092529091208381558101829055610ee3565b600381600481111561050f57fe5b1415610692576000868152600960209081526040808320600160a060020a038b168452600b0190915290205442101561049f576000868152600960209081526040808320600160a060020a038b168452600b019091529020548410156105d1575050506000838152600960209081526040808320600160a060020a03881684526008810183528184208054600160ff199182168117909255600d83018552838620805490911682179055600a9091019092529091208381558101829055610ee3565b6000868152600960209081526040808320600160a060020a038b168452600b019091529020548511801561062c57506000868152600960209081526040808320600160a060020a038b168452600b0190915290206001015484105b15610397575050506000838152600960208181526040808420600160a060020a038916855292830182528084208054600160ff199182168117909255600d85018452828620805490911682179055600a9093019091529091208381558101829055610ee3565b6040805160e560020a62461bcd02815260206004820152601760248201527f42617365205065726d697373696f6e20496e76616c6964000000000000000000604482015290519081900360640190fd5b6000868152600960209081526040808320600160a060020a038b16845260070190915290205460ff16151560011415610e9357600381600481111561072357fe5b1415610a50576000868152600960209081526040808320600160a060020a038b168452600b0190915290206001015442101561096e576000868152600960209081526040808320600160a060020a038b168452600b019091529020548410156107e8575050506000838152600960209081526040808320600160a060020a03881684526008810183528184208054600160ff199182168117909255600d83018552838620805490911682179055600a9091019092529091208381558101829055610ee3565b6000868152600960209081526040808320600160a060020a038b168452600b019091529020548511801561084357506000868152600960209081526040808320600160a060020a038b168452600b0190915290206001015484105b156108a9575050506000838152600960208181526040808420600160a060020a038916855292830182528084208054600160ff199182168117909255600d85018452828620805490911682179055600a9093019091529091208381558101829055610ee3565b6000868152600960209081526040808320600160a060020a038b168452600b019091529020600101548511801561090757506000868152600960209081526040808320600160a060020a038b168452600c0190915290206001015484105b15610429575050506000838152600960209081526040808320600160a060020a03881684526008810183528184208054600160ff199182168117909255600d83018552838620805490911682179055600a9091019092529091208381558101829055610ee3565b6000868152600960209081526040808320600160a060020a038b168452600c01909152902060010154841015610a00575050506000838152600960209081526040808320600160a060020a03881684526008810183528184208054600160ff199182168117909255600d83018552838620805490911682179055600a9091019092529091208381558101829055610ee3565b6040805160e560020a62461bcd02815260206004820181905260248201527f476976656e2054696d6520426f756e64732061726520436f6e666c6974696e67604482015290519081900360640190fd5b6002816004811115610a5e57fe5b1415610bb7576000868152600960209081526040808320600160a060020a038b168452600c01909152902060010154421015610b25576000868152600960209081526040808320600160a060020a038b168452600b019091529020600101548410156108a9575050506000838152600960208181526040808420600160a060020a038916855292830182528084208054600160ff199182168117909255600d85018452828620805490911682179055600a9093019091529091208381558101829055610ee3565b6000868152600960209081526040808320600160a060020a038b168452600b01909152902060010154841015610429575050506000838152600960209081526040808320600160a060020a03881684526008810183528184208054600160ff199182168117909255600d83018552838620805490911682179055600a9091019092529091208381558101829055610ee3565b6004816004811115610bc557fe5b1415610692576000868152600960209081526040808320600160a060020a038b168452600c01909152902054421015610da5576000868152600960209081526040808320600160a060020a038b168452600b01909152902054421015610ce4576000868152600960209081526040808320600160a060020a038b168452600c0190915290205485118015610c7d57506000868152600960209081526040808320600160a060020a038b168452600b0190915290205484105b156107e8575050506000838152600960209081526040808320600160a060020a03881684526008810183528184208054600160ff199182168117909255600d83018552838620805490911682179055600a9091019092529091208381558101829055610ee3565b6000868152600960209081526040808320600160a060020a038b168452600c019091529020548511801561090757506000868152600960209081526040808320600160a060020a038b168452600c01909152902060010154841015610429575050506000838152600960209081526040808320600160a060020a03881684526008810183528184208054600160ff199182168117909255600d83018552838620805490911682179055600a9091019092529091208381558101829055610ee3565b6000868152600960209081526040808320600160a060020a038b168452600b01909152902054421015610692576000868152600960209081526040808320600160a060020a038b168452600b019091529020548511801561090757506000868152600960209081526040808320600160a060020a038b168452600b01909152902060010154841015610429575050506000838152600960209081526040808320600160a060020a03881684526008810183528184208054600160ff199182168117909255600d83018552838620805490911682179055600a9091019092529091208381558101829055610ee3565b6040805160e560020a62461bcd02815260206004820152601260248201527f556e6578706563746564204661696c7572650000000000000000000000000000604482015290519081900360640190fd5b949350505050565b60066020526000908152604090205460ff1681565b60056020526000908152604090205460ff1681565b60008181526005602052604081205460ff1615610f3457506001610f38565b5060005b919050565b600081815260096020526040812054600160a060020a0384811691161415610f6757506000611055565b6000828152600960209081526040808320600160a060020a038716845260070190915290205460ff161515611014576000828152600960209081526040808320600160a060020a038716845260080190915290205460ff16151560011415611003576000610fd584846110f3565b90506004816004811115610fe557fe5b14610ff1579050611055565b610ffb848461122e565b915050611055565b61100d838361122e565b9050611055565b6000828152600960209081526040808320600160a060020a038716845260070190915290205460ff161515600114156110515761100d83836110f3565b5060045b92915050565b600160a060020a03811660009081526008602052604090205460ff1615156110f057600160a060020a0381166000818152600860205260408120805460ff191660019081179091556007805491820181559091527fa66cc928b5edb82af9bd49922954155ab7b0942694bea4ce44661d9a8736c68801805473ffffffffffffffffffffffffffffffffffffffff191690911790555b50565b6000818152600960209081526040808320600160a060020a0386168452600a01909152812054421080159061114f57506000828152600960209081526040808320600160a060020a0387168452600a0190915290206001015442105b1561115c57506001611055565b6000828152600960209081526040808320600160a060020a0387168452600b0190915290205442108015906111b857506000828152600960209081526040808320600160a060020a0387168452600b0190915290206001015442105b156111c557506002611055565b6000828152600960209081526040808320600160a060020a0387168452600c01909152902054421080159061122157506000828152600960209081526040808320600160a060020a0387168452600c0190915290206001015442105b1561105157506003611055565b600061123a8383611268565b1561124757506001611055565b61125183836112ab565b1561125e57506002611055565b61122183836112e6565b6000818152600960209081526040808320600160a060020a0386168452600190810190925282205460ff16151514156112a357506001611055565b506000611055565b6000818152600960209081526040808320600160a060020a038616845260020190915281205460ff161515600114156112a357506001611055565b6000818152600960209081526040808320600160a060020a038616845260030190915281205460ff161515600114156112a35750600161105556fea165627a7a7230582017213664eff750033167fd878c51f841d55eb3255db895cb84560cc1c1305d280029",
  "source": "pragma solidity >=0.4.21 <0.6.0;\nimport \"./NotarizationManagement.sol\";\n// import \"./PermissionManagement.sol\";\n/// @title PermissionManagement\n/// @author Ashwin Arora\n//  @updateBy Md Shadab Alam\n\ncontract DocDependency is NotarizationManagement{\n   //struct to hold permissions of respective hashes\n  struct Permissions{\n    address master;\n    mapping(address => bool) owner;\n    mapping(address => bool) write;\n    mapping(address => bool) read;\n    uint ownerLength;\n    uint writeLength;\n    uint readLength;\n    mapping(address => bool) isBaseRestricted;\n    mapping(address => bool) isTemporarilyUpgraded;\n    mapping(address => bool) isUpgradedAgain;\n    mapping(address => TimeBounds) ownerTime;\n    mapping(address => TimeBounds) writeTime;\n    mapping(address => TimeBounds) readTime;\n    mapping(address => bool) isOwnerRestricted;\n    mapping(address => bool) isWriteRestricted;\n    mapping(address => bool) isReadRestricted;\n  }\n  //how to access above varibles-\n  //permissionOf[_hash].owner[_delegate]\n  //permissionOf[_hash].ownerTime[_delegate].fromTime\n  //permissiosOf[_hash].isBaseRestricted[_delegate]\n\n  /*\n  struct AddressDetails{\n    bool isBaseRestricted;\n    bool isTemporarilyUpgraded;\n    bool isUpgradedAgain;\n  }\n  */\n\n  struct TimeBounds{\n    uint256 fromTime;\n    uint256 toTime;\n  }\n  address[] permissionAddresses;\n  mapping(address => bool) addressPresent;\n\n  //maps to all the permissions of a particular hash\n  //bytes32 to store the hash\n  mapping(bytes32 => Permissions) permissionOf;\n\n  event NewDocument(bytes32 _hash, address master, uint blockNumber);\n\n  event TimeRestrictedPermission(\n    uint blockNumber,\n    uint blockTimeStamp,\n    bytes32 documentHash,\n    address from,\n    address to,\n    PermissionType permissionOfFrom,\n    PermissionType permissionOfTo,\n    uint256 fromTime,\n    uint256 toTime\n  );\n\n  event TemporaryPermission(\n    uint blockNumber,\n    uint blockTimeStamp,\n    bytes32 documentHash,\n    address from,\n    address to,\n    PermissionType permissionOfFrom,\n    PermissionType permissionOfTo,\n    uint256 fromTime,\n    uint256 toTime\n  );\n  \n  /**\n  * @dev use to check what permissions the delegate hash\n  * @param _delegate Ethereum address of whos permission is to be checked\n  * @param _folderAddress folderAddress of the NewFolder\n  */\n  function checkPermission(address _delegate, bytes32 _folderAddress) internal view returns (PermissionType){\n    if(permissionOf[_folderAddress].master == _delegate){\n      return PermissionType.master;\n    }\n    //checking if the delegte's permission are time restricted or not\n    if(permissionOf[_folderAddress].isBaseRestricted[_delegate] == false){\n      //checking if there is any upgrade\n      if(permissionOf[_folderAddress].isTemporarilyUpgraded[_delegate] == true){\n        PermissionType timeRestrictedPermission = checkTimedPermission(_delegate, _folderAddress);\n        if(timeRestrictedPermission != PermissionType.none){\n          return timeRestrictedPermission;\n        }else{\n          return checkPermanentPermission(_delegate,_folderAddress);\n        }\n      }else{\n        return checkPermanentPermission(_delegate, _folderAddress);\n      }\n    }else if(permissionOf[_folderAddress].isBaseRestricted[_delegate] == true){\n      return checkTimedPermission(_delegate,_folderAddress);\n    }else{\n      return PermissionType.none;\n    }\n  }\n   /**\n  * @dev use to check just the base permission of delegate\n  * @param _delegate Ethereum address of whos permission is to be checked\n  * @param _folderAddress folderAddress of the NewFolder\n  */\n  function checkTimedPermission(address _delegate, bytes32 _folderAddress) private view returns(PermissionType){\n    if(permissionOf[_folderAddress].ownerTime[_delegate].fromTime <= now && permissionOf[_folderAddress].ownerTime[_delegate].toTime > now){\n      return PermissionType.owner;\n    }else if(permissionOf[_folderAddress].writeTime[_delegate].fromTime <= now && permissionOf[_folderAddress].writeTime[_delegate].toTime > now){\n      return PermissionType.write;\n    }else if(permissionOf[_folderAddress].readTime[_delegate].fromTime <= now && permissionOf[_folderAddress].readTime[_delegate].toTime > now){\n      return PermissionType.read;\n    }else{\n      return PermissionType.none;\n    }\n  }\n  /**\n  * @dev use to check just the base permission of delegate\n  * @param _delegate Ethereum address of whos permission is to be checked\n  * @param _folderAddress folderAddress of the NewFolder\n  */\n  function checkPermanentPermission(address _delegate, bytes32 _folderAddress) internal view returns(PermissionType){\n    if(isOwner(_delegate, _folderAddress)){\n      return PermissionType.owner;\n    }else if(isWriter(_delegate, _folderAddress)){\n      return PermissionType.write;\n    }else if(isReader(_delegate, _folderAddress)){\n      return PermissionType.read;\n    }else{\n      return PermissionType.none;\n    }\n  }\n    /**\n  * @dev use to check if the delegate has owner exists\n  * @param _delegate Ethereum address of whos owner access is being checked\n  * @param _folderAddress folderAddress of the NewFolder\n  */\n  function isOwner(address _delegate, bytes32 _folderAddress) private view returns (bool){\n    if(permissionOf[_folderAddress].owner[_delegate] == true){\n      return true;\n    }else{\n      return false;\n    }\n  }\n\n  /**\n  * @dev use to check if has delegate has owner exists\n  * @param _delegate Ethereum address of whos write access is being checked\n  * @param _folderAddress folderAddress of the NewFolder\n  */\n  function isWriter(address _delegate, bytes32 _folderAddress) private view returns (bool){\n    if(permissionOf[_folderAddress].write[_delegate] == true){\n      return true;\n    }else{\n      return false;\n    }\n  }\n\n  /**\n  * @dev use to check if has delegate has read exists\n  * @param _delegate Ethereum address of whos read access is being checked\n  * @param _folderAddress folderAddress of the NewFolder\n  */\n  function isReader(address _delegate, bytes32 _folderAddress) private view returns (bool){\n    if(permissionOf[_folderAddress].read[_delegate] == true){\n      return true;\n    }else{\n      return false;\n    }\n  }\n\n  function pushAddress(address _delegate) internal {\n    if (addressPresent[_delegate] == false){\n      addressPresent[_delegate] = true;\n      permissionAddresses.push(_delegate);\n    }\n  } \n   /**\n  * @dev use to temporarily upgrade read or write access of an address to owner access\n  * @param _delegate Ethereum address whos permission is to be temporarily upgarded\n  * @param _folderAddress folderAddress of the document\n  * @param _fromTime Time from which the delegate has upgraded write access\n  * @param _toTime Time till which the delegate has upgraded write access\n  */\n  function upgradeToOwner(address _delegate, bytes32 _folderAddress, uint256 _fromTime, uint256 _toTime) public returns (bool success){\n    require(documentExists(_folderAddress), \"Folder does not exists\");\n    require(block.timestamp <= _fromTime && _fromTime < _toTime, \"Invalid Time Bounds.\");\n    require(permissionOf[_folderAddress].ownerTime[_delegate].toTime < block.timestamp);\n    PermissionType permissionOfCaller = checkPermission(msg.sender, _folderAddress);\n    require(permissionOfCaller == PermissionType.master , \"Access Denied\");\n\n    PermissionType permissionOfDelegate = checkPermission(_delegate, _folderAddress);\n    pushAddress(_delegate);\n    //checking if the base permission is restricted of not\n    //in case base permission is not restricted\n    if(permissionOf[_folderAddress].isBaseRestricted[_delegate] == false){\n      //Delegate's Permission can be write in 2 cases\n      //1. Base Permission is write\n      //2. Base Permission is Read and delegate was previously granted temporary write upgrade\n      if(permissionOfDelegate == PermissionType.write){\n        //Case 2. Base Permission is Read and delegate is previously granted temporary write upgrade\n        if(permissionOf[_folderAddress].writeTime[_delegate].toTime > block.timestamp){\n          //checking if given time bounds are inside temporarily upgraded write time bounds\n          if(permissionOf[_folderAddress].writeTime[_delegate].toTime > _toTime){\n            permissionOf[_folderAddress].isUpgradedAgain[_delegate] = true;\n            permissionOf[_folderAddress].isOwnerRestricted[_delegate] = true;\n            permissionOf[_folderAddress].ownerTime[_delegate].fromTime = _fromTime;\n            permissionOf[_folderAddress].ownerTime[_delegate].toTime = _toTime;\n            success = true;\n            return success;\n          }// in case given time bounds begin after the end of write time bounds\n          else if(permissionOf[_folderAddress].writeTime[_delegate].toTime < _fromTime){\n            permissionOf[_folderAddress].isTemporarilyUpgraded[_delegate] = true;\n            permissionOf[_folderAddress].isOwnerRestricted[_delegate] = true;\n            permissionOf[_folderAddress].ownerTime[_delegate].fromTime = _fromTime;\n            permissionOf[_folderAddress].ownerTime[_delegate].toTime = _toTime;\n            success = true;\n            return success;\n          }else{\n            revert(\"Given Time Bounds are conflicting\");\n          }\n        }\n        //Case 1. Base Permission is Write\n        else{\n          permissionOf[_folderAddress].isTemporarilyUpgraded[_delegate] = true;\n          permissionOf[_folderAddress].isOwnerRestricted[_delegate] = true;\n          permissionOf[_folderAddress].ownerTime[_delegate].fromTime = _fromTime;\n          permissionOf[_folderAddress].ownerTime[_delegate].toTime = _toTime;\n          success = true;\n          return success;\n        }\n      }\n      //Delegate's permission can be read in 2 cases\n      //1. Base permission is Read with no write upgrades later in time\n      //2. Base Permission is Read with write upgrade later in times\n      else if(permissionOfDelegate == PermissionType.read){\n        //Case 2. Base Permission is Read with write upgrades later in times\n        if(permissionOf[_folderAddress].writeTime[_delegate].fromTime > block.timestamp){\n          //in case given time bounds start and end before the start of write time bounds\n          if(permissionOf[_folderAddress].writeTime[_delegate].fromTime > _toTime){\n            permissionOf[_folderAddress].isTemporarilyUpgraded[_delegate] = true;\n            permissionOf[_folderAddress].isOwnerRestricted[_delegate] = true;\n            permissionOf[_folderAddress].ownerTime[_delegate].fromTime = _fromTime;\n            permissionOf[_folderAddress].ownerTime[_delegate].toTime = _toTime;\n            success = true;\n            return success;\n          }\n          //in case given time bounds are inside write time bounds\n          else if(permissionOf[_folderAddress].writeTime[_delegate].fromTime < _fromTime && permissionOf[_folderAddress].writeTime[_delegate].toTime > _toTime){\n            permissionOf[_folderAddress].isUpgradedAgain[_delegate] = true;\n            permissionOf[_folderAddress].isOwnerRestricted[_delegate] = true;\n            permissionOf[_folderAddress].ownerTime[_delegate].fromTime = _fromTime;\n            permissionOf[_folderAddress].ownerTime[_delegate].toTime = _toTime;\n            success = true;\n            return success;\n          }\n          // in case given time bounds begin after the end of write time bounds\n          else if(permissionOf[_folderAddress].writeTime[_delegate].toTime < _fromTime){\n            permissionOf[_folderAddress].isTemporarilyUpgraded[_delegate] = true;\n            permissionOf[_folderAddress].isOwnerRestricted[_delegate] = true;\n            permissionOf[_folderAddress].ownerTime[_delegate].fromTime = _fromTime;\n            permissionOf[_folderAddress].ownerTime[_delegate].toTime = _toTime;\n            success = true;\n            return success;\n          }else{\n            revert(\"Given Time Bounds are conflicting\");\n          }\n        }\n        // Case 1. Base permission is Read with no write upgrades later in time\n        else{\n          permissionOf[_folderAddress].isTemporarilyUpgraded[_delegate] = true;\n          permissionOf[_folderAddress].isOwnerRestricted[_delegate] = true;\n          permissionOf[_folderAddress].ownerTime[_delegate].fromTime = _fromTime;\n          permissionOf[_folderAddress].ownerTime[_delegate].toTime = _toTime;\n          success = true;\n          return success;\n        }\n      }else{\n        revert(\"Base Permission Invalid\");\n      }\n    }\n    // in case base is restricted\n    else if(permissionOf[_folderAddress].isBaseRestricted[_delegate] == true){\n      //Delegates Permission can be read in 2 cases\n      //1. Base Permission is read with no write upgrade later in time\n      //2. Base Permission is Read with write upgrade later in times\n      if(permissionOfDelegate == PermissionType.read){\n        //Case 2.  Base Permission is Read with write upgrade later in times\n        if(permissionOf[_folderAddress].writeTime[_delegate].toTime > block.timestamp){\n          //in case time bounds start and end before the start of write time bounds\n          if(permissionOf[_folderAddress].writeTime[_delegate].fromTime > _toTime){\n            permissionOf[_folderAddress].isTemporarilyUpgraded[_delegate] = true;\n            permissionOf[_folderAddress].isOwnerRestricted[_delegate] = true;\n            permissionOf[_folderAddress].ownerTime[_delegate].fromTime = _fromTime;\n            permissionOf[_folderAddress].ownerTime[_delegate].toTime = _toTime;\n            success = true;\n            return success;\n          }\n          //in case given time bounds are inside write time bounds\n          else if(permissionOf[_folderAddress].writeTime[_delegate].fromTime < _fromTime && permissionOf[_folderAddress].writeTime[_delegate].toTime > _toTime){\n            permissionOf[_folderAddress].isUpgradedAgain[_delegate] = true;\n            permissionOf[_folderAddress].isOwnerRestricted[_delegate] = true;\n            permissionOf[_folderAddress].ownerTime[_delegate].fromTime = _fromTime;\n            permissionOf[_folderAddress].ownerTime[_delegate].toTime = _toTime;\n            success = true;\n            return success;\n          }\n          // in case given time bounds begin after the end of write time  bounds and are inside read time bounds\n          else if(permissionOf[_folderAddress].writeTime[_delegate].toTime < _fromTime && permissionOf[_folderAddress].readTime[_delegate].toTime > _toTime){\n            permissionOf[_folderAddress].isTemporarilyUpgraded[_delegate] = true;\n            permissionOf[_folderAddress].isOwnerRestricted[_delegate] = true;\n            permissionOf[_folderAddress].ownerTime[_delegate].fromTime = _fromTime;\n            permissionOf[_folderAddress].ownerTime[_delegate].toTime = _toTime;\n            success = true;\n            return success;\n          }else{\n            revert(\"Given Time Bounds are conflicting\");\n          }\n        }\n        //Case 2. Base Permission is read with no write upgrade later in time\n        else{\n          //checking if given time bounds are inside read time bounds\n          if(permissionOf[_folderAddress].readTime[_delegate].toTime > _toTime){\n            permissionOf[_folderAddress].isTemporarilyUpgraded[_delegate] = true;\n            permissionOf[_folderAddress].isOwnerRestricted[_delegate] = true;\n            permissionOf[_folderAddress].ownerTime[_delegate].fromTime = _fromTime;\n            permissionOf[_folderAddress].ownerTime[_delegate].toTime = _toTime;\n            success = true;\n            return success;\n          }else{\n            revert(\"Given Time Bounds are Confliting\");\n          }\n        }\n      }\n      //Delegate's permission can be write in 2 cases\n      //1. Base Permission is write\n      //2. Base Permission is Read and delegate was previously granted temporary write upgrade\n      else if(permissionOfDelegate == PermissionType.write){\n        //Case 2. Base Permission is Read and delegate was previously granted temporary write upgrade\n        if(permissionOf[_folderAddress].readTime[_delegate].toTime > block.timestamp){\n          //checking if given time bounds are inside temporarily upgraded write time bounds\n          if(permissionOf[_folderAddress].writeTime[_delegate].toTime > _toTime){\n            permissionOf[_folderAddress].isUpgradedAgain[_delegate] = true;\n            permissionOf[_folderAddress].isOwnerRestricted[_delegate] = true;\n            permissionOf[_folderAddress].ownerTime[_delegate].fromTime = _fromTime;\n            permissionOf[_folderAddress].ownerTime[_delegate].toTime = _toTime;\n            success = true;\n            return success;\n          }\n          // in case given time bounds begin after the end of write time bounds\n          // and checking if given time bounds end before the end of read time bounds\n          else if(permissionOf[_folderAddress].writeTime[_delegate].toTime < _fromTime && permissionOf[_folderAddress].readTime[_delegate].toTime > _toTime){\n            permissionOf[_folderAddress].isTemporarilyUpgraded[_delegate] = true;\n            permissionOf[_folderAddress].isOwnerRestricted[_delegate] = true;\n            permissionOf[_folderAddress].ownerTime[_delegate].fromTime = _fromTime;\n            permissionOf[_folderAddress].ownerTime[_delegate].toTime = _toTime;\n            success = true;\n            return success;\n          }else{\n            revert(\"Given Time Bounds are conflicting\");\n          }\n        }\n        //Case 1. Base Permission is write \n        else{  \n          if(permissionOf[_folderAddress].writeTime[_delegate].toTime > _toTime){\n            permissionOf[_folderAddress].isTemporarilyUpgraded[_delegate] = true;\n            permissionOf[_folderAddress].isOwnerRestricted[_delegate] = true;\n            permissionOf[_folderAddress].ownerTime[_delegate].fromTime = _fromTime;\n            permissionOf[_folderAddress].ownerTime[_delegate].toTime = _toTime;\n            success = true;\n            return success;\n          }else{\n            revert(\"Given Time Bounds are conflicting\");\n          }\n        }\n      }\n      //Permission of delegate can be none when-\n      //Delegate has time restricted write access begining later in time\n      //Delegate has time restricted read access begining later in time\n      else if(permissionOfDelegate == PermissionType.none){\n        //Delegate's base permission can be read in 2 cases\n        //1. read access is begining later in time with no temporary write upgrade\n        //2. read access is begining later in time with temporary write upgrade\n        if(permissionOf[_folderAddress].readTime[_delegate].fromTime > block.timestamp){\n          //Case 2. read access is begining later in time with temporary write upgrade\n          if(permissionOf[_folderAddress].writeTime[_delegate].fromTime > block.timestamp){\n            //checking if given bounds\n            //begin after the start of read time bounds\n            //and end before the start of write time bounds\n            if(permissionOf[_folderAddress].readTime[_delegate].fromTime < _fromTime && permissionOf[_folderAddress].writeTime[_delegate].fromTime >_toTime){\n              permissionOf[_folderAddress].isTemporarilyUpgraded[_delegate] = true;\n              permissionOf[_folderAddress].isOwnerRestricted[_delegate] = true;\n              permissionOf[_folderAddress].ownerTime[_delegate].fromTime = _fromTime;\n              permissionOf[_folderAddress].ownerTime[_delegate].toTime = _toTime;\n              success = true;\n              return success;\n            }\n            //checking if given time bounds\n            //begin after the start of write time bounds\n            //and end before the end of write time bounds\n            else if(permissionOf[_folderAddress].writeTime[_delegate].fromTime < _fromTime && permissionOf[_folderAddress].writeTime[_delegate].toTime >_toTime){\n              permissionOf[_folderAddress].isUpgradedAgain[_delegate] = true;\n              permissionOf[_folderAddress].isOwnerRestricted[_delegate] = true;\n              permissionOf[_folderAddress].ownerTime[_delegate].fromTime = _fromTime;\n              permissionOf[_folderAddress].ownerTime[_delegate].toTime = _toTime;\n              success = true;\n              return success;\n            }\n            //checking if the given time bounds\n            //begin after the end of write time bounds\n            //and before the end of read bounds\n            else if(permissionOf[_folderAddress].writeTime[_delegate].toTime < _fromTime && permissionOf[_folderAddress].readTime[_delegate].toTime > _toTime){\n              permissionOf[_folderAddress].isTemporarilyUpgraded[_delegate] = true;\n              permissionOf[_folderAddress].isOwnerRestricted[_delegate] = true;\n              permissionOf[_folderAddress].ownerTime[_delegate].fromTime = _fromTime;\n              permissionOf[_folderAddress].ownerTime[_delegate].toTime = _toTime;\n              success = true;\n              return success;\n            }else{\n              revert(\"Given Time Bounds are conflicting\");\n            }\n          }\n          //Case 1. read access is begining later in time with no temporary write upgrade\n          else{\n            if(permissionOf[_folderAddress].readTime[_delegate].fromTime < _fromTime && permissionOf[_folderAddress].readTime[_delegate].toTime > _toTime){\n              permissionOf[_folderAddress].isTemporarilyUpgraded[_delegate] = true;\n              permissionOf[_folderAddress].isOwnerRestricted[_delegate] = true;\n              permissionOf[_folderAddress].ownerTime[_delegate].fromTime = _fromTime;\n              permissionOf[_folderAddress].ownerTime[_delegate].toTime = _toTime;\n              success = true;\n              return success;\n            }else{\n              revert(\"Given Time Bounds are conflicting\");\n            }\n          }\n        }\n        //in case delegate's base permissions is write begining later in time\n        else if(permissionOf[_folderAddress].writeTime[_delegate].fromTime > block.timestamp){\n          //checking if given time bounds are inside write time bounds\n          if(permissionOf[_folderAddress].writeTime[_delegate].fromTime < _fromTime && permissionOf[_folderAddress].writeTime[_delegate].toTime > _toTime){\n            permissionOf[_folderAddress].isTemporarilyUpgraded[_delegate] = true;\n            permissionOf[_folderAddress].isOwnerRestricted[_delegate] = true;\n            permissionOf[_folderAddress].ownerTime[_delegate].fromTime = _fromTime;\n            permissionOf[_folderAddress].ownerTime[_delegate].toTime = _toTime;\n            success = true;\n            return success;\n          }else{\n            revert(\"Given Time Bounds are conflicting\");\n          }\n\n        }else{\n          revert(\"Base Permission Invalid\");\n        }\n\n      }else{\n        revert(\"Base Permission Invalid\");\n      }\n\n    }else{\n      revert(\"Unexpected Failure\");\n    }\n  }  \n}",
  "sourcePath": "/home/sagar/Desktop/contract merging/ixxo_smartcontracts/AccessRight/PermissionManagementComplete/contracts/DocDependency.sol",
  "compiler": {
    "name": "solc",
    "version": "0.5.0+commit.1d4f565a.Emscripten.clang"
  },
  "schemaVersion": "3.0.1",
  "updatedAt": "2019-03-27T07:50:56.204Z",
  "devdoc": {
    "author": "Ashwin Arora",
    "methods": {
      "upgradeToOwner(address,bytes32,uint256,uint256)": {
        "details": "use to temporarily upgrade read or write access of an address to owner access",
        "params": {
          "_delegate": "Ethereum address whos permission is to be temporarily upgarded",
          "_folderAddress": "folderAddress of the document",
          "_fromTime": "Time from which the delegate has upgraded write access",
          "_toTime": "Time till which the delegate has upgraded write access"
        }
      }
    },
    "title": "PermissionManagement"
  },
  "userdoc": {
    "methods": {}
  }
}