{
  "contractName": "DocNotarizationManagement",
  "abi": [
    {
      "constant": true,
      "inputs": [
        {
          "name": "",
          "type": "bytes32"
        }
      ],
      "name": "usedHashes",
      "outputs": [
        {
          "name": "",
          "type": "bool"
        }
      ],
      "payable": false,
      "stateMutability": "view",
      "type": "function"
    },
    {
      "anonymous": false,
      "inputs": [
        {
          "indexed": false,
          "name": "blockNumber",
          "type": "uint256"
        },
        {
          "indexed": false,
          "name": "blockTimeStamp",
          "type": "uint256"
        },
        {
          "indexed": false,
          "name": "_hash",
          "type": "bytes32"
        },
        {
          "indexed": false,
          "name": "from",
          "type": "address"
        },
        {
          "indexed": false,
          "name": "to",
          "type": "address"
        },
        {
          "indexed": false,
          "name": "permissionOfFrom",
          "type": "uint8"
        },
        {
          "indexed": false,
          "name": "permissionOfTo",
          "type": "uint8"
        }
      ],
      "name": "DocumentEvent",
      "type": "event"
    }
  ],
  "bytecode": "0x608060405234801561001057600080fd5b5060be8061001f6000396000f3fe608060405260043610603e5763ffffffff7c0100000000000000000000000000000000000000000000000000000000600035041663aef18bf781146043575b600080fd5b348015604e57600080fd5b50606960048036036020811015606357600080fd5b5035607d565b604080519115158252519081900360200190f35b60036020526000908152604090205460ff168156fea165627a7a72305820f1391b761cdb7ee277b7fe3c960b6cbcfbaf6a41d01b5a6ea017e5bfcc7a02fd0029",
  "source": "pragma solidity >=0.4.21 <0.6.0;\n\ncontract DocNotarizationManagement{\n  address owner;\n\n  uint documentCount;\n\n  enum PermissionType {master, owner, write, read, none}\n\n  struct DocumentAccessRight {\n    uint blockNumber;\n    uint timestamp;\n    bytes32 hash;\n    address from;\n    address to;\n    PermissionType permissionOfFrom;\n    PermissionType permissionOfTo;\n  }\n\n  DocumentAccessRight[] dochistory;\n\n  \n\n  mapping(bytes32 => bool) public usedHashes;\n\n\n  event DocumentEvent(uint blockNumber, uint blockTimeStamp, bytes32 _hash, address from, address to, PermissionType permissionOfFrom, PermissionType permissionOfTo);\n  \n  /**\n  * @dev use to add history of transfers and emit transfer event\n  * @param _hash hash of the document\n  * @param _from address from whom the transfer is originated\n  * @param _to addess to whom transfer is done\n  * @param _permissionOfFrom enum PermissionType of delegator\n  * @param _permissionOfFrom enum PermissionType of delegated\n  */\n  function transferDocument(bytes32 _hash, address _from, address _to, PermissionType _permissionOfFrom, PermissionType _permissionOfTo) internal{\n    dochistory.push(DocumentAccessRight(block.number, block.timestamp, _hash, _from, _to, _permissionOfFrom, _permissionOfTo));\n    emit DocumentEvent(block.number, block.timestamp,  _hash, _from, _to, _permissionOfFrom, _permissionOfTo);\n  }\n\n  \n  /**\n  * @dev use to check if the documents exists or not\n  * @param _hash hash of the document\n  */\n  function documentExists(bytes32 _hash) view internal returns (bool exists){\n    if (usedHashes[_hash]) {\n      exists = true;\n    }else{\n      exists= false;\n    }\n    return exists;\n  }\n\n\n  /**\n  * @dev returns the total number of documents/hashes\n  */\n  function getLatest() view internal returns (uint latest){\n      return documentCount;\n      \n  }\n}\n",
  "sourcePath": "/home/sagar/Desktop/delivery final/28_may_ixxo_allsmart_contract/ixxo_smartcontracts/AccessRight/PermissionManagementComplete/contracts/DocPermissionManagement/DocNotarizationManagement.sol",
  "compiler": {
    "name": "solc",
    "version": "0.5.0+commit.1d4f565a.Emscripten.clang"
  },
  "schemaVersion": "3.0.6",
  "updatedAt": "2019-05-28T08:56:59.330Z",
  "devdoc": {
    "methods": {}
  },
  "userdoc": {
    "methods": {}
  }
}