{
  "contractName": "DocPermissionManagement",
  "abi": [
    {
      "constant": false,
      "inputs": [
        {
          "name": "dAppBoxOrigin",
          "type": "address"
        },
        {
          "name": "_delegate",
          "type": "address"
        },
        {
          "name": "_folderAddress",
          "type": "bytes32"
        },
        {
          "name": "_fromTime",
          "type": "uint256"
        },
        {
          "name": "_toTime",
          "type": "uint256"
        }
      ],
      "name": "upgradeToOwner",
      "outputs": [
        {
          "name": "success",
          "type": "bool"
        }
      ],
      "payable": false,
      "stateMutability": "nonpayable",
      "type": "function"
    },
    {
      "constant": true,
      "inputs": [
        {
          "name": "",
          "type": "bytes32"
        }
      ],
      "name": "usedHashes",
      "outputs": [
        {
          "name": "",
          "type": "bool"
        }
      ],
      "payable": false,
      "stateMutability": "view",
      "type": "function"
    },
    {
      "inputs": [],
      "payable": false,
      "stateMutability": "nonpayable",
      "type": "constructor"
    },
    {
      "anonymous": false,
      "inputs": [
        {
          "indexed": false,
          "name": "_hash",
          "type": "bytes32"
        },
        {
          "indexed": false,
          "name": "master",
          "type": "address"
        },
        {
          "indexed": false,
          "name": "blockNumber",
          "type": "uint256"
        }
      ],
      "name": "NewDocument",
      "type": "event"
    },
    {
      "anonymous": false,
      "inputs": [
        {
          "indexed": false,
          "name": "blockNumber",
          "type": "uint256"
        },
        {
          "indexed": false,
          "name": "blockTimeStamp",
          "type": "uint256"
        },
        {
          "indexed": false,
          "name": "documentHash",
          "type": "bytes32"
        },
        {
          "indexed": false,
          "name": "from",
          "type": "address"
        },
        {
          "indexed": false,
          "name": "to",
          "type": "address"
        },
        {
          "indexed": false,
          "name": "permissionOfFrom",
          "type": "uint8"
        },
        {
          "indexed": false,
          "name": "permissionOfTo",
          "type": "uint8"
        },
        {
          "indexed": false,
          "name": "fromTime",
          "type": "uint256"
        },
        {
          "indexed": false,
          "name": "toTime",
          "type": "uint256"
        }
      ],
      "name": "TimeRestrictedPermission",
      "type": "event"
    },
    {
      "anonymous": false,
      "inputs": [
        {
          "indexed": false,
          "name": "blockNumber",
          "type": "uint256"
        },
        {
          "indexed": false,
          "name": "blockTimeStamp",
          "type": "uint256"
        },
        {
          "indexed": false,
          "name": "documentHash",
          "type": "bytes32"
        },
        {
          "indexed": false,
          "name": "from",
          "type": "address"
        },
        {
          "indexed": false,
          "name": "to",
          "type": "address"
        },
        {
          "indexed": false,
          "name": "permissionOfFrom",
          "type": "uint8"
        },
        {
          "indexed": false,
          "name": "permissionOfTo",
          "type": "uint8"
        },
        {
          "indexed": false,
          "name": "fromTime",
          "type": "uint256"
        },
        {
          "indexed": false,
          "name": "toTime",
          "type": "uint256"
        }
      ],
      "name": "TemporaryPermission",
      "type": "event"
    },
    {
      "anonymous": false,
      "inputs": [
        {
          "indexed": false,
          "name": "blockNumber",
          "type": "uint256"
        },
        {
          "indexed": false,
          "name": "blockTimeStamp",
          "type": "uint256"
        },
        {
          "indexed": false,
          "name": "_hash",
          "type": "bytes32"
        },
        {
          "indexed": false,
          "name": "from",
          "type": "address"
        },
        {
          "indexed": false,
          "name": "to",
          "type": "address"
        },
        {
          "indexed": false,
          "name": "permissionOfFrom",
          "type": "uint8"
        },
        {
          "indexed": false,
          "name": "permissionOfTo",
          "type": "uint8"
        }
      ],
      "name": "DocumentEvent",
      "type": "event"
    },
    {
      "constant": false,
      "inputs": [
        {
          "name": "_hash",
          "type": "bytes32"
        }
      ],
      "name": "newDocument",
      "outputs": [],
      "payable": false,
      "stateMutability": "nonpayable",
      "type": "function"
    },
    {
      "constant": false,
      "inputs": [
        {
          "name": "dAppBoxOrigin",
          "type": "address"
        },
        {
          "name": "_delegate",
          "type": "address"
        },
        {
          "name": "_hash",
          "type": "bytes32"
        }
      ],
      "name": "changeMaster",
      "outputs": [],
      "payable": false,
      "stateMutability": "nonpayable",
      "type": "function"
    },
    {
      "constant": true,
      "inputs": [
        {
          "name": "_hash",
          "type": "bytes32"
        }
      ],
      "name": "checkYourPermission",
      "outputs": [
        {
          "name": "",
          "type": "uint8"
        }
      ],
      "payable": false,
      "stateMutability": "view",
      "type": "function"
    },
    {
      "constant": true,
      "inputs": [
        {
          "name": "_delegate",
          "type": "address"
        },
        {
          "name": "_hash",
          "type": "bytes32"
        }
      ],
      "name": "checkDelegatePermission",
      "outputs": [
        {
          "name": "",
          "type": "uint8"
        }
      ],
      "payable": false,
      "stateMutability": "view",
      "type": "function"
    },
    {
      "constant": false,
      "inputs": [
        {
          "name": "dAppBoxOrigin",
          "type": "address"
        },
        {
          "name": "_delegate",
          "type": "address"
        },
        {
          "name": "_hash",
          "type": "bytes32"
        }
      ],
      "name": "delegatePermanentOwner",
      "outputs": [],
      "payable": false,
      "stateMutability": "nonpayable",
      "type": "function"
    },
    {
      "constant": false,
      "inputs": [
        {
          "name": "dAppBoxOrigin",
          "type": "address"
        },
        {
          "name": "_delegate",
          "type": "address"
        },
        {
          "name": "_hash",
          "type": "bytes32"
        }
      ],
      "name": "removePermanentOwner",
      "outputs": [],
      "payable": false,
      "stateMutability": "nonpayable",
      "type": "function"
    },
    {
      "constant": false,
      "inputs": [
        {
          "name": "dAppBoxOrigin",
          "type": "address"
        },
        {
          "name": "_delegate",
          "type": "address"
        },
        {
          "name": "_hash",
          "type": "bytes32"
        },
        {
          "name": "_fromTime",
          "type": "uint256"
        },
        {
          "name": "_toTime",
          "type": "uint256"
        }
      ],
      "name": "delegateTimeRestrictedOwner",
      "outputs": [
        {
          "name": "",
          "type": "string"
        }
      ],
      "payable": false,
      "stateMutability": "nonpayable",
      "type": "function"
    },
    {
      "constant": false,
      "inputs": [
        {
          "name": "dAppBoxOrigin",
          "type": "address"
        },
        {
          "name": "_delegate",
          "type": "address"
        },
        {
          "name": "_hash",
          "type": "bytes32"
        }
      ],
      "name": "removeTimeRestrictedOwner",
      "outputs": [],
      "payable": false,
      "stateMutability": "nonpayable",
      "type": "function"
    },
    {
      "constant": false,
      "inputs": [
        {
          "name": "dAppBoxOrigin",
          "type": "address"
        },
        {
          "name": "_delegate",
          "type": "address"
        },
        {
          "name": "_hash",
          "type": "bytes32"
        }
      ],
      "name": "delegatePermanentWrite",
      "outputs": [],
      "payable": false,
      "stateMutability": "nonpayable",
      "type": "function"
    },
    {
      "constant": false,
      "inputs": [
        {
          "name": "dAppBoxOrigin",
          "type": "address"
        },
        {
          "name": "_delegate",
          "type": "address"
        },
        {
          "name": "_hash",
          "type": "bytes32"
        }
      ],
      "name": "removePermanentWrite",
      "outputs": [],
      "payable": false,
      "stateMutability": "nonpayable",
      "type": "function"
    },
    {
      "constant": false,
      "inputs": [
        {
          "name": "dAppBoxOrigin",
          "type": "address"
        },
        {
          "name": "_delegate",
          "type": "address"
        },
        {
          "name": "_hash",
          "type": "bytes32"
        },
        {
          "name": "_fromTime",
          "type": "uint256"
        },
        {
          "name": "_toTime",
          "type": "uint256"
        }
      ],
      "name": "delegateTimeRestrictedWrite",
      "outputs": [
        {
          "name": "",
          "type": "string"
        }
      ],
      "payable": false,
      "stateMutability": "nonpayable",
      "type": "function"
    },
    {
      "constant": false,
      "inputs": [
        {
          "name": "dAppBoxOrigin",
          "type": "address"
        },
        {
          "name": "_delegate",
          "type": "address"
        },
        {
          "name": "_hash",
          "type": "bytes32"
        }
      ],
      "name": "removeTimeRestrictedWrite",
      "outputs": [],
      "payable": false,
      "stateMutability": "nonpayable",
      "type": "function"
    },
    {
      "constant": false,
      "inputs": [
        {
          "name": "dAppBoxOrigin",
          "type": "address"
        },
        {
          "name": "_delegate",
          "type": "address"
        },
        {
          "name": "_hash",
          "type": "bytes32"
        },
        {
          "name": "_fromTime",
          "type": "uint256"
        },
        {
          "name": "_toTime",
          "type": "uint256"
        }
      ],
      "name": "upgradeToWrite",
      "outputs": [
        {
          "name": "success",
          "type": "bool"
        }
      ],
      "payable": false,
      "stateMutability": "nonpayable",
      "type": "function"
    },
    {
      "constant": false,
      "inputs": [
        {
          "name": "dAppBoxOrigin",
          "type": "address"
        },
        {
          "name": "_delegate",
          "type": "address"
        },
        {
          "name": "_hash",
          "type": "bytes32"
        }
      ],
      "name": "delegatePermanentRead",
      "outputs": [],
      "payable": false,
      "stateMutability": "nonpayable",
      "type": "function"
    },
    {
      "constant": false,
      "inputs": [
        {
          "name": "dAppBoxOrigin",
          "type": "address"
        },
        {
          "name": "_delegate",
          "type": "address"
        },
        {
          "name": "_hash",
          "type": "bytes32"
        }
      ],
      "name": "removePermanentRead",
      "outputs": [],
      "payable": false,
      "stateMutability": "nonpayable",
      "type": "function"
    },
    {
      "constant": false,
      "inputs": [
        {
          "name": "dAppBoxOrigin",
          "type": "address"
        },
        {
          "name": "_delegate",
          "type": "address"
        },
        {
          "name": "_hash",
          "type": "bytes32"
        },
        {
          "name": "_fromTime",
          "type": "uint256"
        },
        {
          "name": "_toTime",
          "type": "uint256"
        }
      ],
      "name": "delegateTimeRestrictedRead",
      "outputs": [
        {
          "name": "",
          "type": "string"
        }
      ],
      "payable": false,
      "stateMutability": "nonpayable",
      "type": "function"
    },
    {
      "constant": false,
      "inputs": [
        {
          "name": "dAppBoxOrigin",
          "type": "address"
        },
        {
          "name": "_delegate",
          "type": "address"
        },
        {
          "name": "_hash",
          "type": "bytes32"
        }
      ],
      "name": "removeTimeRestrictedRead",
      "outputs": [],
      "payable": false,
      "stateMutability": "nonpayable",
      "type": "function"
    },
    {
      "constant": true,
      "inputs": [
        {
          "name": "_hash",
          "type": "bytes32"
        },
        {
          "name": "index",
          "type": "uint256"
        }
      ],
      "name": "getDocumentRights",
      "outputs": [
        {
          "name": "accountAddress",
          "type": "address"
        },
        {
          "name": "permpermission",
          "type": "uint8"
        },
        {
          "name": "",
          "type": "uint256[]"
        },
        {
          "name": "",
          "type": "uint256[]"
        },
        {
          "name": "",
          "type": "uint256[]"
        },
        {
          "name": "next",
          "type": "bool"
        }
      ],
      "payable": false,
      "stateMutability": "view",
      "type": "function"
    }
  ],
  "bytecode": "0x608060405234801561001057600080fd5b5060008054600160a060020a031916331790556144af806100326000396000f3fe6080604052600436106101115763ffffffff7c01000000000000000000000000000000000000000000000000000000006000350416630556c9de811461011657806316c94b02146101da578063260d8b6b146102295780632847a7af146103675780633250b3b714610393578063344ee31e146103d6578063345bf38b1461041957806363863e3c146104685780636db2d396146104ab578063799565ad1461050e57806394da2af414610551578063a370873414610594578063aef18bf7146105d7578063bee504e014610601578063c441ddc11461064f578063c57c482314610692578063cb1c7e61146106cb578063d6465dd11461070e578063e87254cd1461075d578063f4805f67146107a0575b600080fd5b34801561012257600080fd5b50610165600480360360a081101561013957600080fd5b50600160a060020a038135811691602081013590911690604081013590606081013590608001356107e3565b6040805160208082528351818301528351919283929083019185019080838360005b8381101561019f578181015183820152602001610187565b50505050905090810190601f1680156101cc5780820380516001836020036101000a031916815260200191505b509250505060405180910390f35b3480156101e657600080fd5b50610165600480360360a08110156101fd57600080fd5b50600160a060020a03813581169160208101359091169060408101359060608101359060800135610b87565b34801561023557600080fd5b506102596004803603604081101561024c57600080fd5b5080359060200135610e85565b604051600160a060020a03871681526020810186600481111561027857fe5b60ff16815260200180602001806020018060200185151515158152602001848103845288818151815260200191508051906020019060200280838360005b838110156102ce5781810151838201526020016102b6565b50505050905001848103835287818151815260200191508051906020019060200280838360005b8381101561030d5781810151838201526020016102f5565b50505050905001848103825286818151815260200191508051906020019060200280838360005b8381101561034c578181015183820152602001610334565b50505050905001995050505050505050505060405180910390f35b34801561037357600080fd5b506103916004803603602081101561038a57600080fd5b503561115d565b005b34801561039f57600080fd5b50610391600480360360608110156103b657600080fd5b50600160a060020a0381358116916020810135909116906040013561140a565b3480156103e257600080fd5b50610391600480360360608110156103f957600080fd5b50600160a060020a03813581169160208101359091169060400135611649565b34801561042557600080fd5b50610165600480360360a081101561043c57600080fd5b50600160a060020a03813581169160208101359091169060408101359060608101359060800135611862565b34801561047457600080fd5b506103916004803603606081101561048b57600080fd5b50600160a060020a03813581169160208101359091169060400135611b36565b3480156104b757600080fd5b506104fa600480360360a08110156104ce57600080fd5b50600160a060020a03813581169160208101359091169060408101359060608101359060800135611d32565b604080519115158252519081900360200190f35b34801561051a57600080fd5b506103916004803603606081101561053157600080fd5b50600160a060020a03813581169160208101359091169060400135612b44565b34801561055d57600080fd5b506103916004803603606081101561057457600080fd5b50600160a060020a03813581169160208101359091169060400135612d02565b3480156105a057600080fd5b50610391600480360360608110156105b757600080fd5b50600160a060020a03813581169160208101359091169060400135612f2a565b3480156105e357600080fd5b506104fa600480360360208110156105fa57600080fd5b5035613113565b34801561060d57600080fd5b5061062b6004803603602081101561062457600080fd5b5035613128565b6040518082600481111561063b57fe5b60ff16815260200191505060405180910390f35b34801561065b57600080fd5b506103916004803603606081101561067257600080fd5b50600160a060020a03813581169160208101359091169060400135613187565b34801561069e57600080fd5b5061062b600480360360408110156106b557600080fd5b50600160a060020a03813516906020013561336a565b3480156106d757600080fd5b50610391600480360360608110156106ee57600080fd5b50600160a060020a03813581169160208101359091169060400135613424565b34801561071a57600080fd5b506104fa600480360360a081101561073157600080fd5b50600160a060020a038135811691602081013590911690604081013590606081013590608001356135df565b34801561076957600080fd5b506103916004803603606081101561078057600080fd5b50600160a060020a03813581169160208101359091169060400135613a6d565b3480156107ac57600080fd5b50610391600480360360608110156107c357600080fd5b50600160a060020a03813581169160208101359091169060400135613c36565b606033600160a060020a03871614610833576040805160e560020a62461bcd02815260206004820152601560248201526000805160206143e4833981519152604482015290519081900360640190fd5b61083c84613db9565b1515610880576040805160e560020a62461bcd02815260206004820152601760248201526000805160206143c4833981519152604482015290519081900360640190fd5b82421115801561088f57508183105b15156108e5576040805160e560020a62461bcd02815260206004820152601460248201527f496e76616c69642074696d6520626f756e64732e000000000000000000000000604482015290519081900360640190fd5b60046108f18686613de1565b60048111156108fc57fe5b14610951576040805160e560020a62461bcd02815260206004820152601860248201527f44656c656761746520616c7265616479206578697374732e0000000000000000604482015290519081900360640190fd5b600061095d3386613de1565b9050600481600481111561096d57fe5b14156109b1576040805160e560020a62461bcd02815260206004820152600d6024820152600080516020614404833981519152604482015290519081900360640190fd5b6109ba86613ef6565b6000858152600660209081526040808320600160a060020a038a168452600a0190915290206001015442118015610a1857506000858152600660209081526040808320600160a060020a038a168452600b0190915290206001015442115b15610b40576000858152600660209081526040808320600160a060020a038a168085526007820184528285208054600160ff199182168117909255600f84018652848720805490911682179055600c9092018452938290208881550186905580514380825242938201849052918101899052336060820181905260808201949094526000805160206144648339815191529391929189918b9087906003908c908c9060a08101856004811115610aca57fe5b60ff168152602001846004811115610ade57fe5b60ff168152602001838152602001828152602001995050505050505050505060405180910390a1505060408051808201909152600781527f73756363657373000000000000000000000000000000000000000000000000006020820152610b7e565b6040805160e560020a62461bcd0281526020600482015260176024820152600080516020614444833981519152604482015290519081900360640190fd5b95945050505050565b606033600160a060020a03871614610bd7576040805160e560020a62461bcd02815260206004820152601560248201526000805160206143e4833981519152604482015290519081900360640190fd5b610be084613db9565b1515610c36576040805160e560020a62461bcd02815260206004820152601860248201527f446f63756d656e7420646f6573206e6f74206578697374730000000000000000604482015290519081900360640190fd5b824211158015610c4557508183105b1515610c9b576040805160e560020a62461bcd02815260206004820152601460248201527f496e76616c69642074696d6520626f756e64732e000000000000000000000000604482015290519081900360640190fd5b6004610ca78686613de1565b6004811115610cb257fe5b14610cf5576040805160e560020a62461bcd0281526020600482015260176024820152600080516020614444833981519152604482015290519081900360640190fd5b6000610d013386613de1565b90506000816004811115610d1157fe5b1480610d2857506001816004811115610d2657fe5b145b1515610d6c576040805160e560020a62461bcd02815260206004820152600d6024820152600080516020614404833981519152604482015290519081900360640190fd5b610d7586613ef6565b6000858152600660209081526040808320600160a060020a038a168452600a0190915290206001015442118015610dd357506000858152600660209081526040808320600160a060020a038a168452600c0190915290206001015442115b15610b40576000858152600660209081526040808320600160a060020a038a168085526007820184528285208054600160ff199182168117909255600e84018652848720805490911682179055600b9092018452938290208881550186905580514380825242938201849052918101899052336060820181905260808201949094526000805160206144648339815191529391929189918b9087906002908c908c9060a08101856004811115610aca57fe5b60008060608060606000610e9888613db9565b1515610edc576040805160e560020a62461bcd02815260206004820152601760248201526000805160206143c4833981519152604482015290519081900360640190fd5b6000600488815481101515610eed57fe5b6000918252602082200154600160a060020a03169150610f0d828b613f8e565b60008b815260066020526040902054909150600160a060020a0383811691161415610f36575060005b604080516002808252606080830184529260208301908038833950505060008c8152600660209081526040808320600160a060020a0388168452600a019091528120548251929350918391908110610f8a57fe5b602090810290910181019190915260008c8152600682526040808220600160a060020a0387168352600a01909252206001908101548251909183918110610fcd57fe5b60209081029091010152604080516002808252606082810190935281602001602082028038833950505060008d8152600660209081526040808320600160a060020a0389168452600b01909152812054825192935091839190811061102e57fe5b602090810290910181019190915260008d8152600682526040808220600160a060020a0388168352600b0190925220600190810154825190918391811061107157fe5b60209081029091010152604080516002808252606082810190935281602001602082028038833950505060008e8152600660209081526040808320600160a060020a038a168452600c0190915281205482519293509183919081106110d257fe5b602090810290910181019190915260008e8152600682526040808220600160a060020a0389168352600c0190925220600190810154825190918391811061111557fe5b60209081029091010152600454600019018c10156111425793995091975095509350915060019050611153565b939950919750955093509150600090505b9295509295509295565b61116681613db9565b156111bb576040805160e560020a62461bcd02815260206004820152601660248201527f446f63756d656e7420416c726561647920657869737400000000000000000000604482015290519081900360640190fd5b60018054810190556000818152600660205260409020805473ffffffffffffffffffffffffffffffffffffffff1916339081179091556111fa90613ef6565b6000818152600360209081526040808320805460ff19166001908117909155815160e0810183524381524293810193845291820185815233606084018181526080850191825260a0850187815260c0860188905260028054958601808255985285517f405787fa12a823e0f2b7631cc41b3ba8828b3321ca811111fa75cd3aa3bb5ace600590960295860190815596517f405787fa12a823e0f2b7631cc41b3ba8828b3321ca811111fa75cd3aa3bb5acf86015592517f405787fa12a823e0f2b7631cc41b3ba8828b3321ca811111fa75cd3aa3bb5ad0850155517f405787fa12a823e0f2b7631cc41b3ba8828b3321ca811111fa75cd3aa3bb5ad18401805473ffffffffffffffffffffffffffffffffffffffff19908116600160a060020a039384161790915591517f405787fa12a823e0f2b7631cc41b3ba8828b3321ca811111fa75cd3aa3bb5ad290940180549092169316929092178083559051929392919074ff000000000000000000000000000000000000000019167401000000000000000000000000000000000000000083600481111561139757fe5b021790555060c08201518160040160156101000a81548160ff021916908360048111156113c057fe5b02179055505060408051848152336020820152438183015290517fdb0cb24f9a64b8efb05388cfb2eeb0773513770b2d5a64ce7905dbd03e93fc2e9350908190036060019150a150565b33600160a060020a03841614611458576040805160e560020a62461bcd02815260206004820152601560248201526000805160206143e4833981519152604482015290519081900360640190fd5b61146181613db9565b15156114a5576040805160e560020a62461bcd02815260206004820152601760248201526000805160206143c4833981519152604482015290519081900360640190fd5b6000818152600660209081526040808320600160a060020a0386168452600d0190915290205460ff161515600114611515576040805160e560020a62461bcd0281526020600482015260186024820152600080516020614424833981519152604482015290519081900360640190fd5b60006115213383613de1565b9050600081600481111561153157fe5b14611574576040805160e560020a62461bcd02815260206004820152600d6024820152600080516020614404833981519152604482015290519081900360640190fd5b6000828152600660209081526040808320600160a060020a038716808552600d82018452828520805460ff19169055600a90910183528184208481556001018490558151438082524294820185905292810187905233606082018190526080820192909252600080516020614464833981519152949293928792918991889160049190819060a08101858581111561160857fe5b60ff16815260200184600481111561161c57fe5b60ff168152602001838152602001828152602001995050505050505050505060405180910390a150505050565b33600160a060020a03841614611697576040805160e560020a62461bcd02815260206004820152601560248201526000805160206143e4833981519152604482015290519081900360640190fd5b6116a081613db9565b15156116e4576040805160e560020a62461bcd02815260206004820152601760248201526000805160206143c4833981519152604482015290519081900360640190fd5b6000818152600660209081526040808320600160a060020a0386168452600f0190915290205460ff161515600114611754576040805160e560020a62461bcd0281526020600482015260186024820152600080516020614424833981519152604482015290519081900360640190fd5b60006117603383613de1565b9050600381600481111561177057fe5b1415801561178a5750600481600481111561178757fe5b14155b15156117ce576040805160e560020a62461bcd02815260206004820152600d6024820152600080516020614404833981519152604482015290519081900360640190fd5b6000828152600660209081526040808320600160a060020a038716808552600f82018452828520805460ff19169055600c90910183528184208481556001018490558151438082524294820185905292810187905233606082018190526080820192909252600080516020614464833981519152949293928792918991889160049190819060a08101858581111561160857fe5b606033600160a060020a038716146118b2576040805160e560020a62461bcd02815260206004820152601560248201526000805160206143e4833981519152604482015290519081900360640190fd5b6118bb84613db9565b15156118ff576040805160e560020a62461bcd02815260206004820152601760248201526000805160206143c4833981519152604482015290519081900360640190fd5b82421115801561190e57508183105b1515611964576040805160e560020a62461bcd02815260206004820152601460248201527f496e76616c69642074696d6520626f756e64732e000000000000000000000000604482015290519081900360640190fd5b60046119708686613de1565b600481111561197b57fe5b146119be576040805160e560020a62461bcd0281526020600482015260176024820152600080516020614444833981519152604482015290519081900360640190fd5b60006119ca3386613de1565b905060008160048111156119da57fe5b14611a1d576040805160e560020a62461bcd02815260206004820152600d6024820152600080516020614404833981519152604482015290519081900360640190fd5b611a2686613ef6565b6000858152600660209081526040808320600160a060020a038a168452600b0190915290206001015442118015611a8457506000858152600660209081526040808320600160a060020a038a168452600c0190915290206001015442115b15610b40576000858152600660209081526040808320600160a060020a038a168085526007820184528285208054600160ff199182168117909255600d84018652848720805490911682179055600a9092018452938290208881558101879055815143808252429482018590529281018a905233606082018190526080820195909552600080516020614464833981519152949293928a9290918c9188918c908c9060a08101856004811115610aca57fe5b33600160a060020a03841614611b84576040805160e560020a62461bcd02815260206004820152601560248201526000805160206143e4833981519152604482015290519081900360640190fd5b611b8d81613db9565b1515611bd1576040805160e560020a62461bcd02815260206004820152601760248201526000805160206143c4833981519152604482015290519081900360640190fd5b600081815260066020526040902054600160a060020a03163314611c65576040805160e560020a62461bcd02815260206004820152602160248201527f43616c6c657220646f6573206e6f7420686173206d617374657220616363657360448201527f7300000000000000000000000000000000000000000000000000000000000000606482015290519081900360840190fd5b6004611c718383613de1565b6004811115611c7c57fe5b14611cbf576040805160e560020a62461bcd0281526020600482015260176024820152600080516020614444833981519152604482015290519081900360640190fd5b611cc882613ef6565b6000818152600660208181526040808420600160a060020a0387168552600781018352818520805460ff1990811690915560018083018552928620805490911683179055858552929091526004909101805482019055611d2d91839133918691613fd5565b505050565b600033600160a060020a03871614611d82576040805160e560020a62461bcd02815260206004820152601560248201526000805160206143e4833981519152604482015290519081900360640190fd5b611d8b84613db9565b1515611de1576040805160e560020a62461bcd02815260206004820152601660248201527f466f6c64657220646f6573206e6f742065786973747300000000000000000000604482015290519081900360640190fd5b824211158015611df057508183105b1515611e46576040805160e560020a62461bcd02815260206004820152601460248201527f496e76616c69642054696d6520426f756e64732e000000000000000000000000604482015290519081900360640190fd5b6000848152600660209081526040808320600160a060020a0389168452600a019091529020600101544211611e7a57600080fd5b6000611e863386613de1565b90506000816004811115611e9657fe5b14611ed9576040805160e560020a62461bcd02815260206004820152600d6024820152600080516020614404833981519152604482015290519081900360640190fd5b6000611ee58787613de1565b9050611ef087613ef6565b6000868152600660209081526040808320600160a060020a038b16845260070190915290205460ff161515612341576002816004811115611f2d57fe5b141561215f576000868152600660209081526040808320600160a060020a038b168452600b019091529020600101544210156120fd576000868152600660209081526040808320600160a060020a038b168452600b01909152902060010154841015611ff5575050506000838152600660209081526040808320600160a060020a03881684526009810183528184208054600160ff199182168117909255600d83018552838620805490911682179055600a9091019092529091208381558101829055610b7e565b6000868152600660209081526040808320600160a060020a038b168452600b01909152902060010154851115612087575050506000838152600660209081526040808320600160a060020a03881684526008810183528184208054600160ff199182168117909255600d83018552838620805490911682179055600a9091019092529091208381558101829055610b7e565b6040805160e560020a62461bcd02815260206004820152602160248201527f476976656e2054696d6520426f756e64732061726520636f6e666c696374696e60448201527f6700000000000000000000000000000000000000000000000000000000000000606482015290519081900360840190fd5b5050506000838152600660209081526040808320600160a060020a03881684526008810183528184208054600160ff199182168117909255600d83018552838620805490911682179055600a9091019092529091208381558101829055610b7e565b600381600481111561216d57fe5b14156122f1576000868152600660209081526040808320600160a060020a038b168452600b019091529020544210156120fd576000868152600660209081526040808320600160a060020a038b168452600b0190915290205484101561222f575050506000838152600660209081526040808320600160a060020a03881684526008810183528184208054600160ff199182168117909255600d83018552838620805490911682179055600a9091019092529091208381558101829055610b7e565b6000868152600660209081526040808320600160a060020a038b168452600b019091529020548511801561228a57506000868152600660209081526040808320600160a060020a038b168452600b0190915290206001015484105b15611ff5575050506000838152600660209081526040808320600160a060020a03881684526009810183528184208054600160ff199182168117909255600d83018552838620805490911682179055600a9091019092529091208381558101829055610b7e565b6040805160e560020a62461bcd02815260206004820152601760248201527f42617365205065726d697373696f6e20496e76616c6964000000000000000000604482015290519081900360640190fd5b6000868152600660209081526040808320600160a060020a038b16845260070190915290205460ff16151560011415612af457600381600481111561238257fe5b14156126b0576000868152600660209081526040808320600160a060020a038b168452600b019091529020600101544210156125ce576000868152600660209081526040808320600160a060020a038b168452600b01909152902054841015612447575050506000838152600660209081526040808320600160a060020a03881684526008810183528184208054600160ff199182168117909255600d83018552838620805490911682179055600a9091019092529091208381558101829055610b7e565b6000868152600660209081526040808320600160a060020a038b168452600b01909152902054851180156124a257506000868152600660209081526040808320600160a060020a038b168452600b0190915290206001015484105b15612509575050506000838152600660209081526040808320600160a060020a03881684526009810183528184208054600160ff199182168117909255600d83018552838620805490911682179055600a9091019092529091208381558101829055610b7e565b6000868152600660209081526040808320600160a060020a038b168452600b019091529020600101548511801561256757506000868152600660209081526040808320600160a060020a038b168452600c0190915290206001015484105b15612087575050506000838152600660209081526040808320600160a060020a03881684526008810183528184208054600160ff199182168117909255600d83018552838620805490911682179055600a9091019092529091208381558101829055610b7e565b6000868152600660209081526040808320600160a060020a038b168452600c01909152902060010154841015612660575050506000838152600660209081526040808320600160a060020a03881684526008810183528184208054600160ff199182168117909255600d83018552838620805490911682179055600a9091019092529091208381558101829055610b7e565b6040805160e560020a62461bcd02815260206004820181905260248201527f476976656e2054696d6520426f756e64732061726520436f6e666c6974696e67604482015290519081900360640190fd5b60028160048111156126be57fe5b1415612818576000868152600660209081526040808320600160a060020a038b168452600c01909152902060010154421015612786576000868152600660209081526040808320600160a060020a038b168452600b01909152902060010154841015612509575050506000838152600660209081526040808320600160a060020a03881684526009810183528184208054600160ff199182168117909255600d83018552838620805490911682179055600a9091019092529091208381558101829055610b7e565b6000868152600660209081526040808320600160a060020a038b168452600b01909152902060010154841015612087575050506000838152600660209081526040808320600160a060020a03881684526008810183528184208054600160ff199182168117909255600d83018552838620805490911682179055600a9091019092529091208381558101829055610b7e565b600481600481111561282657fe5b14156122f1576000868152600660209081526040808320600160a060020a038b168452600c01909152902054421015612a06576000868152600660209081526040808320600160a060020a038b168452600b01909152902054421015612945576000868152600660209081526040808320600160a060020a038b168452600c01909152902054851180156128de57506000868152600660209081526040808320600160a060020a038b168452600b0190915290205484105b15612447575050506000838152600660209081526040808320600160a060020a03881684526008810183528184208054600160ff199182168117909255600d83018552838620805490911682179055600a9091019092529091208381558101829055610b7e565b6000868152600660209081526040808320600160a060020a038b168452600c019091529020548511801561256757506000868152600660209081526040808320600160a060020a038b168452600c01909152902060010154841015612087575050506000838152600660209081526040808320600160a060020a03881684526008810183528184208054600160ff199182168117909255600d83018552838620805490911682179055600a9091019092529091208381558101829055610b7e565b6000868152600660209081526040808320600160a060020a038b168452600b019091529020544210156122f1576000868152600660209081526040808320600160a060020a038b168452600b019091529020548511801561256757506000868152600660209081526040808320600160a060020a038b168452600b01909152902060010154841015612087575050506000838152600660209081526040808320600160a060020a03881684526008810183528184208054600160ff199182168117909255600d83018552838620805490911682179055600a9091019092529091208381558101829055610b7e565b6040805160e560020a62461bcd02815260206004820152601260248201527f556e6578706563746564204661696c7572650000000000000000000000000000604482015290519081900360640190fd5b33600160a060020a03841614612b92576040805160e560020a62461bcd02815260206004820152601560248201526000805160206143e4833981519152604482015290519081900360640190fd5b612b9b81613db9565b1515612bdf576040805160e560020a62461bcd02815260206004820152601760248201526000805160206143c4833981519152604482015290519081900360640190fd5b6002612beb8383613de1565b6004811115612bf657fe5b14612c39576040805160e560020a62461bcd0281526020600482015260186024820152600080516020614424833981519152604482015290519081900360640190fd5b6000612c453383613de1565b90506000816004811115612c5557fe5b1480612c6c57506001816004811115612c6a57fe5b145b1515612cb0576040805160e560020a62461bcd02815260206004820152600d6024820152600080516020614404833981519152604482015290519081900360640190fd5b6000828152600660208181526040808420600160a060020a0388168552600281018352908420805460ff1916905592859052526005018054600019019055612cfc823385846004613fd5565b50505050565b33600160a060020a03841614612d50576040805160e560020a62461bcd02815260206004820152601560248201526000805160206143e4833981519152604482015290519081900360640190fd5b612d5981613db9565b1515612daf576040805160e560020a62461bcd02815260206004820152601860248201527f446f63756d656e7420646f6573206e6f74206578697374730000000000000000604482015290519081900360640190fd5b6000818152600660209081526040808320600160a060020a0386168452600e0190915290205460ff161515600114612e1f576040805160e560020a62461bcd0281526020600482015260186024820152600080516020614424833981519152604482015290519081900360640190fd5b6000612e2b3383613de1565b90506000816004811115612e3b57fe5b1480612e5257506001816004811115612e5057fe5b145b1515612e96576040805160e560020a62461bcd02815260206004820152600d6024820152600080516020614404833981519152604482015290519081900360640190fd5b6000828152600660209081526040808320600160a060020a038716808552600e82018452828520805460ff19169055600b90910183528184208481556001018490558151438082524294820185905292810187905233606082018190526080820192909252600080516020614464833981519152949293928792918991889160049190819060a08101858581111561160857fe5b33600160a060020a03841614612f78576040805160e560020a62461bcd02815260206004820152601560248201526000805160206143e4833981519152604482015290519081900360640190fd5b612f8181613db9565b1515612fc5576040805160e560020a62461bcd02815260206004820152601760248201526000805160206143c4833981519152604482015290519081900360640190fd5b6000612fd13383613de1565b6004811115612fdc57fe5b14613057576040805160e560020a62461bcd02815260206004820152602160248201527f53656e64657220646f6573206e6f7420686173206d617374657220616363657360448201527f7300000000000000000000000000000000000000000000000000000000000000606482015290519081900360840190fd5b60016130638383613de1565b600481111561306e57fe5b146130c3576040805160e560020a62461bcd02815260206004820152600c60248201527f4e6f7420616e206f776e65720000000000000000000000000000000000000000604482015290519081900360640190fd5b6000818152600660208181526040808420600160a060020a0387168552600181018352908420805460ff1916905584845291905260049081018054600019019055611d2d91839133918691613fd5565b60036020526000908152604090205460ff1681565b600061313382613db9565b1515613177576040805160e560020a62461bcd02815260206004820152601760248201526000805160206143c4833981519152604482015290519081900360640190fd5b6131813383613de1565b92915050565b33600160a060020a038416146131d5576040805160e560020a62461bcd02815260206004820152601560248201526000805160206143e4833981519152604482015290519081900360640190fd5b6131de81613db9565b1515613222576040805160e560020a62461bcd02815260206004820152601760248201526000805160206143c4833981519152604482015290519081900360640190fd5b600461322e8383613de1565b600481111561323957fe5b1461327c576040805160e560020a62461bcd0281526020600482015260176024820152600080516020614444833981519152604482015290519081900360640190fd5b60006132883383613de1565b9050600081600481111561329857fe5b14806132af575060018160048111156132ad57fe5b145b15156132f3576040805160e560020a62461bcd02815260206004820152600d6024820152600080516020614404833981519152604482015290519081900360640190fd5b6132fc83613ef6565b6000828152600660208181526040808420600160a060020a0388168552600781018352818520805460ff199081169091556002808301855292862080549091166001908117909155948790529290915260059091018054909201909155612cfc908390339086908590613fd5565b600061337582613db9565b15156133b9576040805160e560020a62461bcd02815260206004820152601760248201526000805160206143c4833981519152604482015290519081900360640190fd5b60046133c53384613de1565b60048111156133d057fe5b146133e6576133df8383613de1565b9050613181565b6040805160e560020a62461bcd02815260206004820152600d6024820152600080516020614404833981519152604482015290519081900360640190fd5b33600160a060020a03841614613472576040805160e560020a62461bcd02815260206004820152601560248201526000805160206143e4833981519152604482015290519081900360640190fd5b61347b81613db9565b15156134bf576040805160e560020a62461bcd02815260206004820152601760248201526000805160206143c4833981519152604482015290519081900360640190fd5b60036134cb8383613de1565b60048111156134d657fe5b14613519576040805160e560020a62461bcd0281526020600482015260186024820152600080516020614424833981519152604482015290519081900360640190fd5b60006135253383613de1565b9050600381600481111561353557fe5b1415801561354f5750600481600481111561354c57fe5b14155b1515613593576040805160e560020a62461bcd02815260206004820152600d6024820152600080516020614404833981519152604482015290519081900360640190fd5b6000828152600660208181526040808420600160a060020a0388168552600381018352908420805460ff1916905592859052819052018054600019019055612cfc823385846004613fd5565b600033600160a060020a0387161461362f576040805160e560020a62461bcd02815260206004820152601560248201526000805160206143e4833981519152604482015290519081900360640190fd5b61363884613db9565b151561368e576040805160e560020a62461bcd02815260206004820152601860248201527f446f63756d656e7420646f6573206e6f74206578697374730000000000000000604482015290519081900360640190fd5b82421115801561369d57508183105b15156136f3576040805160e560020a62461bcd02815260206004820152601460248201527f496e76616c69642054696d6520426f756e64732e000000000000000000000000604482015290519081900360640190fd5b6000848152600660209081526040808320600160a060020a0389168452600b01909152902060010154421161372757600080fd5b60006137333386613de1565b9050600081600481111561374357fe5b148061375a5750600181600481111561375857fe5b145b151561379e576040805160e560020a62461bcd02815260206004820152600d6024820152600080516020614404833981519152604482015290519081900360640190fd5b60006137aa8787613de1565b90506137b587613ef6565b6000868152600660209081526040808320600160a060020a038b16845260070190915290205460ff16151561385a5760038160048111156137f257fe5b14156122f1575050506000838152600660209081526040808320600160a060020a03881684526008810183528184208054600160ff199182168117909255600e83018552838620805490911682179055600b9091019092529091208381558101829055610b7e565b6000868152600660209081526040808320600160a060020a038b16845260070190915290205460ff16151560011415612af4576000868152600660209081526040808320600160a060020a038b168452600c019091529020600101544210156139f7576000868152600660209081526040808320600160a060020a038b168452600c01909152902054851080159061391a57506000868152600660209081526040808320600160a060020a038b168452600c019091529020600101548411155b15613981575050506000838152600660209081526040808320600160a060020a03881684526008810183528184208054600160ff199182168117909255600e83018552838620805490911682179055600b9091019092529091208381558101829055610b7e565b6040805160e560020a62461bcd02815260206004820152602e60248201527f476976656e2054696d6520426f756e647320617265206f75747369646520426160448201527f73652054696d6520426f756e6473000000000000000000000000000000000000606482015290519081900360840190fd5b6040805160e560020a62461bcd02815260206004820152602260248201527f42617365205065726d697373696f6e20496e76616c6964206f7220457870697260448201527f6564000000000000000000000000000000000000000000000000000000000000606482015290519081900360840190fd5b33600160a060020a03841614613abb576040805160e560020a62461bcd02815260206004820152601560248201526000805160206143e4833981519152604482015290519081900360640190fd5b613ac481613db9565b1515613b08576040805160e560020a62461bcd02815260206004820152601760248201526000805160206143c4833981519152604482015290519081900360640190fd5b6004613b148383613de1565b6004811115613b1f57fe5b14613b62576040805160e560020a62461bcd0281526020600482015260176024820152600080516020614444833981519152604482015290519081900360640190fd5b6000613b6e3383613de1565b90506004816004811115613b7e57fe5b1415613bc2576040805160e560020a62461bcd02815260206004820152600d6024820152600080516020614404833981519152604482015290519081900360640190fd5b613bcb83613ef6565b6000828152600660208181526040808420600160a060020a0388168552600781018352818520805460ff199081169091556003808301855292862080549091166001908117909155948790529183905291018054909201909155612cfc908390339086908590613fd5565b33600160a060020a03841614613c84576040805160e560020a62461bcd02815260206004820152601560248201526000805160206143e4833981519152604482015290519081900360640190fd5b613c8d81613db9565b1515613cd1576040805160e560020a62461bcd02815260206004820152601760248201526000805160206143c4833981519152604482015290519081900360640190fd5b6000613cdd3383613de1565b6004811115613ce857fe5b14613d2b576040805160e560020a62461bcd02815260206004820152600d6024820152600080516020614404833981519152604482015290519081900360640190fd5b613d3482613ef6565b600081815260066020908152604091829020805473ffffffffffffffffffffffffffffffffffffffff1916600160a060020a03861617905581518381523391810191909152438183015290517fdb0cb24f9a64b8efb05388cfb2eeb0773513770b2d5a64ce7905dbd03e93fc2e916060908290030190a1611d2d813384600080613fd5565b60008181526003602052604081205460ff1615613dd857506001613ddc565b5060005b919050565b600081815260066020526040812054600160a060020a0384811691161415613e0b57506000613181565b6000828152600660209081526040808320600160a060020a038716845260070190915290205460ff161515613eb1576000828152600660209081526040808320600160a060020a038716845260080190915290205460ff16151560011415613ea7576000613e7984846141d0565b90506004816004811115613e8957fe5b14613e95579050613181565b613e9f8484613f8e565b915050613181565b6133df8383613f8e565b6000828152600660209081526040808320600160a060020a038716845260070190915290205460ff16151560011415613eee576133df83836141d0565b506004613181565b600160a060020a03811660009081526005602052604090205460ff161515613f8b57600160a060020a0381166000818152600560205260408120805460ff191660019081179091556004805491820181559091527f8a35acfbc15ff81a39ae7d344fd709f28e8600b4aa8c65c6b64bfe7fe36bd19b01805473ffffffffffffffffffffffffffffffffffffffff191690911790555b50565b6000613f9a838361430a565b15613fa757506001613181565b613fb1838361434d565b15613fbe57506002613181565b613fc88383614388565b15613eee57506003613181565b600260e06040519081016040528043815260200142815260200187815260200186600160a060020a0316815260200185600160a060020a0316815260200184600481111561401f57fe5b815260200183600481111561403057fe5b90528154600180820180855560009485526020948590208451600590940201928355938301519082015560408201516002820155606082015160038201805473ffffffffffffffffffffffffffffffffffffffff19908116600160a060020a0393841617909155608084015160048085018054909316919093161780825560a08501519274ff00000000000000000000000000000000000000001990911690740100000000000000000000000000000000000000009084908111156140f157fe5b021790555060c08201518160040160156101000a81548160ff0219169083600481111561411a57fe5b02179055505050507f423e2cfeb77afca996aa68c849d36f546ce094000b815aff15c43846c36513f2434287878787876040518088815260200187815260200186815260200185600160a060020a0316600160a060020a0316815260200184600160a060020a0316600160a060020a0316815260200183600481111561419c57fe5b60ff1681526020018260048111156141b057fe5b60ff16815260200197505050505050505060405180910390a15050505050565b6000818152600660209081526040808320600160a060020a0386168452600a01909152812054421080159061422c57506000828152600660209081526040808320600160a060020a0387168452600a0190915290206001015442105b1561423957506001613181565b6000828152600660209081526040808320600160a060020a0387168452600b01909152902054421080159061429557506000828152600660209081526040808320600160a060020a0387168452600b0190915290206001015442105b156142a257506002613181565b6000828152600660209081526040808320600160a060020a0387168452600c019091529020544210801590613fc857506000828152600660209081526040808320600160a060020a0387168452600c01909152902060010154421015613eee57506003613181565b6000818152600660209081526040808320600160a060020a0386168452600190810190925282205460ff161515141561434557506001613181565b506000613181565b6000818152600660209081526040808320600160a060020a038616845260020190915281205460ff1615156001141561434557506001613181565b6000818152600660209081526040808320600160a060020a038616845260030190915281205460ff161515600114156143455750600161318156fe446f63756d656e7420646f6573206e6f7420657869737400000000000000000061757468656e7469636174696f6e206661696c656400000000000000000000004163636573732044656e6965640000000000000000000000000000000000000044656c656761746520646f6573206e6f742065786973742e000000000000000044656c656761746520616c726561647920657869737473000000000000000000351bb1a27a477bad8ad41c4a5e70ea476e31f5348c8136591d29f34f37b5a3aca165627a7a7230582020ecb93c66b2e7e415d4da434e7c9afb7ae7f237e2331321fa1bec692b324e840029",
  "source": "pragma solidity >=0.4.21 <0.6.0;\n\nimport \"./DocNotarizationManagement.sol\";\nimport \"./DocumentAccessRightsDefinition.sol\";\n\n/// @title PermissionManagement\n/// @author Ashwin Arora\ncontract DocPermissionManagement is DocNotarizationManagement, DocumentAccessRightsDefinition{\n\n  \n  constructor() public{\n    owner = msg.sender;\n  }\n\n  /**\n  * @dev use to create a new document with new hash\n  * @param _hash hash of the document\n  */\n  function newDocument(bytes32 _hash) public {\n    require(!documentExists(_hash), \"Document Already exist\");\n\n    ++documentCount;\n    permissionOf[_hash].master = msg.sender;\n    pushAddress(msg.sender);\n    usedHashes[_hash] = true;\n    dochistory.push(DocumentAccessRight(block.number, block.timestamp, _hash, msg.sender, msg.sender, PermissionType.master, PermissionType.master));\n    emit NewDocument(_hash, msg.sender, block.number);\n  }\n  \n  /**\n  * @dev used to chang the master, caller will loose master access and _delegate will gain master access\n  * @param _delegate Ethereum address to whom permission is to be delegated\n  * @param _hash hash of the document\n  */\n  function changeMaster(address dAppBoxOrigin,address _delegate, bytes32 _hash) public{\n    require(msg.sender == dAppBoxOrigin,\"authentication failed\");\n    require(documentExists(_hash), \"Document does not exist\");\n    require(checkPermission(msg.sender, _hash) == PermissionType.master, \"Access Denied\");\n    pushAddress(_delegate);\n    permissionOf[_hash].master = _delegate;\n    emit NewDocument(_hash, msg.sender, block.number);\n    transferDocument( _hash, msg.sender, _delegate, PermissionType.master, PermissionType.master);\n  }\n\n  /**\n  * @dev use to check what permissions the caller hash\n  * @param _hash hash of the document\n  */\n  function checkYourPermission(bytes32 _hash) public view returns(PermissionType){\n    require(documentExists(_hash), \"Document does not exist\");\n    return checkPermission(msg.sender, _hash);\n  }\n\n  /**\n  * @dev use to check what permissions the delegate hash\n  * @param _delegate Ethereum address of whos permission is to be checked\n  * @param _hash hash of the document\n  */\n  function checkDelegatePermission(address _delegate, bytes32 _hash) public view returns (PermissionType) {\n    require(documentExists(_hash), \"Document does not exist\");\n    if(checkPermission(msg.sender, _hash) != PermissionType.none ){\n      return checkPermission(_delegate, _hash);\n    }else{\n      revert (\"Access Denied\");\n    }\n  }\n\n  /**\n  * @dev use to delegate owner access to any ethereum address\n  * @param _delegate Ethereum address to whom permission is to be delegated\n  * @param _hash hash of the document\n  */\n  function delegatePermanentOwner(address dAppBoxOrigin, address _delegate, bytes32 _hash) public{\n    require(msg.sender == dAppBoxOrigin,\"authentication failed\");\n    require(documentExists(_hash), \"Document does not exist\");\n    require(permissionOf[_hash].master == msg.sender, \"Caller does not has master access\");\n    require(checkPermission(_delegate, _hash) == PermissionType.none, \"Delegate already exists\");\n    pushAddress(_delegate);\n    permissionOf[_hash].isBaseRestricted[_delegate] = false;\n    permissionOf[_hash].DelegatedOwners[_delegate] = true;\n    permissionOf[_hash].ownerLength++;\n    transferDocument( _hash, msg.sender, _delegate, PermissionType.master, PermissionType.owner);\n  }\n\n  /**\n  * @dev use to remove owner access of existing owner\n  * @param _delegate Ethereum address to whom permission is to be delegated\n  * @param _hash hash of the document\n  */\n  function removePermanentOwner(address dAppBoxOrigin,address _delegate, bytes32 _hash) public{\n    require(msg.sender == dAppBoxOrigin,\"authentication failed\");\n    require(documentExists(_hash), \"Document does not exist\");\n    require(checkPermission(msg.sender, _hash) == PermissionType.master, \"Sender does not has master access\");\n    //require(permissionOf[_hash].master == msg.sender, \"Caller does not has master access\");\n    require(checkPermission(_delegate, _hash) == PermissionType.owner, \"Not an owner\");\n\n    permissionOf[_hash].DelegatedOwners[_delegate] = false;\n    permissionOf[_hash].ownerLength--;\n    transferDocument( _hash, msg.sender, _delegate, PermissionType.master, PermissionType.none);\n  }\n\n  /**\n    * @dev use to delegate owner permission with time bounds\n    * @param _delegate Ethereum address to whom permission is to be delegated\n    * @param _hash hash of the document\n    * @param _fromTime Time from which the delegate has access\n    * @param _toTime Time till which the delegate has access\n    */\n  function delegateTimeRestrictedOwner(address dAppBoxOrigin,address _delegate, bytes32 _hash, uint256 _fromTime, uint256 _toTime) public returns(string memory){\n    require(msg.sender == dAppBoxOrigin,\"authentication failed\");\n    require(documentExists(_hash), \"Document does not exist\");\n    require(block.timestamp <= _fromTime && _fromTime < _toTime, \"Invalid time bounds.\" );\n    require(checkPermission(_delegate, _hash) == PermissionType.none, \"Delegate already exists\");\n    PermissionType permissionOfCaller = checkPermission(msg.sender, _hash);\n    require(permissionOfCaller == PermissionType.master, \"Access Denied\");\n    pushAddress(_delegate);\n    if(permissionOf[_hash].writeTime[_delegate].toTime < block.timestamp &&  permissionOf[_hash].readTime[_delegate].toTime < block.timestamp){\n      permissionOf[_hash].isBaseRestricted[_delegate] = true;\n      permissionOf[_hash].isDelegatedOwnerRestricted[_delegate] = true;\n      permissionOf[_hash].DelegatedOwnersTime[_delegate].fromTime = _fromTime;\n      permissionOf[_hash].DelegatedOwnersTime[_delegate].toTime = _toTime;\n      emit TimeRestrictedPermission(block.number, block.timestamp, _hash, msg.sender, _delegate, permissionOfCaller, PermissionType.owner, _fromTime, _toTime);\n      return \"success\";\n    }else{\n      revert(\"Delegate already exists\");\n      return \"failure\";\n    }\n  }\n\n  /**\n  * @dev use to remove Owner permission with time bounds\n  * @param _delegate Ethereum address to whom permission is to be delegated\n  * @param _hash hash of the document\n  */\n \n \n  function removeTimeRestrictedOwner(address dAppBoxOrigin,address _delegate, bytes32 _hash) public{\n    require(msg.sender == dAppBoxOrigin,\"authentication failed\");\n    require(documentExists(_hash), \"Document does not exist\");\n    require(permissionOf[_hash].isDelegatedOwnerRestricted[_delegate] == true, \"Delegate does not exist.\");\n    //require(permissionOf[_hash].ownerTime[_delegate].toTime >= block.timestamp, \"\");\n    PermissionType permissionOfCaller = checkPermission(msg.sender, _hash);\n    require(permissionOfCaller == PermissionType.master, \"Access Denied\");\n\n    permissionOf[_hash].isDelegatedOwnerRestricted[_delegate] = false;\n    permissionOf[_hash].DelegatedOwnersTime[_delegate].fromTime = 0;\n    permissionOf[_hash].DelegatedOwnersTime[_delegate].toTime = 0;\n    emit TimeRestrictedPermission(block.number, block.timestamp, _hash, msg.sender, _delegate, permissionOfCaller, PermissionType.none, 0,0);\n  }\n\n  /**\n  * @dev use to delegate write access to any ethereum address\n  * @param _delegate Ethereum address to whom permission is to be delegated\n  * @param _hash hash of the document\n  */\n  function delegatePermanentWrite(address dAppBoxOrigin,address _delegate, bytes32 _hash) public{\n    require(msg.sender == dAppBoxOrigin,\"authentication failed\");\n    require(documentExists(_hash), \"Document does not exist\");\n    require(checkPermission(_delegate, _hash) == PermissionType.none, \"Delegate already exists\");\n    PermissionType permissionOfCaller = checkPermission(msg.sender,_hash);\n    require(permissionOfCaller == PermissionType.master || permissionOfCaller == PermissionType.owner, \"Access Denied\");\n    pushAddress(_delegate);\n    permissionOf[_hash].isBaseRestricted[_delegate] = false;\n    permissionOf[_hash].write[_delegate] = true;\n    permissionOf[_hash].writeLength++;\n    transferDocument( _hash, msg.sender, _delegate, permissionOfCaller ,PermissionType.write);\n  }\n  /**\n  * @dev use to remove write access of any ethereum address\n  * @param _delegate Ethereum address of whos permission is to be removed\n  * @param _hash hash of the document\n  */\n  function removePermanentWrite(address dAppBoxOrigin,address _delegate, bytes32 _hash) public{\n    require(msg.sender == dAppBoxOrigin,\"authentication failed\");\n    require(documentExists(_hash), \"Document does not exist\");\n    require(checkPermission(_delegate, _hash) == PermissionType.write, \"Delegate does not exist.\");\n    PermissionType permissionOfCaller = checkPermission(msg.sender, _hash);\n    require(permissionOfCaller == PermissionType.master || permissionOfCaller == PermissionType.owner, \"Access Denied\");\n\n    permissionOf[_hash].write[_delegate] = false;\n    permissionOf[_hash].writeLength--;\n    transferDocument( _hash, msg.sender, _delegate, permissionOfCaller, PermissionType.none);\n  }\n\n  /**\n  * @dev use to delegate write permission with time bounds\n  * @param _delegate Ethereum address to whom permission is to be delegated\n  * @param _hash hash of the document\n  * @param _fromTime Time from which the delegate has access\n  * @param _toTime Time till which the delegate has access\n  */\n  function delegateTimeRestrictedWrite(address dAppBoxOrigin,address _delegate, bytes32 _hash, uint256 _fromTime, uint256 _toTime) public returns(string memory){\n    require(msg.sender == dAppBoxOrigin,\"authentication failed\");\n    require(documentExists(_hash), \"Document does not exists\");\n    require(block.timestamp <= _fromTime && _fromTime < _toTime, \"Invalid time bounds.\" );\n    require(checkPermission(_delegate, _hash) == PermissionType.none, \"Delegate already exists\");\n    PermissionType permissionOfCaller = checkPermission(msg.sender, _hash);\n    require(permissionOfCaller == PermissionType.master || permissionOfCaller == PermissionType.owner, \"Access Denied\");\n    pushAddress(_delegate);\n    if(permissionOf[_hash].DelegatedOwnersTime[_delegate].toTime < block.timestamp &&  permissionOf[_hash].readTime[_delegate].toTime < block.timestamp){\n      permissionOf[_hash].isBaseRestricted[_delegate] = true;\n      permissionOf[_hash].isWriteRestricted[_delegate] = true;\n      permissionOf[_hash].writeTime[_delegate].fromTime = _fromTime;\n      permissionOf[_hash].writeTime[_delegate].toTime = _toTime;\n      emit TimeRestrictedPermission(block.number, block.timestamp, _hash, msg.sender, _delegate, permissionOfCaller, PermissionType.write, _fromTime, _toTime);\n      return \"success\";\n    }else{\n      revert(\"Delegate already exists\");\n      return \"failure\";\n    }\n  }\n\n  /**\n  * @dev use to remove write permission with time bounds\n  * @param _delegate Ethereum address to whom permission is to be delegated\n  * @param _hash hash of the document\n  */\n  function removeTimeRestrictedWrite(address dAppBoxOrigin,address _delegate, bytes32 _hash) public{\n    require(msg.sender == dAppBoxOrigin,\"authentication failed\");\n    require(documentExists(_hash), \"Document does not exists\");\n    require(permissionOf[_hash].isWriteRestricted[_delegate] == true, \"Delegate does not exist.\");\n    PermissionType permissionOfCaller = checkPermission(msg.sender, _hash);\n    require(permissionOfCaller == PermissionType.master || permissionOfCaller == PermissionType.owner, \"Access Denied\");\n\n    permissionOf[_hash].isWriteRestricted[_delegate] = false;\n    permissionOf[_hash].writeTime[_delegate].fromTime = 0;\n    permissionOf[_hash].writeTime[_delegate].toTime = 0;\n    emit TimeRestrictedPermission(block.number, block.timestamp, _hash, msg.sender, _delegate, permissionOfCaller, PermissionType.none, 0, 0);\n  }\n\n  /**\n  * @dev use to temporarily upgrade read access of an address to write access\n  * @param _delegate Ethereum address whos permission is to be temporarily upgarded\n  * @param _hash hash of the document\n  * @param _fromTime Time from which the delegate has upgraded write access\n  * @param _toTime Time till which the delegate has upgraded write access\n  */\n  function upgradeToWrite(address dAppBoxOrigin,address _delegate, bytes32 _hash, uint256 _fromTime, uint256 _toTime) public returns(bool success){\n    require(msg.sender == dAppBoxOrigin,\"authentication failed\");\n    require(documentExists(_hash), \"Document does not exists\");\n    require(block.timestamp <= _fromTime && _fromTime < _toTime, \"Invalid Time Bounds.\");\n    require(permissionOf[_hash].writeTime[_delegate].toTime < block.timestamp);\n    PermissionType permissionOfCaller = checkPermission(msg.sender, _hash);\n    require(permissionOfCaller == PermissionType.master || permissionOfCaller == PermissionType.owner, \"Access Denied\");\n\n    PermissionType permissionOfDelegate = checkPermission(_delegate, _hash);\n    pushAddress(_delegate);\n    if(permissionOf[_hash].isBaseRestricted[_delegate] == false){\n      if(permissionOfDelegate == PermissionType.read){\n        permissionOf[_hash].isTemporarilyUpgraded[_delegate] = true;\n        permissionOf[_hash].isWriteRestricted[_delegate] = true;\n        permissionOf[_hash].writeTime[_delegate].fromTime = _fromTime;\n        permissionOf[_hash].writeTime[_delegate].toTime = _toTime;\n        success = true;\n        return success;\n      }else{\n        revert(\"Base Permission Invalid\");\n      }\n    }else if(permissionOf[_hash].isBaseRestricted[_delegate] == true){\n      if(permissionOf[_hash].readTime[_delegate].toTime > block.timestamp){\n        if(permissionOf[_hash].readTime[_delegate].fromTime <= _fromTime && permissionOf[_hash].readTime[_delegate].toTime >= _toTime){\n          permissionOf[_hash].isTemporarilyUpgraded[_delegate] = true;\n          permissionOf[_hash].isWriteRestricted[_delegate] = true;\n          permissionOf[_hash].writeTime[_delegate].fromTime = _fromTime;\n          permissionOf[_hash].writeTime[_delegate].toTime = _toTime;\n          success = true;\n          return success;\n        }else{\n          revert(\"Given Time Bounds are outside Base Time Bounds\");\n        }\n      }else{\n        revert(\"Base Permission Invalid or Expired\");\n      }\n    }else{\n      revert(\"Unexpected Failure\");\n    }\n  }\n\n  /**\n  * @dev use to delegate read access to any ethereum address\n  * @param _delegate Ethereum address to whom permission is to be delegated\n  * @param _hash hash of the document\n  */\n  function delegatePermanentRead(address dAppBoxOrigin,address _delegate, bytes32 _hash) public{\n    require(msg.sender == dAppBoxOrigin,\"authentication failed\");\n    require(documentExists(_hash), \"Document does not exist\");\n    require(checkPermission(_delegate, _hash) == PermissionType.none, \"Delegate already exists\");\n    PermissionType permissionOfCaller = checkPermission(msg.sender, _hash);\n    require(permissionOfCaller != PermissionType.none, \"Access Denied\");\n    pushAddress(_delegate);\n    permissionOf[_hash].isBaseRestricted[_delegate] = false;\n    permissionOf[_hash].read[_delegate] = true;\n    permissionOf[_hash].readLength++;\n    transferDocument( _hash, msg.sender, _delegate, permissionOfCaller, PermissionType.read);\n  }\n\n  /**\n  * @dev use to remove read access of any ethereum address\n  * @param _delegate Ethereum address of whos permission is to be removed\n  * @param _hash hash of the document\n  */\n  function removePermanentRead(address dAppBoxOrigin,address _delegate, bytes32 _hash) public{\n    require(msg.sender == dAppBoxOrigin,\"authentication failed\");\n    require(documentExists(_hash), \"Document does not exist\");\n    require(checkPermission(_delegate, _hash) == PermissionType.read, \"Delegate does not exist.\");\n    PermissionType permissionOfCaller = checkPermission(msg.sender, _hash);\n    require(permissionOfCaller != PermissionType.read && permissionOfCaller != PermissionType.none, \"Access Denied\");\n\n    permissionOf[_hash].read[_delegate] = false;\n    permissionOf[_hash].readLength--;\n    transferDocument( _hash, msg.sender, _delegate, permissionOfCaller, PermissionType.none);\n  }\n\n  /**\n  * @dev use to delegate Read permission with time bounds\n  * @param _delegate Ethereum address to whom permission is to be delegated\n  * @param _hash hash of the document\n  * @param _fromTime Time from which the delegate has access\n  * @param _toTime Time till which the delegate has access\n  */\n  function delegateTimeRestrictedRead(address dAppBoxOrigin ,address _delegate, bytes32 _hash, uint256 _fromTime, uint256 _toTime) public returns(string memory){\n    require(msg.sender == dAppBoxOrigin,\"authentication failed\");\n    require(documentExists(_hash), \"Document does not exist\");\n    require(block.timestamp <= _fromTime && _fromTime < _toTime, \"Invalid time bounds.\" );\n    require(checkPermission(_delegate,_hash) == PermissionType.none, \"Delegate already exists.\");\n    PermissionType permissionOfCaller = checkPermission(msg.sender, _hash);\n    require(permissionOfCaller != PermissionType.none, \"Access Denied\");\n    pushAddress(_delegate);\n    if(permissionOf[_hash].DelegatedOwnersTime[_delegate].toTime < block.timestamp &&  permissionOf[_hash].writeTime[_delegate].toTime < block.timestamp){\n      permissionOf[_hash].isBaseRestricted[_delegate] = true;\n      permissionOf[_hash].isReadRestricted[_delegate] = true;\n      permissionOf[_hash].readTime[_delegate].fromTime = _fromTime;\n      permissionOf[_hash].readTime[_delegate].toTime = _toTime;\n      emit TimeRestrictedPermission(block.number, block.timestamp, _hash, msg.sender, _delegate, permissionOfCaller, PermissionType.read, _fromTime, _toTime);\n      return \"success\";\n    }else{\n      revert(\"Delegate already exists\");\n      return \"failure\";\n    }\n  }\n\n  /**\n  * @dev use to remove Read permission with time bounds\n  * @param _delegate Ethereum address to whom permission is to be delegated\n  * @param _hash hash of the document\n  */\n  function removeTimeRestrictedRead(address dAppBoxOrigin,address _delegate, bytes32 _hash) public{\n    require(msg.sender == dAppBoxOrigin,\"authentication failed\");\n    require(documentExists(_hash), \"Document does not exist\");\n    require(permissionOf[_hash].isReadRestricted[_delegate] == true, \"Delegate does not exist.\");\n    PermissionType permissionOfCaller = checkPermission(msg.sender, _hash);\n    require(permissionOfCaller != PermissionType.read && permissionOfCaller != PermissionType.none, \"Access Denied\");\n\n    permissionOf[_hash].isReadRestricted[_delegate] = false;\n    permissionOf[_hash].readTime[_delegate].fromTime = 0;\n    permissionOf[_hash].readTime[_delegate].toTime = 0;\n    emit TimeRestrictedPermission(block.number, block.timestamp, _hash, msg.sender, _delegate, permissionOfCaller, PermissionType.none, 0, 0);\n  }\n  function getDocumentRights(bytes32 _hash, uint index) view public returns(address accountAddress, PermissionType permpermission, uint256[] memory, uint256[] memory, uint256[] memory, bool next){\n    require(documentExists(_hash), \"Document does not exist\");\n    address  delegateAddress = permissionAddresses[index];\n    PermissionType permanent = checkPermanentPermission(delegateAddress, _hash);\n    if(permissionOf[_hash].master == delegateAddress){\n      permanent = PermissionType.master;\n    }\n    uint256[] memory ownerTimeBound = new uint256[](2); \n    ownerTimeBound[0] = permissionOf[_hash].DelegatedOwnersTime[delegateAddress].fromTime;\n    ownerTimeBound[1] = permissionOf[_hash].DelegatedOwnersTime[delegateAddress].toTime;\n    uint256[] memory writeTimeBound = new uint256[](2); \n    writeTimeBound[0] = permissionOf[_hash].writeTime[delegateAddress].fromTime;\n    writeTimeBound[1] = permissionOf[_hash].writeTime[delegateAddress].toTime;\n    uint256[] memory readTimeBound = new uint256[](2); \n    readTimeBound[0] = permissionOf[_hash].readTime[delegateAddress].fromTime;\n    readTimeBound[1] = permissionOf[_hash].readTime[delegateAddress].toTime;\n    if (permissionAddresses.length - 1 > index){\n      return (delegateAddress, permanent, ownerTimeBound, writeTimeBound, readTimeBound, true);\n    } else {\n      return (delegateAddress, permanent, ownerTimeBound, writeTimeBound, readTimeBound, false);\n    }\n  }\n}\n",
  "sourcePath": "/home/sagar/Desktop/delivery final/28_may_ixxo_allsmart_contract/ixxo_smartcontracts/AccessRight/PermissionManagementComplete/contracts/DocPermissionManagement/DocPermissionManagement.sol",
  "compiler": {
    "name": "solc",
    "version": "0.5.0+commit.1d4f565a.Emscripten.clang"
  },
  "schemaVersion": "3.0.6",
  "updatedAt": "2019-05-28T08:56:59.379Z",
  "devdoc": {
    "author": "Ashwin Arora",
    "methods": {
      "changeMaster(address,address,bytes32)": {
        "details": "used to chang the master, caller will loose master access and _delegate will gain master access",
        "params": {
          "_delegate": "Ethereum address to whom permission is to be delegated",
          "_hash": "hash of the document"
        }
      },
      "checkDelegatePermission(address,bytes32)": {
        "details": "use to check what permissions the delegate hash",
        "params": {
          "_delegate": "Ethereum address of whos permission is to be checked",
          "_hash": "hash of the document"
        }
      },
      "checkYourPermission(bytes32)": {
        "details": "use to check what permissions the caller hash",
        "params": {
          "_hash": "hash of the document"
        }
      },
      "delegatePermanentOwner(address,address,bytes32)": {
        "details": "use to delegate owner access to any ethereum address",
        "params": {
          "_delegate": "Ethereum address to whom permission is to be delegated",
          "_hash": "hash of the document"
        }
      },
      "delegatePermanentRead(address,address,bytes32)": {
        "details": "use to delegate read access to any ethereum address",
        "params": {
          "_delegate": "Ethereum address to whom permission is to be delegated",
          "_hash": "hash of the document"
        }
      },
      "delegatePermanentWrite(address,address,bytes32)": {
        "details": "use to delegate write access to any ethereum address",
        "params": {
          "_delegate": "Ethereum address to whom permission is to be delegated",
          "_hash": "hash of the document"
        }
      },
      "delegateTimeRestrictedOwner(address,address,bytes32,uint256,uint256)": {
        "details": "use to delegate owner permission with time bounds",
        "params": {
          "_delegate": "Ethereum address to whom permission is to be delegated",
          "_fromTime": "Time from which the delegate has access",
          "_hash": "hash of the document",
          "_toTime": "Time till which the delegate has access"
        }
      },
      "delegateTimeRestrictedRead(address,address,bytes32,uint256,uint256)": {
        "details": "use to delegate Read permission with time bounds",
        "params": {
          "_delegate": "Ethereum address to whom permission is to be delegated",
          "_fromTime": "Time from which the delegate has access",
          "_hash": "hash of the document",
          "_toTime": "Time till which the delegate has access"
        }
      },
      "delegateTimeRestrictedWrite(address,address,bytes32,uint256,uint256)": {
        "details": "use to delegate write permission with time bounds",
        "params": {
          "_delegate": "Ethereum address to whom permission is to be delegated",
          "_fromTime": "Time from which the delegate has access",
          "_hash": "hash of the document",
          "_toTime": "Time till which the delegate has access"
        }
      },
      "newDocument(bytes32)": {
        "details": "use to create a new document with new hash",
        "params": {
          "_hash": "hash of the document"
        }
      },
      "removePermanentOwner(address,address,bytes32)": {
        "details": "use to remove owner access of existing owner",
        "params": {
          "_delegate": "Ethereum address to whom permission is to be delegated",
          "_hash": "hash of the document"
        }
      },
      "removePermanentRead(address,address,bytes32)": {
        "details": "use to remove read access of any ethereum address",
        "params": {
          "_delegate": "Ethereum address of whos permission is to be removed",
          "_hash": "hash of the document"
        }
      },
      "removePermanentWrite(address,address,bytes32)": {
        "details": "use to remove write access of any ethereum address",
        "params": {
          "_delegate": "Ethereum address of whos permission is to be removed",
          "_hash": "hash of the document"
        }
      },
      "removeTimeRestrictedOwner(address,address,bytes32)": {
        "details": "use to remove Owner permission with time bounds",
        "params": {
          "_delegate": "Ethereum address to whom permission is to be delegated",
          "_hash": "hash of the document"
        }
      },
      "removeTimeRestrictedRead(address,address,bytes32)": {
        "details": "use to remove Read permission with time bounds",
        "params": {
          "_delegate": "Ethereum address to whom permission is to be delegated",
          "_hash": "hash of the document"
        }
      },
      "removeTimeRestrictedWrite(address,address,bytes32)": {
        "details": "use to remove write permission with time bounds",
        "params": {
          "_delegate": "Ethereum address to whom permission is to be delegated",
          "_hash": "hash of the document"
        }
      },
      "upgradeToOwner(address,address,bytes32,uint256,uint256)": {
        "details": "use to temporarily upgrade read or write access of an address to owner access",
        "params": {
          "_delegate": "Ethereum address whos permission is to be temporarily upgarded",
          "_folderAddress": "folderAddress of the document",
          "_fromTime": "Time from which the delegate has upgraded write access",
          "_toTime": "Time till which the delegate has upgraded write access"
        }
      },
      "upgradeToWrite(address,address,bytes32,uint256,uint256)": {
        "details": "use to temporarily upgrade read access of an address to write access",
        "params": {
          "_delegate": "Ethereum address whos permission is to be temporarily upgarded",
          "_fromTime": "Time from which the delegate has upgraded write access",
          "_hash": "hash of the document",
          "_toTime": "Time till which the delegate has upgraded write access"
        }
      }
    },
    "title": "PermissionManagement"
  },
  "userdoc": {
    "methods": {}
  }
}