{
  "contractName": "DocumentAccessRightsDefinition",
  "abi": [
    {
      "constant": true,
      "inputs": [
        {
          "name": "",
          "type": "bytes32"
        }
      ],
      "name": "usedHashes",
      "outputs": [
        {
          "name": "",
          "type": "bool"
        }
      ],
      "payable": false,
      "stateMutability": "view",
      "type": "function"
    },
    {
      "anonymous": false,
      "inputs": [
        {
          "indexed": false,
          "name": "_hash",
          "type": "bytes32"
        },
        {
          "indexed": false,
          "name": "master",
          "type": "address"
        },
        {
          "indexed": false,
          "name": "blockNumber",
          "type": "uint256"
        }
      ],
      "name": "NewDocument",
      "type": "event"
    },
    {
      "anonymous": false,
      "inputs": [
        {
          "indexed": false,
          "name": "blockNumber",
          "type": "uint256"
        },
        {
          "indexed": false,
          "name": "blockTimeStamp",
          "type": "uint256"
        },
        {
          "indexed": false,
          "name": "documentHash",
          "type": "bytes32"
        },
        {
          "indexed": false,
          "name": "from",
          "type": "address"
        },
        {
          "indexed": false,
          "name": "to",
          "type": "address"
        },
        {
          "indexed": false,
          "name": "permissionOfFrom",
          "type": "uint8"
        },
        {
          "indexed": false,
          "name": "permissionOfTo",
          "type": "uint8"
        },
        {
          "indexed": false,
          "name": "fromTime",
          "type": "uint256"
        },
        {
          "indexed": false,
          "name": "toTime",
          "type": "uint256"
        }
      ],
      "name": "TimeRestrictedPermission",
      "type": "event"
    },
    {
      "anonymous": false,
      "inputs": [
        {
          "indexed": false,
          "name": "blockNumber",
          "type": "uint256"
        },
        {
          "indexed": false,
          "name": "blockTimeStamp",
          "type": "uint256"
        },
        {
          "indexed": false,
          "name": "documentHash",
          "type": "bytes32"
        },
        {
          "indexed": false,
          "name": "from",
          "type": "address"
        },
        {
          "indexed": false,
          "name": "to",
          "type": "address"
        },
        {
          "indexed": false,
          "name": "permissionOfFrom",
          "type": "uint8"
        },
        {
          "indexed": false,
          "name": "permissionOfTo",
          "type": "uint8"
        },
        {
          "indexed": false,
          "name": "fromTime",
          "type": "uint256"
        },
        {
          "indexed": false,
          "name": "toTime",
          "type": "uint256"
        }
      ],
      "name": "TemporaryPermission",
      "type": "event"
    },
    {
      "anonymous": false,
      "inputs": [
        {
          "indexed": false,
          "name": "blockNumber",
          "type": "uint256"
        },
        {
          "indexed": false,
          "name": "blockTimeStamp",
          "type": "uint256"
        },
        {
          "indexed": false,
          "name": "_hash",
          "type": "bytes32"
        },
        {
          "indexed": false,
          "name": "from",
          "type": "address"
        },
        {
          "indexed": false,
          "name": "to",
          "type": "address"
        },
        {
          "indexed": false,
          "name": "permissionOfFrom",
          "type": "uint8"
        },
        {
          "indexed": false,
          "name": "permissionOfTo",
          "type": "uint8"
        }
      ],
      "name": "DocumentEvent",
      "type": "event"
    },
    {
      "constant": false,
      "inputs": [
        {
          "name": "dAppBoxOrigin",
          "type": "address"
        },
        {
          "name": "_delegate",
          "type": "address"
        },
        {
          "name": "_folderAddress",
          "type": "bytes32"
        },
        {
          "name": "_fromTime",
          "type": "uint256"
        },
        {
          "name": "_toTime",
          "type": "uint256"
        }
      ],
      "name": "upgradeToOwner",
      "outputs": [
        {
          "name": "success",
          "type": "bool"
        }
      ],
      "payable": false,
      "stateMutability": "nonpayable",
      "type": "function"
    }
  ],
  "bytecode": "0x608060405234801561001057600080fd5b50611369806100206000396000f3fe60806040526004361061004b5763ffffffff7c01000000000000000000000000000000000000000000000000000000006000350416636db2d3968114610050578063aef18bf7146100b3575b600080fd5b34801561005c57600080fd5b5061009f600480360360a081101561007357600080fd5b50600160a060020a038135811691602081013590911690604081013590606081013590608001356100dd565b604080519115158252519081900360200190f35b3480156100bf57600080fd5b5061009f600480360360208110156100d657600080fd5b5035610f1c565b600033600160a060020a0387161461013f576040805160e560020a62461bcd02815260206004820152601560248201527f61757468656e7469636174696f6e206661696c65640000000000000000000000604482015290519081900360640190fd5b61014884610f31565b151561019e576040805160e560020a62461bcd02815260206004820152601660248201527f466f6c64657220646f6573206e6f742065786973747300000000000000000000604482015290519081900360640190fd5b8242111580156101ad57508183105b1515610203576040805160e560020a62461bcd02815260206004820152601460248201527f496e76616c69642054696d6520426f756e64732e000000000000000000000000604482015290519081900360640190fd5b6000848152600660209081526040808320600160a060020a0389168452600a01909152902060010154421161023757600080fd5b60006102433386610f59565b9050600081600481111561025357fe5b146102a8576040805160e560020a62461bcd02815260206004820152600d60248201527f4163636573732044656e69656400000000000000000000000000000000000000604482015290519081900360640190fd5b60006102b48787610f59565b90506102bf87611077565b6000868152600660209081526040808320600160a060020a038b16845260070190915290205460ff1615156107105760028160048111156102fc57fe5b141561052e576000868152600660209081526040808320600160a060020a038b168452600b019091529020600101544210156104cc576000868152600660209081526040808320600160a060020a038b168452600b019091529020600101548410156103c4575050506000838152600660209081526040808320600160a060020a03881684526009810183528184208054600160ff199182168117909255600d83018552838620805490911682179055600a9091019092529091208381558101829055610f13565b6000868152600660209081526040808320600160a060020a038b168452600b01909152902060010154851115610456575050506000838152600660209081526040808320600160a060020a03881684526008810183528184208054600160ff199182168117909255600d83018552838620805490911682179055600a9091019092529091208381558101829055610f13565b6040805160e560020a62461bcd02815260206004820152602160248201527f476976656e2054696d6520426f756e64732061726520636f6e666c696374696e60448201527f6700000000000000000000000000000000000000000000000000000000000000606482015290519081900360840190fd5b5050506000838152600660209081526040808320600160a060020a03881684526008810183528184208054600160ff199182168117909255600d83018552838620805490911682179055600a9091019092529091208381558101829055610f13565b600381600481111561053c57fe5b14156106c0576000868152600660209081526040808320600160a060020a038b168452600b019091529020544210156104cc576000868152600660209081526040808320600160a060020a038b168452600b019091529020548410156105fe575050506000838152600660209081526040808320600160a060020a03881684526008810183528184208054600160ff199182168117909255600d83018552838620805490911682179055600a9091019092529091208381558101829055610f13565b6000868152600660209081526040808320600160a060020a038b168452600b019091529020548511801561065957506000868152600660209081526040808320600160a060020a038b168452600b0190915290206001015484105b156103c4575050506000838152600660209081526040808320600160a060020a03881684526009810183528184208054600160ff199182168117909255600d83018552838620805490911682179055600a9091019092529091208381558101829055610f13565b6040805160e560020a62461bcd02815260206004820152601760248201527f42617365205065726d697373696f6e20496e76616c6964000000000000000000604482015290519081900360640190fd5b6000868152600660209081526040808320600160a060020a038b16845260070190915290205460ff16151560011415610ec357600381600481111561075157fe5b1415610a7f576000868152600660209081526040808320600160a060020a038b168452600b0190915290206001015442101561099d576000868152600660209081526040808320600160a060020a038b168452600b01909152902054841015610816575050506000838152600660209081526040808320600160a060020a03881684526008810183528184208054600160ff199182168117909255600d83018552838620805490911682179055600a9091019092529091208381558101829055610f13565b6000868152600660209081526040808320600160a060020a038b168452600b019091529020548511801561087157506000868152600660209081526040808320600160a060020a038b168452600b0190915290206001015484105b156108d8575050506000838152600660209081526040808320600160a060020a03881684526009810183528184208054600160ff199182168117909255600d83018552838620805490911682179055600a9091019092529091208381558101829055610f13565b6000868152600660209081526040808320600160a060020a038b168452600b019091529020600101548511801561093657506000868152600660209081526040808320600160a060020a038b168452600c0190915290206001015484105b15610456575050506000838152600660209081526040808320600160a060020a03881684526008810183528184208054600160ff199182168117909255600d83018552838620805490911682179055600a9091019092529091208381558101829055610f13565b6000868152600660209081526040808320600160a060020a038b168452600c01909152902060010154841015610a2f575050506000838152600660209081526040808320600160a060020a03881684526008810183528184208054600160ff199182168117909255600d83018552838620805490911682179055600a9091019092529091208381558101829055610f13565b6040805160e560020a62461bcd02815260206004820181905260248201527f476976656e2054696d6520426f756e64732061726520436f6e666c6974696e67604482015290519081900360640190fd5b6002816004811115610a8d57fe5b1415610be7576000868152600660209081526040808320600160a060020a038b168452600c01909152902060010154421015610b55576000868152600660209081526040808320600160a060020a038b168452600b019091529020600101548410156108d8575050506000838152600660209081526040808320600160a060020a03881684526009810183528184208054600160ff199182168117909255600d83018552838620805490911682179055600a9091019092529091208381558101829055610f13565b6000868152600660209081526040808320600160a060020a038b168452600b01909152902060010154841015610456575050506000838152600660209081526040808320600160a060020a03881684526008810183528184208054600160ff199182168117909255600d83018552838620805490911682179055600a9091019092529091208381558101829055610f13565b6004816004811115610bf557fe5b14156106c0576000868152600660209081526040808320600160a060020a038b168452600c01909152902054421015610dd5576000868152600660209081526040808320600160a060020a038b168452600b01909152902054421015610d14576000868152600660209081526040808320600160a060020a038b168452600c0190915290205485118015610cad57506000868152600660209081526040808320600160a060020a038b168452600b0190915290205484105b15610816575050506000838152600660209081526040808320600160a060020a03881684526008810183528184208054600160ff199182168117909255600d83018552838620805490911682179055600a9091019092529091208381558101829055610f13565b6000868152600660209081526040808320600160a060020a038b168452600c019091529020548511801561093657506000868152600660209081526040808320600160a060020a038b168452600c01909152902060010154841015610456575050506000838152600660209081526040808320600160a060020a03881684526008810183528184208054600160ff199182168117909255600d83018552838620805490911682179055600a9091019092529091208381558101829055610f13565b6000868152600660209081526040808320600160a060020a038b168452600b019091529020544210156106c0576000868152600660209081526040808320600160a060020a038b168452600b019091529020548511801561093657506000868152600660209081526040808320600160a060020a038b168452600b01909152902060010154841015610456575050506000838152600660209081526040808320600160a060020a03881684526008810183528184208054600160ff199182168117909255600d83018552838620805490911682179055600a9091019092529091208381558101829055610f13565b6040805160e560020a62461bcd02815260206004820152601260248201527f556e6578706563746564204661696c7572650000000000000000000000000000604482015290519081900360640190fd5b95945050505050565b60036020526000908152604090205460ff1681565b60008181526003602052604081205460ff1615610f5057506001610f54565b5060005b919050565b600081815260066020526040812054600160a060020a0384811691161415610f8357506000611071565b6000828152600660209081526040808320600160a060020a038716845260070190915290205460ff161515611030576000828152600660209081526040808320600160a060020a038716845260080190915290205460ff1615156001141561101f576000610ff1848461110f565b9050600481600481111561100157fe5b1461100d579050611071565b611017848461124a565b915050611071565b611029838361124a565b9050611071565b6000828152600660209081526040808320600160a060020a038716845260070190915290205460ff1615156001141561106d57611029838361110f565b5060045b92915050565b600160a060020a03811660009081526005602052604090205460ff16151561110c57600160a060020a0381166000818152600560205260408120805460ff191660019081179091556004805491820181559091527f8a35acfbc15ff81a39ae7d344fd709f28e8600b4aa8c65c6b64bfe7fe36bd19b01805473ffffffffffffffffffffffffffffffffffffffff191690911790555b50565b6000818152600660209081526040808320600160a060020a0386168452600a01909152812054421080159061116b57506000828152600660209081526040808320600160a060020a0387168452600a0190915290206001015442105b1561117857506001611071565b6000828152600660209081526040808320600160a060020a0387168452600b0190915290205442108015906111d457506000828152600660209081526040808320600160a060020a0387168452600b0190915290206001015442105b156111e157506002611071565b6000828152600660209081526040808320600160a060020a0387168452600c01909152902054421080159061123d57506000828152600660209081526040808320600160a060020a0387168452600c0190915290206001015442105b1561106d57506003611071565b60006112568383611284565b1561126357506001611071565b61126d83836112c7565b1561127a57506002611071565b61123d8383611302565b6000818152600660209081526040808320600160a060020a0386168452600190810190925282205460ff16151514156112bf57506001611071565b506000611071565b6000818152600660209081526040808320600160a060020a038616845260020190915281205460ff161515600114156112bf57506001611071565b6000818152600660209081526040808320600160a060020a038616845260030190915281205460ff161515600114156112bf5750600161107156fea165627a7a723058202e81b8bcd222d423f80b6d2d9bedc7859f38bc19751c2a971f5a3be670ff01a20029",
  "source": "pragma solidity >=0.4.21 <0.6.0;\nimport \"./DocNotarizationManagement.sol\";\n// import \"./PermissionManagement.sol\";\n/// @title PermissionManagement\n/// @author Ashwin Arora\n//  @updateBy Md Shadab Alam\n\ncontract DocumentAccessRightsDefinition is DocNotarizationManagement{\n   //struct to hold permissions of respective hashes\n  struct Permissions{\n    address master;\n    mapping(address => bool) DelegatedOwners;\n    mapping(address => bool) write;\n    mapping(address => bool) read;\n    uint ownerLength;\n    uint writeLength;\n    uint readLength;\n    mapping(address => bool) isBaseRestricted;\n    mapping(address => bool) isTemporarilyUpgraded;\n    mapping(address => bool) isUpgradedAgain;\n    mapping(address => TimeBounds) DelegatedOwnersTime;\n    mapping(address => TimeBounds) writeTime;\n    mapping(address => TimeBounds) readTime;\n    mapping(address => bool) isDelegatedOwnerRestricted;\n    mapping(address => bool) isWriteRestricted;\n    mapping(address => bool) isReadRestricted;\n  }\n  //how to access above varibles-\n  //permissionOf[_hash].DelegatedOwners[_delegate]\n  //permissionOf[_hash].DelegatedOwnersTime[_delegate].fromTime\n  //permissiosOf[_hash].isBaseRestricted[_delegate]\n\n  /*\n  struct AddressDetails{\n    bool isBaseRestricted;\n    bool isTemporarilyUpgraded;\n    bool isUpgradedAgain;\n  }\n  */\n\n  struct TimeBounds{\n    uint256 fromTime;\n    uint256 toTime;\n  }\n  address[] permissionAddresses;\n  mapping(address => bool) addressPresent;\n\n  //maps to all the permissions of a particular hash\n  //bytes32 to store the hash\n  mapping(bytes32 => Permissions) permissionOf;\n\n  event NewDocument(bytes32 _hash, address master, uint blockNumber);\n\n  event TimeRestrictedPermission(\n    uint blockNumber,\n    uint blockTimeStamp,\n    bytes32 documentHash,\n    address from,\n    address to,\n    PermissionType permissionOfFrom,\n    PermissionType permissionOfTo,\n    uint256 fromTime,\n    uint256 toTime\n  );\n\n  event TemporaryPermission(\n    uint blockNumber,\n    uint blockTimeStamp,\n    bytes32 documentHash,\n    address from,\n    address to,\n    PermissionType permissionOfFrom,\n    PermissionType permissionOfTo,\n    uint256 fromTime,\n    uint256 toTime\n  );\n  \n  /**\n  * @dev use to check what permissions the delegate hash\n  * @param _delegate Ethereum address of whos permission is to be checked\n  * @param _folderAddress folderAddress of the NewFolder\n  */\n  function checkPermission(address _delegate, bytes32 _folderAddress) internal view returns (PermissionType){\n    if(permissionOf[_folderAddress].master == _delegate){\n      return PermissionType.master;\n    }\n    //checking if the delegte's permission are time restricted or not\n    if(permissionOf[_folderAddress].isBaseRestricted[_delegate] == false){\n      //checking if there is any upgrade\n      if(permissionOf[_folderAddress].isTemporarilyUpgraded[_delegate] == true){\n        PermissionType timeRestrictedPermission = checkTimedPermission(_delegate, _folderAddress);\n        if(timeRestrictedPermission != PermissionType.none){\n          return timeRestrictedPermission;\n        }else{\n          return checkPermanentPermission(_delegate,_folderAddress);\n        }\n      }else{\n        return checkPermanentPermission(_delegate, _folderAddress);\n      }\n    }else if(permissionOf[_folderAddress].isBaseRestricted[_delegate] == true){\n      return checkTimedPermission(_delegate,_folderAddress);\n    }else{\n      return PermissionType.none;\n    }\n  }\n   /**\n  * @dev use to check just the base permission of delegate\n  * @param _delegate Ethereum address of whos permission is to be checked\n  * @param _folderAddress folderAddress of the NewFolder\n  */\n  function checkTimedPermission(address _delegate, bytes32 _folderAddress) private view returns(PermissionType){\n    if(permissionOf[_folderAddress].DelegatedOwnersTime[_delegate].fromTime <= now && permissionOf[_folderAddress].DelegatedOwnersTime[_delegate].toTime > now){\n      return PermissionType.owner;\n    }else if(permissionOf[_folderAddress].writeTime[_delegate].fromTime <= now && permissionOf[_folderAddress].writeTime[_delegate].toTime > now){\n      return PermissionType.write;\n    }else if(permissionOf[_folderAddress].readTime[_delegate].fromTime <= now && permissionOf[_folderAddress].readTime[_delegate].toTime > now){\n      return PermissionType.read;\n    }else{\n      return PermissionType.none;\n    }\n  }\n  /**\n  * @dev use to check just the base permission of delegate\n  * @param _delegate Ethereum address of whos permission is to be checked\n  * @param _folderAddress folderAddress of the NewFolder\n  */\n  function checkPermanentPermission(address _delegate, bytes32 _folderAddress) internal view returns(PermissionType){\n    if(isOwner(_delegate, _folderAddress)){\n      return PermissionType.owner;\n    }else if(isWriter(_delegate, _folderAddress)){\n      return PermissionType.write;\n    }else if(isReader(_delegate, _folderAddress)){\n      return PermissionType.read;\n    }else{\n      return PermissionType.none;\n    }\n  }\n    /**\n  * @dev use to check if the delegate has owner exists\n  * @param _delegate Ethereum address of whos owner access is being checked\n  * @param _folderAddress folderAddress of the NewFolder\n  */\n  function isOwner(address _delegate, bytes32 _folderAddress) private view returns (bool){\n    if(permissionOf[_folderAddress].DelegatedOwners[_delegate] == true){\n      return true;\n    }else{\n      return false;\n    }\n  }\n\n  /**\n  * @dev use to check if has delegate has owner exists\n  * @param _delegate Ethereum address of whos write access is being checked\n  * @param _folderAddress folderAddress of the NewFolder\n  */\n  function isWriter(address _delegate, bytes32 _folderAddress) private view returns (bool){\n    if(permissionOf[_folderAddress].write[_delegate] == true){\n      return true;\n    }else{\n      return false;\n    }\n  }\n\n  /**\n  * @dev use to check if has delegate has read exists\n  * @param _delegate Ethereum address of whos read access is being checked\n  * @param _folderAddress folderAddress of the NewFolder\n  */\n  function isReader(address _delegate, bytes32 _folderAddress) private view returns (bool){\n    if(permissionOf[_folderAddress].read[_delegate] == true){\n      return true;\n    }else{\n      return false;\n    }\n  }\n\n  function pushAddress(address _delegate) internal {\n    if (addressPresent[_delegate] == false){\n      addressPresent[_delegate] = true;\n      permissionAddresses.push(_delegate);\n    }\n  } \n   /**\n  * @dev use to temporarily upgrade read or write access of an address to owner access\n  * @param _delegate Ethereum address whos permission is to be temporarily upgarded\n  * @param _folderAddress folderAddress of the document\n  * @param _fromTime Time from which the delegate has upgraded write access\n  * @param _toTime Time till which the delegate has upgraded write access\n  */\n  function upgradeToOwner(address dAppBoxOrigin,address _delegate, bytes32 _folderAddress, uint256 _fromTime, uint256 _toTime) public returns (bool success){\n    require(msg.sender == dAppBoxOrigin,\"authentication failed\");\n    require(documentExists(_folderAddress), \"Folder does not exists\");\n    require(block.timestamp <= _fromTime && _fromTime < _toTime, \"Invalid Time Bounds.\");\n    require(permissionOf[_folderAddress].DelegatedOwnersTime[_delegate].toTime < block.timestamp);\n    PermissionType permissionOfCaller = checkPermission(msg.sender, _folderAddress);\n    require(permissionOfCaller == PermissionType.master , \"Access Denied\");\n\n    PermissionType permissionOfDelegate = checkPermission(_delegate, _folderAddress);\n    pushAddress(_delegate);\n    //checking if the base permission is restricted of not\n    //in case base permission is not restricted\n    if(permissionOf[_folderAddress].isBaseRestricted[_delegate] == false){\n      //Delegate's Permission can be write in 2 cases\n      //1. Base Permission is write\n      //2. Base Permission is Read and delegate was previously granted temporary write upgrade\n      if(permissionOfDelegate == PermissionType.write){\n        //Case 2. Base Permission is Read and delegate is previously granted temporary write upgrade\n        if(permissionOf[_folderAddress].writeTime[_delegate].toTime > block.timestamp){\n          //checking if given time bounds are inside temporarily upgraded write time bounds\n          if(permissionOf[_folderAddress].writeTime[_delegate].toTime > _toTime){\n            permissionOf[_folderAddress].isUpgradedAgain[_delegate] = true;\n            permissionOf[_folderAddress].isDelegatedOwnerRestricted[_delegate] = true;\n            permissionOf[_folderAddress].DelegatedOwnersTime[_delegate].fromTime = _fromTime;\n            permissionOf[_folderAddress].DelegatedOwnersTime[_delegate].toTime = _toTime;\n            success = true;\n            return success;\n          }// in case given time bounds begin after the end of write time bounds\n          else if(permissionOf[_folderAddress].writeTime[_delegate].toTime < _fromTime){\n            permissionOf[_folderAddress].isTemporarilyUpgraded[_delegate] = true;\n            permissionOf[_folderAddress].isDelegatedOwnerRestricted[_delegate] = true;\n            permissionOf[_folderAddress].DelegatedOwnersTime[_delegate].fromTime = _fromTime;\n            permissionOf[_folderAddress].DelegatedOwnersTime[_delegate].toTime = _toTime;\n            success = true;\n            return success;\n          }else{\n            revert(\"Given Time Bounds are conflicting\");\n          }\n        }\n        //Case 1. Base Permission is Write\n        else{\n          permissionOf[_folderAddress].isTemporarilyUpgraded[_delegate] = true;\n          permissionOf[_folderAddress].isDelegatedOwnerRestricted[_delegate] = true;\n          permissionOf[_folderAddress].DelegatedOwnersTime[_delegate].fromTime = _fromTime;\n          permissionOf[_folderAddress].DelegatedOwnersTime[_delegate].toTime = _toTime;\n          success = true;\n          return success;\n        }\n      }\n      //Delegate's permission can be read in 2 cases\n      //1. Base permission is Read with no write upgrades later in time\n      //2. Base Permission is Read with write upgrade later in times\n      else if(permissionOfDelegate == PermissionType.read){\n        //Case 2. Base Permission is Read with write upgrades later in times\n        if(permissionOf[_folderAddress].writeTime[_delegate].fromTime > block.timestamp){\n          //in case given time bounds start and end before the start of write time bounds\n          if(permissionOf[_folderAddress].writeTime[_delegate].fromTime > _toTime){\n            permissionOf[_folderAddress].isTemporarilyUpgraded[_delegate] = true;\n            permissionOf[_folderAddress].isDelegatedOwnerRestricted[_delegate] = true;\n            permissionOf[_folderAddress].DelegatedOwnersTime[_delegate].fromTime = _fromTime;\n            permissionOf[_folderAddress].DelegatedOwnersTime[_delegate].toTime = _toTime;\n            success = true;\n            return success;\n          }\n          //in case given time bounds are inside write time bounds\n          else if(permissionOf[_folderAddress].writeTime[_delegate].fromTime < _fromTime && permissionOf[_folderAddress].writeTime[_delegate].toTime > _toTime){\n            permissionOf[_folderAddress].isUpgradedAgain[_delegate] = true;\n            permissionOf[_folderAddress].isDelegatedOwnerRestricted[_delegate] = true;\n            permissionOf[_folderAddress].DelegatedOwnersTime[_delegate].fromTime = _fromTime;\n            permissionOf[_folderAddress].DelegatedOwnersTime[_delegate].toTime = _toTime;\n            success = true;\n            return success;\n          }\n          // in case given time bounds begin after the end of write time bounds\n          else if(permissionOf[_folderAddress].writeTime[_delegate].toTime < _fromTime){\n            permissionOf[_folderAddress].isTemporarilyUpgraded[_delegate] = true;\n            permissionOf[_folderAddress].isDelegatedOwnerRestricted[_delegate] = true;\n            permissionOf[_folderAddress].DelegatedOwnersTime[_delegate].fromTime = _fromTime;\n            permissionOf[_folderAddress].DelegatedOwnersTime[_delegate].toTime = _toTime;\n            success = true;\n            return success;\n          }else{\n            revert(\"Given Time Bounds are conflicting\");\n          }\n        }\n        // Case 1. Base permission is Read with no write upgrades later in time\n        else{\n          permissionOf[_folderAddress].isTemporarilyUpgraded[_delegate] = true;\n          permissionOf[_folderAddress].isDelegatedOwnerRestricted[_delegate] = true;\n          permissionOf[_folderAddress].DelegatedOwnersTime[_delegate].fromTime = _fromTime;\n          permissionOf[_folderAddress].DelegatedOwnersTime[_delegate].toTime = _toTime;\n          success = true;\n          return success;\n        }\n      }else{\n        revert(\"Base Permission Invalid\");\n      }\n    }\n    // in case base is restricted\n    else if(permissionOf[_folderAddress].isBaseRestricted[_delegate] == true){\n      //Delegates Permission can be read in 2 cases\n      //1. Base Permission is read with no write upgrade later in time\n      //2. Base Permission is Read with write upgrade later in times\n      if(permissionOfDelegate == PermissionType.read){\n        //Case 2.  Base Permission is Read with write upgrade later in times\n        if(permissionOf[_folderAddress].writeTime[_delegate].toTime > block.timestamp){\n          //in case time bounds start and end before the start of write time bounds\n          if(permissionOf[_folderAddress].writeTime[_delegate].fromTime > _toTime){\n            permissionOf[_folderAddress].isTemporarilyUpgraded[_delegate] = true;\n            permissionOf[_folderAddress].isDelegatedOwnerRestricted[_delegate] = true;\n            permissionOf[_folderAddress].DelegatedOwnersTime[_delegate].fromTime = _fromTime;\n            permissionOf[_folderAddress].DelegatedOwnersTime[_delegate].toTime = _toTime;\n            success = true;\n            return success;\n          }\n          //in case given time bounds are inside write time bounds\n          else if(permissionOf[_folderAddress].writeTime[_delegate].fromTime < _fromTime && permissionOf[_folderAddress].writeTime[_delegate].toTime > _toTime){\n            permissionOf[_folderAddress].isUpgradedAgain[_delegate] = true;\n            permissionOf[_folderAddress].isDelegatedOwnerRestricted[_delegate] = true;\n            permissionOf[_folderAddress].DelegatedOwnersTime[_delegate].fromTime = _fromTime;\n            permissionOf[_folderAddress].DelegatedOwnersTime[_delegate].toTime = _toTime;\n            success = true;\n            return success;\n          }\n          // in case given time bounds begin after the end of write time  bounds and are inside read time bounds\n          else if(permissionOf[_folderAddress].writeTime[_delegate].toTime < _fromTime && permissionOf[_folderAddress].readTime[_delegate].toTime > _toTime){\n            permissionOf[_folderAddress].isTemporarilyUpgraded[_delegate] = true;\n            permissionOf[_folderAddress].isDelegatedOwnerRestricted[_delegate] = true;\n            permissionOf[_folderAddress].DelegatedOwnersTime[_delegate].fromTime = _fromTime;\n            permissionOf[_folderAddress].DelegatedOwnersTime[_delegate].toTime = _toTime;\n            success = true;\n            return success;\n          }else{\n            revert(\"Given Time Bounds are conflicting\");\n          }\n        }\n        //Case 2. Base Permission is read with no write upgrade later in time\n        else{\n          //checking if given time bounds are inside read time bounds\n          if(permissionOf[_folderAddress].readTime[_delegate].toTime > _toTime){\n            permissionOf[_folderAddress].isTemporarilyUpgraded[_delegate] = true;\n            permissionOf[_folderAddress].isDelegatedOwnerRestricted[_delegate] = true;\n            permissionOf[_folderAddress].DelegatedOwnersTime[_delegate].fromTime = _fromTime;\n            permissionOf[_folderAddress].DelegatedOwnersTime[_delegate].toTime = _toTime;\n            success = true;\n            return success;\n          }else{\n            revert(\"Given Time Bounds are Confliting\");\n          }\n        }\n      }\n      //Delegate's permission can be write in 2 cases\n      //1. Base Permission is write\n      //2. Base Permission is Read and delegate was previously granted temporary write upgrade\n      else if(permissionOfDelegate == PermissionType.write){\n        //Case 2. Base Permission is Read and delegate was previously granted temporary write upgrade\n        if(permissionOf[_folderAddress].readTime[_delegate].toTime > block.timestamp){\n          //checking if given time bounds are inside temporarily upgraded write time bounds\n          if(permissionOf[_folderAddress].writeTime[_delegate].toTime > _toTime){\n            permissionOf[_folderAddress].isUpgradedAgain[_delegate] = true;\n            permissionOf[_folderAddress].isDelegatedOwnerRestricted[_delegate] = true;\n            permissionOf[_folderAddress].DelegatedOwnersTime[_delegate].fromTime = _fromTime;\n            permissionOf[_folderAddress].DelegatedOwnersTime[_delegate].toTime = _toTime;\n            success = true;\n            return success;\n          }\n          // in case given time bounds begin after the end of write time bounds\n          // and checking if given time bounds end before the end of read time bounds\n          else if(permissionOf[_folderAddress].writeTime[_delegate].toTime < _fromTime && permissionOf[_folderAddress].readTime[_delegate].toTime > _toTime){\n            permissionOf[_folderAddress].isTemporarilyUpgraded[_delegate] = true;\n            permissionOf[_folderAddress].isDelegatedOwnerRestricted[_delegate] = true;\n            permissionOf[_folderAddress].DelegatedOwnersTime[_delegate].fromTime = _fromTime;\n            permissionOf[_folderAddress].DelegatedOwnersTime[_delegate].toTime = _toTime;\n            success = true;\n            return success;\n          }else{\n            revert(\"Given Time Bounds are conflicting\");\n          }\n        }\n        //Case 1. Base Permission is write \n        else{  \n          if(permissionOf[_folderAddress].writeTime[_delegate].toTime > _toTime){\n            permissionOf[_folderAddress].isTemporarilyUpgraded[_delegate] = true;\n            permissionOf[_folderAddress].isDelegatedOwnerRestricted[_delegate] = true;\n            permissionOf[_folderAddress].DelegatedOwnersTime[_delegate].fromTime = _fromTime;\n            permissionOf[_folderAddress].DelegatedOwnersTime[_delegate].toTime = _toTime;\n            success = true;\n            return success;\n          }else{\n            revert(\"Given Time Bounds are conflicting\");\n          }\n        }\n      }\n      //Permission of delegate can be none when-\n      //Delegate has time restricted write access begining later in time\n      //Delegate has time restricted read access begining later in time\n      else if(permissionOfDelegate == PermissionType.none){\n        //Delegate's base permission can be read in 2 cases\n        //1. read access is begining later in time with no temporary write upgrade\n        //2. read access is begining later in time with temporary write upgrade\n        if(permissionOf[_folderAddress].readTime[_delegate].fromTime > block.timestamp){\n          //Case 2. read access is begining later in time with temporary write upgrade\n          if(permissionOf[_folderAddress].writeTime[_delegate].fromTime > block.timestamp){\n            //checking if given bounds\n            //begin after the start of read time bounds\n            //and end before the start of write time bounds\n            if(permissionOf[_folderAddress].readTime[_delegate].fromTime < _fromTime && permissionOf[_folderAddress].writeTime[_delegate].fromTime >_toTime){\n              permissionOf[_folderAddress].isTemporarilyUpgraded[_delegate] = true;\n              permissionOf[_folderAddress].isDelegatedOwnerRestricted[_delegate] = true;\n              permissionOf[_folderAddress].DelegatedOwnersTime[_delegate].fromTime = _fromTime;\n              permissionOf[_folderAddress].DelegatedOwnersTime[_delegate].toTime = _toTime;\n              success = true;\n              return success;\n            }\n            //checking if given time bounds\n            //begin after the start of write time bounds\n            //and end before the end of write time bounds\n            else if(permissionOf[_folderAddress].writeTime[_delegate].fromTime < _fromTime && permissionOf[_folderAddress].writeTime[_delegate].toTime >_toTime){\n              permissionOf[_folderAddress].isUpgradedAgain[_delegate] = true;\n              permissionOf[_folderAddress].isDelegatedOwnerRestricted[_delegate] = true;\n              permissionOf[_folderAddress].DelegatedOwnersTime[_delegate].fromTime = _fromTime;\n              permissionOf[_folderAddress].DelegatedOwnersTime[_delegate].toTime = _toTime;\n              success = true;\n              return success;\n            }\n            //checking if the given time bounds\n            //begin after the end of write time bounds\n            //and before the end of read bounds\n            else if(permissionOf[_folderAddress].writeTime[_delegate].toTime < _fromTime && permissionOf[_folderAddress].readTime[_delegate].toTime > _toTime){\n              permissionOf[_folderAddress].isTemporarilyUpgraded[_delegate] = true;\n              permissionOf[_folderAddress].isDelegatedOwnerRestricted[_delegate] = true;\n              permissionOf[_folderAddress].DelegatedOwnersTime[_delegate].fromTime = _fromTime;\n              permissionOf[_folderAddress].DelegatedOwnersTime[_delegate].toTime = _toTime;\n              success = true;\n              return success;\n            }else{\n              revert(\"Given Time Bounds are conflicting\");\n            }\n          }\n          //Case 1. read access is begining later in time with no temporary write upgrade\n          else{\n            if(permissionOf[_folderAddress].readTime[_delegate].fromTime < _fromTime && permissionOf[_folderAddress].readTime[_delegate].toTime > _toTime){\n              permissionOf[_folderAddress].isTemporarilyUpgraded[_delegate] = true;\n              permissionOf[_folderAddress].isDelegatedOwnerRestricted[_delegate] = true;\n              permissionOf[_folderAddress].DelegatedOwnersTime[_delegate].fromTime = _fromTime;\n              permissionOf[_folderAddress].DelegatedOwnersTime[_delegate].toTime = _toTime;\n              success = true;\n              return success;\n            }else{\n              revert(\"Given Time Bounds are conflicting\");\n            }\n          }\n        }\n        //in case delegate's base permissions is write begining later in time\n        else if(permissionOf[_folderAddress].writeTime[_delegate].fromTime > block.timestamp){\n          //checking if given time bounds are inside write time bounds\n          if(permissionOf[_folderAddress].writeTime[_delegate].fromTime < _fromTime && permissionOf[_folderAddress].writeTime[_delegate].toTime > _toTime){\n            permissionOf[_folderAddress].isTemporarilyUpgraded[_delegate] = true;\n            permissionOf[_folderAddress].isDelegatedOwnerRestricted[_delegate] = true;\n            permissionOf[_folderAddress].DelegatedOwnersTime[_delegate].fromTime = _fromTime;\n            permissionOf[_folderAddress].DelegatedOwnersTime[_delegate].toTime = _toTime;\n            success = true;\n            return success;\n          }else{\n            revert(\"Given Time Bounds are conflicting\");\n          }\n\n        }else{\n          revert(\"Base Permission Invalid\");\n        }\n\n      }else{\n        revert(\"Base Permission Invalid\");\n      }\n\n    }else{\n      revert(\"Unexpected Failure\");\n    }\n  }  \n}",
  "sourcePath": "/home/sagar/Desktop/delivery final/28_may_ixxo_allsmart_contract/ixxo_smartcontracts/AccessRight/PermissionManagementComplete/contracts/DocPermissionManagement/DocumentAccessRightsDefinition.sol",
  "compiler": {
    "name": "solc",
    "version": "0.5.0+commit.1d4f565a.Emscripten.clang"
  },
  "schemaVersion": "3.0.6",
  "updatedAt": "2019-05-28T08:56:59.450Z",
  "devdoc": {
    "author": "Ashwin Arora",
    "methods": {
      "upgradeToOwner(address,address,bytes32,uint256,uint256)": {
        "details": "use to temporarily upgrade read or write access of an address to owner access",
        "params": {
          "_delegate": "Ethereum address whos permission is to be temporarily upgarded",
          "_folderAddress": "folderAddress of the document",
          "_fromTime": "Time from which the delegate has upgraded write access",
          "_toTime": "Time till which the delegate has upgraded write access"
        }
      }
    },
    "title": "PermissionManagement"
  },
  "userdoc": {
    "methods": {}
  }
}