{
  "contractName": "FolderPermissionManagement",
  "abi": [
    {
      "constant": false,
      "inputs": [
        {
          "name": "dAppBoxOrigin",
          "type": "address"
        },
        {
          "name": "_delegate",
          "type": "address"
        },
        {
          "name": "_folderAddress",
          "type": "address"
        },
        {
          "name": "_fromTime",
          "type": "uint256"
        },
        {
          "name": "_toTime",
          "type": "uint256"
        }
      ],
      "name": "upgradeToOwner",
      "outputs": [
        {
          "name": "success",
          "type": "bool"
        }
      ],
      "payable": false,
      "stateMutability": "nonpayable",
      "type": "function"
    },
    {
      "constant": true,
      "inputs": [
        {
          "name": "",
          "type": "address"
        }
      ],
      "name": "usedFolders",
      "outputs": [
        {
          "name": "",
          "type": "bool"
        }
      ],
      "payable": false,
      "stateMutability": "view",
      "type": "function"
    },
    {
      "inputs": [],
      "payable": false,
      "stateMutability": "nonpayable",
      "type": "constructor"
    },
    {
      "anonymous": false,
      "inputs": [
        {
          "indexed": false,
          "name": "folderAddress",
          "type": "address"
        },
        {
          "indexed": false,
          "name": "master",
          "type": "address"
        },
        {
          "indexed": false,
          "name": "blockNumber",
          "type": "uint256"
        }
      ],
      "name": "NewFolder",
      "type": "event"
    },
    {
      "anonymous": false,
      "inputs": [
        {
          "indexed": false,
          "name": "blockNumber",
          "type": "uint256"
        },
        {
          "indexed": false,
          "name": "blockTimeStamp",
          "type": "uint256"
        },
        {
          "indexed": false,
          "name": "folderAddress",
          "type": "address"
        },
        {
          "indexed": false,
          "name": "from",
          "type": "address"
        },
        {
          "indexed": false,
          "name": "to",
          "type": "address"
        },
        {
          "indexed": false,
          "name": "permissionOfFrom",
          "type": "uint8"
        },
        {
          "indexed": false,
          "name": "permissionOfTo",
          "type": "uint8"
        },
        {
          "indexed": false,
          "name": "fromTime",
          "type": "uint256"
        },
        {
          "indexed": false,
          "name": "toTime",
          "type": "uint256"
        }
      ],
      "name": "TimeRestrictedPermission",
      "type": "event"
    },
    {
      "anonymous": false,
      "inputs": [
        {
          "indexed": false,
          "name": "blockNumber",
          "type": "uint256"
        },
        {
          "indexed": false,
          "name": "blockTimeStamp",
          "type": "uint256"
        },
        {
          "indexed": false,
          "name": "folderAddress",
          "type": "address"
        },
        {
          "indexed": false,
          "name": "from",
          "type": "address"
        },
        {
          "indexed": false,
          "name": "to",
          "type": "address"
        },
        {
          "indexed": false,
          "name": "permissionOfFrom",
          "type": "uint8"
        },
        {
          "indexed": false,
          "name": "permissionOfTo",
          "type": "uint8"
        },
        {
          "indexed": false,
          "name": "fromTime",
          "type": "uint256"
        },
        {
          "indexed": false,
          "name": "toTime",
          "type": "uint256"
        }
      ],
      "name": "TemporaryPermission",
      "type": "event"
    },
    {
      "anonymous": false,
      "inputs": [
        {
          "indexed": false,
          "name": "blockNumber",
          "type": "uint256"
        },
        {
          "indexed": false,
          "name": "blockTimeStamp",
          "type": "uint256"
        },
        {
          "indexed": false,
          "name": "dappboxfolder",
          "type": "address"
        },
        {
          "indexed": false,
          "name": "from",
          "type": "address"
        },
        {
          "indexed": false,
          "name": "to",
          "type": "address"
        },
        {
          "indexed": false,
          "name": "permissionOfFrom",
          "type": "uint8"
        },
        {
          "indexed": false,
          "name": "permissionOfTo",
          "type": "uint8"
        }
      ],
      "name": "FolderEvent",
      "type": "event"
    },
    {
      "constant": false,
      "inputs": [
        {
          "name": "dappboxfolder",
          "type": "address"
        }
      ],
      "name": "newFolder",
      "outputs": [],
      "payable": false,
      "stateMutability": "nonpayable",
      "type": "function"
    },
    {
      "constant": false,
      "inputs": [
        {
          "name": "dAppBoxOrigin",
          "type": "address"
        },
        {
          "name": "_delegate",
          "type": "address"
        },
        {
          "name": "dappboxfolder",
          "type": "address"
        }
      ],
      "name": "changeMasterFolder",
      "outputs": [],
      "payable": false,
      "stateMutability": "nonpayable",
      "type": "function"
    },
    {
      "constant": true,
      "inputs": [
        {
          "name": "dappboxfolder",
          "type": "address"
        }
      ],
      "name": "checkYourPermissionFolder",
      "outputs": [
        {
          "name": "",
          "type": "uint8"
        }
      ],
      "payable": false,
      "stateMutability": "view",
      "type": "function"
    },
    {
      "constant": true,
      "inputs": [
        {
          "name": "_delegate",
          "type": "address"
        },
        {
          "name": "dappboxfolder",
          "type": "address"
        }
      ],
      "name": "checkDelegatePermissionFolder",
      "outputs": [
        {
          "name": "",
          "type": "uint8"
        }
      ],
      "payable": false,
      "stateMutability": "view",
      "type": "function"
    },
    {
      "constant": false,
      "inputs": [
        {
          "name": "dAppBoxOrigin",
          "type": "address"
        },
        {
          "name": "_delegate",
          "type": "address"
        },
        {
          "name": "dappboxfolder",
          "type": "address"
        }
      ],
      "name": "delegatePermanentOwnerFolder",
      "outputs": [],
      "payable": false,
      "stateMutability": "nonpayable",
      "type": "function"
    },
    {
      "constant": false,
      "inputs": [
        {
          "name": "dAppBoxOrigin",
          "type": "address"
        },
        {
          "name": "_delegate",
          "type": "address"
        },
        {
          "name": "dappboxfolder",
          "type": "address"
        }
      ],
      "name": "removePermanentOwnerFolder",
      "outputs": [],
      "payable": false,
      "stateMutability": "nonpayable",
      "type": "function"
    },
    {
      "constant": false,
      "inputs": [
        {
          "name": "dAppBoxOrigin",
          "type": "address"
        },
        {
          "name": "_delegate",
          "type": "address"
        },
        {
          "name": "dappboxfolder",
          "type": "address"
        },
        {
          "name": "_fromTime",
          "type": "uint256"
        },
        {
          "name": "_toTime",
          "type": "uint256"
        }
      ],
      "name": "delegateTimeRestrictedOwnerFolder",
      "outputs": [],
      "payable": false,
      "stateMutability": "nonpayable",
      "type": "function"
    },
    {
      "constant": false,
      "inputs": [
        {
          "name": "dAppBoxOrigin",
          "type": "address"
        },
        {
          "name": "_delegate",
          "type": "address"
        },
        {
          "name": "dappboxfolder",
          "type": "address"
        }
      ],
      "name": "removeTimeRestrictedOwnerFolder",
      "outputs": [],
      "payable": false,
      "stateMutability": "nonpayable",
      "type": "function"
    },
    {
      "constant": false,
      "inputs": [
        {
          "name": "dAppBoxOrigin",
          "type": "address"
        },
        {
          "name": "_delegate",
          "type": "address"
        },
        {
          "name": "dappboxfolder",
          "type": "address"
        }
      ],
      "name": "delegatePermanentWriteFolder",
      "outputs": [],
      "payable": false,
      "stateMutability": "nonpayable",
      "type": "function"
    },
    {
      "constant": false,
      "inputs": [
        {
          "name": "dAppBoxOrigin",
          "type": "address"
        },
        {
          "name": "_delegate",
          "type": "address"
        },
        {
          "name": "dappboxfolder",
          "type": "address"
        }
      ],
      "name": "removePermanentWriteFolder",
      "outputs": [],
      "payable": false,
      "stateMutability": "nonpayable",
      "type": "function"
    },
    {
      "constant": false,
      "inputs": [
        {
          "name": "dAppBoxOrigin",
          "type": "address"
        },
        {
          "name": "_delegate",
          "type": "address"
        },
        {
          "name": "dappboxfolder",
          "type": "address"
        },
        {
          "name": "_fromTime",
          "type": "uint256"
        },
        {
          "name": "_toTime",
          "type": "uint256"
        }
      ],
      "name": "delegateTimeRestrictedWriteFolder",
      "outputs": [],
      "payable": false,
      "stateMutability": "nonpayable",
      "type": "function"
    },
    {
      "constant": false,
      "inputs": [
        {
          "name": "dAppBoxOrigin",
          "type": "address"
        },
        {
          "name": "_delegate",
          "type": "address"
        },
        {
          "name": "dappboxfolder",
          "type": "address"
        }
      ],
      "name": "removeTimeRestrictedWriteFolder",
      "outputs": [],
      "payable": false,
      "stateMutability": "nonpayable",
      "type": "function"
    },
    {
      "constant": false,
      "inputs": [
        {
          "name": "dAppBoxOrigin",
          "type": "address"
        },
        {
          "name": "_delegate",
          "type": "address"
        },
        {
          "name": "dappboxfolder",
          "type": "address"
        },
        {
          "name": "_fromTime",
          "type": "uint256"
        },
        {
          "name": "_toTime",
          "type": "uint256"
        }
      ],
      "name": "upgradeToWriteFolder",
      "outputs": [
        {
          "name": "success",
          "type": "bool"
        }
      ],
      "payable": false,
      "stateMutability": "nonpayable",
      "type": "function"
    },
    {
      "constant": false,
      "inputs": [
        {
          "name": "dAppBoxOrigin",
          "type": "address"
        },
        {
          "name": "_delegate",
          "type": "address"
        },
        {
          "name": "dappboxfolder",
          "type": "address"
        }
      ],
      "name": "delegatePermanentReadFolder",
      "outputs": [],
      "payable": false,
      "stateMutability": "nonpayable",
      "type": "function"
    },
    {
      "constant": false,
      "inputs": [
        {
          "name": "dAppBoxOrigin",
          "type": "address"
        },
        {
          "name": "_delegate",
          "type": "address"
        },
        {
          "name": "dappboxfolder",
          "type": "address"
        }
      ],
      "name": "removePermanentReadFolder",
      "outputs": [],
      "payable": false,
      "stateMutability": "nonpayable",
      "type": "function"
    },
    {
      "constant": false,
      "inputs": [
        {
          "name": "dAppBoxOrigin",
          "type": "address"
        },
        {
          "name": "_delegate",
          "type": "address"
        },
        {
          "name": "dappboxfolder",
          "type": "address"
        },
        {
          "name": "_fromTime",
          "type": "uint256"
        },
        {
          "name": "_toTime",
          "type": "uint256"
        }
      ],
      "name": "delegateTimeRestrictedReadFolder",
      "outputs": [],
      "payable": false,
      "stateMutability": "nonpayable",
      "type": "function"
    },
    {
      "constant": false,
      "inputs": [
        {
          "name": "dAppBoxOrigin",
          "type": "address"
        },
        {
          "name": "_delegate",
          "type": "address"
        },
        {
          "name": "dappboxfolder",
          "type": "address"
        }
      ],
      "name": "removeTimeRestrictedReadFolder",
      "outputs": [],
      "payable": false,
      "stateMutability": "nonpayable",
      "type": "function"
    },
    {
      "constant": true,
      "inputs": [
        {
          "name": "dappboxfolder",
          "type": "address"
        },
        {
          "name": "index",
          "type": "uint256"
        }
      ],
      "name": "getFolderRights",
      "outputs": [
        {
          "name": "accountAddress",
          "type": "address"
        },
        {
          "name": "permpermission",
          "type": "uint8"
        },
        {
          "name": "",
          "type": "uint256[]"
        },
        {
          "name": "",
          "type": "uint256[]"
        },
        {
          "name": "",
          "type": "uint256[]"
        },
        {
          "name": "next",
          "type": "bool"
        }
      ],
      "payable": false,
      "stateMutability": "view",
      "type": "function"
    }
  ],
  "bytecode": "0x608060405234801561001057600080fd5b5060008054600160a060020a0319163317905561461c806100326000396000f3fe6080604052600436106101115763ffffffff7c010000000000000000000000000000000000000000000000000000000060003504166302b7c4e081146101165780630fb1c2131461015d5780632403a66f146101c057806327f707891461020f57806334599ea414610254578063395e45871461029957806364778395146102de5780636a1a0dba146103235780636a927752146103685780637d4c7fde146103ad578063801517a814610404578063885a09731461054b5780639867179e1461057e5780639c405bc4146105b9578063a93394ed14610608578063aab6fc921461064d578063c42e798914610692578063c68a6de8146106e1578063d2c4ec9e14610714578063dbf6761414610759575b600080fd5b34801561012257600080fd5b5061015b6004803603606081101561013957600080fd5b50600160a060020a0381358116916020810135821691604090910135166107a8565b005b34801561016957600080fd5b506101ac600480360360a081101561018057600080fd5b50600160a060020a0381358116916020810135821691604082013516906060810135906080013561096d565b604080519115158252519081900360200190f35b3480156101cc57600080fd5b5061015b600480360360a08110156101e357600080fd5b50600160a060020a03813581169160208101358216916040820135169060608101359060800135611826565b34801561021b57600080fd5b5061015b6004803603606081101561023257600080fd5b50600160a060020a038135811691602081013582169160409091013516611bb7565b34801561026057600080fd5b5061015b6004803603606081101561027757600080fd5b50600160a060020a038135811691602081013582169160409091013516611dff565b3480156102a557600080fd5b5061015b600480360360608110156102bc57600080fd5b50600160a060020a038135811691602081013582169160409091013516611fbb565b3480156102ea57600080fd5b5061015b6004803603606081101561030157600080fd5b50600160a060020a0381358116916020810135821691604090910135166121ef565b34801561032f57600080fd5b5061015b6004803603606081101561034657600080fd5b50600160a060020a0381358116916020810135821691604090910135166123bc565b34801561037457600080fd5b5061015b6004803603606081101561038b57600080fd5b50600160a060020a03813581169160208101358216916040909101351661254c565b3480156103b957600080fd5b506103e0600480360360208110156103d057600080fd5b5035600160a060020a031661277d565b604051808260048111156103f057fe5b60ff16815260200191505060405180910390f35b34801561041057600080fd5b5061043d6004803603604081101561042757600080fd5b50600160a060020a0381351690602001356127dc565b604051600160a060020a03871681526020810186600481111561045c57fe5b60ff16815260200180602001806020018060200185151515158152602001848103845288818151815260200191508051906020019060200280838360005b838110156104b257818101518382015260200161049a565b50505050905001848103835287818151815260200191508051906020019060200280838360005b838110156104f15781810151838201526020016104d9565b50505050905001848103825286818151815260200191508051906020019060200280838360005b83811015610530578181015183820152602001610518565b50505050905001995050505050505050505060405180910390f35b34801561055757600080fd5b506101ac6004803603602081101561056e57600080fd5b5035600160a060020a0316612ac8565b34801561058a57600080fd5b506103e0600480360360408110156105a157600080fd5b50600160a060020a0381358116916020013516612add565b3480156105c557600080fd5b5061015b600480360360a08110156105dc57600080fd5b50600160a060020a03813581169160208101358216916040820135169060608101359060800135612b97565b34801561061457600080fd5b5061015b6004803603606081101561062b57600080fd5b50600160a060020a038135811691602081013582169160409091013516612e78565b34801561065957600080fd5b5061015b6004803603606081101561067057600080fd5b50600160a060020a03813581169160208101358216916040909101351661305b565b34801561069e57600080fd5b506101ac600480360360a08110156106b557600080fd5b50600160a060020a03813581169160208101358216916040820135169060608101359060800135613248565b3480156106ed57600080fd5b5061015b6004803603602081101561070457600080fd5b5035600160a060020a03166136f4565b34801561072057600080fd5b5061015b6004803603606081101561073757600080fd5b50600160a060020a0381358116916020810135821691604090910135166139c7565b34801561076557600080fd5b5061015b600480360360a081101561077c57600080fd5b50600160a060020a03813581169160208101358216916040820135169060608101359060800135613bc2565b33600160a060020a038416146107f6576040805160e560020a62461bcd0281526020600482015260156024820152600080516020614571833981519152604482015290519081900360640190fd5b6107ff81613eb6565b1515610843576040805160e560020a62461bcd0281526020600482015260176024820152600080516020614551833981519152604482015290519081900360640190fd5b600361084f8383613ee8565b600481111561085a57fe5b1461089d576040805160e560020a62461bcd02815260206004820152601860248201526000805160206145b1833981519152604482015290519081900360640190fd5b60006108a93383613ee8565b905060038160048111156108b957fe5b141580156108d3575060048160048111156108d057fe5b14155b1515610917576040805160e560020a62461bcd02815260206004820152600d6024820152600080516020614591833981519152604482015290519081900360640190fd5b600160a060020a03808316600081815260066020818152604080842095891684526003860182528320805460ff19169055929091529081905201805460001901905561096782338584600461400e565b50505050565b600033600160a060020a038716146109bd576040805160e560020a62461bcd0281526020600482015260156024820152600080516020614571833981519152604482015290519081900360640190fd5b6109c684613eb6565b1515610a1c576040805160e560020a62461bcd02815260206004820152601660248201527f466f6c64657220646f6573206e6f742065786973747300000000000000000000604482015290519081900360640190fd5b824211158015610a2b57508183105b1515610a81576040805160e560020a62461bcd02815260206004820152601460248201527f496e76616c69642054696d6520426f756e64732e000000000000000000000000604482015290519081900360640190fd5b600160a060020a0380851660009081526006602090815260408083209389168352600a909301905220600101544211610ab957600080fd5b6000610ac53386613ee8565b90506000816004811115610ad557fe5b14610b18576040805160e560020a62461bcd02815260206004820152600d6024820152600080516020614591833981519152604482015290519081900360640190fd5b6000610b248787613ee8565b9050610b2f87614230565b600160a060020a038087166000908152600660209081526040808320938b16835260079093019052205460ff161515610faf576002816004811115610b7057fe5b1415610db757600160a060020a038087166000908152600660209081526040808320938b168352600b90930190522060010154421015610d5257600160a060020a038087166000908152600660209081526040808320938b168352600b90930190522060010154841015610c4357505050600160a060020a03838116600090815260066020908152604080832093881683526009840182528083208054600160ff199182168117909255600d86018452828520805490911682179055600a9094019091529020838155810182905561181d565b600160a060020a038087166000908152600660209081526040808320938b168352600b90930190522060010154851115610cdc57505050600160a060020a03838116600090815260066020908152604080832093881683526008840182528083208054600160ff199182168117909255600d86018452828520805490911682179055600a9094019091529020838155810182905561181d565b6040805160e560020a62461bcd02815260206004820152602160248201527f476976656e2054696d6520426f756e64732061726520636f6e666c696374696e60448201527f6700000000000000000000000000000000000000000000000000000000000000606482015290519081900360840190fd5b505050600160a060020a03838116600090815260066020908152604080832093881683526008840182528083208054600160ff199182168117909255600d86018452828520805490911682179055600a9094019091529020838155810182905561181d565b6003816004811115610dc557fe5b1415610f5f57600160a060020a038087166000908152600660209081526040808320938b168352600b90930190522054421015610d5257600160a060020a038087166000908152600660209081526040808320938b168352600b90930190522054841015610e9257505050600160a060020a03838116600090815260066020908152604080832093881683526008840182528083208054600160ff199182168117909255600d86018452828520805490911682179055600a9094019091529020838155810182905561181d565b600160a060020a038087166000908152600660209081526040808320938b168352600b9093019052205485118015610ef55750600160a060020a038087166000908152600660209081526040808320938b168352600b9093019052206001015484105b15610c4357505050600160a060020a03838116600090815260066020908152604080832093881683526009840182528083208054600160ff199182168117909255600d86018452828520805490911682179055600a9094019091529020838155810182905561181d565b6040805160e560020a62461bcd02815260206004820152601760248201527f42617365205065726d697373696f6e20496e76616c6964000000000000000000604482015290519081900360640190fd5b600160a060020a038087166000908152600660209081526040808320938b16835260079093019052205460ff161515600114156117cd576003816004811115610ff457fe5b141561134a57600160a060020a038087166000908152600660209081526040808320938b168352600b9093019052206001015442101561126157600160a060020a038087166000908152600660209081526040808320938b168352600b909301905220548410156110c457505050600160a060020a03838116600090815260066020908152604080832093881683526008840182528083208054600160ff199182168117909255600d86018452828520805490911682179055600a9094019091529020838155810182905561181d565b600160a060020a038087166000908152600660209081526040808320938b168352600b90930190522054851180156111275750600160a060020a038087166000908152600660209081526040808320938b168352600b9093019052206001015484105b1561119157505050600160a060020a03838116600090815260066020908152604080832093881683526009840182528083208054600160ff199182168117909255600d86018452828520805490911682179055600a9094019091529020838155810182905561181d565b600160a060020a038087166000908152600660209081526040808320938b168352600b90930190522060010154851180156111f75750600160a060020a038087166000908152600660209081526040808320938b168352600c9093019052206001015484105b15610cdc57505050600160a060020a03838116600090815260066020908152604080832093881683526008840182528083208054600160ff199182168117909255600d86018452828520805490911682179055600a9094019091529020838155810182905561181d565b600160a060020a038087166000908152600660209081526040808320938b168352600c909301905220600101548410156112fa57505050600160a060020a03838116600090815260066020908152604080832093881683526008840182528083208054600160ff199182168117909255600d86018452828520805490911682179055600a9094019091529020838155810182905561181d565b6040805160e560020a62461bcd02815260206004820181905260248201527f476976656e2054696d6520426f756e64732061726520436f6e666c6974696e67604482015290519081900360640190fd5b600281600481111561135857fe5b14156114c457600160a060020a038087166000908152600660209081526040808320938b168352600c9093019052206001015442101561142b57600160a060020a038087166000908152600660209081526040808320938b168352600b9093019052206001015484101561119157505050600160a060020a03838116600090815260066020908152604080832093881683526009840182528083208054600160ff199182168117909255600d86018452828520805490911682179055600a9094019091529020838155810182905561181d565b600160a060020a038087166000908152600660209081526040808320938b168352600b90930190522060010154841015610cdc57505050600160a060020a03838116600090815260066020908152604080832093881683526008840182528083208054600160ff199182168117909255600d86018452828520805490911682179055600a9094019091529020838155810182905561181d565b60048160048111156114d257fe5b1415610f5f57600160a060020a038087166000908152600660209081526040808320938b168352600c909301905220544210156116d057600160a060020a038087166000908152600660209081526040808320938b168352600b9093019052205442101561160457600160a060020a038087166000908152600660209081526040808320938b168352600c909301905220548511801561159a5750600160a060020a038087166000908152600660209081526040808320938b168352600b9093019052205484105b156110c457505050600160a060020a03838116600090815260066020908152604080832093881683526008840182528083208054600160ff199182168117909255600d86018452828520805490911682179055600a9094019091529020838155810182905561181d565b600160a060020a038087166000908152600660209081526040808320938b168352600c90930190522054851180156111f75750600160a060020a038087166000908152600660209081526040808320938b168352600c90930190522060010154841015610cdc57505050600160a060020a03838116600090815260066020908152604080832093881683526008840182528083208054600160ff199182168117909255600d86018452828520805490911682179055600a9094019091529020838155810182905561181d565b600160a060020a038087166000908152600660209081526040808320938b168352600b90930190522054421015610f5f57600160a060020a038087166000908152600660209081526040808320938b168352600b90930190522054851180156111f75750600160a060020a038087166000908152600660209081526040808320938b168352600b90930190522060010154841015610cdc57505050600160a060020a03838116600090815260066020908152604080832093881683526008840182528083208054600160ff199182168117909255600d86018452828520805490911682179055600a9094019091529020838155810182905561181d565b6040805160e560020a62461bcd02815260206004820152601260248201527f556e6578706563746564204661696c7572650000000000000000000000000000604482015290519081900360640190fd5b95945050505050565b33600160a060020a03861614611874576040805160e560020a62461bcd0281526020600482015260156024820152600080516020614571833981519152604482015290519081900360640190fd5b61187d83613eb6565b15156118d3576040805160e560020a62461bcd02815260206004820152601860248201527f446f63756d656e7420646f6573206e6f74206578697374730000000000000000604482015290519081900360640190fd5b8142111580156118e257508082105b1515611938576040805160e560020a62461bcd02815260206004820152601460248201527f496e76616c69642074696d6520626f756e64732e000000000000000000000000604482015290519081900360640190fd5b60046119448585613ee8565b600481111561194f57fe5b14611992576040805160e560020a62461bcd02815260206004820152601760248201526000805160206145d1833981519152604482015290519081900360640190fd5b600061199e3385613ee8565b905060008160048111156119ae57fe5b14806119c5575060018160048111156119c357fe5b145b1515611a09576040805160e560020a62461bcd02815260206004820152600d6024820152600080516020614591833981519152604482015290519081900360640190fd5b611a1285614230565b600160a060020a0380851660009081526006602090815260408083209389168352600a9093019052206001015442118015611a785750600160a060020a0380851660009081526006602090815260408083209389168352600c9093019052206001015442115b15611b7157600160a060020a038481166000818152600660209081526040808320948a168084526007860183528184208054600160ff199182168117909255600e88018552838620805490911682179055600b9096018352928190208881559094018690558351438082524292820183905294810193909352336060840181905260808401929092526000805160206145318339815191529392909188918a9087906002908b908b9060a08101856004811115611b3157fe5b60ff168152602001846004811115611b4557fe5b60ff168152602001838152602001828152602001995050505050505050505060405180910390a1611baf565b6040805160e560020a62461bcd02815260206004820152601760248201526000805160206145d1833981519152604482015290519081900360640190fd5b505050505050565b33600160a060020a03841614611c05576040805160e560020a62461bcd0281526020600482015260156024820152600080516020614571833981519152604482015290519081900360640190fd5b611c0e81613eb6565b1515611c52576040805160e560020a62461bcd0281526020600482015260176024820152600080516020614551833981519152604482015290519081900360640190fd5b600160a060020a0380821660009081526006602090815260408083209386168352600d9093019052205460ff161515600114611cc6576040805160e560020a62461bcd02815260206004820152601860248201526000805160206145b1833981519152604482015290519081900360640190fd5b6000611cd23383613ee8565b90506000816004811115611ce257fe5b14611d25576040805160e560020a62461bcd02815260206004820152600d6024820152600080516020614591833981519152604482015290519081900360640190fd5b600160a060020a038281166000818152600660209081526040808320948816808452600d86018352818420805460ff19169055600a9095018252808320838155600101839055805143808252429382018490529181019490945233606085018190526080850195909552600080516020614531833981519152949093919287928991889160049190819060a081018585811115611dbe57fe5b60ff168152602001846004811115611dd257fe5b60ff168152602001838152602001828152602001995050505050505050505060405180910390a150505050565b33600160a060020a03841614611e4d576040805160e560020a62461bcd0281526020600482015260156024820152600080516020614571833981519152604482015290519081900360640190fd5b611e5681613eb6565b1515611e9a576040805160e560020a62461bcd0281526020600482015260176024820152600080516020614551833981519152604482015290519081900360640190fd5b6002611ea68383613ee8565b6004811115611eb157fe5b14611ef4576040805160e560020a62461bcd02815260206004820152601860248201526000805160206145b1833981519152604482015290519081900360640190fd5b6000611f003383613ee8565b90506000816004811115611f1057fe5b1480611f2757506001816004811115611f2557fe5b145b1515611f6b576040805160e560020a62461bcd02815260206004820152600d6024820152600080516020614591833981519152604482015290519081900360640190fd5b600160a060020a03808316600081815260066020818152604080842095891684526002860182528320805460ff19169055929091529052600501805460001901905561096782338584600461400e565b33600160a060020a0384161461201b576040805160e560020a62461bcd02815260206004820152601560248201527f6661696c65642061757468656e7469636174696f6e0000000000000000000000604482015290519081900360640190fd5b61202481613eb6565b1515612068576040805160e560020a62461bcd0281526020600482015260176024820152600080516020614551833981519152604482015290519081900360640190fd5b600160a060020a0380821660009081526006602090815260408083209386168352600f9093019052205460ff1615156001146120dc576040805160e560020a62461bcd02815260206004820152601860248201526000805160206145b1833981519152604482015290519081900360640190fd5b60006120e83383613ee8565b905060038160048111156120f857fe5b141580156121125750600481600481111561210f57fe5b14155b1515612156576040805160e560020a62461bcd02815260206004820152600d6024820152600080516020614591833981519152604482015290519081900360640190fd5b600160a060020a038281166000818152600660209081526040808320948816808452600f86018352818420805460ff19169055600c9095018252808320838155600101839055805143808252429382018490529181019490945233606085018190526080850195909552600080516020614531833981519152949093919287928991889160049190819060a081018585811115611dbe57fe5b33600160a060020a0384161461223d576040805160e560020a62461bcd0281526020600482015260156024820152600080516020614571833981519152604482015290519081900360640190fd5b61224681613eb6565b151561228a576040805160e560020a62461bcd0281526020600482015260176024820152600080516020614551833981519152604482015290519081900360640190fd5b60046122968383613ee8565b60048111156122a157fe5b146122e4576040805160e560020a62461bcd02815260206004820152601760248201526000805160206145d1833981519152604482015290519081900360640190fd5b60006122f03383613ee8565b9050600481600481111561230057fe5b1415612344576040805160e560020a62461bcd02815260206004820152600d6024820152600080516020614591833981519152604482015290519081900360640190fd5b61234d83614230565b600160a060020a0382811660008181526006602081815260408084209589168452600786018252808420805460ff19908116909155600380880184529185208054909116600190811790915594909352819052929092018054909101905561096790839033908690859061400e565b33600160a060020a0384161461240a576040805160e560020a62461bcd0281526020600482015260156024820152600080516020614571833981519152604482015290519081900360640190fd5b61241381613eb6565b1515612457576040805160e560020a62461bcd0281526020600482015260176024820152600080516020614551833981519152604482015290519081900360640190fd5b60006124633383613ee8565b600481111561246e57fe5b146124b1576040805160e560020a62461bcd02815260206004820152600d6024820152600080516020614591833981519152604482015290519081900360640190fd5b6124ba82614230565b600160a060020a03818116600081815260066020908152604091829020805473ffffffffffffffffffffffffffffffffffffffff19169487169490941790935580519182523392820192909252438183015290517f9fbd1e6d18c87f60d60a06b2479641d217ae9fe32c8c0ed019bf2db0d71ff671916060908290030190a161254781338460008061400e565b505050565b33600160a060020a0384161461259a576040805160e560020a62461bcd0281526020600482015260156024820152600080516020614571833981519152604482015290519081900360640190fd5b6125a381613eb6565b15156125f9576040805160e560020a62461bcd02815260206004820152601860248201527f446f63756d656e7420646f6573206e6f74206578697374730000000000000000604482015290519081900360640190fd5b600160a060020a0380821660009081526006602090815260408083209386168352600e9093019052205460ff16151560011461266d576040805160e560020a62461bcd02815260206004820152601860248201526000805160206145b1833981519152604482015290519081900360640190fd5b60006126793383613ee8565b9050600081600481111561268957fe5b14806126a05750600181600481111561269e57fe5b145b15156126e4576040805160e560020a62461bcd02815260206004820152600d6024820152600080516020614591833981519152604482015290519081900360640190fd5b600160a060020a038281166000818152600660209081526040808320948816808452600e86018352818420805460ff19169055600b9095018252808320838155600101839055805143808252429382018490529181019490945233606085018190526080850195909552600080516020614531833981519152949093919287928991889160049190819060a081018585811115611dbe57fe5b600061278882613eb6565b15156127cc576040805160e560020a62461bcd0281526020600482015260176024820152600080516020614551833981519152604482015290519081900360640190fd5b6127d63383613ee8565b92915050565b600080606080606060006127ef88613eb6565b1515612845576040805160e560020a62461bcd02815260206004820152601560248201527f466f6c64657220646f6573206e6f742065786973740000000000000000000000604482015290519081900360640190fd5b600060048881548110151561285657fe5b6000918252602082200154600160a060020a03169150612876828b6142c8565b604080516002808252606080830184529394509091602083019080388339505050600160a060020a038c811660009081526006602090815260408083209388168352600a90930190529081205482519293509183919081106128d457fe5b6020908102909101810191909152600160a060020a03808d1660009081526006835260408082209287168252600a9092019092529020600190810154825190918391811061291e57fe5b602090810290910101526040805160028082526060828101909352816020016020820280388339505050600160a060020a038d811660009081526006602090815260408083209389168352600b909301905290812054825192935091839190811061298557fe5b6020908102909101810191909152600160a060020a03808e1660009081526006835260408082209288168252600b909201909252902060019081015482519091839181106129cf57fe5b602090810290910101526040805160028082526060828101909352816020016020820280388339505050600160a060020a038e81166000908152600660209081526040808320938a168352600c9093019052908120548251929350918391908110612a3657fe5b6020908102909101810191909152600160a060020a03808f1660009081526006835260408082209289168252600c90920190925290206001908101548251909183918110612a8057fe5b60209081029091010152600454600019018c1015612aad5793995091975095509350915060019050612abe565b939950919750955093509150600090505b9295509295509295565b60036020526000908152604090205460ff1681565b6000612ae882613eb6565b1515612b2c576040805160e560020a62461bcd0281526020600482015260176024820152600080516020614551833981519152604482015290519081900360640190fd5b6004612b383384613ee8565b6004811115612b4357fe5b14612b5957612b528383613ee8565b90506127d6565b6040805160e560020a62461bcd02815260206004820152600d6024820152600080516020614591833981519152604482015290519081900360640190fd5b33600160a060020a03861614612be5576040805160e560020a62461bcd0281526020600482015260156024820152600080516020614571833981519152604482015290519081900360640190fd5b612bee83613eb6565b1515612c32576040805160e560020a62461bcd0281526020600482015260176024820152600080516020614551833981519152604482015290519081900360640190fd5b814211158015612c4157508082105b1515612c97576040805160e560020a62461bcd02815260206004820152601460248201527f496e76616c69642074696d6520626f756e64732e000000000000000000000000604482015290519081900360640190fd5b6004612ca38585613ee8565b6004811115612cae57fe5b14612cf1576040805160e560020a62461bcd02815260206004820152601760248201526000805160206145d1833981519152604482015290519081900360640190fd5b6000612cfd3385613ee8565b90506000816004811115612d0d57fe5b14612d50576040805160e560020a62461bcd02815260206004820152600d6024820152600080516020614591833981519152604482015290519081900360640190fd5b612d5985614230565b600160a060020a0380851660009081526006602090815260408083209389168352600b9093019052206001015442118015612dbf5750600160a060020a0380851660009081526006602090815260408083209389168352600c9093019052206001015442115b15611b7157600160a060020a038481166000818152600660209081526040808320948a168084526007860183528184208054600160ff199182168117909255600e88018552838620805490911682179055600b90960183529281902088815585018790558051438082524293820184905291810194909452336060850181905260808501939093526000805160206145318339815191529490939192899290918b918891908b908b9060a08101856004811115611b3157fe5b33600160a060020a03841614612ec6576040805160e560020a62461bcd0281526020600482015260156024820152600080516020614571833981519152604482015290519081900360640190fd5b612ecf81613eb6565b1515612f13576040805160e560020a62461bcd0281526020600482015260176024820152600080516020614551833981519152604482015290519081900360640190fd5b6004612f1f8383613ee8565b6004811115612f2a57fe5b14612f6d576040805160e560020a62461bcd02815260206004820152601760248201526000805160206145d1833981519152604482015290519081900360640190fd5b6000612f793383613ee8565b90506000816004811115612f8957fe5b1480612fa057506001816004811115612f9e57fe5b145b1515612fe4576040805160e560020a62461bcd02815260206004820152600d6024820152600080516020614591833981519152604482015290519081900360640190fd5b612fed83614230565b600160a060020a0382811660008181526006602081815260408084209589168452600786018252808420805460ff199081169091556002808801845291852080549091166001908117909155949093525260059092018054909101905561096790839033908690859061400e565b33600160a060020a038416146130a9576040805160e560020a62461bcd0281526020600482015260156024820152600080516020614571833981519152604482015290519081900360640190fd5b6130b281613eb6565b15156130f6576040805160e560020a62461bcd0281526020600482015260176024820152600080516020614551833981519152604482015290519081900360640190fd5b60006131023383613ee8565b600481111561310d57fe5b14613188576040805160e560020a62461bcd02815260206004820152602160248201527f53656e64657220646f6573206e6f7420686173206d617374657220616363657360448201527f7300000000000000000000000000000000000000000000000000000000000000606482015290519081900360840190fd5b60016131948383613ee8565b600481111561319f57fe5b146131f4576040805160e560020a62461bcd02815260206004820152600c60248201527f4e6f7420616e206f776e65720000000000000000000000000000000000000000604482015290519081900360640190fd5b600160a060020a03808216600081815260066020818152604080842095881684526001860182528320805460ff1916905592825290915260049182018054600019019055612547918391339186919061400e565b600033600160a060020a03871614613298576040805160e560020a62461bcd0281526020600482015260156024820152600080516020614571833981519152604482015290519081900360640190fd5b6132a184613eb6565b15156132f7576040805160e560020a62461bcd02815260206004820152601860248201527f446f63756d656e7420646f6573206e6f74206578697374730000000000000000604482015290519081900360640190fd5b82421115801561330657508183105b151561335c576040805160e560020a62461bcd02815260206004820152601460248201527f496e76616c69642054696d6520426f756e64732e000000000000000000000000604482015290519081900360640190fd5b600160a060020a0380851660009081526006602090815260408083209389168352600b90930190522060010154421161339457600080fd5b60006133a03386613ee8565b905060008160048111156133b057fe5b14806133c7575060018160048111156133c557fe5b145b151561340b576040805160e560020a62461bcd02815260206004820152600d6024820152600080516020614591833981519152604482015290519081900360640190fd5b60006134178787613ee8565b905061342287614230565b600160a060020a038087166000908152600660209081526040808320938b16835260079093019052205460ff1615156134ce57600381600481111561346357fe5b1415610f5f57505050600160a060020a03838116600090815260066020908152604080832093881683526008840182528083208054600160ff199182168117909255600e86018452828520805490911682179055600b9094019091529020838155810182905561181d565b600160a060020a038087166000908152600660209081526040808320938b16835260079093019052205460ff161515600114156117cd57600160a060020a038087166000908152600660209081526040808320938b168352600c9093019052206001015442101561367e57600160a060020a038087166000908152600660209081526040808320938b168352600c90930190522054851080159061359e5750600160a060020a038087166000908152600660209081526040808320938b168352600c909301905220600101548411155b1561360857505050600160a060020a03838116600090815260066020908152604080832093881683526008840182528083208054600160ff199182168117909255600e86018452828520805490911682179055600b9094019091529020838155810182905561181d565b6040805160e560020a62461bcd02815260206004820152602e60248201527f476976656e2054696d6520426f756e647320617265206f75747369646520426160448201527f73652054696d6520426f756e6473000000000000000000000000000000000000606482015290519081900360840190fd5b6040805160e560020a62461bcd02815260206004820152602260248201527f42617365205065726d697373696f6e20496e76616c6964206f7220457870697260448201527f6564000000000000000000000000000000000000000000000000000000000000606482015290519081900360840190fd5b6136fd81613eb6565b15613752576040805160e560020a62461bcd02815260206004820152601660248201527f446f63756d656e7420416c726561647920657869737400000000000000000000604482015290519081900360640190fd5b6001805481019055600160a060020a0381166000908152600660205260409020805473ffffffffffffffffffffffffffffffffffffffff19163390811790915561379b90614230565b600160a060020a0381811660008181526003602090815260408083208054600160ff199091168117909155815160e0810183524381524293810193845291820194855233606083018181526080840191825260a0840186815260c08501879052600280549485018082559752845160059094027f405787fa12a823e0f2b7631cc41b3ba8828b3321ca811111fa75cd3aa3bb5ace810194855595517f405787fa12a823e0f2b7631cc41b3ba8828b3321ca811111fa75cd3aa3bb5acf87015596517f405787fa12a823e0f2b7631cc41b3ba8828b3321ca811111fa75cd3aa3bb5ad086018054918a1673ffffffffffffffffffffffffffffffffffffffff1992831617905590517f405787fa12a823e0f2b7631cc41b3ba8828b3321ca811111fa75cd3aa3bb5ad186018054918a1691831691909117905590517f405787fa12a823e0f2b7631cc41b3ba8828b3321ca811111fa75cd3aa3bb5ad290940180549490971693169290921780865593519294909391929174ff000000000000000000000000000000000000000019167401000000000000000000000000000000000000000083600481111561394b57fe5b021790555060c08201518160040160156101000a81548160ff0219169083600481111561397457fe5b02179055505060408051600160a060020a0385168152336020820152438183015290517f9fbd1e6d18c87f60d60a06b2479641d217ae9fe32c8c0ed019bf2db0d71ff6719350908190036060019150a150565b33600160a060020a03841614613a15576040805160e560020a62461bcd0281526020600482015260156024820152600080516020614571833981519152604482015290519081900360640190fd5b613a1e81613eb6565b1515613a62576040805160e560020a62461bcd0281526020600482015260176024820152600080516020614551833981519152604482015290519081900360640190fd5b600160a060020a03818116600090815260066020526040902054163314613af9576040805160e560020a62461bcd02815260206004820152602160248201527f43616c6c657220646f6573206e6f7420686173206d617374657220616363657360448201527f7300000000000000000000000000000000000000000000000000000000000000606482015290519081900360840190fd5b6004613b058383613ee8565b6004811115613b1057fe5b14613b53576040805160e560020a62461bcd02815260206004820152601760248201526000805160206145d1833981519152604482015290519081900360640190fd5b613b5c82614230565b600160a060020a0381811660008181526006602081815260408084209588168452600786018252808420805460ff19908116909155600180880184529185208054909116821790559383525260049092018054820190556125479183913391869161400e565b33600160a060020a03861614613c10576040805160e560020a62461bcd0281526020600482015260156024820152600080516020614571833981519152604482015290519081900360640190fd5b613c1983613eb6565b1515613c5d576040805160e560020a62461bcd0281526020600482015260176024820152600080516020614551833981519152604482015290519081900360640190fd5b814211158015613c6c57508082105b1515613cc2576040805160e560020a62461bcd02815260206004820152601460248201527f496e76616c69642074696d6520626f756e64732e000000000000000000000000604482015290519081900360640190fd5b6004613cce8585613ee8565b6004811115613cd957fe5b14613d2e576040805160e560020a62461bcd02815260206004820152601860248201527f44656c656761746520616c7265616479206578697374732e0000000000000000604482015290519081900360640190fd5b6000613d3a3385613ee8565b90506004816004811115613d4a57fe5b1415613d8e576040805160e560020a62461bcd02815260206004820152600d6024820152600080516020614591833981519152604482015290519081900360640190fd5b613d9785614230565b600160a060020a0380851660009081526006602090815260408083209389168352600a9093019052206001015442118015613dfd5750600160a060020a0380851660009081526006602090815260408083209389168352600b9093019052206001015442115b15611b7157600160a060020a038481166000818152600660209081526040808320948a168084526007860183528184208054600160ff199182168117909255600f88018552838620805490911682179055600c9096018352928190208881559094018690558351438082524292820183905294810193909352336060840181905260808401929092526000805160206145318339815191529392909188918a9087906003908b908b9060a08101856004811115611b3157fe5b600160a060020a03811660009081526003602052604081205460ff1615613edf57506001613ee3565b5060005b919050565b600160a060020a03818116600090815260066020526040812054909184811691161415613f17575060006127d6565b600160a060020a038083166000908152600660209081526040808320938716835260079093019052205460ff161515613fc557600160a060020a038083166000908152600660209081526040808320938716835260089093019052205460ff16151560011415613fbb576000613f8d848461430f565b90506004816004811115613f9d57fe5b14613fa95790506127d6565b613fb384846142c8565b9150506127d6565b612b5283836142c8565b600160a060020a038083166000908152600660209081526040808320938716835260079093019052205460ff1615156001141561400657612b52838361430f565b5060046127d6565b600260e06040519081016040528043815260200142815260200187600160a060020a0316815260200186600160a060020a0316815260200185600160a060020a0316815260200184600481111561406157fe5b815260200183600481111561407257fe5b905281546001808201808555600094855260209485902084516005909402019283559383015190820155604082015160028201805473ffffffffffffffffffffffffffffffffffffffff19908116600160a060020a039384161790915560608401516003840180548316918416919091179055608084015160048085018054909316919093161780825560a08501519274ff000000000000000000000000000000000000000019909116907401000000000000000000000000000000000000000090849081111561413f57fe5b021790555060c08201518160040160156101000a81548160ff0219169083600481111561416857fe5b02179055505050507f877da8263ce2b45df7cc29b7fc73685cf28d154889ae04f93332680329f81b14434287878787876040518088815260200187815260200186600160a060020a0316600160a060020a0316815260200185600160a060020a0316600160a060020a0316815260200184600160a060020a0316600160a060020a031681526020018360048111156141fc57fe5b60ff16815260200182600481111561421057fe5b60ff16815260200197505050505050505060405180910390a15050505050565b600160a060020a03811660009081526005602052604090205460ff1615156142c557600160a060020a0381166000818152600560205260408120805460ff191660019081179091556004805491820181559091527f8a35acfbc15ff81a39ae7d344fd709f28e8600b4aa8c65c6b64bfe7fe36bd19b01805473ffffffffffffffffffffffffffffffffffffffff191690911790555b50565b60006142d48383614463565b156142e1575060016127d6565b6142eb83836144ae565b156142f8575060026127d6565b61430283836144ef565b15614006575060036127d6565b600160a060020a0380821660009081526006602090815260408083209386168352600a90930190529081205442108015906143755750600160a060020a0380831660009081526006602090815260408083209387168352600a9093019052206001015442105b15614382575060016127d6565b600160a060020a0380831660009081526006602090815260408083209387168352600b9093019052205442108015906143e65750600160a060020a0380831660009081526006602090815260408083209387168352600b9093019052206001015442105b156143f3575060026127d6565b600160a060020a0380831660009081526006602090815260408083209387168352600c9093019052205442108015906143025750600160a060020a0380831660009081526006602090815260408083209387168352600c90930190522060010154421015614006575060036127d6565b600160a060020a03808216600090815260066020908152604080832093861683526001938401909152812054909160ff909116151514156144a6575060016127d6565b5060006127d6565b600160a060020a0380821660009081526006602090815260408083209386168352600290930190529081205460ff161515600114156144a6575060016127d6565b600160a060020a0380821660009081526006602090815260408083209386168352600390930190529081205460ff161515600114156144a6575060016127d656fe1f773f2d4194d174a7d94783a6ab5579be8fba542adbf8c5e3fd074570375243446f63756d656e7420646f6573206e6f7420657869737400000000000000000061757468656e7469636174696f6e206661696c656400000000000000000000004163636573732044656e6965640000000000000000000000000000000000000044656c656761746520646f6573206e6f742065786973742e000000000000000044656c656761746520616c726561647920657869737473000000000000000000a165627a7a72305820f21c2f6ad113a6f4d46179dfc8dbd947914efdd4f4e21e9286d1c8c3ccacfdc50029",
  "source": "pragma solidity >=0.4.21 <0.6.0;\n\nimport \"./FolderNotarizationManagement.sol\";\nimport \"./FolderAccessRightsDefinition.sol\";\n\n/// @title PermissionManagement\n/// @author Ashwin Arora\ncontract FolderPermissionManagement is FolderNotarizationManagement, FolderAccessRightsDefinition{\n  constructor() public{\n    owner = msg.sender;\n  }\n\n  /**\n  * @dev use to create a new document with new hash\n  * @param dappboxfolder hash of the document\n  */ \n  function newFolder(address dappboxfolder) public {\n    require(!folderExists(dappboxfolder), \"Document Already exist\");\n\n    ++folderCount;\n    permissionOf[dappboxfolder].master = msg.sender;\n    pushAddress(msg.sender);\n    usedFolders[dappboxfolder] = true;\n    foldhistory.push(FolderAccessRight(block.number, block.timestamp, dappboxfolder, msg.sender, msg.sender, PermissionType.master, PermissionType.master));\n    emit NewFolder(dappboxfolder, msg.sender, block.number);\n  }\n  /**\n  * @dev used to chang the master, caller will loose master access and _delegate will gain master access\n  * @param _delegate Ethereum address to whom permission is to be delegated\n  * @param dappboxfolder hash of the document\n  */\n  function changeMasterFolder(address dAppBoxOrigin,address _delegate, address dappboxfolder) public{\n    require(msg.sender == dAppBoxOrigin,\"authentication failed\");\n    require(folderExists(dappboxfolder), \"Document does not exist\");\n    require(checkPermission(msg.sender, dappboxfolder) == PermissionType.master, \"Access Denied\");\n    pushAddress(_delegate);\n    permissionOf[dappboxfolder].master = _delegate;\n    emit NewFolder(dappboxfolder, msg.sender, block.number);\n    transferFolder(dappboxfolder, msg.sender, _delegate, PermissionType.master, PermissionType.master);\n  }\n\n  /**\n  * @dev use to check what permissions the caller hash\n  * @param dappboxfolder hash of the document\n  */\n\n  function checkYourPermissionFolder(address dappboxfolder) public view returns(PermissionType){\n    require(folderExists(dappboxfolder), \"Document does not exist\");\n    return checkPermission(msg.sender, dappboxfolder);\n  }\n\n  /**\n  * @dev use to check what permissions the delegate hash\n  * @param _delegate Ethereum address of whos permission is to be checked\n  * @param dappboxfolder hash of the document\n  */\n  function checkDelegatePermissionFolder(address _delegate, address dappboxfolder) public view returns (PermissionType) {\n    require(folderExists(dappboxfolder), \"Document does not exist\");\n    if(checkPermission(msg.sender, dappboxfolder) != PermissionType.none ){\n      return checkPermission(_delegate, dappboxfolder);\n    }else{\n      revert (\"Access Denied\");\n    }\n  }\n\n  /**\n  * @dev use to delegate owner access to any ethereum address\n  * @param _delegate Ethereum address to whom permission is to be delegated\n  * @param dappboxfolder hash of the document\n  */\n  function delegatePermanentOwnerFolder(address dAppBoxOrigin,address _delegate, address dappboxfolder) public{\n    require(msg.sender == dAppBoxOrigin,\"authentication failed\");\n    require(folderExists(dappboxfolder), \"Document does not exist\");\n    require(permissionOf[dappboxfolder].master == msg.sender, \"Caller does not has master access\");\n    require(checkPermission(_delegate, dappboxfolder) == PermissionType.none, \"Delegate already exists\");\n    pushAddress(_delegate);\n    permissionOf[dappboxfolder].isBaseRestricted[_delegate] = false;\n    permissionOf[dappboxfolder].DelegatedOwners[_delegate] = true;\n    permissionOf[dappboxfolder].ownerLength++;\n    transferFolder( dappboxfolder, msg.sender, _delegate, PermissionType.master, PermissionType.owner);\n  }\n\n  /**\n  * @dev use to remove owner access of existing owner\n  * @param _delegate Ethereum address to whom permission is to be delegated\n  * @param dappboxfolder hash of the document\n  */\n  function removePermanentOwnerFolder(address dAppBoxOrigin,address _delegate, address dappboxfolder) public{\n    require(msg.sender == dAppBoxOrigin,\"authentication failed\");\n    require(folderExists(dappboxfolder), \"Document does not exist\");\n    require(checkPermission(msg.sender, dappboxfolder) == PermissionType.master, \"Sender does not has master access\");\n    //require(permissionOf[dappboxfolder].master == msg.sender, \"Caller does not has master access\");\n    require(checkPermission(_delegate, dappboxfolder) == PermissionType.owner, \"Not an owner\");\n\n    permissionOf[dappboxfolder].DelegatedOwners[_delegate] = false;\n    permissionOf[dappboxfolder].ownerLength--;\n    transferFolder( dappboxfolder, msg.sender, _delegate, PermissionType.master, PermissionType.none);\n  }\n\n\n\n  /**\n    * @dev use to delegate owner permission with time bounds\n    * @param _delegate Ethereum address to whom permission is to be delegated\n    * @param dappboxfolder hash of the document\n    * @param _fromTime Time from which the delegate has access\n    * @param _toTime Time till which the delegate has access\n    */\n  function delegateTimeRestrictedOwnerFolder(address dAppBoxOrigin,address _delegate, address dappboxfolder, uint256 _fromTime, uint256 _toTime) public{\n    require(msg.sender == dAppBoxOrigin,\"authentication failed\");\n    require(folderExists(dappboxfolder), \"Document does not exist\");\n    require(block.timestamp <= _fromTime && _fromTime < _toTime, \"Invalid time bounds.\" );\n    require(checkPermission(_delegate, dappboxfolder) == PermissionType.none, \"Delegate already exists\");\n    PermissionType permissionOfCaller = checkPermission(msg.sender, dappboxfolder);\n    require(permissionOfCaller == PermissionType.master, \"Access Denied\");\n    pushAddress(_delegate);\n    if(permissionOf[dappboxfolder].writeTime[_delegate].toTime < block.timestamp &&  permissionOf[dappboxfolder].readTime[_delegate].toTime < block.timestamp){\n      permissionOf[dappboxfolder].isBaseRestricted[_delegate] = true;\n      permissionOf[dappboxfolder].isWriteRestricted[_delegate] = true;\n      permissionOf[dappboxfolder].writeTime[_delegate].fromTime = _fromTime;\n      permissionOf[dappboxfolder].writeTime[_delegate].toTime = _toTime;\n      emit TimeRestrictedPermission(block.number, block.timestamp, dappboxfolder, msg.sender, _delegate, permissionOfCaller, PermissionType.owner, _fromTime, _toTime);\n    }else{\n      revert(\"Delegate already exists\");\n    }\n  }\n\n  /**\n  * @dev use to remove Owner permission with time bounds\n  * @param _delegate Ethereum address to whom permission is to be delegated\n  * @param dappboxfolder hash of the document\n  */\n  function removeTimeRestrictedOwnerFolder(address dAppBoxOrigin ,address _delegate, address dappboxfolder) public{\n    require(msg.sender == dAppBoxOrigin,\"authentication failed\");\n    require(folderExists(dappboxfolder), \"Document does not exist\");\n    require(permissionOf[dappboxfolder].isDelegatedOwnerRestricted[_delegate] == true, \"Delegate does not exist.\");\n    PermissionType permissionOfCaller = checkPermission(msg.sender, dappboxfolder);\n    require(permissionOfCaller == PermissionType.master, \"Access Denied\");\n\n    permissionOf[dappboxfolder].isDelegatedOwnerRestricted[_delegate] = false;\n    permissionOf[dappboxfolder].DelegatedOwnersTime[_delegate].fromTime = 0;\n    permissionOf[dappboxfolder].DelegatedOwnersTime[_delegate].toTime = 0;\n    emit TimeRestrictedPermission(block.number, block.timestamp, dappboxfolder, msg.sender, _delegate, permissionOfCaller, PermissionType.none, 0,0);\n  }\n\n \n\n  /**\n  * @dev use to delegate write access to any ethereum address\n  * @param _delegate Ethereum address to whom permission is to be delegated\n  * @param dappboxfolder hash of the document\n  */\n  function delegatePermanentWriteFolder(address dAppBoxOrigin,address _delegate, address dappboxfolder) public{\n    require(msg.sender == dAppBoxOrigin,\"authentication failed\");\n    require(folderExists(dappboxfolder), \"Document does not exist\");\n    require(checkPermission(_delegate, dappboxfolder) == PermissionType.none, \"Delegate already exists\");\n    PermissionType permissionOfCaller = checkPermission(msg.sender,dappboxfolder);\n    require(permissionOfCaller == PermissionType.master || permissionOfCaller == PermissionType.owner, \"Access Denied\");\n    pushAddress(_delegate);\n    permissionOf[dappboxfolder].isBaseRestricted[_delegate] = false;\n    permissionOf[dappboxfolder].write[_delegate] = true;\n    permissionOf[dappboxfolder].writeLength++;\n    transferFolder( dappboxfolder, msg.sender, _delegate, permissionOfCaller ,PermissionType.write);\n  }\n\n  /**\n  * @dev use to remove write access of any ethereum address\n  * @param _delegate Ethereum address of whos permission is to be removed\n  * @param dappboxfolder hash of the document\n  */\n  function removePermanentWriteFolder(address dAppBoxOrigin,address _delegate, address dappboxfolder) public{\n    require(msg.sender == dAppBoxOrigin,\"authentication failed\");\n    require(folderExists(dappboxfolder), \"Document does not exist\");\n    require(checkPermission(_delegate, dappboxfolder) == PermissionType.write, \"Delegate does not exist.\");\n    PermissionType permissionOfCaller = checkPermission(msg.sender, dappboxfolder);\n    require(permissionOfCaller == PermissionType.master || permissionOfCaller == PermissionType.owner, \"Access Denied\");\n\n    permissionOf[dappboxfolder].write[_delegate] = false;\n    permissionOf[dappboxfolder].writeLength--;\n    transferFolder( dappboxfolder, msg.sender, _delegate, permissionOfCaller, PermissionType.none);\n  }\n\n\n  /**\n  * @dev use to delegate write permission with time bounds\n  * @param _delegate Ethereum address to whom permission is to be delegated\n  * @param dappboxfolder hash of the document\n  * @param _fromTime Time from which the delegate has access\n  * @param _toTime Time till which the delegate has access\n  */\n  function delegateTimeRestrictedWriteFolder(address dAppBoxOrigin,address _delegate, address dappboxfolder, uint256 _fromTime, uint256 _toTime) public{\n    require(msg.sender == dAppBoxOrigin,\"authentication failed\");\n    require(folderExists(dappboxfolder), \"Document does not exists\");\n    require(block.timestamp <= _fromTime && _fromTime < _toTime, \"Invalid time bounds.\" );\n    require(checkPermission(_delegate, dappboxfolder) == PermissionType.none, \"Delegate already exists\");\n    PermissionType permissionOfCaller = checkPermission(msg.sender, dappboxfolder);\n    require(permissionOfCaller == PermissionType.master || permissionOfCaller == PermissionType.owner, \"Access Denied\");\n    pushAddress(_delegate);\n    if(permissionOf[dappboxfolder].DelegatedOwnersTime[_delegate].toTime < block.timestamp &&  permissionOf[dappboxfolder].readTime[_delegate].toTime < block.timestamp){\n      permissionOf[dappboxfolder].isBaseRestricted[_delegate] = true;\n      permissionOf[dappboxfolder].isWriteRestricted[_delegate] = true;\n      permissionOf[dappboxfolder].writeTime[_delegate].fromTime = _fromTime;\n      permissionOf[dappboxfolder].writeTime[_delegate].toTime = _toTime;\n      emit TimeRestrictedPermission(block.number, block.timestamp, dappboxfolder, msg.sender, _delegate, permissionOfCaller, PermissionType.write, _fromTime, _toTime);\n    }else{\n      revert(\"Delegate already exists\");\n    }\n  }\n\n  /**\n  * @dev use to remove write permission with time bounds\n  * @param _delegate Ethereum address to whom permission is to be delegated\n  * @param dappboxfolder hash of the document\n  */\n  function removeTimeRestrictedWriteFolder(address dAppBoxOrigin,address _delegate, address dappboxfolder) public{\n    require(msg.sender == dAppBoxOrigin,\"authentication failed\");\n    require(folderExists(dappboxfolder), \"Document does not exists\");\n    require(permissionOf[dappboxfolder].isWriteRestricted[_delegate] == true, \"Delegate does not exist.\");\n    PermissionType permissionOfCaller = checkPermission(msg.sender, dappboxfolder);\n    require(permissionOfCaller == PermissionType.master || permissionOfCaller == PermissionType.owner, \"Access Denied\");\n\n    permissionOf[dappboxfolder].isWriteRestricted[_delegate] = false;\n    permissionOf[dappboxfolder].writeTime[_delegate].fromTime = 0;\n    permissionOf[dappboxfolder].writeTime[_delegate].toTime = 0;\n    emit TimeRestrictedPermission(block.number, block.timestamp, dappboxfolder, msg.sender, _delegate, permissionOfCaller, PermissionType.none, 0, 0);\n  }\n\n  /**\n  * @dev use to temporarily upgrade read access of an address to write access\n  * @param _delegate Ethereum address whos permission is to be temporarily upgarded\n  * @param dappboxfolder hash of the document\n  * @param _fromTime Time from which the delegate has upgraded write access\n  * @param _toTime Time till which the delegate has upgraded write access\n  */\n  function upgradeToWriteFolder(address dAppBoxOrigin,address _delegate, address dappboxfolder, uint256 _fromTime, uint256 _toTime) public returns(bool success){\n    require(msg.sender == dAppBoxOrigin,\"authentication failed\");\n    require(folderExists(dappboxfolder), \"Document does not exists\");\n    require(block.timestamp <= _fromTime && _fromTime < _toTime, \"Invalid Time Bounds.\");\n    require(permissionOf[dappboxfolder].writeTime[_delegate].toTime < block.timestamp);\n    PermissionType permissionOfCaller = checkPermission(msg.sender, dappboxfolder);\n    require(permissionOfCaller == PermissionType.master || permissionOfCaller == PermissionType.owner, \"Access Denied\");\n\n    PermissionType permissionOfDelegate = checkPermission(_delegate, dappboxfolder);\n    pushAddress(_delegate);\n    if(permissionOf[dappboxfolder].isBaseRestricted[_delegate] == false){\n      if(permissionOfDelegate == PermissionType.read){\n        permissionOf[dappboxfolder].isTemporarilyUpgraded[_delegate] = true;\n        permissionOf[dappboxfolder].isWriteRestricted[_delegate] = true;\n        permissionOf[dappboxfolder].writeTime[_delegate].fromTime = _fromTime;\n        permissionOf[dappboxfolder].writeTime[_delegate].toTime = _toTime;\n        success = true;\n        return success;\n      }else{\n        revert(\"Base Permission Invalid\");\n      }\n    }else if(permissionOf[dappboxfolder].isBaseRestricted[_delegate] == true){\n      if(permissionOf[dappboxfolder].readTime[_delegate].toTime > block.timestamp){\n        if(permissionOf[dappboxfolder].readTime[_delegate].fromTime <= _fromTime && permissionOf[dappboxfolder].readTime[_delegate].toTime >= _toTime){\n          permissionOf[dappboxfolder].isTemporarilyUpgraded[_delegate] = true;\n          permissionOf[dappboxfolder].isWriteRestricted[_delegate] = true;\n          permissionOf[dappboxfolder].writeTime[_delegate].fromTime = _fromTime;\n          permissionOf[dappboxfolder].writeTime[_delegate].toTime = _toTime;\n          success = true;\n          return success;\n        }else{\n          revert(\"Given Time Bounds are outside Base Time Bounds\");\n        }\n      }else{\n        revert(\"Base Permission Invalid or Expired\");\n      }\n    }else{\n      revert(\"Unexpected Failure\");\n    }\n  }\n  /**\n  * @dev use to delegate read access to any ethereum address\n  * @param _delegate Ethereum address to whom permission is to be delegated\n  * @param dappboxfolder hash of the document\n  */\n  function delegatePermanentReadFolder(address dAppBoxOrigin,address _delegate, address dappboxfolder) public{\n    require(msg.sender == dAppBoxOrigin,\"authentication failed\");\n    require(folderExists(dappboxfolder), \"Document does not exist\");\n    require(checkPermission(_delegate, dappboxfolder) == PermissionType.none, \"Delegate already exists\");\n    PermissionType permissionOfCaller = checkPermission(msg.sender, dappboxfolder);\n    require(permissionOfCaller != PermissionType.none, \"Access Denied\");\n    pushAddress(_delegate);\n    permissionOf[dappboxfolder].isBaseRestricted[_delegate] = false;\n    permissionOf[dappboxfolder].read[_delegate] = true;\n    permissionOf[dappboxfolder].readLength++;\n    transferFolder( dappboxfolder, msg.sender, _delegate, permissionOfCaller, PermissionType.read);\n  }\n\n\n  /**\n  * @dev use to remove read access of any ethereum address\n  * @param _delegate Ethereum address of whos permission is to be removed\n  * @param dappboxfolder hash of the document\n  */\n  function removePermanentReadFolder(address dAppBoxOrigin ,address _delegate, address dappboxfolder) public{\n    require(msg.sender == dAppBoxOrigin ,\"authentication failed\");\n    require(folderExists(dappboxfolder), \"Document does not exist\");\n    require(checkPermission(_delegate, dappboxfolder) == PermissionType.read, \"Delegate does not exist.\");\n    PermissionType permissionOfCaller = checkPermission(msg.sender, dappboxfolder);\n    require(permissionOfCaller != PermissionType.read && permissionOfCaller != PermissionType.none, \"Access Denied\");\n\n    permissionOf[dappboxfolder].read[_delegate] = false;\n    permissionOf[dappboxfolder].readLength--;\n    transferFolder( dappboxfolder, msg.sender, _delegate, permissionOfCaller, PermissionType.none);\n  }\n  /**\n  * @dev use to delegate Read permission with time bounds\n  * @param _delegate Ethereum address to whom permission is to be delegated\n  * @param dappboxfolder hash of the document\n  * @param _fromTime Time from which the delegate has access\n  * @param _toTime Time till which the delegate has access\n  */\n  function delegateTimeRestrictedReadFolder(address dAppBoxOrigin ,address _delegate, address dappboxfolder, uint256 _fromTime, uint256 _toTime) public{\n    require(msg.sender == dAppBoxOrigin , \"authentication failed\");\n    require(folderExists(dappboxfolder), \"Document does not exist\");\n    require(block.timestamp <= _fromTime && _fromTime < _toTime, \"Invalid time bounds.\" );\n    require(checkPermission(_delegate,dappboxfolder) == PermissionType.none, \"Delegate already exists.\");\n    PermissionType permissionOfCaller = checkPermission(msg.sender, dappboxfolder);\n    require(permissionOfCaller != PermissionType.none, \"Access Denied\");\n    pushAddress(_delegate);\n    if(permissionOf[dappboxfolder].DelegatedOwnersTime[_delegate].toTime < block.timestamp &&  permissionOf[dappboxfolder].writeTime[_delegate].toTime < block.timestamp){\n      permissionOf[dappboxfolder].isBaseRestricted[_delegate] = true;\n      permissionOf[dappboxfolder].isReadRestricted[_delegate] = true;\n      permissionOf[dappboxfolder].readTime[_delegate].fromTime = _fromTime;\n      permissionOf[dappboxfolder].readTime[_delegate].toTime = _toTime;\n      emit TimeRestrictedPermission(block.number, block.timestamp, dappboxfolder, msg.sender, _delegate, permissionOfCaller, PermissionType.read, _fromTime, _toTime);\n    }else{\n      revert(\"Delegate already exists\");\n    }\n  }\n  /**\n  * @dev use to remove Read permission with time bounds\n  * @param _delegate Ethereum address to whom permission is to be delegated\n  * @param dappboxfolder hash of the document\n  */\n  function removeTimeRestrictedReadFolder(address dAppBoxOrigin, address _delegate, address dappboxfolder) public{\n    require(msg.sender == dAppBoxOrigin ,\"failed authentication\");\n    require(folderExists(dappboxfolder), \"Document does not exist\");\n    require(permissionOf[dappboxfolder].isReadRestricted[_delegate] == true, \"Delegate does not exist.\");\n    PermissionType permissionOfCaller = checkPermission(msg.sender, dappboxfolder);\n    require(permissionOfCaller != PermissionType.read && permissionOfCaller != PermissionType.none, \"Access Denied\");\n\n    permissionOf[dappboxfolder].isReadRestricted[_delegate] = false;\n    permissionOf[dappboxfolder].readTime[_delegate].fromTime = 0;\n    permissionOf[dappboxfolder].readTime[_delegate].toTime = 0;\n    emit TimeRestrictedPermission(block.number, block.timestamp, dappboxfolder, msg.sender, _delegate, permissionOfCaller, PermissionType.none, 0, 0);\n  }\n\n  function getFolderRights(address dappboxfolder, uint index) view public returns(address accountAddress, PermissionType permpermission, uint256[] memory, uint256[] memory, uint256[] memory, bool next){\n    require(folderExists(dappboxfolder), \"Folder does not exist\");\n    address  delegateAddress = permissionAddresses[index]; \n    PermissionType permanent = checkPermanentPermission(delegateAddress, dappboxfolder);\n    uint256[] memory ownerTimeBound = new uint256[](2); \n    ownerTimeBound[0] = permissionOf[dappboxfolder].DelegatedOwnersTime[delegateAddress].fromTime;\n    ownerTimeBound[1] = permissionOf[dappboxfolder].DelegatedOwnersTime[delegateAddress].toTime;\n    uint256[] memory writeTimeBound = new uint256[](2); \n    writeTimeBound[0] = permissionOf[dappboxfolder].writeTime[delegateAddress].fromTime;\n    writeTimeBound[1] = permissionOf[dappboxfolder].writeTime[delegateAddress].toTime;\n    uint256[] memory readTimeBound = new uint256[](2); \n    readTimeBound[0] = permissionOf[dappboxfolder].readTime[delegateAddress].fromTime;\n    readTimeBound[1] = permissionOf[dappboxfolder].readTime[delegateAddress].toTime;\n    if (permissionAddresses.length - 1 > index) {\n      return (delegateAddress, permanent, ownerTimeBound, writeTimeBound, readTimeBound, true);\n    } else {\n      return (delegateAddress, permanent, ownerTimeBound, writeTimeBound, readTimeBound, false);\n    }\n  }\n}\n",
  "sourcePath": "/home/sagar/Desktop/delivery final/28_may_ixxo_allsmart_contract/ixxo_smartcontracts/AccessRight/PermissionManagementComplete/contracts/FolderPermissionManagement/FolderPermissionManagement.sol",
  "compiler": {
    "name": "solc",
    "version": "0.5.0+commit.1d4f565a.Emscripten.clang"
  },
  "schemaVersion": "3.0.6",
  "updatedAt": "2019-05-28T08:56:59.356Z",
  "devdoc": {
    "author": "Ashwin Arora",
    "methods": {
      "changeMasterFolder(address,address,address)": {
        "details": "used to chang the master, caller will loose master access and _delegate will gain master access",
        "params": {
          "_delegate": "Ethereum address to whom permission is to be delegated",
          "dappboxfolder": "hash of the document"
        }
      },
      "checkDelegatePermissionFolder(address,address)": {
        "details": "use to check what permissions the delegate hash",
        "params": {
          "_delegate": "Ethereum address of whos permission is to be checked",
          "dappboxfolder": "hash of the document"
        }
      },
      "checkYourPermissionFolder(address)": {
        "details": "use to check what permissions the caller hash",
        "params": {
          "dappboxfolder": "hash of the document"
        }
      },
      "delegatePermanentOwnerFolder(address,address,address)": {
        "details": "use to delegate owner access to any ethereum address",
        "params": {
          "_delegate": "Ethereum address to whom permission is to be delegated",
          "dappboxfolder": "hash of the document"
        }
      },
      "delegatePermanentReadFolder(address,address,address)": {
        "details": "use to delegate read access to any ethereum address",
        "params": {
          "_delegate": "Ethereum address to whom permission is to be delegated",
          "dappboxfolder": "hash of the document"
        }
      },
      "delegatePermanentWriteFolder(address,address,address)": {
        "details": "use to delegate write access to any ethereum address",
        "params": {
          "_delegate": "Ethereum address to whom permission is to be delegated",
          "dappboxfolder": "hash of the document"
        }
      },
      "delegateTimeRestrictedOwnerFolder(address,address,address,uint256,uint256)": {
        "details": "use to delegate owner permission with time bounds",
        "params": {
          "_delegate": "Ethereum address to whom permission is to be delegated",
          "_fromTime": "Time from which the delegate has access",
          "_toTime": "Time till which the delegate has access",
          "dappboxfolder": "hash of the document"
        }
      },
      "delegateTimeRestrictedReadFolder(address,address,address,uint256,uint256)": {
        "details": "use to delegate Read permission with time bounds",
        "params": {
          "_delegate": "Ethereum address to whom permission is to be delegated",
          "_fromTime": "Time from which the delegate has access",
          "_toTime": "Time till which the delegate has access",
          "dappboxfolder": "hash of the document"
        }
      },
      "delegateTimeRestrictedWriteFolder(address,address,address,uint256,uint256)": {
        "details": "use to delegate write permission with time bounds",
        "params": {
          "_delegate": "Ethereum address to whom permission is to be delegated",
          "_fromTime": "Time from which the delegate has access",
          "_toTime": "Time till which the delegate has access",
          "dappboxfolder": "hash of the document"
        }
      },
      "newFolder(address)": {
        "details": "use to create a new document with new hash",
        "params": {
          "dappboxfolder": "hash of the document"
        }
      },
      "removePermanentOwnerFolder(address,address,address)": {
        "details": "use to remove owner access of existing owner",
        "params": {
          "_delegate": "Ethereum address to whom permission is to be delegated",
          "dappboxfolder": "hash of the document"
        }
      },
      "removePermanentReadFolder(address,address,address)": {
        "details": "use to remove read access of any ethereum address",
        "params": {
          "_delegate": "Ethereum address of whos permission is to be removed",
          "dappboxfolder": "hash of the document"
        }
      },
      "removePermanentWriteFolder(address,address,address)": {
        "details": "use to remove write access of any ethereum address",
        "params": {
          "_delegate": "Ethereum address of whos permission is to be removed",
          "dappboxfolder": "hash of the document"
        }
      },
      "removeTimeRestrictedOwnerFolder(address,address,address)": {
        "details": "use to remove Owner permission with time bounds",
        "params": {
          "_delegate": "Ethereum address to whom permission is to be delegated",
          "dappboxfolder": "hash of the document"
        }
      },
      "removeTimeRestrictedReadFolder(address,address,address)": {
        "details": "use to remove Read permission with time bounds",
        "params": {
          "_delegate": "Ethereum address to whom permission is to be delegated",
          "dappboxfolder": "hash of the document"
        }
      },
      "removeTimeRestrictedWriteFolder(address,address,address)": {
        "details": "use to remove write permission with time bounds",
        "params": {
          "_delegate": "Ethereum address to whom permission is to be delegated",
          "dappboxfolder": "hash of the document"
        }
      },
      "upgradeToOwner(address,address,address,uint256,uint256)": {
        "details": "use to temporarily upgrade read or write access of an address to owner access",
        "params": {
          "_delegate": "Ethereum address whos permission is to be temporarily upgarded",
          "_folderAddress": "folderAddress of the document",
          "_fromTime": "Time from which the delegate has upgraded write access",
          "_toTime": "Time till which the delegate has upgraded write access"
        }
      },
      "upgradeToWriteFolder(address,address,address,uint256,uint256)": {
        "details": "use to temporarily upgrade read access of an address to write access",
        "params": {
          "_delegate": "Ethereum address whos permission is to be temporarily upgarded",
          "_fromTime": "Time from which the delegate has upgraded write access",
          "_toTime": "Time till which the delegate has upgraded write access",
          "dappboxfolder": "hash of the document"
        }
      }
    },
    "title": "PermissionManagement"
  },
  "userdoc": {
    "methods": {}
  }
}