{
  "contractName": "FolderNotarizationManagement",
  "abi": [
    {
      "constant": true,
      "inputs": [
        {
          "name": "",
          "type": "address"
        }
      ],
      "name": "usedFolders",
      "outputs": [
        {
          "name": "",
          "type": "bool"
        }
      ],
      "payable": false,
      "stateMutability": "view",
      "type": "function"
    },
    {
      "anonymous": false,
      "inputs": [
        {
          "indexed": false,
          "name": "blockNumber",
          "type": "uint256"
        },
        {
          "indexed": false,
          "name": "blockTimeStamp",
          "type": "uint256"
        },
        {
          "indexed": false,
          "name": "dappboxfolder",
          "type": "address"
        },
        {
          "indexed": false,
          "name": "from",
          "type": "address"
        },
        {
          "indexed": false,
          "name": "to",
          "type": "address"
        },
        {
          "indexed": false,
          "name": "permissionOfFrom",
          "type": "uint8"
        },
        {
          "indexed": false,
          "name": "permissionOfTo",
          "type": "uint8"
        }
      ],
      "name": "FolderEvent",
      "type": "event"
    }
  ],
  "bytecode": "0x608060405234801561001057600080fd5b5060d48061001f6000396000f3fe608060405260043610603e5763ffffffff7c0100000000000000000000000000000000000000000000000000000000600035041663885a097381146043575b600080fd5b348015604e57600080fd5b50607f60048036036020811015606357600080fd5b503573ffffffffffffffffffffffffffffffffffffffff166093565b604080519115158252519081900360200190f35b60036020526000908152604090205460ff168156fea165627a7a72305820fa58db690cd4d590415a475e35f241918948d803cbabf30f5447499941d8b2330029",
  "source": "pragma solidity >=0.4.21 <0.6.0;\n\ncontract FolderNotarizationManagement{\n  address owner;\n\n  uint folderCount;\n\n  enum PermissionType {master, owner, write, read, none}\n\n\n   struct FolderAccessRight {\n    uint blockNumber;\n    uint timestamp;\n    address dappboxfolder;\n    address from;\n    address to;\n    PermissionType permissionOfFrom;\n    PermissionType permissionOfTo;\n  }\n\n  FolderAccessRight[] foldhistory;\n  \n  mapping(address => bool) public usedFolders;\n\n   event FolderEvent(uint blockNumber, uint blockTimeStamp, address dappboxfolder, address from, address to, PermissionType permissionOfFrom, PermissionType permissionOfTo);\n\n  /**\n  * @dev use to add history of transfers and emit transfer event\n  * @param dappboxfolder dappbox folder address\n  * @param _from address from whom the transfer is originated\n  * @param _to addess to whom transfer is done\n  * @param _permissionOfFrom enum PermissionType of delegator\n  * @param _permissionOfFrom enum PermissionType of delegated\n  */\n\n  function transferFolder(address dappboxfolder, address _from, address _to, PermissionType _permissionOfFrom, PermissionType _permissionOfTo) internal{\n    foldhistory.push(FolderAccessRight(block.number, block.timestamp, dappboxfolder, _from, _to, _permissionOfFrom, _permissionOfTo));\n    emit FolderEvent(block.number, block.timestamp,  dappboxfolder, _from, _to, _permissionOfFrom, _permissionOfTo);\n  }\n  \n  /**\n  * @dev use to check if the documents exists or not\n  * @param dappboxfolder dappbox folder address\n  */\n  \n  function folderExists(address dappboxfolder) view internal returns (bool exists){\n    if (usedFolders[dappboxfolder]) {\n      exists = true;\n    }else{\n      exists= false;\n    }\n    return exists;\n  }\n\n  /**\n  * @dev returns the total number of documents/hashes\n  */\n  function getLatest() view internal returns (uint latest){\n      return folderCount;\n      \n  }\n}\n",
  "sourcePath": "/home/sagar/Desktop/delivery final/28_may_ixxo_allsmart_contract/ixxo_smartcontracts/AccessRight/PermissionManagementComplete/contracts/FolderPermissionManagement/FolderNotarizationManagement.sol",
  "compiler": {
    "name": "solc",
    "version": "0.5.0+commit.1d4f565a.Emscripten.clang"
  },
  "schemaVersion": "3.0.6",
  "updatedAt": "2019-05-28T08:56:59.332Z",
  "devdoc": {
    "methods": {}
  },
  "userdoc": {
    "methods": {}
  }
}