{
  "contractName": "NotarizationManagement",
  "abi": [
    {
      "constant": true,
      "inputs": [
        {
          "name": "",
          "type": "address"
        }
      ],
      "name": "usedFolders",
      "outputs": [
        {
          "name": "",
          "type": "bool"
        }
      ],
      "payable": false,
      "stateMutability": "view",
      "type": "function"
    },
    {
      "constant": true,
      "inputs": [
        {
          "name": "",
          "type": "bytes32"
        }
      ],
      "name": "usedHashes",
      "outputs": [
        {
          "name": "",
          "type": "bool"
        }
      ],
      "payable": false,
      "stateMutability": "view",
      "type": "function"
    },
    {
      "anonymous": false,
      "inputs": [
        {
          "indexed": false,
          "name": "blockNumber",
          "type": "uint256"
        },
        {
          "indexed": false,
          "name": "blockTimeStamp",
          "type": "uint256"
        },
        {
          "indexed": false,
          "name": "_hash",
          "type": "bytes32"
        },
        {
          "indexed": false,
          "name": "from",
          "type": "address"
        },
        {
          "indexed": false,
          "name": "to",
          "type": "address"
        },
        {
          "indexed": false,
          "name": "permissionOfFrom",
          "type": "uint8"
        },
        {
          "indexed": false,
          "name": "permissionOfTo",
          "type": "uint8"
        }
      ],
      "name": "DocumentEvent",
      "type": "event"
    },
    {
      "anonymous": false,
      "inputs": [
        {
          "indexed": false,
          "name": "blockNumber",
          "type": "uint256"
        },
        {
          "indexed": false,
          "name": "blockTimeStamp",
          "type": "uint256"
        },
        {
          "indexed": false,
          "name": "dappboxfolder",
          "type": "address"
        },
        {
          "indexed": false,
          "name": "from",
          "type": "address"
        },
        {
          "indexed": false,
          "name": "to",
          "type": "address"
        },
        {
          "indexed": false,
          "name": "permissionOfFrom",
          "type": "uint8"
        },
        {
          "indexed": false,
          "name": "permissionOfTo",
          "type": "uint8"
        }
      ],
      "name": "FolderEvent",
      "type": "event"
    }
  ],
  "bytecode": "0x608060405234801561001057600080fd5b50610119806100206000396000f3fe60806040526004361060485763ffffffff7c0100000000000000000000000000000000000000000000000000000000600035041663885a09738114604d578063aef18bf714609d575b600080fd5b348015605857600080fd5b50608960048036036020811015606d57600080fd5b503573ffffffffffffffffffffffffffffffffffffffff1660c3565b604080519115158252519081900360200190f35b34801560a857600080fd5b5060896004803603602081101560bd57600080fd5b503560d8565b60066020526000908152604090205460ff1681565b60056020526000908152604090205460ff168156fea165627a7a723058208efe4ceb59396254089caf5b9322ec1d98d8f894ec9e7dc5abc1e989f1a5aab60029",
  "source": "pragma solidity >=0.4.21 <0.6.0;\n\ncontract NotarizationManagement{\n  address owner;\n\n  uint documentCount;\n  uint folderCount;\n\n  enum PermissionType {master, owner, write, read, none}\n\n  struct DocumentAccessRight {\n    uint blockNumber;\n    uint timestamp;\n    bytes32 hash;\n    address from;\n    address to;\n    PermissionType permissionOfFrom;\n    PermissionType permissionOfTo;\n  }\n   struct FolderAccessRight {\n    uint blockNumber;\n    uint timestamp;\n    address dappboxfolder;\n    address from;\n    address to;\n    PermissionType permissionOfFrom;\n    PermissionType permissionOfTo;\n  }\n\n  DocumentAccessRight[] dochistory;\n  FolderAccessRight[] foldhistory;\n  \n\n  mapping(bytes32 => bool) public usedHashes;\n  mapping(address => bool) public usedFolders;\n\n  event DocumentEvent(uint blockNumber, uint blockTimeStamp, bytes32 _hash, address from, address to, PermissionType permissionOfFrom, PermissionType permissionOfTo);\n  event FolderEvent(uint blockNumber, uint blockTimeStamp, address dappboxfolder, address from, address to, PermissionType permissionOfFrom, PermissionType permissionOfTo);\n\n  /**\n  * @dev use to add history of transfers and emit transfer event\n  * @param _hash hash of the document\n  * @param _from address from whom the transfer is originated\n  * @param _to addess to whom transfer is done\n  * @param _permissionOfFrom enum PermissionType of delegator\n  * @param _permissionOfFrom enum PermissionType of delegated\n  */\n  function transferDocument(bytes32 _hash, address _from, address _to, PermissionType _permissionOfFrom, PermissionType _permissionOfTo) internal{\n    dochistory.push(DocumentAccessRight(block.number, block.timestamp, _hash, _from, _to, _permissionOfFrom, _permissionOfTo));\n    emit DocumentEvent(block.number, block.timestamp,  _hash, _from, _to, _permissionOfFrom, _permissionOfTo);\n  }\n\n  function transferFolder(address dappboxfolder, address _from, address _to, PermissionType _permissionOfFrom, PermissionType _permissionOfTo) internal{\n    foldhistory.push(FolderAccessRight(block.number, block.timestamp, dappboxfolder, _from, _to, _permissionOfFrom, _permissionOfTo));\n    emit FolderEvent(block.number, block.timestamp,  dappboxfolder, _from, _to, _permissionOfFrom, _permissionOfTo);\n  }\n  \n  /**\n  * @dev use to check if the documents exists or not\n  * @param _hash hash of the document\n  */\n  function documentExists(bytes32 _hash) view internal returns (bool exists){\n    if (usedHashes[_hash]) {\n      exists = true;\n    }else{\n      exists= false;\n    }\n    return exists;\n  }\n  \n  function folderExists(address dappboxfolder) view internal returns (bool exists){\n    if (usedFolders[dappboxfolder]) {\n      exists = true;\n    }else{\n      exists= false;\n    }\n    return exists;\n  }\n\n  /**\n  * @dev returns the total number of documents/hashes\n  */\n  function getLatest() view internal returns (uint latest){\n      return documentCount;\n      return folderCount;\n      \n  }\n}\n",
  "sourcePath": "/home/sagar/Desktop/delivery final/28_may_ixxo_allsmart_contract/ixxo_smartcontracts/AccessRight/PermissionManagementComplete/contracts/NotarizationManagement.sol",
  "compiler": {
    "name": "solc",
    "version": "0.5.0+commit.1d4f565a.Emscripten.clang"
  },
  "schemaVersion": "3.0.6",
  "updatedAt": "2019-05-28T08:56:12.923Z",
  "devdoc": {
    "methods": {}
  },
  "userdoc": {
    "methods": {}
  }
}