{
  "contractName": "TokenProvider",
  "abi": [
    {
      "constant": true,
      "inputs": [],
      "name": "masterDappbox",
      "outputs": [
        {
          "name": "",
          "type": "address"
        }
      ],
      "payable": false,
      "stateMutability": "view",
      "type": "function"
    },
    {
      "constant": true,
      "inputs": [],
      "name": "owner",
      "outputs": [
        {
          "name": "",
          "type": "address"
        }
      ],
      "payable": false,
      "stateMutability": "view",
      "type": "function"
    },
    {
      "constant": false,
      "inputs": [
        {
          "name": "_url",
          "type": "string"
        }
      ],
      "name": "verifyAndSend",
      "outputs": [
        {
          "name": "",
          "type": "bool"
        }
      ],
      "payable": true,
      "stateMutability": "payable",
      "type": "function"
    },
    {
      "constant": true,
      "inputs": [
        {
          "name": "index",
          "type": "uint256"
        }
      ],
      "name": "getAllPreviousTransaction",
      "outputs": [
        {
          "name": "",
          "type": "address"
        },
        {
          "name": "",
          "type": "address"
        },
        {
          "name": "",
          "type": "uint256"
        },
        {
          "name": "",
          "type": "bool"
        },
        {
          "name": "",
          "type": "bool"
        }
      ],
      "payable": false,
      "stateMutability": "view",
      "type": "function"
    },
    {
      "constant": true,
      "inputs": [
        {
          "name": "user",
          "type": "string"
        },
        {
          "name": "index",
          "type": "uint256"
        }
      ],
      "name": "getAllPreviousTransactionOfUser",
      "outputs": [
        {
          "name": "",
          "type": "address"
        },
        {
          "name": "",
          "type": "address"
        },
        {
          "name": "",
          "type": "uint256"
        },
        {
          "name": "",
          "type": "bool"
        },
        {
          "name": "",
          "type": "bool"
        }
      ],
      "payable": false,
      "stateMutability": "view",
      "type": "function"
    },
    {
      "constant": false,
      "inputs": [
        {
          "name": "_url",
          "type": "string"
        },
        {
          "name": "_address",
          "type": "address"
        },
        {
          "name": "_rawhash",
          "type": "bytes32"
        },
        {
          "name": "_signedMesaage",
          "type": "bytes"
        }
      ],
      "name": "addDeviceTempAccountInfo",
      "outputs": [],
      "payable": false,
      "stateMutability": "nonpayable",
      "type": "function"
    },
    {
      "constant": true,
      "inputs": [
        {
          "name": "_url",
          "type": "string"
        }
      ],
      "name": "getUsersTempInfo",
      "outputs": [
        {
          "name": "",
          "type": "address"
        },
        {
          "name": "",
          "type": "bytes32"
        },
        {
          "name": "",
          "type": "bytes"
        }
      ],
      "payable": false,
      "stateMutability": "view",
      "type": "function"
    },
    {
      "constant": false,
      "inputs": [
        {
          "name": "url",
          "type": "string"
        },
        {
          "name": "reciever",
          "type": "address"
        }
      ],
      "name": "sendToken",
      "outputs": [
        {
          "name": "",
          "type": "bool"
        }
      ],
      "payable": true,
      "stateMutability": "payable",
      "type": "function"
    },
    {
      "constant": false,
      "inputs": [
        {
          "name": "dAppBoxAddress",
          "type": "address"
        }
      ],
      "name": "addOrChangeMasterDappboxAddress",
      "outputs": [
        {
          "name": "",
          "type": "bool"
        }
      ],
      "payable": false,
      "stateMutability": "nonpayable",
      "type": "function"
    },
    {
      "constant": true,
      "inputs": [
        {
          "name": "dAppBoxUrl",
          "type": "string"
        }
      ],
      "name": "isInitDone",
      "outputs": [
        {
          "name": "",
          "type": "bool"
        }
      ],
      "payable": false,
      "stateMutability": "view",
      "type": "function"
    }
  ],
  "bytecode": "0x608060405233600160006101000a81548173ffffffffffffffffffffffffffffffffffffffff021916908373ffffffffffffffffffffffffffffffffffffffff16021790555034801561005157600080fd5b506122af806100616000396000f3fe6080604052600436106100a4576000357c0100000000000000000000000000000000000000000000000000000000900463ffffffff168063079c1f6b146100a957806316241ae01461020b57806327b3318d1461039457806356f27fa114610425578063590cf88b1461048e5780638da5cb5b146104e55780639c4bd5051461053c578063a64a7f521461062f578063f3e20a9c146107aa578063fdc5f6711461088a575b600080fd5b3480156100b557600080fd5b50610179600480360360408110156100cc57600080fd5b81019080803590602001906401000000008111156100e957600080fd5b8201836020820111156100fb57600080fd5b8035906020019184600183028401116401000000008311171561011d57600080fd5b91908080601f016020809104026020016040519081016040528093929190818152602001838380828437600081840152601f19601f82011690508083019250505050505050919291929080359060200190929190505050610955565b604051808673ffffffffffffffffffffffffffffffffffffffff1673ffffffffffffffffffffffffffffffffffffffff1681526020018573ffffffffffffffffffffffffffffffffffffffff1673ffffffffffffffffffffffffffffffffffffffff16815260200184815260200183151515158152602001821515151581526020019550505050505060405180910390f35b34801561021757600080fd5b506103926004803603608081101561022e57600080fd5b810190808035906020019064010000000081111561024b57600080fd5b82018360208201111561025d57600080fd5b8035906020019184600183028401116401000000008311171561027f57600080fd5b91908080601f016020809104026020016040519081016040528093929190818152602001838380828437600081840152601f19601f820116905080830192505050505050509192919290803573ffffffffffffffffffffffffffffffffffffffff169060200190929190803590602001909291908035906020019064010000000081111561030c57600080fd5b82018360208201111561031e57600080fd5b8035906020019184600183028401116401000000008311171561034057600080fd5b91908080601f016020809104026020016040519081016040528093929190818152602001838380828437600081840152601f19601f820116905080830192505050505050509192919290505050610d13565b005b61040b600480360360208110156103aa57600080fd5b81019080803590602001906401000000008111156103c757600080fd5b8201836020820111156103d957600080fd5b803590602001918460018302840111640100000000831117156103fb57600080fd5b9091929391929390505050610e4a565b604051808215151515815260200191505060405180910390f35b34801561043157600080fd5b506104746004803603602081101561044857600080fd5b81019080803573ffffffffffffffffffffffffffffffffffffffff169060200190929190505050611562565b604051808215151515815260200191505060405180910390f35b34801561049a57600080fd5b506104a3611673565b604051808273ffffffffffffffffffffffffffffffffffffffff1673ffffffffffffffffffffffffffffffffffffffff16815260200191505060405180910390f35b3480156104f157600080fd5b506104fa611699565b604051808273ffffffffffffffffffffffffffffffffffffffff1673ffffffffffffffffffffffffffffffffffffffff16815260200191505060405180910390f35b6106156004803603604081101561055257600080fd5b810190808035906020019064010000000081111561056f57600080fd5b82018360208201111561058157600080fd5b803590602001918460018302840111640100000000831117156105a357600080fd5b91908080601f016020809104026020016040519081016040528093929190818152602001838380828437600081840152601f19601f820116905080830192505050505050509192919290803573ffffffffffffffffffffffffffffffffffffffff1690602001909291905050506116bf565b604051808215151515815260200191505060405180910390f35b34801561063b57600080fd5b506106f56004803603602081101561065257600080fd5b810190808035906020019064010000000081111561066f57600080fd5b82018360208201111561068157600080fd5b803590602001918460018302840111640100000000831117156106a357600080fd5b91908080601f016020809104026020016040519081016040528093929190818152602001838380828437600081840152601f19601f820116905080830192505050505050509192919290505050611c79565b604051808473ffffffffffffffffffffffffffffffffffffffff1673ffffffffffffffffffffffffffffffffffffffff16815260200183815260200180602001828103825283818151815260200191508051906020019080838360005b8381101561076d578082015181840152602081019050610752565b50505050905090810190601f16801561079a5780820380516001836020036101000a031916815260200191505b5094505050505060405180910390f35b3480156107b657600080fd5b50610870600480360360208110156107cd57600080fd5b81019080803590602001906401000000008111156107ea57600080fd5b8201836020820111156107fc57600080fd5b8035906020019184600183028401116401000000008311171561081e57600080fd5b91908080601f016020809104026020016040519081016040528093929190818152602001838380828437600081840152601f19601f820116905080830192505050505050509192919290505050611e96565b604051808215151515815260200191505060405180910390f35b34801561089657600080fd5b506108c3600480360360208110156108ad57600080fd5b8101908080359060200190929190505050611f1d565b604051808673ffffffffffffffffffffffffffffffffffffffff1673ffffffffffffffffffffffffffffffffffffffff1681526020018573ffffffffffffffffffffffffffffffffffffffff1673ffffffffffffffffffffffffffffffffffffffff16815260200184815260200183151515158152602001821515151581526020019550505050505060405180910390f35b6000806000806000856004886040518082805190602001908083835b6020831015156109965780518252602082019150602081019050602083039250610971565b6001836020036101000a0380198251168184511680821785525050505050509050019150509081526020016040518091039020805490501115610d085760006004886040518082805190602001908083835b602083101515610a0d57805182526020820191506020810190506020830392506109e8565b6001836020036101000a038019825116818451168082178552505050505050905001915050908152602001604051809103902087815481101515610a4d57fe5b906000526020600020906004020160000160009054906101000a900473ffffffffffffffffffffffffffffffffffffffff16905060006004896040518082805190602001908083835b602083101515610abb5780518252602082019150602081019050602083039250610a96565b6001836020036101000a038019825116818451168082178552505050505050905001915050908152602001604051809103902088815481101515610afb57fe5b906000526020600020906004020160010160009054906101000a900473ffffffffffffffffffffffffffffffffffffffff169050600060048a6040518082805190602001908083835b602083101515610b695780518252602082019150602081019050602083039250610b44565b6001836020036101000a038019825116818451168082178552505050505050905001915050908152602001604051809103902089815481101515610ba957fe5b9060005260206000209060040201600201549050600060048b6040518082805190602001908083835b602083101515610bf75780518252602082019150602081019050602083039250610bd2565b6001836020036101000a03801982511681845116808217855250505050505090500191505090815260200160405180910390208a815481101515610c3757fe5b906000526020600020906004020160030160009054906101000a900460ff16905089806001019a505060048b6040518082805190602001908083835b602083101515610c985780518252602082019150602081019050602083039250610c73565b6001836020036101000a0380198251168184511680821785525050505050509050019150509081526020016040518091039020805490508a1015610cef578383838360019850985098509850985050505050610d09565b8383838360009850985098509850985050505050610d09565b5b9295509295909350565b610d1b61214c565b83816000019073ffffffffffffffffffffffffffffffffffffffff16908173ffffffffffffffffffffffffffffffffffffffff168152505082816020018181525050818160400181905250806003866040518082805190602001908083835b602083101515610d9f5780518252602082019150602081019050602083039250610d7a565b6001836020036101000a038019825116818451168082178552505050505050905001915050908152602001604051809103902060008201518160000160006101000a81548173ffffffffffffffffffffffffffffffffffffffff021916908373ffffffffffffffffffffffffffffffffffffffff160217905550602082015181600101556040820151816002019080519060200190610e3f929190612187565b509050505050505050565b600080600160009054906101000a900473ffffffffffffffffffffffffffffffffffffffff1673ffffffffffffffffffffffffffffffffffffffff163373ffffffffffffffffffffffffffffffffffffffff161480610ef65750600260009054906101000a900473ffffffffffffffffffffffffffffffffffffffff1673ffffffffffffffffffffffffffffffffffffffff163373ffffffffffffffffffffffffffffffffffffffff16145b905060011515811515141515610f74576040517f08c379a00000000000000000000000000000000000000000000000000000000081526004018080602001828103825260148152602001807f617574686f72697a6174696f6e206661696c656400000000000000000000000081525060200191505060405180910390fd5b600060038585604051808383808284378083019250505092505050908152602001604051809103902060000160009054906101000a900473ffffffffffffffffffffffffffffffffffffffff169050600060038686604051808383808284378083019250505092505050908152602001604051809103902060010154905060606003878760405180838380828437808301925050509250505090815260200160405180910390206002018054600181600116156101000203166002900480601f0160208091040260200160405190810160405280929190818152602001828054600181600116156101000203166002900480156110b25780601f10611087576101008083540402835291602001916110b2565b820191906000526020600020905b81548152906001019060200180831161109557829003601f168201915b50505050509050600073ffffffffffffffffffffffffffffffffffffffff168373ffffffffffffffffffffffffffffffffffffffff161415151561115e576040517f08c379a000000000000000000000000000000000000000000000000000000000815260040180806020018281038252600e8152602001807f55736572206e6f7420666f756e6400000000000000000000000000000000000081525060200191505060405180910390fd5b600061116a8383612068565b90506000611176612207565b33816000019073ffffffffffffffffffffffffffffffffffffffff16908173ffffffffffffffffffffffffffffffffffffffff168152505085816020019073ffffffffffffffffffffffffffffffffffffffff16908173ffffffffffffffffffffffffffffffffffffffff1681525050348160400181815250508273ffffffffffffffffffffffffffffffffffffffff168673ffffffffffffffffffffffffffffffffffffffff1614801561126357506000151560008b8b604051808383808284378083019250505092505050908152602001604051809103902060009054906101000a900460ff161515145b1561130757600191508573ffffffffffffffffffffffffffffffffffffffff166108fc349081150290604051600060405180830381858888f193505050501580156112b2573d6000803e3d6000fd5b50818160600190151590811515815250508160008b8b604051808383808284378083019250505092505050908152602001604051809103902060006101000a81548160ff02191690831515021790555061135b565b600091508160008b8b604051808383808284378083019250505092505050908152602001604051809103902060006101000a81548160ff021916908315150217905550818160600190151590811515815250505b60048a8a6040518083838082843780830192505050925050509081526020016040518091039020819080600181540180825580915050906001820390600052602060002090600402016000909192909190915060008201518160000160006101000a81548173ffffffffffffffffffffffffffffffffffffffff021916908373ffffffffffffffffffffffffffffffffffffffff16021790555060208201518160010160006101000a81548173ffffffffffffffffffffffffffffffffffffffff021916908373ffffffffffffffffffffffffffffffffffffffff1602179055506040820151816002015560608201518160030160006101000a81548160ff0219169083151502179055505050506005819080600181540180825580915050906001820390600052602060002090600402016000909192909190915060008201518160000160006101000a81548173ffffffffffffffffffffffffffffffffffffffff021916908373ffffffffffffffffffffffffffffffffffffffff16021790555060208201518160010160006101000a81548173ffffffffffffffffffffffffffffffffffffffff021916908373ffffffffffffffffffffffffffffffffffffffff1602179055506040820151816002015560608201518160030160006101000a81548160ff0219169083151502179055505050508197505050505050505092915050565b6000600160009054906101000a900473ffffffffffffffffffffffffffffffffffffffff1673ffffffffffffffffffffffffffffffffffffffff163373ffffffffffffffffffffffffffffffffffffffff16141515611629576040517f08c379a000000000000000000000000000000000000000000000000000000000815260040180806020018281038252600d8152602001807f4e6f7420746865206f776e65720000000000000000000000000000000000000081525060200191505060405180910390fd5b81600260006101000a81548173ffffffffffffffffffffffffffffffffffffffff021916908373ffffffffffffffffffffffffffffffffffffffff16021790555060019050919050565b600260009054906101000a900473ffffffffffffffffffffffffffffffffffffffff1681565b600160009054906101000a900473ffffffffffffffffffffffffffffffffffffffff1681565b600080600160009054906101000a900473ffffffffffffffffffffffffffffffffffffffff1673ffffffffffffffffffffffffffffffffffffffff163373ffffffffffffffffffffffffffffffffffffffff16148061176b5750600260009054906101000a900473ffffffffffffffffffffffffffffffffffffffff1673ffffffffffffffffffffffffffffffffffffffff163373ffffffffffffffffffffffffffffffffffffffff16145b9050600115158115151415156117e9576040517f08c379a00000000000000000000000000000000000000000000000000000000081526004018080602001828103825260148152602001807f617574686f72697a6174696f6e206661696c656400000000000000000000000081525060200191505060405180910390fd5b8273ffffffffffffffffffffffffffffffffffffffff163373ffffffffffffffffffffffffffffffffffffffff16141515156118b3576040517f08c379a000000000000000000000000000000000000000000000000000000000815260040180806020018281038252602b8152602001807f6d61737465722064417070426f782063616e6e6f742073656e6420746f6b656e81526020017f7320746f20697473656c6600000000000000000000000000000000000000000081525060400191505060405180910390fd5b600073ffffffffffffffffffffffffffffffffffffffff168373ffffffffffffffffffffffffffffffffffffffff1614151515611958576040517f08c379a000000000000000000000000000000000000000000000000000000000815260040180806020018281038252600e8152602001807f55736572206e6f7420666f756e6400000000000000000000000000000000000081525060200191505060405180910390fd5b611960612207565b8373ffffffffffffffffffffffffffffffffffffffff166108fc349081150290604051600060405180830381858888f193505050501580156119a6573d6000803e3d6000fd5b5033816000019073ffffffffffffffffffffffffffffffffffffffff16908173ffffffffffffffffffffffffffffffffffffffff168152505083816020019073ffffffffffffffffffffffffffffffffffffffff16908173ffffffffffffffffffffffffffffffffffffffff16815250503481604001818152505060018160600190151590811515815250506004856040518082805190602001908083835b602083101515611a6a5780518252602082019150602081019050602083039250611a45565b6001836020036101000a0380198251168184511680821785525050505050509050019150509081526020016040518091039020819080600181540180825580915050906001820390600052602060002090600402016000909192909190915060008201518160000160006101000a81548173ffffffffffffffffffffffffffffffffffffffff021916908373ffffffffffffffffffffffffffffffffffffffff16021790555060208201518160010160006101000a81548173ffffffffffffffffffffffffffffffffffffffff021916908373ffffffffffffffffffffffffffffffffffffffff1602179055506040820151816002015560608201518160030160006101000a81548160ff0219169083151502179055505050506005819080600181540180825580915050906001820390600052602060002090600402016000909192909190915060008201518160000160006101000a81548173ffffffffffffffffffffffffffffffffffffffff021916908373ffffffffffffffffffffffffffffffffffffffff16021790555060208201518160010160006101000a81548173ffffffffffffffffffffffffffffffffffffffff021916908373ffffffffffffffffffffffffffffffffffffffff1602179055506040820151816002015560608201518160030160006101000a81548160ff02191690831515021790555050505060019250505092915050565b60008060606003846040518082805190602001908083835b602083101515611cb65780518252602082019150602081019050602083039250611c91565b6001836020036101000a038019825116818451168082178552505050505050905001915050908152602001604051809103902060000160009054906101000a900473ffffffffffffffffffffffffffffffffffffffff166003856040518082805190602001908083835b602083101515611d455780518252602082019150602081019050602083039250611d20565b6001836020036101000a0380198251168184511680821785525050505050509050019150509081526020016040518091039020600101546003866040518082805190602001908083835b602083101515611db45780518252602082019150602081019050602083039250611d8f565b6001836020036101000a0380198251168184511680821785525050505050509050019150509081526020016040518091039020600201829250808054600181600116156101000203166002900480601f016020809104026020016040519081016040528092919081815260200182805460018160011615610100020316600290048015611e825780601f10611e5757610100808354040283529160200191611e82565b820191906000526020600020905b815481529060010190602001808311611e6557829003601f168201915b505050505090509250925092509193909250565b6000806000836040518082805190602001908083835b602083101515611ed15780518252602082019150602081019050602083039250611eac565b6001836020036101000a038019825116818451168082178552505050505050905001915050908152602001604051809103902060009054906101000a900460ff16905080915050919050565b60008060008060008560016005805490500310151561205e576000600587815481101515611f4757fe5b906000526020600020906004020160000160009054906101000a900473ffffffffffffffffffffffffffffffffffffffff1690506000600588815481101515611f8c57fe5b906000526020600020906004020160010160009054906101000a900473ffffffffffffffffffffffffffffffffffffffff1690506000600589815481101515611fd157fe5b9060005260206000209060040201600201549050600060058a815481101515611ff657fe5b906000526020600020906004020160030160009054906101000a900460ff16905089806001019a50506005805490508a101561204557838383836001985098509850985098505050505061205f565b838383836000985098509850985098505050505061205f565b5b91939590929450565b600080600080604185511415156120855760009350505050612146565b6020850151925060408501519150606085015160001a9050601b8160ff1610156120b057601b810190505b601b8160ff16141580156120c85750601c8160ff1614155b156120d95760009350505050612146565b60018682858560405160008152602001604052604051808581526020018460ff1660ff1681526020018381526020018281526020019450505050506020604051602081039080840390855afa158015612136573d6000803e3d6000fd5b5050506020604051035193505050505b92915050565b606060405190810160405280600073ffffffffffffffffffffffffffffffffffffffff16815260200160008019168152602001606081525090565b828054600181600116156101000203166002900490600052602060002090601f016020900481019282601f106121c857805160ff19168380011785556121f6565b828001600101855582156121f6579182015b828111156121f55782518255916020019190600101906121da565b5b509050612203919061225e565b5090565b608060405190810160405280600073ffffffffffffffffffffffffffffffffffffffff168152602001600073ffffffffffffffffffffffffffffffffffffffff168152602001600081526020016000151581525090565b61228091905b8082111561227c576000816000905550600101612264565b5090565b9056fea165627a7a723058203508cc2cba325f5896ab4ed16b4619b7e3dafe3369f367fe0518be8bd4664acc0029",
  "source": "pragma solidity >=0.4.24;\n\ncontract TokenProvider {\n\n  mapping(string => bool) InitialPaymentDone;\n\n  struct AllTransaction {\n    address Sender;\n    address Reciever;\n    uint256 TotalTokens;\n    bool Status;\n  }\n\n  address public owner = msg.sender;\n  address public masterDappbox ;\n\n  modifier onlyOwner {\n    require(msg.sender == owner,\"Not the owner\");\n    _;\n  }\n\n  modifier onlyAuthorized {\n    bool res = msg.sender==owner || msg.sender==masterDappbox;\n    require(res == true , \"authorization failed\");\n    _;\n  }\n  struct DappboxInfo {\n    address payable TempPublicAddress;\n    bytes32 RawHash;\n    bytes SignedMessage;\n  }\n  mapping(string=> DappboxInfo)  DappboxInfos;\n\n  mapping(string => AllTransaction[]) AllTransactionsOfAddress;\n  AllTransaction[] AllTransactions;\n\n\n  /**\n   * @dev Recover signer address from a message by using their signature\n   * @param hash bytes32 message, the hash is the signed message. What is recovered is the signer address.\n   * @param signature bytes signature, the signature is generated using web3.eth.sign()\n   */\n  function recoverAccount(bytes32 hash, bytes memory signature)\n    internal\n    pure\n    returns (address)\n  {\n    bytes32 r;\n    bytes32 s;\n    uint8 v;\n\n    if (signature.length != 65) {\n      return (address(0));\n    }\n\n    assembly {\n      r := mload(add(signature, 0x20))\n      s := mload(add(signature, 0x40))\n      v := byte(0, mload(add(signature, 0x60)))\n    }\n\n    if (v < 27) {\n      v += 27;\n    }\n\n    if (v != 27 && v != 28) {\n      return (address(0));\n    } else {\n      return ecrecover(hash, v, r, s);\n    }\n  }\n\n\n/**\n*@dev : Mechanism to verify the signature , if signature matched then transfer the tokens  \n */\n  function verifyAndSend(string calldata _url) external payable onlyAuthorized returns(bool) {\n      \n      address payable reciever; \n      reciever = DappboxInfos[_url].TempPublicAddress;\n      bytes32  hash = DappboxInfos[_url].RawHash;\n      bytes memory signature =  DappboxInfos[_url].SignedMessage;\n      require(reciever != address(0) ,\"User not found\");\n      address recoveredAddress = recoverAccount(hash, signature);\n      bool res;\n      AllTransaction memory currentInfo;\n      currentInfo.Sender = msg.sender;\n      currentInfo.Reciever = reciever;\n      currentInfo.TotalTokens = msg.value;\n\n      if(reciever == recoveredAddress && InitialPaymentDone[_url] == false) // if payment once done , user cannot request for initial payment again\n      {\n        res = true;\n        reciever.transfer(msg.value);\n        currentInfo.Status = res;\n        InitialPaymentDone[_url] = res;\n      }\n      else\n      {\n        res = false;\n        InitialPaymentDone[_url] = res;\n        currentInfo.Status =res;\n      }\n\n    AllTransactionsOfAddress[_url].push(currentInfo);\n    AllTransactions.push(currentInfo);   \n    return res;\n  }\n\n\n  function getAllPreviousTransaction(uint256 index) public view returns(address, address, uint256, bool, bool)\n  {\n    if ((AllTransactions.length -1) >= index)\n    {\n    address Sender = AllTransactions[index].Sender;\n    address Reciever = AllTransactions[index].Reciever;\n    uint256 TotalTokens = AllTransactions[index].TotalTokens;\n    bool Status = AllTransactions[index].Status;\n    index++;\n    if(index < AllTransactions.length)\n    {\n        return ( Sender, Reciever, TotalTokens,Status,true);\n    }else {\n      return ( Sender, Reciever, TotalTokens,Status,false);\n    }\n  }\n  }\n\n  function getAllPreviousTransactionOfUser(string memory user , uint256 index) public view returns(address,address,uint256,bool,bool) {\n    if (AllTransactionsOfAddress[user].length > index)\n    {\n    address sender = AllTransactionsOfAddress[user][index].Sender;\n    address reciever = AllTransactionsOfAddress[user][index].Reciever;\n    uint256 totalTokens = AllTransactionsOfAddress[user][index].TotalTokens;\n    bool status = AllTransactionsOfAddress[user][index].Status;\n    index++;\n    if(index < AllTransactionsOfAddress[user].length)\n    {\n        return ( sender, reciever, totalTokens,status,true);\n    }else {\n      return ( sender, reciever, totalTokens,status,false);\n    }\n  }\n}\n\n\n  function addDeviceTempAccountInfo(string memory _url, address payable _address, bytes32 _rawhash, bytes memory _signedMesaage) public   \n  {\n    DappboxInfo memory currentInfo;\n    currentInfo.TempPublicAddress = _address;\n    currentInfo.RawHash = _rawhash;\n    currentInfo.SignedMessage = _signedMesaage;\n    DappboxInfos[_url] = currentInfo;\n  }\n\n\n  function getUsersTempInfo(string memory _url) public view returns( address , bytes32 , bytes memory )\n  {\n      return(DappboxInfos[_url].TempPublicAddress,\n        DappboxInfos[_url].RawHash,\n        DappboxInfos[_url].SignedMessage);\n  }\n\n\n  function sendToken(string memory url, address payable reciever) public payable onlyAuthorized returns(bool) {\n        require(msg.sender != reciever, \"master dAppBox cannot send tokens to itself\");\n        require(reciever != address(0) ,\"User not found\");\n        AllTransaction memory currentInfo;\n        reciever.transfer(msg.value);\n        currentInfo.Sender = msg.sender;\n        currentInfo.Reciever = reciever;\n        currentInfo.TotalTokens = msg.value;\n        currentInfo.Status = true;\n        AllTransactionsOfAddress[url].push(currentInfo);\n        AllTransactions.push(currentInfo);\n        return true;\n\n    }\n\n\n  function addOrChangeMasterDappboxAddress(address dAppBoxAddress)public onlyOwner returns(bool)\n  {\n    masterDappbox = dAppBoxAddress;\n    return true;\n  }\n\n  function isInitDone(string memory dAppBoxUrl) public view returns(bool)\n  {\n    bool stat = InitialPaymentDone[dAppBoxUrl];\n    return stat; \n  }\n\n\n}",
  "sourcePath": "/home/sagar/go/src/github.com/AlphaDinoRC/ixxo_smartcontracts/TokenProvider/contracts/TokenProvider.sol",
  "compiler": {
    "name": "solc",
    "version": "0.5.0+commit.1d4f565a.Emscripten.clang"
  },
  "schemaVersion": "3.0.6",
  "updatedAt": "2019-10-09T13:44:08.257Z",
  "devdoc": {
    "methods": {}
  },
  "userdoc": {
    "methods": {
      "verifyAndSend(string)": {
        "notice": "dev : Mechanism to verify the signature , if signature matched then transfer the tokens  "
      }
    }
  }
}