{
  "contractName": "ERC1261MetaData",
  "abi": [
    {
      "constant": false,
      "inputs": [
        {
          "name": "_name",
          "type": "bytes32"
        },
        {
          "name": "values",
          "type": "bytes32[]"
        }
      ],
      "name": "addAttributeSet",
      "outputs": [],
      "payable": false,
      "stateMutability": "nonpayable",
      "type": "function"
    },
    {
      "constant": true,
      "inputs": [
        {
          "name": "interfaceId",
          "type": "bytes4"
        }
      ],
      "name": "supportsInterface",
      "outputs": [
        {
          "name": "",
          "type": "bool"
        }
      ],
      "payable": false,
      "stateMutability": "view",
      "type": "function"
    },
    {
      "constant": true,
      "inputs": [
        {
          "name": "_to",
          "type": "address"
        },
        {
          "name": "_attributeIndex",
          "type": "uint256"
        }
      ],
      "name": "getAttributeByIndex",
      "outputs": [
        {
          "name": "",
          "type": "uint256"
        }
      ],
      "payable": false,
      "stateMutability": "view",
      "type": "function"
    },
    {
      "constant": false,
      "inputs": [
        {
          "name": "_user",
          "type": "address"
        }
      ],
      "name": "approveRequest",
      "outputs": [],
      "payable": false,
      "stateMutability": "nonpayable",
      "type": "function"
    },
    {
      "constant": false,
      "inputs": [
        {
          "name": "_to",
          "type": "address"
        },
        {
          "name": "_attributeIndexes",
          "type": "uint256[]"
        }
      ],
      "name": "assignTo",
      "outputs": [],
      "payable": false,
      "stateMutability": "nonpayable",
      "type": "function"
    },
    {
      "constant": true,
      "inputs": [
        {
          "name": "",
          "type": "uint256"
        }
      ],
      "name": "attributeNames",
      "outputs": [
        {
          "name": "",
          "type": "bytes32"
        }
      ],
      "payable": false,
      "stateMutability": "view",
      "type": "function"
    },
    {
      "constant": true,
      "inputs": [
        {
          "name": "_to",
          "type": "address"
        }
      ],
      "name": "getAttributes",
      "outputs": [
        {
          "name": "",
          "type": "uint256[]"
        }
      ],
      "payable": false,
      "stateMutability": "view",
      "type": "function"
    },
    {
      "constant": true,
      "inputs": [
        {
          "name": "",
          "type": "uint256"
        }
      ],
      "name": "allHolders",
      "outputs": [
        {
          "name": "",
          "type": "address"
        }
      ],
      "payable": false,
      "stateMutability": "view",
      "type": "function"
    },
    {
      "constant": true,
      "inputs": [],
      "name": "getAttributeNames",
      "outputs": [
        {
          "name": "",
          "type": "bytes32[]"
        }
      ],
      "payable": false,
      "stateMutability": "view",
      "type": "function"
    },
    {
      "constant": false,
      "inputs": [
        {
          "name": "_user",
          "type": "address"
        }
      ],
      "name": "discardRequest",
      "outputs": [],
      "payable": false,
      "stateMutability": "nonpayable",
      "type": "function"
    },
    {
      "constant": false,
      "inputs": [],
      "name": "renounceOwnership",
      "outputs": [],
      "payable": false,
      "stateMutability": "nonpayable",
      "type": "function"
    },
    {
      "constant": false,
      "inputs": [
        {
          "name": "_to",
          "type": "address"
        },
        {
          "name": "_attributeIndex",
          "type": "uint256"
        },
        {
          "name": "_modifiedValueIndex",
          "type": "uint256"
        }
      ],
      "name": "modifyAttributeByIndex",
      "outputs": [],
      "payable": false,
      "stateMutability": "nonpayable",
      "type": "function"
    },
    {
      "constant": true,
      "inputs": [],
      "name": "getAllMembers",
      "outputs": [
        {
          "name": "",
          "type": "address[]"
        }
      ],
      "payable": false,
      "stateMutability": "view",
      "type": "function"
    },
    {
      "constant": false,
      "inputs": [
        {
          "name": "_attributeIndexes",
          "type": "uint256[]"
        }
      ],
      "name": "requestMembership",
      "outputs": [],
      "payable": true,
      "stateMutability": "payable",
      "type": "function"
    },
    {
      "constant": true,
      "inputs": [
        {
          "name": "",
          "type": "uint256"
        },
        {
          "name": "",
          "type": "uint256"
        }
      ],
      "name": "attributeValueCollection",
      "outputs": [
        {
          "name": "",
          "type": "bytes32"
        }
      ],
      "payable": false,
      "stateMutability": "view",
      "type": "function"
    },
    {
      "constant": true,
      "inputs": [],
      "name": "owner",
      "outputs": [
        {
          "name": "",
          "type": "address"
        }
      ],
      "payable": false,
      "stateMutability": "view",
      "type": "function"
    },
    {
      "constant": true,
      "inputs": [],
      "name": "isOwner",
      "outputs": [
        {
          "name": "",
          "type": "bool"
        }
      ],
      "payable": false,
      "stateMutability": "view",
      "type": "function"
    },
    {
      "constant": true,
      "inputs": [
        {
          "name": "",
          "type": "address"
        }
      ],
      "name": "currentHolders",
      "outputs": [
        {
          "name": "hasToken",
          "type": "bool"
        }
      ],
      "payable": false,
      "stateMutability": "view",
      "type": "function"
    },
    {
      "constant": false,
      "inputs": [],
      "name": "forfeitMembership",
      "outputs": [],
      "payable": true,
      "stateMutability": "payable",
      "type": "function"
    },
    {
      "constant": true,
      "inputs": [
        {
          "name": "_to",
          "type": "address"
        }
      ],
      "name": "isCurrentMember",
      "outputs": [
        {
          "name": "",
          "type": "bool"
        }
      ],
      "payable": false,
      "stateMutability": "view",
      "type": "function"
    },
    {
      "constant": true,
      "inputs": [],
      "name": "currentMemberCount",
      "outputs": [
        {
          "name": "",
          "type": "uint256"
        }
      ],
      "payable": false,
      "stateMutability": "view",
      "type": "function"
    },
    {
      "constant": false,
      "inputs": [
        {
          "name": "_from",
          "type": "address"
        }
      ],
      "name": "revokeFrom",
      "outputs": [],
      "payable": false,
      "stateMutability": "nonpayable",
      "type": "function"
    },
    {
      "constant": true,
      "inputs": [],
      "name": "getCurrentMemberCount",
      "outputs": [
        {
          "name": "",
          "type": "uint256"
        }
      ],
      "payable": false,
      "stateMutability": "view",
      "type": "function"
    },
    {
      "constant": true,
      "inputs": [
        {
          "name": "_index",
          "type": "uint256"
        }
      ],
      "name": "getAttributeExhaustiveCollection",
      "outputs": [
        {
          "name": "",
          "type": "bytes32[]"
        }
      ],
      "payable": false,
      "stateMutability": "view",
      "type": "function"
    },
    {
      "constant": false,
      "inputs": [
        {
          "name": "newOwner",
          "type": "address"
        }
      ],
      "name": "transferOwnership",
      "outputs": [],
      "payable": false,
      "stateMutability": "nonpayable",
      "type": "function"
    },
    {
      "constant": true,
      "inputs": [
        {
          "name": "",
          "type": "address"
        }
      ],
      "name": "pendingRequests",
      "outputs": [
        {
          "name": "isPending",
          "type": "bool"
        }
      ],
      "payable": false,
      "stateMutability": "view",
      "type": "function"
    },
    {
      "inputs": [
        {
          "name": "_orgName",
          "type": "bytes32"
        },
        {
          "name": "_orgSymbol",
          "type": "bytes32"
        }
      ],
      "payable": false,
      "stateMutability": "nonpayable",
      "type": "constructor"
    },
    {
      "anonymous": false,
      "inputs": [
        {
          "indexed": true,
          "name": "_to",
          "type": "address"
        },
        {
          "indexed": false,
          "name": "attributeIndexes",
          "type": "uint256[]"
        }
      ],
      "name": "ApprovedMembership",
      "type": "event"
    },
    {
      "anonymous": false,
      "inputs": [
        {
          "indexed": true,
          "name": "_to",
          "type": "address"
        }
      ],
      "name": "RequestedMembership",
      "type": "event"
    },
    {
      "anonymous": false,
      "inputs": [
        {
          "indexed": true,
          "name": "_to",
          "type": "address"
        },
        {
          "indexed": false,
          "name": "attributeIndexes",
          "type": "uint256[]"
        }
      ],
      "name": "Assigned",
      "type": "event"
    },
    {
      "anonymous": false,
      "inputs": [
        {
          "indexed": true,
          "name": "_to",
          "type": "address"
        }
      ],
      "name": "Revoked",
      "type": "event"
    },
    {
      "anonymous": false,
      "inputs": [
        {
          "indexed": true,
          "name": "_to",
          "type": "address"
        }
      ],
      "name": "Forfeited",
      "type": "event"
    },
    {
      "anonymous": false,
      "inputs": [
        {
          "indexed": true,
          "name": "_to",
          "type": "address"
        },
        {
          "indexed": false,
          "name": "attributeIndex",
          "type": "uint256"
        },
        {
          "indexed": false,
          "name": "prevValueIndex",
          "type": "uint256"
        },
        {
          "indexed": false,
          "name": "prevValue",
          "type": "bytes32"
        },
        {
          "indexed": false,
          "name": "modifiedValueIndex",
          "type": "uint256"
        },
        {
          "indexed": false,
          "name": "modifiedValue",
          "type": "bytes32"
        }
      ],
      "name": "ModifiedAttributes",
      "type": "event"
    },
    {
      "anonymous": false,
      "inputs": [
        {
          "indexed": true,
          "name": "previousOwner",
          "type": "address"
        },
        {
          "indexed": true,
          "name": "newOwner",
          "type": "address"
        }
      ],
      "name": "OwnershipTransferred",
      "type": "event"
    },
    {
      "constant": true,
      "inputs": [],
      "name": "name",
      "outputs": [
        {
          "name": "",
          "type": "bytes32"
        }
      ],
      "payable": false,
      "stateMutability": "view",
      "type": "function"
    },
    {
      "constant": true,
      "inputs": [],
      "name": "symbol",
      "outputs": [
        {
          "name": "",
          "type": "bytes32"
        }
      ],
      "payable": false,
      "stateMutability": "view",
      "type": "function"
    }
  ],
  "bytecode": "0x608060405234801561001057600080fd5b50604051604080620016be833981016040819052815160209092015160008054600160a060020a03191633178082559192600160a060020a0392909216917f8be0079c531659141344cd1fd0a4f28419497f9722a3daafe3b4186f6b6457e0908290a36100a57f01ffc9a700000000000000000000000000000000000000000000000000000000640100000000610149810204565b6100d77f912f7bb200000000000000000000000000000000000000000000000000000000640100000000610149810204565b6101097f83adfb2d00000000000000000000000000000000000000000000000000000000640100000000610149810204565b61013b7f9325454200000000000000000000000000000000000000000000000000000000640100000000610149810204565b6008919091556009556101b8565b7fffffffff00000000000000000000000000000000000000000000000000000000808216141561017857600080fd5b7fffffffff00000000000000000000000000000000000000000000000000000000166000908152600160208190526040909120805460ff19169091179055565b6114f680620001c86000396000f3006080604052600436106101685763ffffffff7c0100000000000000000000000000000000000000000000000000000000600035041662c6abf9811461016d57806301ffc9a71461019357806304c017c9146101e1578063061dff9a1461021757806306fdde031461023857806315bc94061461024d5780631800622e1461027a578063446d5aa41461029257806346fee28f146103035780634e6762fa146103375780636112e48f1461034c578063715018a61461036d5780637851c0ed146103825780637c0f6b35146103a95780637ec92e59146103be5780638d614e76146103d15780638da5cb5b146103ec5780638f32d59b1461040157806395d89b41146104165780639d824a701461042b578063a324a9cf1461044c578063ae6b114314610454578063bbe0612114610475578063c89ed7aa1461048a578063cb695ef4146104ab578063deaa2600146104c0578063f2fde38b146104d8578063fb22e651146104f9575b600080fd5b34801561017957600080fd5b5061019160048035906024803590810191013561051a565b005b34801561019f57600080fd5b506101cd7fffffffff00000000000000000000000000000000000000000000000000000000600435166105dd565b604080519115158252519081900360200190f35b3480156101ed57600080fd5b50610205600160a060020a0360043516602435610614565b60408051918252519081900360200190f35b34801561022357600080fd5b50610191600160a060020a03600435166106c5565b34801561024457600080fd5b50610205610835565b34801561025957600080fd5b5061019160048035600160a060020a0316906024803590810191013561083c565b34801561028657600080fd5b506102056004356108e8565b34801561029e57600080fd5b506102b3600160a060020a0360043516610907565b60408051602080825283518183015283519192839290830191858101910280838360005b838110156102ef5781810151838201526020016102d7565b505050509050019250505060405180910390f35b34801561030f57600080fd5b5061031b60043561098b565b60408051600160a060020a039092168252519081900360200190f35b34801561034357600080fd5b506102b36109b3565b34801561035857600080fd5b50610191600160a060020a0360043516610a0c565b34801561037957600080fd5b50610191610ab4565b34801561038e57600080fd5b50610191600160a060020a0360043516602435604435610b1e565b3480156103b557600080fd5b506102b3610cdd565b6101916004803560248101910135610d3e565b3480156103dd57600080fd5b50610205600435602435610e5c565b3480156103f857600080fd5b5061031b610e8c565b34801561040d57600080fd5b506101cd610e9b565b34801561042257600080fd5b50610205610eac565b34801561043757600080fd5b506101cd600160a060020a0360043516610eb2565b610191610ec7565b34801561046057600080fd5b506101cd600160a060020a0360043516610f61565b34801561048157600080fd5b50610205610fe7565b34801561049657600080fd5b50610191600160a060020a0360043516610fed565b3480156104b757600080fd5b50610205611040565b3480156104cc57600080fd5b506102b3600435611046565b3480156104e457600080fd5b50610191600160a060020a03600435166110a8565b34801561050557600080fd5b506101cd600160a060020a03600435166110c7565b60038054600181810183557fc2575a0e9e593c00f959f8c92f12db2869c3395a3b0502d05e2516446f71f85b90910185905590546000190160009081526002602090815260408220805493840181558083529082207f756e646566696e656400000000000000000000000000000000000000000000009301929092555b828110156105d657818484838181106105ac57fe5b83546001808201865560009586526020958690209290950293909301359201919091555001610597565b5050505050565b7fffffffff000000000000000000000000000000000000000000000000000000001660009081526001602052604090205460ff1690565b600160a060020a038216600090815260046020526040812060010154821061068b57604080516000805160206114ab833981519152815260206004820152601f60248201527f6461746120646f65736e277420657869737420666f7220746865207573657200604482015290519081900360640190fd5b600160a060020a03831660009081526004602052604090206001018054839081106106b257fe5b9060005260206000200154905092915050565b60006106cf610e9b565b15156106da57600080fd5b50600160a060020a0381166000908152600560205260409020805460ff16151561075357604080516000805160206114ab833981519152815260206004820152601560248201527f4861736e27742073656e74206574686572207965740000000000000000000000604482015290519081900360640190fd5b6107af82826001018054806020026020016040519081016040528092919081815260200182805480156107a557602002820191906000526020600020905b815481526020019060010190808311610791575b50505050506110dc565b81600160a060020a03167f68de97d2b1697dbc8e1b0866f403f9a6b8e991df52cb175c63371b50d8a1407b826001016040518080602001828103825283818154815260200191508054801561082357602002820191906000526020600020905b81548152602001906001019080831161080f575b50509250505060405180910390a25050565b6008545b90565b610844610e9b565b151561084f57600080fd5b61088683838380806020026020016040519081016040528093929190818152602001838360200280828437506110dc945050505050565b82600160a060020a03167f4db82994b51536ac0e5c7f6220346d80decb2a185a0f443e9d1617a43bc8123c83836040518080602001828103825284848281815260200192506020028082843760405192018290039550909350505050a2505050565b60038054829081106108f657fe5b600091825260209091200154905081565b6060600160a060020a038216151561091e57600080fd5b600160a060020a0382166000908152600460209081526040918290206001018054835181840281018401909452808452909183018282801561097f57602002820191906000526020600020905b81548152602001906001019080831161096b575b50505050509050919050565b600680548290811061099957fe5b600091825260209091200154600160a060020a0316905081565b60606003805480602002602001604051908101604052809291908181526020018280548015610a0257602002820191906000526020600020905b815481526001909101906020018083116109ed575b5050505050905090565b6000610a16610e9b565b1515610a2157600080fd5b50600160a060020a0381166000908152600560205260409020805460ff161515610a9a57604080516000805160206114ab833981519152815260206004820152601560248201527f4861736e27742073656e74206574686572207965740000000000000000000000604482015290519081900360640190fd5b805460ff19168155610ab06001820160006113d4565b5050565b610abc610e9b565b1515610ac757600080fd5b60008054604051600160a060020a03909116907f8be0079c531659141344cd1fd0a4f28419497f9722a3daafe3b4186f6b6457e0908390a36000805473ffffffffffffffffffffffffffffffffffffffff19169055565b6000806000610b2b610e9b565b1515610b3657600080fd5b600160a060020a0386166000908152600460205260409020600101548510610bad57604080516000805160206114ab833981519152815260206004820152601f60248201527f6461746120646f65736e277420657869737420666f7220746865207573657200604482015290519081900360640190fd5b600160a060020a0386166000908152600460205260409020600101805486908110610bd457fe5b906000526020600020015492506002600086815260200190815260200160002083815481101515610c0157fe5b90600052602060002001549150836004600088600160a060020a0316600160a060020a0316815260200190815260200160002060010186815481101515610c4457fe5b6000918252602080832090910192909255868152600290915260409020805485908110610c6d57fe5b6000918252602091829020015460408051888152928301869052828101859052606083018790526080830182905251909250600160a060020a038816917f6edc02249d88a118cb5982102dcdeaf2c7e6fd03e89ba030fb6c6ec00dc5a4d6919081900360a00190a2505050505050565b60606006805480602002602001604051908101604052809291908181526020018280548015610a0257602002820191906000526020600020905b8154600160a060020a03168152600190910190602001808311610d17575050505050905090565b6000610d4933610f61565b15610da357604080516000805160206114ab833981519152815260206004820152601060248201527f416c72656164792061206d656d62657200000000000000000000000000000000604482015290519081900360640190fd5b6003548214610e0157604080516000805160206114ab833981519152815260206004820152601c60248201527f4e65656420746f20696e70757420616c6c206174747269627574657300000000604482015290519081900360640190fd5b50336000908152600560205260409020805460ff191660019081178255610e2b90820184846113f2565b5060405133907fc0e2b0436d54094aabbe5e320d8bf0bdfb4f1510c1e404d767a91638433fe69a90600090a2505050565b600260205281600052604060002081815481101515610e7757fe5b90600052602060002001600091509150505481565b600054600160a060020a031690565b600054600160a060020a0316331490565b60095490565b60046020526000908152604090205460ff1681565b610ed033610f61565b1515610f2b57604080516000805160206114ab833981519152815260206004820152601460248201527f4e6f7420612063757272656e74206d656d626572000000000000000000000000604482015290519081900360640190fd5b610f34336112c4565b60405133907fc4c0d862b8fbecdc09138bf871948c94873f051ad636f7aa385814c8818fc73c90600090a2565b6000600160a060020a0382161515610fc857604080516000805160206114ab833981519152815260206004820152601e60248201527f5a65726f20616464726573732063616e27742062652061206d656d6265720000604482015290519081900360640190fd5b50600160a060020a031660009081526004602052604090205460ff1690565b60075481565b610ff5610e9b565b151561100057600080fd5b611009816112c4565b604051600160a060020a038216907fb6fa8b8bd5eab60f292eca876e3ef90722275b785309d84b1de113ce0b8c4e7490600090a250565b60075490565b60008181526002602090815260409182902080548351818402810184019094528084526060939283018282801561097f57602002820191906000526020600020905b815481526001909101906020018083116110885750505050509050919050565b6110b0610e9b565b15156110bb57600080fd5b6110c481611357565b50565b60056020526000908152604090205460ff1681565b6110e461143d565b6000600160a060020a038416151561114b57604080516000805160206114ab833981519152815260206004820152601c60248201527f43616e27742061737369676e20746f207a65726f206164647265737300000000604482015290519081900360640190fd5b6003548351146111aa57604080516000805160206114ab833981519152815260206004820152601c60248201527f4e65656420746f20696e70757420616c6c206174747269627574657300000000604482015290519081900360640190fd5b6001808352600160a060020a03851660009081526004602090815260409091208451815460ff1916901515178155818501518051869492936111f0938501920190611455565b506000925050505b825181101561125757600160a060020a0384166000908152600460205260409020835160019091019084908390811061122d57fe5b602090810290910181015182546001818101855560009485529290932090920191909155016111f8565b505060068054600180820183556000929092527ff652222313e28459528d920b65115c16c04f3efc82aaedc97be59f3f377c0d3f01805473ffffffffffffffffffffffffffffffffffffffff1916600160a060020a03949094169390931790925550600780549091019055565b6000600160a060020a038216151561132b57604080516000805160206114ab833981519152815260206004820152601e60248201527f43616e2774207265766f6b652066726f6d207a65726f20616464726573730000604482015290519081900360640190fd5b50600160a060020a03166000908152600460205260409020805460ff1916905560078054600019019055565b600160a060020a038116151561136c57600080fd5b60008054604051600160a060020a03808516939216917f8be0079c531659141344cd1fd0a4f28419497f9722a3daafe3b4186f6b6457e091a36000805473ffffffffffffffffffffffffffffffffffffffff1916600160a060020a0392909216919091179055565b50805460008255906000526020600020908101906110c49190611490565b82805482825590600052602060002090810192821561142d579160200282015b8281111561142d578235825591602001919060010190611412565b50611439929150611490565b5090565b60408051808201909152600081526060602082015290565b82805482825590600052602060002090810192821561142d579160200282015b8281111561142d578251825591602001919060010190611475565b61083991905b808211156114395760008155600101611496560008c379a000000000000000000000000000000000000000000000000000000000a165627a7a723058207bd012acf628bf3b09e7ca5dcd88574e7891e0c3bc83f37bd58482e07f226c0e0029",
  "source": "pragma solidity ^0.4.25;\n\nimport \"./MembershipVerificationToken.sol\";\nimport \"./Protocol/IERC1261.sol\";\n\n\ncontract ERC1261MetaData is MembershipVerificationToken, IERC1261Metadata {\n\n    bytes32 internal orgName;\n    bytes32 internal orgSymbol;\n    \n    constructor(bytes32 _orgName, bytes32 _orgSymbol) public {\n        _registerInterface(0x93254542);\n        //_supportedInterfaces[0x93254542] = true;\n        orgName = _orgName;\n        orgSymbol = _orgSymbol;\n    }\n\n    function name() external view returns (bytes32) {\n        return orgName;\n    }\n    \n    function symbol() external view returns (bytes32) {\n        return orgSymbol;\n    }\n}",
  "sourcePath": "/home/sagar/Desktop/membership contract/git eg/MembershipVerificationToken/contracts/ERC1261MetaData.sol",
  "compiler": {
    "name": "solc",
    "version": "0.4.25+commit.59dbf8f1.Emscripten.clang"
  },
  "schemaVersion": "3.0.1",
  "updatedAt": "2019-01-18T08:20:59.213Z",
  "devdoc": {
    "methods": {
      "isOwner()": {
        "return": "true if `msg.sender` is the owner of the contract."
      },
      "owner()": {
        "return": "the address of the owner."
      },
      "renounceOwnership()": {
        "details": "Allows the current owner to relinquish control of the contract."
      },
      "supportsInterface(bytes4)": {
        "details": "implement supportsInterface(bytes4) using a lookup table"
      },
      "transferOwnership(address)": {
        "details": "Allows the current owner to transfer control of the contract to a newOwner.",
        "params": {
          "newOwner": "The address to transfer ownership to."
        }
      }
    }
  },
  "userdoc": {
    "methods": {
      "renounceOwnership()": {
        "notice": "Renouncing to ownership will leave the contract without an owner. It will not be possible to call the functions with the `onlyOwner` modifier anymore."
      }
    }
  }
}