{
  "contractName": "MembershipVerificationToken",
  "abi": [
    {
      "constant": true,
      "inputs": [
        {
          "name": "interfaceId",
          "type": "bytes4"
        }
      ],
      "name": "supportsInterface",
      "outputs": [
        {
          "name": "",
          "type": "bool"
        }
      ],
      "payable": false,
      "stateMutability": "view",
      "type": "function"
    },
    {
      "constant": true,
      "inputs": [
        {
          "name": "",
          "type": "uint256"
        }
      ],
      "name": "attributeNames",
      "outputs": [
        {
          "name": "",
          "type": "bytes32"
        }
      ],
      "payable": false,
      "stateMutability": "view",
      "type": "function"
    },
    {
      "constant": true,
      "inputs": [
        {
          "name": "",
          "type": "uint256"
        }
      ],
      "name": "allHolders",
      "outputs": [
        {
          "name": "",
          "type": "address"
        }
      ],
      "payable": false,
      "stateMutability": "view",
      "type": "function"
    },
    {
      "constant": false,
      "inputs": [],
      "name": "renounceOwnership",
      "outputs": [],
      "payable": false,
      "stateMutability": "nonpayable",
      "type": "function"
    },
    {
      "constant": true,
      "inputs": [
        {
          "name": "",
          "type": "uint256"
        },
        {
          "name": "",
          "type": "uint256"
        }
      ],
      "name": "attributeValueCollection",
      "outputs": [
        {
          "name": "",
          "type": "bytes32"
        }
      ],
      "payable": false,
      "stateMutability": "view",
      "type": "function"
    },
    {
      "constant": true,
      "inputs": [],
      "name": "owner",
      "outputs": [
        {
          "name": "",
          "type": "address"
        }
      ],
      "payable": false,
      "stateMutability": "view",
      "type": "function"
    },
    {
      "constant": true,
      "inputs": [],
      "name": "isOwner",
      "outputs": [
        {
          "name": "",
          "type": "bool"
        }
      ],
      "payable": false,
      "stateMutability": "view",
      "type": "function"
    },
    {
      "constant": true,
      "inputs": [
        {
          "name": "",
          "type": "address"
        }
      ],
      "name": "currentHolders",
      "outputs": [
        {
          "name": "hasToken",
          "type": "bool"
        }
      ],
      "payable": false,
      "stateMutability": "view",
      "type": "function"
    },
    {
      "constant": true,
      "inputs": [],
      "name": "currentMemberCount",
      "outputs": [
        {
          "name": "",
          "type": "uint256"
        }
      ],
      "payable": false,
      "stateMutability": "view",
      "type": "function"
    },
    {
      "constant": false,
      "inputs": [
        {
          "name": "newOwner",
          "type": "address"
        }
      ],
      "name": "transferOwnership",
      "outputs": [],
      "payable": false,
      "stateMutability": "nonpayable",
      "type": "function"
    },
    {
      "constant": true,
      "inputs": [
        {
          "name": "",
          "type": "address"
        }
      ],
      "name": "pendingRequests",
      "outputs": [
        {
          "name": "isPending",
          "type": "bool"
        }
      ],
      "payable": false,
      "stateMutability": "view",
      "type": "function"
    },
    {
      "inputs": [],
      "payable": false,
      "stateMutability": "nonpayable",
      "type": "constructor"
    },
    {
      "anonymous": false,
      "inputs": [
        {
          "indexed": true,
          "name": "_to",
          "type": "address"
        },
        {
          "indexed": false,
          "name": "attributeIndexes",
          "type": "uint256[]"
        }
      ],
      "name": "ApprovedMembership",
      "type": "event"
    },
    {
      "anonymous": false,
      "inputs": [
        {
          "indexed": true,
          "name": "_to",
          "type": "address"
        }
      ],
      "name": "RequestedMembership",
      "type": "event"
    },
    {
      "anonymous": false,
      "inputs": [
        {
          "indexed": true,
          "name": "_to",
          "type": "address"
        },
        {
          "indexed": false,
          "name": "attributeIndexes",
          "type": "uint256[]"
        }
      ],
      "name": "Assigned",
      "type": "event"
    },
    {
      "anonymous": false,
      "inputs": [
        {
          "indexed": true,
          "name": "_to",
          "type": "address"
        }
      ],
      "name": "Revoked",
      "type": "event"
    },
    {
      "anonymous": false,
      "inputs": [
        {
          "indexed": true,
          "name": "_to",
          "type": "address"
        }
      ],
      "name": "Forfeited",
      "type": "event"
    },
    {
      "anonymous": false,
      "inputs": [
        {
          "indexed": true,
          "name": "_to",
          "type": "address"
        },
        {
          "indexed": false,
          "name": "attributeIndex",
          "type": "uint256"
        },
        {
          "indexed": false,
          "name": "prevValueIndex",
          "type": "uint256"
        },
        {
          "indexed": false,
          "name": "prevValue",
          "type": "bytes32"
        },
        {
          "indexed": false,
          "name": "modifiedValueIndex",
          "type": "uint256"
        },
        {
          "indexed": false,
          "name": "modifiedValue",
          "type": "bytes32"
        }
      ],
      "name": "ModifiedAttributes",
      "type": "event"
    },
    {
      "anonymous": false,
      "inputs": [
        {
          "indexed": true,
          "name": "previousOwner",
          "type": "address"
        },
        {
          "indexed": true,
          "name": "newOwner",
          "type": "address"
        }
      ],
      "name": "OwnershipTransferred",
      "type": "event"
    },
    {
      "constant": false,
      "inputs": [
        {
          "name": "_attributeIndexes",
          "type": "uint256[]"
        }
      ],
      "name": "requestMembership",
      "outputs": [],
      "payable": true,
      "stateMutability": "payable",
      "type": "function"
    },
    {
      "constant": false,
      "inputs": [],
      "name": "forfeitMembership",
      "outputs": [],
      "payable": true,
      "stateMutability": "payable",
      "type": "function"
    },
    {
      "constant": false,
      "inputs": [
        {
          "name": "_user",
          "type": "address"
        }
      ],
      "name": "approveRequest",
      "outputs": [],
      "payable": false,
      "stateMutability": "nonpayable",
      "type": "function"
    },
    {
      "constant": false,
      "inputs": [
        {
          "name": "_user",
          "type": "address"
        }
      ],
      "name": "discardRequest",
      "outputs": [],
      "payable": false,
      "stateMutability": "nonpayable",
      "type": "function"
    },
    {
      "constant": false,
      "inputs": [
        {
          "name": "_to",
          "type": "address"
        },
        {
          "name": "_attributeIndexes",
          "type": "uint256[]"
        }
      ],
      "name": "assignTo",
      "outputs": [],
      "payable": false,
      "stateMutability": "nonpayable",
      "type": "function"
    },
    {
      "constant": false,
      "inputs": [
        {
          "name": "_from",
          "type": "address"
        }
      ],
      "name": "revokeFrom",
      "outputs": [],
      "payable": false,
      "stateMutability": "nonpayable",
      "type": "function"
    },
    {
      "constant": false,
      "inputs": [
        {
          "name": "_name",
          "type": "bytes32"
        },
        {
          "name": "values",
          "type": "bytes32[]"
        }
      ],
      "name": "addAttributeSet",
      "outputs": [],
      "payable": false,
      "stateMutability": "nonpayable",
      "type": "function"
    },
    {
      "constant": false,
      "inputs": [
        {
          "name": "_to",
          "type": "address"
        },
        {
          "name": "_attributeIndex",
          "type": "uint256"
        },
        {
          "name": "_modifiedValueIndex",
          "type": "uint256"
        }
      ],
      "name": "modifyAttributeByIndex",
      "outputs": [],
      "payable": false,
      "stateMutability": "nonpayable",
      "type": "function"
    },
    {
      "constant": true,
      "inputs": [],
      "name": "getAllMembers",
      "outputs": [
        {
          "name": "",
          "type": "address[]"
        }
      ],
      "payable": false,
      "stateMutability": "view",
      "type": "function"
    },
    {
      "constant": true,
      "inputs": [],
      "name": "getCurrentMemberCount",
      "outputs": [
        {
          "name": "",
          "type": "uint256"
        }
      ],
      "payable": false,
      "stateMutability": "view",
      "type": "function"
    },
    {
      "constant": true,
      "inputs": [],
      "name": "getAttributeNames",
      "outputs": [
        {
          "name": "",
          "type": "bytes32[]"
        }
      ],
      "payable": false,
      "stateMutability": "view",
      "type": "function"
    },
    {
      "constant": true,
      "inputs": [
        {
          "name": "_to",
          "type": "address"
        }
      ],
      "name": "getAttributes",
      "outputs": [
        {
          "name": "",
          "type": "uint256[]"
        }
      ],
      "payable": false,
      "stateMutability": "view",
      "type": "function"
    },
    {
      "constant": true,
      "inputs": [
        {
          "name": "_index",
          "type": "uint256"
        }
      ],
      "name": "getAttributeExhaustiveCollection",
      "outputs": [
        {
          "name": "",
          "type": "bytes32[]"
        }
      ],
      "payable": false,
      "stateMutability": "view",
      "type": "function"
    },
    {
      "constant": true,
      "inputs": [
        {
          "name": "_to",
          "type": "address"
        },
        {
          "name": "_attributeIndex",
          "type": "uint256"
        }
      ],
      "name": "getAttributeByIndex",
      "outputs": [
        {
          "name": "",
          "type": "uint256"
        }
      ],
      "payable": false,
      "stateMutability": "view",
      "type": "function"
    },
    {
      "constant": true,
      "inputs": [
        {
          "name": "_to",
          "type": "address"
        }
      ],
      "name": "isCurrentMember",
      "outputs": [
        {
          "name": "",
          "type": "bool"
        }
      ],
      "payable": false,
      "stateMutability": "view",
      "type": "function"
    }
  ],
  "bytecode": "0x608060405234801561001057600080fd5b5060008054600160a060020a0319163317808255604051600160a060020a039190911691907f8be0079c531659141344cd1fd0a4f28419497f9722a3daafe3b4186f6b6457e0908290a361008c7f01ffc9a7000000000000000000000000000000000000000000000000000000006401000000006100f5810204565b6100be7f912f7bb2000000000000000000000000000000000000000000000000000000006401000000006100f5810204565b6100f07f83adfb2d000000000000000000000000000000000000000000000000000000006401000000006100f5810204565b610164565b7fffffffff00000000000000000000000000000000000000000000000000000000808216141561012457600080fd5b7fffffffff00000000000000000000000000000000000000000000000000000000166000908152600160208190526040909120805460ff19169091179055565b6114aa806101736000396000f3006080604052600436106101525763ffffffff7c0100000000000000000000000000000000000000000000000000000000600035041662c6abf9811461015757806301ffc9a71461017d57806304c017c9146101cb578063061dff9a1461020157806315bc9406146102225780631800622e1461024f578063446d5aa41461026757806346fee28f146102d85780634e6762fa1461030c5780636112e48f14610321578063715018a6146103425780637851c0ed146103575780637c0f6b351461037e5780637ec92e59146103935780638d614e76146103a65780638da5cb5b146103c15780638f32d59b146103d65780639d824a70146103eb578063a324a9cf1461040c578063ae6b114314610414578063bbe0612114610435578063c89ed7aa1461044a578063cb695ef41461046b578063deaa260014610480578063f2fde38b14610498578063fb22e651146104b9575b600080fd5b34801561016357600080fd5b5061017b6004803590602480359081019101356104da565b005b34801561018957600080fd5b506101b77fffffffff000000000000000000000000000000000000000000000000000000006004351661059d565b604080519115158252519081900360200190f35b3480156101d757600080fd5b506101ef600160a060020a03600435166024356105d4565b60408051918252519081900360200190f35b34801561020d57600080fd5b5061017b600160a060020a0360043516610685565b34801561022e57600080fd5b5061017b60048035600160a060020a031690602480359081019101356107f5565b34801561025b57600080fd5b506101ef6004356108a1565b34801561027357600080fd5b50610288600160a060020a03600435166108c0565b60408051602080825283518183015283519192839290830191858101910280838360005b838110156102c45781810151838201526020016102ac565b505050509050019250505060405180910390f35b3480156102e457600080fd5b506102f0600435610944565b60408051600160a060020a039092168252519081900360200190f35b34801561031857600080fd5b5061028861096c565b34801561032d57600080fd5b5061017b600160a060020a03600435166109c6565b34801561034e57600080fd5b5061017b610a6e565b34801561036357600080fd5b5061017b600160a060020a0360043516602435604435610ad8565b34801561038a57600080fd5b50610288610c97565b61017b6004803560248101910135610cf8565b3480156103b257600080fd5b506101ef600435602435610e16565b3480156103cd57600080fd5b506102f0610e46565b3480156103e257600080fd5b506101b7610e55565b3480156103f757600080fd5b506101b7600160a060020a0360043516610e66565b61017b610e7b565b34801561042057600080fd5b506101b7600160a060020a0360043516610f15565b34801561044157600080fd5b506101ef610f9b565b34801561045657600080fd5b5061017b600160a060020a0360043516610fa1565b34801561047757600080fd5b506101ef610ff4565b34801561048c57600080fd5b50610288600435610ffa565b3480156104a457600080fd5b5061017b600160a060020a036004351661105c565b3480156104c557600080fd5b506101b7600160a060020a036004351661107b565b60038054600181810183557fc2575a0e9e593c00f959f8c92f12db2869c3395a3b0502d05e2516446f71f85b90910185905590546000190160009081526002602090815260408220805493840181558083529082207f756e646566696e656400000000000000000000000000000000000000000000009301929092555b82811015610596578184848381811061056c57fe5b83546001808201865560009586526020958690209290950293909301359201919091555001610557565b5050505050565b7fffffffff000000000000000000000000000000000000000000000000000000001660009081526001602052604090205460ff1690565b600160a060020a038216600090815260046020526040812060010154821061064b576040805160008051602061145f833981519152815260206004820152601f60248201527f6461746120646f65736e277420657869737420666f7220746865207573657200604482015290519081900360640190fd5b600160a060020a038316600090815260046020526040902060010180548390811061067257fe5b9060005260206000200154905092915050565b600061068f610e55565b151561069a57600080fd5b50600160a060020a0381166000908152600560205260409020805460ff161515610713576040805160008051602061145f833981519152815260206004820152601560248201527f4861736e27742073656e74206574686572207965740000000000000000000000604482015290519081900360640190fd5b61076f828260010180548060200260200160405190810160405280929190818152602001828054801561076557602002820191906000526020600020905b815481526020019060010190808311610751575b5050505050611090565b81600160a060020a03167f68de97d2b1697dbc8e1b0866f403f9a6b8e991df52cb175c63371b50d8a1407b82600101604051808060200182810382528381815481526020019150805480156107e357602002820191906000526020600020905b8154815260200190600101908083116107cf575b50509250505060405180910390a25050565b6107fd610e55565b151561080857600080fd5b61083f8383838080602002602001604051908101604052809392919081815260200183836020028082843750611090945050505050565b82600160a060020a03167f4db82994b51536ac0e5c7f6220346d80decb2a185a0f443e9d1617a43bc8123c83836040518080602001828103825284848281815260200192506020028082843760405192018290039550909350505050a2505050565b60038054829081106108af57fe5b600091825260209091200154905081565b6060600160a060020a03821615156108d757600080fd5b600160a060020a0382166000908152600460209081526040918290206001018054835181840281018401909452808452909183018282801561093857602002820191906000526020600020905b815481526020019060010190808311610924575b50505050509050919050565b600680548290811061095257fe5b600091825260209091200154600160a060020a0316905081565b606060038054806020026020016040519081016040528092919081815260200182805480156109bb57602002820191906000526020600020905b815481526001909101906020018083116109a6575b505050505090505b90565b60006109d0610e55565b15156109db57600080fd5b50600160a060020a0381166000908152600560205260409020805460ff161515610a54576040805160008051602061145f833981519152815260206004820152601560248201527f4861736e27742073656e74206574686572207965740000000000000000000000604482015290519081900360640190fd5b805460ff19168155610a6a600182016000611388565b5050565b610a76610e55565b1515610a8157600080fd5b60008054604051600160a060020a03909116907f8be0079c531659141344cd1fd0a4f28419497f9722a3daafe3b4186f6b6457e0908390a36000805473ffffffffffffffffffffffffffffffffffffffff19169055565b6000806000610ae5610e55565b1515610af057600080fd5b600160a060020a0386166000908152600460205260409020600101548510610b67576040805160008051602061145f833981519152815260206004820152601f60248201527f6461746120646f65736e277420657869737420666f7220746865207573657200604482015290519081900360640190fd5b600160a060020a0386166000908152600460205260409020600101805486908110610b8e57fe5b906000526020600020015492506002600086815260200190815260200160002083815481101515610bbb57fe5b90600052602060002001549150836004600088600160a060020a0316600160a060020a0316815260200190815260200160002060010186815481101515610bfe57fe5b6000918252602080832090910192909255868152600290915260409020805485908110610c2757fe5b6000918252602091829020015460408051888152928301869052828101859052606083018790526080830182905251909250600160a060020a038816917f6edc02249d88a118cb5982102dcdeaf2c7e6fd03e89ba030fb6c6ec00dc5a4d6919081900360a00190a2505050505050565b606060068054806020026020016040519081016040528092919081815260200182805480156109bb57602002820191906000526020600020905b8154600160a060020a03168152600190910190602001808311610cd1575050505050905090565b6000610d0333610f15565b15610d5d576040805160008051602061145f833981519152815260206004820152601060248201527f416c72656164792061206d656d62657200000000000000000000000000000000604482015290519081900360640190fd5b6003548214610dbb576040805160008051602061145f833981519152815260206004820152601c60248201527f4e65656420746f20696e70757420616c6c206174747269627574657300000000604482015290519081900360640190fd5b50336000908152600560205260409020805460ff191660019081178255610de590820184846113a6565b5060405133907fc0e2b0436d54094aabbe5e320d8bf0bdfb4f1510c1e404d767a91638433fe69a90600090a2505050565b600260205281600052604060002081815481101515610e3157fe5b90600052602060002001600091509150505481565b600054600160a060020a031690565b600054600160a060020a0316331490565b60046020526000908152604090205460ff1681565b610e8433610f15565b1515610edf576040805160008051602061145f833981519152815260206004820152601460248201527f4e6f7420612063757272656e74206d656d626572000000000000000000000000604482015290519081900360640190fd5b610ee833611278565b60405133907fc4c0d862b8fbecdc09138bf871948c94873f051ad636f7aa385814c8818fc73c90600090a2565b6000600160a060020a0382161515610f7c576040805160008051602061145f833981519152815260206004820152601e60248201527f5a65726f20616464726573732063616e27742062652061206d656d6265720000604482015290519081900360640190fd5b50600160a060020a031660009081526004602052604090205460ff1690565b60075481565b610fa9610e55565b1515610fb457600080fd5b610fbd81611278565b604051600160a060020a038216907fb6fa8b8bd5eab60f292eca876e3ef90722275b785309d84b1de113ce0b8c4e7490600090a250565b60075490565b60008181526002602090815260409182902080548351818402810184019094528084526060939283018282801561093857602002820191906000526020600020905b8154815260019091019060200180831161103c5750505050509050919050565b611064610e55565b151561106f57600080fd5b6110788161130b565b50565b60056020526000908152604090205460ff1681565b6110986113f1565b6000600160a060020a03841615156110ff576040805160008051602061145f833981519152815260206004820152601c60248201527f43616e27742061737369676e20746f207a65726f206164647265737300000000604482015290519081900360640190fd5b60035483511461115e576040805160008051602061145f833981519152815260206004820152601c60248201527f4e65656420746f20696e70757420616c6c206174747269627574657300000000604482015290519081900360640190fd5b6001808352600160a060020a03851660009081526004602090815260409091208451815460ff1916901515178155818501518051869492936111a4938501920190611409565b506000925050505b825181101561120b57600160a060020a038416600090815260046020526040902083516001909101908490839081106111e157fe5b602090810290910181015182546001818101855560009485529290932090920191909155016111ac565b505060068054600180820183556000929092527ff652222313e28459528d920b65115c16c04f3efc82aaedc97be59f3f377c0d3f01805473ffffffffffffffffffffffffffffffffffffffff1916600160a060020a03949094169390931790925550600780549091019055565b6000600160a060020a03821615156112df576040805160008051602061145f833981519152815260206004820152601e60248201527f43616e2774207265766f6b652066726f6d207a65726f20616464726573730000604482015290519081900360640190fd5b50600160a060020a03166000908152600460205260409020805460ff1916905560078054600019019055565b600160a060020a038116151561132057600080fd5b60008054604051600160a060020a03808516939216917f8be0079c531659141344cd1fd0a4f28419497f9722a3daafe3b4186f6b6457e091a36000805473ffffffffffffffffffffffffffffffffffffffff1916600160a060020a0392909216919091179055565b50805460008255906000526020600020908101906110789190611444565b8280548282559060005260206000209081019282156113e1579160200282015b828111156113e15782358255916020019190600101906113c6565b506113ed929150611444565b5090565b60408051808201909152600081526060602082015290565b8280548282559060005260206000209081019282156113e1579160200282015b828111156113e1578251825591602001919060010190611429565b6109c391905b808211156113ed576000815560010161144a560008c379a000000000000000000000000000000000000000000000000000000000a165627a7a7230582042e3ed6f94af14368fc155854de38e37214909f7910ed4e4fe6c152d9323f8570029",
  "source": "pragma solidity ^0.4.25;\n\nimport \"./Protocol/Ownable.sol\";\nimport \"./Protocol/ERC165.sol\";\nimport \"./Protocol/IERC1261.sol\";\n\n\ncontract MembershipVerificationToken is IERC1261, Ownable, ERC165 {\n    struct MemberData {\n        bool hasToken;\n        uint[] data;\n    }\n\n    struct PendingRequest {\n        bool isPending;\n        uint[] attributes;\n    }\n\n    mapping(uint => bytes32[]) public attributeValueCollection;\n\n    bytes32[] public attributeNames;\n\n    mapping(address => MemberData) public currentHolders;\n    mapping(address => PendingRequest) public pendingRequests;\n\n    address[] public allHolders;\n\n    uint public currentMemberCount;\n\n    event ApprovedMembership(address indexed _to, uint[] attributeIndexes);\n    event RequestedMembership(address indexed _to);\n    event Assigned(address indexed _to, uint[] attributeIndexes);\n    event Revoked(address indexed _to);\n    event Forfeited(address indexed _to);\n    event ModifiedAttributes(address indexed _to, uint attributeIndex, uint prevValueIndex, bytes32 prevValue, uint modifiedValueIndex, bytes32 modifiedValue);\n\n    constructor () public {\n        _registerInterface(0x912f7bb2); //IERC1261\n        _registerInterface(0x83adfb2d); //Ownable\n    }\n\n    modifier isCurrentHolder {\n        require(isCurrentMember(msg.sender), \"Not a current member\");\n        _;\n    }\n\n    function requestMembership(uint[] _attributeIndexes) external payable {\n        require(!isCurrentMember(msg.sender), \"Already a member\");\n        require(_attributeIndexes.length == attributeNames.length, \"Need to input all attributes\");\n        //Do some checks before assigning membership\n        PendingRequest storage request = pendingRequests[msg.sender];\n        request.isPending = true;\n        request.attributes = _attributeIndexes;\n        emit RequestedMembership(msg.sender);\n    }\n\n    function forfeitMembership() external isCurrentHolder payable {\n        _revoke(msg.sender);\n        emit Forfeited(msg.sender);\n    }\n\n    function approveRequest(address _user) external onlyOwner {\n        PendingRequest storage request = pendingRequests[_user];\n        require(request.isPending, \"Hasn't sent ether yet\");\n        _assign(_user, request.attributes);\n        emit ApprovedMembership(_user, request.attributes);\n    }\n\n    function discardRequest(address _user) external onlyOwner {\n        PendingRequest storage request = pendingRequests[_user];\n        require(request.isPending, \"Hasn't sent ether yet\");\n        request.isPending = false;\n        delete request.attributes;\n    }\n\n    function assignTo(address _to, uint[] _attributeIndexes) external onlyOwner {\n        _assign(_to, _attributeIndexes);\n        emit Assigned(_to, _attributeIndexes);\n    }\n\n    function revokeFrom(address _from) external onlyOwner {\n        _revoke(_from);\n        emit Revoked(_from);\n    }\n\n    function addAttributeSet(bytes32 _name, bytes32[] values) external {\n        attributeNames.push(_name);\n        bytes32[] storage storedValues = attributeValueCollection[attributeNames.length - 1];\n        storedValues.push(0x756e646566696e65640000000000000000000000000000000000000000000000);\n        for (uint index = 0; index < values.length; index++) {\n            storedValues.push(values[index]);\n        }\n    }\n\n    function modifyAttributeByIndex(address _to, uint _attributeIndex, uint _modifiedValueIndex) external onlyOwner {\n        // uint attributeIndex = getIndexOfAttribute(_attributeName);\n        require(currentHolders[_to].data.length > _attributeIndex, \"data doesn't exist for the user\");\n        uint prevIndex = currentHolders[_to].data[_attributeIndex];\n        bytes32 prevValue = attributeValueCollection[_attributeIndex][prevIndex];\n        currentHolders[_to].data[_attributeIndex] = _modifiedValueIndex;\n        bytes32 modifiedValue = attributeValueCollection[_attributeIndex][_modifiedValueIndex];\n        emit ModifiedAttributes(_to, _attributeIndex, prevIndex, prevValue, _modifiedValueIndex, modifiedValue);\n    }\n\n    function getAllMembers() external view returns (address[]) {\n        return allHolders;\n    }\n\n    function getCurrentMemberCount() external view returns (uint) {\n        return currentMemberCount;\n    }\n\n    function getAttributeNames() external view returns (bytes32[]) {\n        return attributeNames;\n    }\n\n    function getAttributes(address _to) external view returns (uint[]) {\n        require(_to != address(0));\n        return currentHolders[_to].data;\n    }\n\n    function getAttributeExhaustiveCollection(uint _index) external view returns (bytes32[]) {\n        return attributeValueCollection[_index];\n    }\n\n    function getAttributeByIndex(address _to, uint _attributeIndex) external view returns (uint) {\n        require(currentHolders[_to].data.length > _attributeIndex, \"data doesn't exist for the user\");\n        return currentHolders[_to].data[_attributeIndex];\n    }\n\n    function isCurrentMember(address _to) public view returns (bool) {\n        require(_to != address(0), \"Zero address can't be a member\");\n        return currentHolders[_to].hasToken;\n    }\n    \n    function _assign(address _to, uint[] _attributeIndexes) internal {\n        require(_to != address(0), \"Can't assign to zero address\");        \n        require(_attributeIndexes.length == attributeNames.length, \"Need to input all attributes\");\n        MemberData memory member;\n        member.hasToken = true;\n        currentHolders[_to] = member;\n        for (uint index = 0; index < _attributeIndexes.length; index++) {\n            currentHolders[_to].data.push(_attributeIndexes[index]);            \n        }\n        allHolders.push(_to);\n        currentMemberCount += 1;\n    }\n\n    function _revoke(address _from) internal {\n        require(_from != address(0), \"Can't revoke from zero address\");\n        MemberData storage member = currentHolders[_from];\n        member.hasToken = false;\n        currentMemberCount -= 1;\n    }\n}",
  "sourcePath": "/home/sagar/Desktop/membership contract/git eg/MembershipVerificationToken/contracts/MembershipVerificationToken.sol",
  "compiler": {
    "name": "solc",
    "version": "0.4.25+commit.59dbf8f1.Emscripten.clang"
  },
  "schemaVersion": "3.0.1",
  "updatedAt": "2019-01-18T08:20:59.231Z",
  "devdoc": {
    "methods": {
      "isOwner()": {
        "return": "true if `msg.sender` is the owner of the contract."
      },
      "owner()": {
        "return": "the address of the owner."
      },
      "renounceOwnership()": {
        "details": "Allows the current owner to relinquish control of the contract."
      },
      "supportsInterface(bytes4)": {
        "details": "implement supportsInterface(bytes4) using a lookup table"
      },
      "transferOwnership(address)": {
        "details": "Allows the current owner to transfer control of the contract to a newOwner.",
        "params": {
          "newOwner": "The address to transfer ownership to."
        }
      }
    }
  },
  "userdoc": {
    "methods": {
      "renounceOwnership()": {
        "notice": "Renouncing to ownership will leave the contract without an owner. It will not be possible to call the functions with the `onlyOwner` modifier anymore."
      }
    }
  }
}